:020000040800F2
:1000000040C5002079020008DDE9000871AD000854
:10001000D9E90008F52200086F050108000000007A
:1000200000000000000000000000000031FE000899
:10003000AD2D0008000000006DEA000889FF0008EF
:10004000930200089302000893020008930200083C
:1000500093020008930200083F3800084F38000858
:100060009302000893020008573800089302000822
:10007000930200089302000893020008930200080C
:1000800093020008930200089302000893020008FC
:100090009302000893020008930200085F380008EA
:1000A00093020008930200089302000893020008DC
:1000B0005502010893020008930200089302000809
:1000C00093020008930200089302000893020008BC
:1000D00093020008AD030108930200089302000890
:1000E00047380008930200089302000893020008B2
:1000F000930200089302000893020008930200088C
:10010000930200089302000893020008930200087B
:10011000930200089302000893020008930200086B
:10012000930200089302000893020008930200085B
:10013000930200089302000893020008930200084B
:10014000930200089302000893020008930200083B
:10015000930200089302000893020008930200082B
:10016000930200089302000893020008930200081B
:10017000930200089302000893020008930200080B
:10018000930200089302000800F002F800F065F8FE
:100190000AA090E8000C82448344AAF10107DA45E2
:1001A00001D100F05AF8AFF2090EBAE80F0013F0CF
:1001B000010F18BFFB1A43F001031847F0130200A8
:1001C0001014020010F8013B0A4413F0030408BFA6
:1001D00010F8014B1D1108BF10F8015B641E05D01B
:1001E00010F8016B641E01F8016BF9D1002D15D0D8
:1001F00010F8014B03F00C030C2BA1EB04040ABF15
:1002000010F8013BA4EB8314A4EB032405F10103D4
:1002100014F8016B5B1E01F8016BF9D5914238BFF0
:1002200010F8013BD1D3704700230024002500269D
:10023000103A28BF78C1FBD8520728BF30C148BF49
:100240000B607047782900F07980002070471FB557
:100250001BF034F81FBD10B510BD00F0B1FA114607
:10026000FFF7F5FF1AF0E2FF00F0CFFA03B4FFF753
:10027000F2FF03BC1AF0E4FC094880470948004734
:10028000FEE7FEE7FEE7FEE7FEE7FEE7FEE7FEE746
:10029000FEE7FEE704480549054A064B70470000A3
:1002A0008DFF00088901000840BF002040C50020E4
:1002B00040C1002040C10020704700000FB4044935
:1002C00010B503AA029800F00FFA10BC5DF814FBF9
:1002D000040000202DE9F0410E4604460020206273
:1002E0002046E168884730B3252805D0D4E90121AC
:1002F0009047206A401CF2E7E168204600278847C3
:10030000050018D0A5F14100192802D820354FF476
:1003100000673246294620462760FFF793FF40B129
:10032000012804D0F61D26F007060836D8E7361D4A
:10033000D6E72846DAE7206ABDE8F08170B50446C2
:100340000D4621461068AFF300802188090502D5CB
:100350000F4A7A4402E00E4A7A440E32002104F138
:10036000240305E000F00F060009965D5E54491C69
:100370000028F7D120780023000704D5702D02D083
:1003800009B1022311322046BDE8704000F053B994
:10039000BA10020040EA0103024630B59B0710D1B3
:1003A0004FF0013400E008C208C91D1B9D4315EA47
:1003B000C41FF8D013F0FF0102F8011B0DD01B0A77
:1003C000F8E711F8013B002B02F8013B05D011F8CA
:1003D000013B002B02F8013BF3D130BD10B5431CAB
:1003E00002E010F8011B71B18107FAD14FF0013220
:1003F00002C88C1A8C4314EAC211F9D0C01A0A063A
:1004000003D0C01E10BDC01A10BD0A0401D0801E4A
:1004100010BD0902FCD0401E10BD032A40F23080FE
:1004200010F0030C00F0158011F8013BBCF1020F35
:10043000624498BF11F801CB00F8013B38BF11F8B6
:10044000013BA2F1040298BF00F801CB38BF00F8CD
:10045000013B11F0030300F06780083AC0F0088008
:1004600051F8043B083A51F804CBA0E80810F5E72E
:10047000121D5CBF51F8043B40F8043BAFF3008011
:10048000D20724BF11F8013B11F801CB48BF11F886
:10049000012B24BF00F8013B00F801CB48BF00F856
:1004A000012B7047431A28BF9A427FF6B6AF032A42
:1004B0001044114440F2268010F0030F1EBF11F8C3
:1004C000013D521E00F8013D10F0030F7FF4F6AF1E
:1004D00011F0030300F02D81083AC0F00B8051F8B1
:1004E000043D083A51F804CD40F8043D40F804CDED
:1004F000FFF7F3BF121D5CBF51F8043D40F8043D07
:10050000AFF30080D20724BF11F8013D11F801CDEF
:1005100048BF11F8012C24BF00F8013D00F801CDBF
:1005200048BF00F8012C704710B5203AC0F00B808E
:10053000B1E81850203AA0E81850B1E81850A0E8E7
:100540001850BFF4F5AF5FEA027C24BFB1E8185041
:10055000A0E8185044BF18C918C0BDE810405FEAB1
:10056000827C24BF51F8043B40F8043B08BF70472D
:10057000D20728BF31F8023B48BF11F8012B28BF32
:1005800020F8023B48BF00F8012B704702F0FF0340
:1005900043EA032242EA024200F002B84FF00002AE
:1005A0000429C0F0128010F0030C00F01B80CCF185
:1005B000040CBCF1020F18BF00F8012BA8BF20F8F3
:1005C000022BA1EB0C0100F00DB85FEAC17C24BF47
:1005D00000F8012B00F8012B48BF00F8012B7047F1
:1005E0004FF0000200B5134694469646203922BFCC
:1005F000A0E80C50A0E80C50B1F12001BFF4F7AF17
:10060000090728BFA0E80C5048BF0CC05DF804EBF8
:10061000890028BF40F8042B08BF704748BF20F866
:10062000022B11F0804F18BF00F8012B7047704764
:100630007047704770472DE9F0470D46994692463E
:10064000044600F124080168880604D5E06921F019
:100650001001216000E00120A84201DD471B00E0FD
:100660000027A1697A1902EB0900081AA061207815
:10067000C00602D42046AFF30080002608E0D4E98B
:1006800001211AF806009047206A401C761C20625F
:100690004E45F4DB2078C0060AD52046AFF3008033
:1006A00006E0D4E9012130209047206A401C2062F6
:1006B000381EA7F10107F4DC07E0D4E9012118F89E
:1006C00005009047206A401C2062281EA5F1010504
:1006D000F3DC2046AFF300802078000602D502202C
:1006E000BDE8F0870120FBE7074B70B50D467B4462
:1006F00000F04FF80446284600F05EF810B14FF0C5
:10070000FF3070BD204670BD23A70100431A28BFEB
:100710009A427FF609AF104410F0030F11441EBF38
:1007200011F8013D521E00F8013D10F0030F7FF457
:10073000F6AF103AC0F00A8010B531E91850103AFF
:1007400020E91850BFF4F9AFBDE81040530724BFAB
:1007500031E9081020E9081044BF51F8043D40F881
:10076000043D12F0030F08BF7047D20728BF31F8CD
:10077000023D48BF11F8012C28BF20F8023D48BFB8
:1007800000F8012C7047000001694A1C02610878DA
:10079000704700B58FB0CDE90131002105910549C1
:1007A0007944CDE9031011466846FFF793FD0FB079
:1007B00000BD0000E5FFFFFF007B00F080007047F8
:1007C000754600F02BF8AE4605006946534620F00A
:1007D0000700854618B020B5FFF75CFDBDE8204056
:1007E0004FF000064FF000074FF000084FF0000BED
:1007F00021F00701AC46ACE8C009ACE8C009ACE8A0
:10080000C009ACE8C0098D46704710B50446AFF387
:1008100000802046BDE81040FFF728BD0048704723
:10082000E0BE00201CB5012188030EF009FE062160
:1008300005200FF0FFFA4020009000208DF8040002
:1008400008208DF8050001208DF80600684603F0A9
:1008500017F81CBD1CB5012120200EF0C1FD0020A1
:100860008DF8040003208DF8050002208DF80700A4
:10087000402000906946024803F0D8FF1CBD0000EC
:100880000014024008B517208DF800000C208DF8E8
:10089000010000208DF8020001208DF80300684659
:1008A0000EF09EF808BD1CB5012188030EF0C8FDAE
:1008B000072105200FF0BEFA8020009000208DF85F
:1008C000040008208DF8050001208DF80600684618
:1008D00002F0D6FF1CBD00001CB5012120200EF047
:1008E0007FFD00208DF8040003208DF80500022014
:1008F0008DF80700802000906946024803F096FFBB
:100900001CBD00000014024008B517208DF800003F
:100910000C208DF8010000208DF8020001208DF8D8
:10092000030068460EF05CF808BD1CB50121880381
:100930000EF086FD082105200FF07CFA4FF4807040
:10094000009000208DF8040008208DF8050001209B
:100950008DF80600684602F093FF1CBD1CB501210E
:1009600020200EF03DFD00208DF8040003208DF8BE
:10097000050002208DF80700C0010090694602487A
:1009800003F054FF1CBD00000014024008B51720FE
:100990008DF800000C208DF8010000208DF8020079
:1009A00001208DF8030068460EF01AF808BD1CB54A
:1009B000012188030EF044FD092105200FF03AFAC9
:1009C0004FF40070009000208DF8040008208DF88E
:1009D000050001208DF80600684602F051FF1CBD9D
:1009E0001CB5012120200EF0FBFC00208DF8040036
:1009F00003208DF8050002208DF80700000200900A
:100A00006946024803F012FF1CBD000000140240BA
:100A100008B517208DF800000C208DF8010000208B
:100A20008DF8020001208DF8030068460DF0D8FF14
:100A300008BD1CB5012188030EF002FD0121002034
:100A40000FF0F8F90220009000208DF80400082033
:100A50008DF8050001208DF80600684602F010FFB1
:100A60001CBD00001CB5012108460EF0B9FC002099
:100A70008DF8040003208DF8050002208DF8070092
:100A800000906946014803F0D1FE1CBD0000024001
:100A900008B507208DF800000C208DF8010000201B
:100AA0008DF8020001208DF8030068460DF098FFD4
:100AB00008BD1CB5012188030EF0C2FC0A210520E7
:100AC0000FF0B8F94FF48060009000208DF804001A
:100AD00008208DF8050001208DF80600684602F018
:100AE000CFFE1CBD1CB5012120200EF079FC00209A
:100AF0008DF8040003208DF8050002208DF8070012
:100B0000400200906946024803F090FE1CBD0000C0
:100B10000014024008B528208DF800000C208DF844
:100B2000010000208DF8020001208DF803006846C6
:100B30000DF056FF08BD1CB5012188030EF080FCA6
:100B4000002108460FF076F90120009000208DF872
:100B5000040008208DF8050001208DF80600684685
:100B600002F08EFE1CBD00001CB5012108460EF0EF
:100B700037FC00208DF8040003208DF805000220CA
:100B80008DF80700012000906946024803F04EFEF0
:100B90001CBD00000000024008B506208DF80000D2
:100BA0000C208DF8010000208DF8020001208DF846
:100BB000030068460DF014FF08BD1CB50121880331
:100BC0000EF03EFC042102200FF034F910200090BA
:100BD00000208DF8040008208DF8050001208DF814
:100BE0000600684602F04CFE1CBD00001CB5012149
:100BF00004200EF0F5FB00208DF8040003208DF892
:100C0000050002208DF80700102000906946024878
:100C100003F00CFE1CBD00000008024008B50A20CD
:100C20008DF800000C208DF8010000208DF80200E6
:100C300001208DF8030068460DF0D2FE08BD0000CB
:100C40001CB5012108460EF0CBFB072209210D48F7
:100C500003F034FE07220A210A4803F02FFE4FF466
:100C6000C060009002208DF804008DF8050000207F
:100C70008DF806008DF807006946024803F0D6FD9E
:100C80001CBD00000000024010B50446204600F0E4
:100C900017F8FFF7D5FF00F001F810BD08B52520C3
:100CA0008DF800000C208DF8010000208DF8020066
:100CB00001208DF8030068460DF092FE08BD00008B
:100CC0001FB50446012110200EF0BAFB009400204D
:100CD000ADF80400ADF80600ADF80800ADF80C0062
:100CE0000C20ADF80A00694606480FF0CDFB012242
:100CF00040F2255103480FF0A1FB012101480FF0FC
:100D000067FB1FBD0010014010B56FF004000FF02D
:100D100027F90A4800680A49B0FBF1F00949087050
:100D20000846007800EB4001C1EBC0104FF6FF71A0
:100D300001EAC0000449088010BD0000F09D0020B9
:100D400000127A00080000200A00002070B5044656
:100D50004FF4077094FBF0F0C6B24FF4077094FBA9
:100D6000F0F100FB114085B205E04FF4077000F090
:100D700009F8701EC6B2002EF7D115B1284600F052
:100D800001F870BD0146114A12884A434FF0E02332
:100D90005A6100229A611A46126942F001021A61F0
:100DA00000BF4FF0E022106900F001021AB100F418
:100DB0008032002AF5D04FF0E022126922F00102C1
:100DC0004FF0E0231A6100229A6170470A00002068
:100DD00038B504464FF480410E4803F092FDB0B19F
:100DE00084220421684609F0C5FF9DF802009DF8A1
:100DF000031001F00F0140EA012020809DF800005F
:100E00009DF8011040EA01206080002038BD0120DB
:100E1000FCE700000018024001B581B045F6C05063
:100E2000009008E045F6C050009000BF0098411EB9
:100E300000910028FAD1BDF80400411E89B2019149
:100E40000028EFD10CBD00001CB5012140200EF0A0
:100E5000C7FA00208DF8040003208DF80500022059
:100E60008DF80700400300906946024803F0DEFC5D
:100E70001CBD00000018024010B500BF802000F02B
:100E80002BF80028FAD1FFF7DFFF19F0D1FF1AF095
:100E90002FF819F0EBFF1AF042F81420FFF7BCFF0F
:100EA00019F020FF10BD000010B58020094908800E
:100EB00000F02EF840200749891E088000F028F82D
:100EC00040200449088000F023F880200149891E51
:100ED000088010BD1A04024070B504460B48006833
:100EE00000F0800080B10948006800F0400058B16F
:100EF00000F09EF8204600F071F800F0C3F80546B7
:100F000000F0AEF8284670BD0120FCE71004024056
:100F100008B50020009004E09DF80000401CC0B21D
:100F200000909DF800001E28F6DB08BD1CB50121CD
:100F300002200EF055FA03208DF8050001208DF8EF
:100F400004008DF8060000208DF807004020009076
:100F50006946064803F06AFC802000906946034811
:100F600003F064FC00F07CF81CBD000000040240AB
:100F700010B5802007490880FFF7CAFF40200549C7
:100F80000880FFF7C5FF40200249891C0880FFF751
:100F9000BFFF10BD1804024070B50024002516E004
:100FA0006006040E40200C490880FFF7B1FF0A4894
:100FB0000838006800F0800008B1601CC4B240200E
:100FC0000549891C0880FFF7A3FF681CC5B2082DDE
:100FD000E6DB204670BD00001804024070B50446F0
:100FE000002520E004F0800018B180200F4908801F
:100FF00003E080200D49891C0880FFF789FF40200D
:101000000A490880FFF784FF40200849891C0880AE
:10101000072D02D18020891E08806006040EFFF78C
:1010200077FF681CC5B2082DDCDB70BD18040240D8
:1010300010B580200949088040200880FFF768FF2C
:1010400080200649891C0880FFF762FF4020034981
:10105000891C0880FFF75CFF10BD000018040240E7
:1010600010B58020064908804020891E0880FFF7BF
:101070004FFF80200249891E0880FFF749FF10BDFD
:101080001A04024010B580200C490880FFF740FF89
:1010900040200A490880FFF73BFF084808380068ED
:1010A00000F0800008B1012400E000244020034942
:1010B000891C0880FFF72CFF204610BD1804024051
:1010C00000B59DB0042007900020089006200990EC
:1010D00001200A9000200B900C900D9004200090AD
:1010E000002001900820029001200390002004902D
:1010F0000590069006200E9000200F901090102072
:1011000011900020129013901490159016904FF4A7
:10111000805017900020189019901A90CDF86CD03C
:1011200007A81C900EA803F0EDFA0121062003F099
:10113000CFFA1DB000BD00001CB5012108460EF01D
:101140005FF9012178200EF04BF90C22002157485D
:1011500003F0B4FB0C220121544803F0AFFB0C2236
:101160000421524803F0AAFB0C2205214F4803F04A
:10117000A5FB0C2208214D4803F0A0FB0C220921FD
:101180004A4803F09BFB0C220A21484803F096FBD7
:101190000C220E21454803F091FB0C220F214348FD
:1011A00003F08CFB4CF23370009002208DF80400A9
:1011B00003208DF8050000208DF806008DF807004B
:1011C00069463A4803F032FB0C220721384803F005
:1011D00075FB0C220821364803F070FB0C22092114
:1011E000334803F06BFB0C220A21314803F066FB05
:1011F0000C220B212E4803F061FB0C2211462C48D7
:1012000003F05CFB0C220D21294803F057FB0C2254
:101210000E21274803F052FB0C220F21244803F033
:101220004DFB4FF6807000906946214803F0FEFAAE
:101230000C2201211F4803F041FB0C2202211D4812
:1012400003F03CFB0C2203211A4803F037FB0C226D
:101250000F21184803F032FB0C220E21154803F031
:101260002DFB4CF20E0000906946124803F0DEFAA6
:101270000C220121104803F021FB0C2200210E4812
:1012800003F01CFB0320009069460B4803F0CEFAE4
:101290000C221146084803F011FB4FF480500090D7
:1012A0006946054803F0C2FA1CBD0000000C02406C
:1012B00000100240001402400018024010B5FFF771
:1012C0003BFFFFF7FDFE10BD06E04FF0D8435B5A31
:1012D00020F8023B891C521E002AF6D1704710B537
:1012E00006E030F8024B4FF0D8435C52891C521E86
:1012F000002AF6D110BD000010B500F06FF84FF4D1
:10130000F070344908804FF44870334908808820D1
:101310000DF0F6FD0DF0F9FB0B200DF0F7FD0DF0D3
:10132000E9FB89200DF0ECFD0DF0EFFB02200DF044
:10133000EDFD0DF0DFFB0A2110200DF0EDFD812108
:1013400004200DF0E9FD0DF0D5FB632114200DF014
:10135000E3FD002115200DF0DFFD032116200DF027
:10136000DBFD032117200DF0D7FD0B2118200DF018
:10137000D3FDDF2119200DF0CFFD01211A200DF042
:10138000CBFD1F211B200DF0C7FD00211C200DF0FF
:10139000C3FD16211D200DF0BFFD00211E200DF004
:1013A000BBFD01211F200DF0B7FD802101200DF0B4
:1013B000B3FD00200DF000FD002141200DF0ACFD3B
:1013C0000548038803480288002108460DF042FDC5
:1013D00010BD0000E89D0020EA9D0020704700003D
:1013E00000B599B0012178200DF0FAFF01210846DF
:1013F0000EF006F84CF20370019002208DF8080000
:1014000000208DF80A0003208DF8090001208DF8D6
:101410000B0001A9974803F009FA0C220021954816
:1014200003F04CFA0C220121924803F047FA0C22F7
:101430000821904803F042FA0C2209218D4803F05C
:101440003DFA0C220A218B4803F038FA0C220E21B7
:10145000884803F033FA0C220F21864803F02EFA55
:101460004FF68070019001A9834803F0DFF90C2248
:101470000721814803F022FA0C2208217E4803F05C
:101480001DFA0C2209217C4803F018FA0C220A21CB
:10149000794803F013FA0C220B21774803F00EFA77
:1014A0000C221146744803F009FA0C220D217248EF
:1014B00003F004FA0C220E216F4803F0FFF90C220E
:1014C0000F216D4803F0FAF94FF23F00019001A996
:1014D0006A4803F0ABF90C220021684803F0EEF9EA
:1014E0000C220121654803F0E9F90C22022163482E
:1014F00003F0E4F90C220321604803F0DFF90C2229
:1015000004215E4803F0DAF90C2205215B4803F060
:10151000D5F90C221146594803F0D0F90C220D21BF
:10152000564803F0CBF90C220E21544803F0C6F9BB
:101530000C220F21514803F0C1F93F20019001A96D
:101540004F4803F073F90C2200214D4803F0B6F91F
:101550000C2201214A4803F0B1F90C22022148482B
:1015600003F0ACF90C220321454803F0A7F90C2243
:101570000421434803F0A2F90C220521404803F05E
:101580009DF94FF46050019001A93A4803F04EF9DB
:101590000C220B21374803F091F90C2211463548F3
:1015A00003F08CF90C220D21324803F087F930202A
:1015B000019001A92F4803F039F90C2204212D488C
:1015C00003F07CF90C2205212A4803F077F94FF447
:1015D0000070019001A92A4803F028F90C22092182
:1015E000274803F06BF90320019001A9224803F07A
:1015F0001DF90C220021204803F060F90C22012182
:101600001D4803F05BF94FF48050019001A91C487C
:1016100003F00CF90C221146194803F04FF9002091
:1016200003900490082005900020069007900890F1
:10163000099002200A9000200B900C9010200D9031
:1016400000200E9010900F90119012904FF4805047
:101650001390002014901590169003A817901890DE
:101660000AA803F04FF80121022003F031F819B065
:1016700000BD0000000C02400010024000140240B7
:101680000018024010B540210F4803F03AF9C8B1E4
:10169000402002F0EFF800F050F8C4B20B480168A7
:1016A0000068401C094A106009484454104600680C
:1016B000B0F57A6F02DD002011460860214605A0D2
:1016C000FEF7FCFD10BD0000001402405C9E0020EF
:1016D0009EA800202578200000B585B00120049048
:1016E0008320039003200290482001900020009066
:1016F000FFF7B0F8FFF796F8FFF7C4F8012241F2C0
:101700000C0103A8FFF7EBFD0122110301A8FFF76D
:10171000E6FD012241F204016846FFF7E0FD0122E7
:1017200041F20C0102A8FFF7DAFD012241F20401A7
:1017300004A8FFF7D4FD05B000BD08B501221103D0
:101740006846FFF7C1FDBDF8000008BD01B50122E4
:1017500011036846FFF7C3FD08BD704700B585B0AB
:1017600001200490832003900320029048200190E0
:1017700000200090FFF7B0F8FFF795F8FFF7C4F8E6
:10178000012241F20C2103A8FFF7A9FD01224FF429
:10179000905101A8FFF7A3FD012241F20421684600
:1017A000FFF79DFD012241F20C2102A8FFF797FDF2
:1017B000012241F2042104A8FFF791FD05B000BD0C
:1017C00010B54FF48071084803F09BF850B14FF406
:1017D000807002F04FF800F03DF8044621460348BF
:1017E0000EF0C1FE10BD00000014024000100140C8
:1017F00000B585B00120049083200390032002905F
:101800004820019000200090FFF7A8F8FFF78DF81E
:10181000FFF7BCF8012241F20C4103A8FFF75FFD7E
:1018200001224FF4A05101A8FFF759FD012241F216
:1018300004416846FFF753FD012241F20C4102A822
:10184000FFF74DFD012241F2044104A8FFF747FDD7
:1018500005B000BD08B501224FF4A0516846FFF75E
:1018600033FDBDF8000008BD10B54FF40071044809
:1018700003F047F818B14FF4007001F0FBFF10BD02
:101880000014024000B585B001200490832003902D
:10189000032002904820019000200090FFF7A0F85C
:1018A000FFF785F8FFF7B4F8012241F20C6103A8B5
:1018B000FFF715FD01224FF4B05101A8FFF70FFD0E
:1018C000012241F204616846FFF709FD012241F25D
:1018D0000C6102A8FFF703FD012241F2046104A894
:1018E000FFF7FDFC05B000BD10B50221074803F06D
:1018F00008F848B1022001F0BDFF00F03DF80446B1
:10190000214603480EF02FFE10BD000000000240EB
:101910000010014000B585B00120049083200390A1
:10192000032002904820019000200090FFF79AF8D1
:10193000FFF77FF8FFF7ACF8012241F60C0103A88E
:10194000FFF7CDFC01224FF4C05101A8FFF7C7FCFF
:10195000012241F604016846FFF7C1FC012241F66D
:101960000C0102A8FFF7BBFC012241F6040104A808
:10197000FFF7B5FC05B000BD08B501224FF4C0511A
:101980006846FFF7A1FCBDF8000008BD10B54FF494
:101990008061084802F0B5FF50B14FF4806001F05B
:1019A00069FF00F03DF80446214603480EF0DBFDD8
:1019B00010BD0000001402400010014000B585B0C9
:1019C000012004908320039003200290482001907E
:1019D00000200090FFF786F8FFF76BF8FFF79AF802
:1019E000012241F60C2103A8FFF779FC01224FF4F4
:1019F000D05101A8FFF773FC012241F6042168468B
:101A0000FFF76DFC012241F60C2102A8FFF767FCED
:101A1000012241F6042104A8FFF761FC05B000BDD6
:101A200008B501224FF4D0516846FFF74DFCBDF8D0
:101A3000000008BD10B50121074802F062FF48B15F
:101A4000012001F017FF00F03DF80446214603484D
:101A50000EF089FD10BD00000000024000100140A2
:101A600000B585B0012004908320039003200290EC
:101A70004820019000200090FFF776F8FFF75BF810
:101A8000FFF78AF8012241F60C4103A8FFF727FC73
:101A900001224FF4E05101A8FFF721FC012241F699
:101AA00004416846FFF71BFC012241F60C4102A8E5
:101AB000FFF715FC012241F6044104A8FFF70FFCD3
:101AC00005B000BD08B501224FF4E0516846FFF7AC
:101AD000FBFBBDF8000008BD10B51021074802F05F
:101AE00010FF48B1102001F0C5FE00F03DF804469B
:101AF000214603480EF037FD10BD000000080240EB
:101B00000010014000B585B00120049083200390AF
:101B1000032002904820019000200090FFF766F813
:101B2000FFF74BF8FFF77AF8012241F60C6103A8A2
:101B3000FFF7D5FB01224FF4F05101A8FFF7CFFBCF
:101B4000012241F604616846FFF7C9FB012241F614
:101B50000C6102A8FFF7C3FB012241F6046104A84F
:101B6000FFF7BDFB05B000BD08B501224FF4F051F1
:101B70006846FFF7A9FBBDF8000008BD10B5FFF7E8
:101B8000ABFDFFF7EBFDFFF733FEFFF77BFEFFF743
:101B9000C1FEFFF713FFFFF763FFFFF7B3FF10BDB1
:101BA00010B5FFF7A9FB00200AF05EF9002009F04C
:101BB000FDFB10BD10B5044600F004F8204600F00F
:101BC00011F810BD08B51C208DF8000000208DF81C
:101BD00001008DF8020001208DF8030068460CF02A
:101BE000FFFE08BD3EB50446012108460DF018FC75
:101BF000601E01905320ADF800000020ADF80800F1
:101C0000ADF8020069464FF080400EF08DFB0122D6
:101C1000114690070EF07EFB012188070EF05DFB58
:101C20003EBD000008B56846FFF7D2F888B90A48FB
:101C300000880A4908800A4800880A490880BDF8D7
:101C4000000005490880BDF8020005490880002011
:101C500008BD0120FCE70000D49D0020D89D002095
:101C6000D69D0020DA9D00201CB5012102200DF038
:101C7000B7FB07220A210D4802F020FE07220B21A4
:101C80000A4802F01BFE4FF44060009002208DF8DD
:101C900004008DF8050000208DF806008DF807007F
:101CA0006946024802F0C2FD1CBD0000000402406B
:101CB00010B50446204600F017F8FFF7D5FF00F0F6
:101CC00001F810BD08B527208DF800000D208DF813
:101CD000010000208DF8020001208DF80300684605
:101CE0000CF07EFE08BD00001FB5044601218804EB
:101CF0000DF096FB00940020ADF80400ADF806004E
:101D0000ADF80800ADF80C000C20ADF80A006946EB
:101D100009480EF0B9FB012240F2255106480EF0A9
:101D20008DFB012240F2244103480EF087FB012184
:101D300001480EF04DFB1FBD0048004010B50446A1
:101D4000214651200DF0E8F810BD2DE9F04105467F
:101D50000C4616461F46DDF81880E9B258200DF0F3
:101D6000DBF8291259200DF0D7F8E1B25A200DF016
:101D7000D3F8B8F1000F04D121125B200DF0CCF89C
:101D800005E0802040EA24215B200DF0C5F8F9B27F
:101D90005C200DF0C1F839125D200DF0BDF8F1B2F4
:101DA0005E200DF0B9F831125F200DF0B5F8BDE8F6
:101DB000F081000010B501200449087050200DF09A
:101DC0009FF880200DF0A2F810BD0000DC9D0020DF
:101DD00010B5002406E00CF0BBFF00F0400000B995
:101DE00003E0641C03488442F5D300BF002002498D
:101DF000087010BD801A0600DC9D002038B54468CC
:101E00000546014620460EF0D1FB002808BF38BD2C
:101E1000464A286811280DD006DC0B282AD00E2847
:101E200038D00F2817D07CE0282873D0B0F5107F69
:101E30000AD076E09268002A08BF38BD294601B072
:101E40002046BDE830401047526801B02946204680
:101E5000BDE8304010472546204603F035F8009095
:101E6000406E0468684603F0B5F8002C1CBF284695
:101E7000A04738BD204603F027F80090683002F0F4
:101E80003DFF009803216C3002F05EFF684603F0CE
:101E9000A1F846E0E968486809680D2902D02029C0
:101EA00018D037E0002835DD4FF4807120460EF061
:101EB0003BFC204603F008F8009090F82850684654
:101EC00003F088F815F0020F1ED00121204610F013
:101ED00024F919E0002817DD25464FF480712046CB
:101EE0000EF022FC284602F0EFFF009090F8284008
:101EF000684603F06FF814F0020F08BF38BD0121E7
:101F0000284610F00AF938BD2046BDE838400221C5
:101F100016F02DBCE86820B920464FF480710EF011
:101F200028FB2846BDE838400FF02CB8089F002059
:101F300070B5044686B08069B4F908C0658A002689
:101F40000091CDE90165CDE903C0B4F90C00B4F905
:101F50001050C118B4F90A00B4F90EC010442B4651
:101F6000624600F007F80546616800F09CF906B08B
:101F7000284670BD2DE9F04385B00D46DDE90F61BF
:101F8000DDE90C4C154F4C31CDE90271CDE9004C27
:101F900029460EF045FF05001BD002F095FF1022E8
:101FA000314604900EF01EFD0D4C0499B4E8CD139B
:101FB0003431A1E8CD1394E80D10A1E80D1054F8C8
:101FC0002C0D086004A803F005F820684168284635
:101FD000884705B02846BDE8F0830000FD1D0008D5
:101FE000149F0020F0B5044680688C4989B051F8F0
:101FF00020506068002800F00A81052806D00628D5
:102000007DD0122800F0B48000F004B9E8690028FF
:1020100008BF002651D0D5E90012AB688DE80F004B
:1020200004F110010FC907F0EDFA002655F826005B
:1020300006F09EF9A169E8690A1A216901446069FC
:10204000304404F06DF8A169E8690A1A2169014475
:10205000E069801B04F064F8E169E8690A1A6169C3
:1020600001442069304404F0EFF8E169E8690A1A94
:1020700061690144A069801B04F0E6F8761C022E19
:10208000D4DBA86806F074F9E069E969D4F814C0F3
:10209000431A206942186144801C521E04F064F9FE
:1020A000E169E869A2690B1A61690144101A401CD0
:1020B000921E04F059F9EE6911E055F8260006F079
:1020C00057F9E069831BA069821B60698119206947
:1020D000304404F075F8761C022EEEDB0226D5E9BA
:1020E0000301CDE90001E169606901444B10A16978
:1020F0008A1B811C2069304403F00EFF00E011E0D0
:10210000D5E90501CDE90001E0696169831E01445B
:102110000122A06902EB6101821B2069304403F0B7
:10212000FBFE77E0206802F0CFFE0490206811F0FB
:1021300015F950B1A068002818BF00200AD10498F2
:10214000006F002818BF012004E00498406F0028A9
:1021500018BF0220049901EB8000C56E04A802F0AC
:1021600039FF00231A462846216803F07DFB51E021
:10217000206802F0A9FE0490866E002E08BF04A815
:1021800042D0A168B0F95C70002908BF012103D0DA
:1021900003290CBF0221002100EB8101406D0C6C72
:1021A00006F0EAF8204606F0E3F806A804F0CAF9BB
:1021B000BDF81810A88B0144ADF81810BDF81C101C
:1021C000081AADF81C00BDF81A00801CADF81A0002
:1021D000BDF81E00801EADF81E000498B0F9602006
:1021E000B0F95E1006A805F0EFFB04A802F0F2FEBD
:1021F000022006F005F9304602F066FE3A4606A9CE
:10220000059003F00DFC05A802F0E4FE02E0206852
:1022100010F078FA09B00020F0BD0000C0090208F3
:10222000F0B583B016460D46002804BF03B0F0BDDC
:1022300002F04AFE0190806E0027002808BF2F7030
:1022400011D002F041FE0090FEF7C8F80446701E5F
:1022500084420DDC224628460099FEF7DEF86846E7
:1022600002F0B8FE2F5501A802F0B4FE03B0F0BD95
:102270000446EFE700294FF0100101D00EF054BAE8
:102280000EF077B9002808BF704738B50C460546F0
:1022900002F01AFE00904465684602F09BFE284654
:1022A0000FF058FE38BDF0B583B00F4605004FF073
:1022B00001041CD002F008FE0190866E01A8009671
:1022C00002F088FE3946684607F0CAFF78B10098E8
:1022D0000024B04208D0284602F0F6FD0190009993
:1022E000816601A802F076FE28460FF033FE03B0A7
:1022F0002046F0BD00BFFEE77CB50FF04BF9054668
:10230000002000902B46044A0F210190034803F05F
:1023100067F9044620467CBD3DA50108C8E90108CF
:102320007CB50FF037F90546002000902B46044A93
:1023300012210190034803F053F9044620467CBD66
:10234000C1A80108D0E701082DE9F04389B00028B1
:1023500004BF09B0BDE8F08311296FD013295DD007
:1023600007460C4602F0B0FD0290C06B02F0FFFE83
:10237000804602A802F02EFEA4F14100192898BF61
:102380002034A1460024B8F1000FDCBF09B0BDE83D
:10239000F0830025384602F097FD0590C06B21467A
:1023A00002F0F1FE064605A802F014FE1EB130460A
:1023B00002F08AFD05460395002D57D02878A0F13C
:1023C0004101192998BF2030C5B203A802F002FECE
:1023D0004D454BD1002F04BF09B0BDE8F08338460E
:1023E00002F072FD0190C06B02F0C1FE002818BF20
:1023F000401E844240DC0198B0F93410A1422FD035
:10240000848601A802F0E6FD38460FF0A3FD042102
:1024100038460FF082FE09B0BDE8F083044602F0B2
:1024200053FD0090B0F93450684602F0D3FD09B076
:10243000691C2046BDE8F04300F034BC044602F0BD
:1024400043FD0190B0F9345001A802F0C3FD29000A
:1024500018BF691E204609B0BDE8F04300F022BC59
:1024600001A802F0B7FD09B0BDE8F083641C444543
:102470008FDB09B0BDE8F0830446BCE7002814BF39
:1024800000297047F8B50C46054602F01DFD009086
:10249000C66B684602F09EFD2046FDF79FFF421C7A
:1024A0002146304602F0BCFD28460FF053FDF8BD32
:1024B000F0B54468054685B0204602F005FD019060
:1024C000D0F8886001A802F085FD002E14BF012716
:1024D0000027294620460EF069F8002804BF05B001
:1024E000F0BD286811286AD006DC0B2877D00E28AA
:1024F00076D00F2875D0C8E00027212805D02628DF
:102500002BD0B0F5107F60D0BFE0E86841680029AB
:102510003FDD00680D283CD130460AF013FB00284F
:1025200006DB30460AF00EFB0146204600F0BAFBFF
:10253000002C71D0204602F0C7FC0290D0F8880031
:1025400038B10EF055FD0298C0F8887020460FF0A3
:1025500001FD02A802F03EFD94E0E868012809D0E0
:102560000A2802D00B2815D08FE00A2120460FF050
:10257000D4FD8AE030460AF0E5FA002809DB30464F
:102580000AF0E0FA0146204600F08CFB20460FF0EE
:10259000DDFF7AE0002C78D0204602F095FC009018
:1025A000D0F8880038B10EF023FD0098C0F888708C
:1025B00020460FF0CFFC684602F00CFD65E0002FCE
:1025C00063D1E868007A40BB5FE0E86878B1007AE0
:1025D00040B1012120460FF0A0FD05B0F0BD1DE087
:1025E00031E009E0022120460FF097FDF5E70321D5
:1025F00020460FF092FDF0E72646204602F064FCEC
:102600000290D0F88400046802A802F0E3FC002CD9
:102610001CBF3046A04738E034E02BE0204602F0F3
:1026200053FC0090C06B02F03DFD0098D0F888008C
:102630000EF0DEFC0098D0F8940002F02DFB684606
:1026400002F0C8FC21E0E868416800291DDD01684E
:1026500020290FD009DC092910D00A2918BF1B290D
:1026600013D02046FFF770FEB7E7212918BF2229B3
:10267000F7D10AE0204600F0C5F906E00EF0D6FFDB
:10268000B04202D120460FF061FF28460EF07AFCDE
:10269000A3E7002808BF704738B5044602F014FCD1
:1026A0000090D0F8880040B10EF0A2FC0099002004
:1026B000C1F8880020460FF04DFC684602F08AFC05
:1026C00038BD70B586B0B0F90840458AD0F818C05A
:1026D0000026CDE90254CDE90016CDF810C0B0F9BE
:1026E0000C10B0F91040B0F90EC0B0F90A0019444E
:1026F00010442346624600F003F806B070BD0000A7
:102700002DE9F04784B00DF130081E460D4698E8DB
:102710009A10DFF8B8800CF16C0C8DE80A114FF0BC
:10272000FF3329460EF07CFB05004BD002F0CCFBBA
:102730001022394600900EF055F9009880F88C4030
:10274000234C4C30B4E88E17A0E88E1794E88E1115
:10275000A0E88E1154F8241D40F88419002180F857
:102760009010C686284602F0AFFB0190B0F93810F1
:1027700019B9C06C03F098FF01460198C26AB0F91C
:102780008030126801EB4301561810F011FC074627
:1027900001A802F01FFC32463946284610F042F8E4
:1027A000684602F017FC02F07AFC0646284602F062
:1027B0008BFB0090C663684602F00CFC2068416801
:1027C0002846884704B02846BDE8F087B1240008B1
:1027D000489F00202DE9F041044688B0006802F0CF
:1027E00073FB0690468ED0F8885006A802F0F2FBE4
:1027F000002D18BF012506F00106206810F0AEFD7F
:10280000002D18BF00200FD07D4951F8205060687E
:10281000002800F0EE80022800F0CE8005280CD0C1
:1028200012287DD000F0E8B8002E18BF0120EBD1AF
:10283000002814BF02200320E6E7D5E90123A86A97
:1028400029688DE80F0004F110000FC806F0DAFEC9
:102850005FF0000655F8260005F08AFDA169A86A18
:102860000A1A216901446069304403F059FCA169E6
:10287000A86A0A1A21690144E069801B03F050FC30
:10288000E169A86A0A1A616901442069304403F0C9
:10289000DBFCE169A86A0A1A61690144A069801B2E
:1028A00003F0D2FC761C022ED4DBA86A02281BDDC2
:1028B000A86805F05DFDE169A86AD4F810C00B1A9C
:1028C0000CEB00014A1E616901440CF1020003F0A7
:1028D0004BFDE169A86AA2690B1A61690144101AEB
:1028E000401C921E03F040FDD5E90301CDE9000133
:1028F000E1696069A26901444B10A96AD4F810C06B
:10290000521A8C44811C604603F006FBD5E9050190
:10291000CDE90001A069AB6A6169C21AE06900E013
:1029200019E001444FF0010C0CEB6101D4F810C028
:102930009C44831E604603F0EFFA686A05F018FDB8
:10294000E2696169A369501A181A401C091D121F17
:1029500003F07AFC50E0206802F0B6FA0090B0F87C
:102960008060B0F98280C76C684602F033FB208A31
:10297000B11C0844ADF80800A08A801CADF80A001C
:10298000A08BA18A401A218B891B081AC01EADF8A2
:102990000C00A08B801EADF80E00022005F030FD6B
:1029A000384605F0E9FC286A05F0E2FC424602A937
:1029B000206A03F035F81FE06169E0694FF0FF32EB
:1029C000401AA0F1080102EB6106411CA269801BBC
:1029D0004410A2EB6107E86905F0CAFC002E0BDB8E
:1029E000BA19B91B204603F09BFB641C761EF7D571
:1029F00002E020680FF086FE08B00020BDE8F081FC
:102A0000D0090208002808BF70472DE9F04F9DB09B
:102A1000064602F059FA0E9030460EF047FF824605
:102A20000E98B0F9367090F89010099190F88C805B
:102A3000D0F83C90B0F934000690484602F097FB7D
:102A400004460E98B0F88E100C91B0F982100791E0
:102A5000C16C0891D0E90012CDE90412D0F894506D
:102A6000016D1091416D1191816D1291C16D1391A4
:102A7000016E1491416E1591016F1691416F17917E
:102A8000806F18900EA802F0A5FA30460EF06DFE89
:102A900002F01AFA0D90D0F800B00DA802F09AFAE0
:102AA0004FEA2B4042420FFA8BF0414204A804F057
:102AB0008BFF18F0020F1ABFBDF81200C01BBDF843
:102AC0001600ADF8120030460EF04FFE0221CDF890
:102AD00000A0CDE901710146BDF91230BDF9102009
:102AE000002009F0C0FF074618F0010F07D0384654
:102AF00009990AF0B0FA012138460AF0DFF94FF0DF
:102B00000008002C0BD94146484602F03CFB014628
:102B1000384609F0DFFC08F101084445F3D80024E9
:102B20000DF14008214658F8242038460AF0EFF904
:102B3000641C032CF6D300240DF14C08214658F8F0
:102B4000242038460AF099FB641C032CF6D3002499
:102B50000DF15808214658F8242038460AF05EFA4C
:102B6000641C032CF6D315B3284602F0ADF90F9080
:102B700030F8028B00240546B8F1000FC8BF4FF0B3
:102B8000010911DD05EBD40004F00701007809FA12
:102B900001F1084214BF01220022214638460AF002
:102BA000E2F9641C4445EDDB0FA802F013FA384645
:102BB0000C990AF00DFA384608990AF0BEF9384621
:102BC00007990AF048FB38460FF0C0FC31463846FA
:102BD0000AF012FA384606990AF057FA01213046EF
:102BE0000FF09BFA304602F06FF90E90C0F8887033
:102BF0000EA802F0EFF91DB0BDE8F08F38B5002443
:102C000038B102F061F90090B0F93440684602F042
:102C1000E1F9204638BD002808BF7047F8B50C46DA
:102C2000074602F051F90090D0F88850C06C03F0CC
:102C30003BFD06460098C464684602F0CBF938466E
:102C400000F07DF838460FF085F9002D08BFF8BD7B
:102C5000204603F029FDB04205D03846FFF719FDA4
:102C60003846FFF7CFFE214628460AF066F9F8BD40
:102C7000F8B50C46002698B102F026F90090B0F99C
:102C80003660D0F88850C486684602F0A3F93DB19A
:102C900028460EF00BFE0146224628460FF0C2FDE4
:102CA0003046F8BD38B50C46050008BF38BD02F007
:102CB0000BF90090C06B02F05AFA002818BF401EB2
:102CC000844214DC0098B0F93410A1420BD0848601
:102CD000684602F07FF928460FF03CF904212846A7
:102CE0000FF01BFA38BD684602F074F938BD04468F
:102CF000E8E7002808BF704738B50C46054602F0E3
:102D0000E3F80090A0F88240684602F063F9284694
:102D10000FF020F938BD002808BF704738B50C46C1
:102D2000054602F0D1F800900487684602F052F997
:102D3000284600F004F828460FF00CF938BDF8B525
:102D4000044602F0C1F801460090B0F938000028AE
:102D500004BFC86C03F0A8FC0099CA6AB1F98030BE
:102D6000126800EB43001518084610F021F90646DA
:102D7000684602F02FF92A46314620460FF052FDF0
:102D8000F8BD38B50D46002402F09EF80090C06BE7
:102D9000294602F0F8F90546684602F01BF91DB114
:102DA000284602F091F80446204638BD70470000DE
:102DB00070B50025002420E0022C0AD12E480078AE
:102DC000FEF7C4FC2C48007805440A20FDF7BEFF3E
:102DD00011E02A49085DFEF7B9FC14B12748005DEF
:102DE0000544032C03D12548005D254908700A20BD
:102DF000FDF7ACFF00BF601CC4B2042CDCDB002478
:102E00000BE02049085DFEF7A1FC1E48005D05446B
:102E10000A20FDF79BFF601CC4B2082CF1DB1A49A5
:102E2000098888B2FEF792FC0A20FDF78FFF16484A
:102E3000006805442846E91705EB11610912A5EB66
:102E40000125A8B2FEF782FC0A20FDF77FFF0320D0
:102E5000FEF77CFC1E20FDF779FF022018F068F8D1
:102E60000A480068012802D00220084908600020B2
:102E70000749087070BD0000719E0020309E002040
:102E8000649E002058BC0020689E0020809E002088
:102E9000589E0020002808BF70472DE9F04F91B0E0
:102EA0000E46044602F010F8039090F854A0D0F8B3
:102EB0003490876DC56C03A802F08CF827B13146B9
:102EC0002046B84700F0B8B901274FF00008122E8D
:102ED00075D006DC082E73D0102E72D0112E3DD086
:102EE00006E0132E70D01D2E00F0F3801E2E6AD047
:102EF000202EC0F2A181BAF1000F00F0018120461E
:102F000001F0E2FF0590D0F834A0D0F84C9005A86D
:102F100002F060F8BAF1000F00F0F280504601F0C4
:102F2000D3FF82464946069005F062FC8146504632
:102F3000FDF754FA484540F2E080D144484605F098
:102F400013FC09EB00014846FDF724FA06A802F03D
:102F500041F8052120460FF0E0F8D1E0B9F1000F6B
:102F600000F06A81484601F0AFFF0646294604900A
:102F700005F03EFC0644304605F0F0FB0546CDF872
:102F8000088005F0FFFB0746681C1FFA80F84046E2
:102F900005F0F8FB0546AF420CD1414602A805F00A
:102FA000D7FB2A4602A93046FDF737FA052120460D
:102FB0000FF0B3F804A802F00DF800F03DB92FE0CF
:102FC0003AE033E000E059E0B9F1000F00F034815D
:102FD000484601F079FF06462946049005F008FCB2
:102FE0000644304605F0BAFB0546CDF8088005F0EA
:102FF000C9FB8046681E87B2384605F0C3FB05460C
:10300000A845D7D1394602A805F0A2FB2A4602A955
:103010003046FDF702FA052120460FF07EF8C9E799
:10302000691C204600F0D8FB00F006B9691E204656
:1030300000F0D2FB00F000B9002D00F0FD80691E09
:10304000204600F0C9FB204601F03EFF0190C76C0E
:10305000456B01A801F0BEFF002D00F0ED80284671
:1030600001F032FF06463946029005F0C1FB0546E5
:103070003046FDF7B3F9A84229D918E0204601F0FF
:1030800023FF0190C76C456B01A801F0A3FF002D41
:103090007ED0284601F018FF06463946029005F01A
:1030A000A7FB05463046FDF799F9A8420FD93544EC
:1030B000284605F059FB29182846FDF76BF902A8A8
:1030C00001F088FF052120460FF027F8B4E002A8A0
:1030D00010E0204601F0F8FE0390BAF1010F08BF9E
:1030E00080F8548005D080F854702946204600F0BE
:1030F00073FB03A801F06EFF9EE006A801F06AFFD3
:10310000B0B20890204601F0DFFE06460290B0F90A
:103110003800002813DD706B4FF0000940B101F05A
:10312000D3FE009006F00EFF8146684601F052FF84
:10313000B6F9381009F101008842C8BF4746029825
:10314000C06C099002A801F045FF002F74D00898C8
:1031500005F018FB074626464FF00009204601F00F
:10316000B3FE0590406B40B101F0AEFE0A90FDF752
:1031700035F981460AA801F02DFF059907EB0900F2
:10318000498F401A00F1010905A801F023FF00E072
:1031900052E0B9F1000F2ADD304609F1100901F0C3
:1031A00093FE0090D0F834B0408F00EB090A6846D7
:1031B00001F010FF5146584601F09CFE5FEA0009FD
:1031C0003AD0BBF1000F07D101F07EFE0D9080F8E0
:1031D00000800DA801F0FEFE304601F075FE009063
:1031E000A0F83AA0C0F83490684601F0F3FE2046FB
:1031F00001F06AFE0290466B02A801F0EBFE304639
:1032000001F062FE06460F90099905F0F1FA0644B6
:103210003046FDF7E3F8421CF0193146FDF742F95C
:103220003046089905F094FA0FA801F0D3FE052165
:1032300020460EF072FFF3E620460EF08BFE11B032
:10324000BDE8F08F70B54468054682B0204610F0A6
:1032500085F80646294620460DF0A8F9002804BF47
:1032600002B070BD28680F2836D004DC0B2839D096
:103270000E2842D058E0A0F58070133804D0A0F595
:1032800080702D3811D04FE020460FF073F82046A3
:10329000002115F005FE204601F016FE0190C06FDA
:1032A00000210FF00AF801A824E0E86878B1017A5B
:1032B00041B10168204600F0F9F8012120460EF0E6
:1032C0002CFF31E0022120460EF027FF2CE00321E5
:1032D00020460EF022FF27E00121204615F0E0FDF8
:1032E00002B070BD204601F0EFFD0090343001F0D7
:1032F00005FD684601F06EFE16E0AEB1E868416873
:10330000002911DD01681B290ED009DC09291CBF29
:103310000A290D2908D02046FFF7BCFD02B070BD78
:10332000212918BF2229F6D128460DF02BFE02B024
:1033300070BD70B5044686B0D4E9056CB0F908508C
:10334000408A0DF1080E8EE861100020CDE90010D2
:10335000B4F90C00B4F91050C118B4F90A00B4F96A
:103360000EC010442B46624600F008F805001CBF52
:10337000618A00F01EFA284606B070BD2DE9F041C2
:1033800086B00F46DDE90C1CDDE910544CF4805C7E
:103390000F9EDFF8B880CDE9001C5834CDE90284D7
:1033A00039460DF03DFD04004BD001F08DFD10229B
:1033B000314604900DF016FBDFF894C004999CE8A8
:1033C000CD1101F1600E8EE8CD11012081F855007C
:1033D000681C18BF012081F88000002DD8BF082587
:1033E00028B2088700254D87461C04A84D6301F0CC
:1033F000F1FD204601F068FD0090476B408F0644C8
:10340000684601F0E7FD3146384601F073FD5FEA9A
:10341000000812D037B901F057FD0190057001A8DE
:1034200001F0D8FD204601F04FFD00904687C0F81E
:103430003480684601F0CEFD03E020460DF0D8FD53
:10344000002406B02046BDE8F081000045320008A7
:10345000809F0020F0B583B016460D0012BF0028F3
:1034600003B0F0BD01F030FD002701902F70406BDC
:10347000A8B101F029FD009006F064FD0146009816
:1034800005F0B6F90446701E84420DDC224628463B
:103490000099FCF7C2FF684601F09CFD2F5501A87A
:1034A00001F098FD03B0F0BD0446EFE7002808BF27
:1034B00070472DE9F04186B00C46074601F004FD47
:1034C0000090406B002849D001F0FEFC039000986A
:1034D000806E04F051FF804638460EF0E7F906464C
:1034E000039803F079F80546009890F8601001F011
:1034F0000301012918D002290FD0416EC06A00686B
:103500000844201A441E039806F01CFD002C11DA12
:103510000021384600F060F917E0701B401C00EBFA
:10352000D070A4EB6004EEE7406E711B081A201AFD
:10353000441CE8E7A54204DB02462146039806F056
:103540008BFC0146384600F047F903A801F042FD24
:10355000404604F011FF38460EF0FCFC684601F0CE
:1035600039FD06B0BDE8F08100294FF0100101D00F
:103570000DF0DAB80CF0FDBF002808BF704738B571
:103580000C46054601F0A0FC0090846628460EF02B
:10359000E1FC684601F01EFD38BD002808BF7047F9
:1035A0002DE9F04385B00C46054601F08DFC0090F6
:1035B000B0F93810468F4FF00008A14245D012DD17
:1035C000406B80B101F080FC019006F0BBFCA04292
:1035D00006DD2146019805F00BF9019901F80080FC
:1035E00001A801F0F7FC684601F0F4FCA01B461CA2
:1035F000284601F069FC0290D0F83490408F87197A
:1036000002A801F0E7FC3946484601F073FC0600C9
:1036100013D0B9F1000F07D101F056FC039080F8E8
:10362000008003A801F0D6FC284601F04DFC029072
:103630004787466302A801F0CDFC284601F044FC10
:103640000090048728460EF085FC684601F0C2FC15
:1036500005B0BDE8F0832DE9F04F87B08A4605003C
:103660004FF0000804BF07B0BDE8F08F01F02CFC5C
:103670000090B0F93870446B684601F0ABFC00264E
:10368000BAF1000F7DD054B1204601F01DFC01902D
:10369000FCF7A4FE00F1010801A801F09BFC5046D4
:1036A00006F050FC0446B8426CDC2146504605F05A
:1036B0009FF8471CA7EB08094FF00008284601F0C7
:1036C00003FC0390406B40B101F0FEFB0590FCF75A
:1036D00085FE804605A801F07DFC039909EB0800F2
:1036E000498F401A00F1010803A801F073FCB8F1FA
:1036F000000F2ADD284608F11008049501F0E4FBCC
:103700000290D0F834B0408F00EB080902A801F015
:1037100061FC4946584601F0EDFB5FEA000840D0E5
:10372000BBF1000F06D101F0CFFB0690067006A892
:1037300001F050FC049801F0C7FB0290A0F83A9009
:10374000C0F8348002A801F045FC284601F0BCFB1B
:103750000090406B01F0B8FB3A4651460190FCF7EF
:103760005CFE0198384400F8016C0098C464B0F91C
:1037700038108C4201BF90F854100129611EC164B9
:1037800001E007E013E001A801F024FC684601F025
:1037900021FC06E00098343001F0B0FA009846872A
:1037A000C66428460EF0D6FB07B0BDE8F08F3C4655
:1037B0007BE7002808BF704738B50D46044601F086
:1037C00083FB009018B1056620460EF0C3FB6846E7
:1037D00001F000FC38BD000010B582B00C4601F0CD
:1037E00073FB0090406BE8B101F06EFB019006F0B6
:1037F000A9FB009991F85420002A18BF0122002C3F
:1038000015DB844215DC00BFB1F93800801AA042F4
:1038100011DBC86CA04218BFCC640020086501A869
:1038200001F0D8FB684601F0D5FB02B010BD0024C2
:10383000E7E70446E8E7B1F93800841AE9E710B58C
:10384000FEF7F8F810BD10B5FEF7A0F810BD10B5E2
:10385000FEF74AF810BD10B5FEF73EF910BD10B5E1
:10386000FDF710FFFDF779FFFDF7AAFFFDF7FCFF5D
:1038700010BD00000149086070470000143C014081
:10388000002123498279002A3AD00A461268036847
:103890009A430B461A600A1D126803689A430B1D6F
:1038A0001A60027911440A6803681A430A60184AC8
:1038B0000832126803689A43154B08331A601A1DC0
:1038C000126803689A43124B0C331A604279102A2B
:1038D0000ED11A1F126803681A430D4B08331A6081
:1038E0001A1D126803681A43094B0C331A600DE065
:1038F0000749427911440A6803681A430A6005E0DF
:10390000027911440A6803689A430A60704700000C
:10391000003C01402DE9F047446805468EB0002781
:10392000204601F0D1FA0090B0F87CA0D0F8689061
:10393000D0F88080D0F88860C06D002818BF076874
:10394000684601F047FB56B1716828468847002851
:103950001CBF0EB0BDE8F0873668002EF4D1286891
:10396000172802BFC5F80C900EB0BDE8F08713DC35
:103970000F2844D00ADC0B2800F04B810D2808BF2B
:103980001AF0080F00F0EE8000F04CB9112814D0A6
:1039900014286FD000F046B926286CD006DC1E280B
:1039A0006AD0202800F0E88000F03CB92A2818D01E
:1039B000B0F5107F29D000F035B92046EE6801F04F
:1039C00083FA0190717A002904BF317A012905D167
:1039D000B0F87C1041F48071A0F87C1001A800F0D0
:1039E000F5B8204601F070FA0090E968002912BF8E
:1039F000C0F88410D0F88400E860684678E0002FB2
:103A00001CBF2046B84700F00DB927462046EE6897
:103A100001F05AFA0190B0F87C4001A801F0DAFAFE
:103A2000E868002804BF0EB0BDE8F087307A20B304
:103A300014F0080F04BF38460EF088FD38460DF02C
:103A400033F914F0100F12BF14F4807F0EB0BDE8EC
:103A5000F087002314F0800F1CBF0EB0BDE8F08784
:103A600075483146B0F9002038460EF0F3FC0EB030
:103A7000BDE8F0870FE018E024E0384601F024FAB2
:103A80000190B0F87C1021F48071A0F87C1001A89E
:103A900001F0A0FAEBE705A9204600F0B6FBDDE94E
:103AA0000612E86801604260E1E7E8680228DED1BA
:103AB0000C94E8680D9027200A900AA9A8680FF0D6
:103AC00057FED4E7E868012815D0002CCFD0204657
:103AD00001F0FAF90190B0F87C1011F0080F06D04F
:103AE00021F00801A0F87C1020460EF033FA01A85E
:103AF00001F070FABBE740460EF090FA58B140462C
:103B00000EF024FD40460EF027F988B10121404611
:103B10000CF00AFE0CE048460EF070FD8046204690
:103B200001F0D2F90090C0F88080684601F052FAA6
:103B300094B1204601F0C8F90290B0F87C1011F061
:103B4000080F06D141F00801A0F87C1020460EF0C5
:103B500001FA02A801F03EFAB8F1000F04BF0020FC
:103B6000E86084E7E868C06800281FBF007A002882
:103B700020460EF0EBFC55E0EE684EB3214670682F
:103B80000FF0C4FB00282746204622D001F09CF904
:103B90000490B0F87C1011F0080F06D141F0080134
:103BA000A0F87C1038460EF0D5F904A801F012FAFE
:103BB000214670680FF096FB50B1204601F084F961
:103BC00002907168C0F880100DF1080001F002FA4F
:103BD00028E001F079F90490B0F87C1011F0080F9A
:103BE00006D021F00801A0F87C1038460EF0B2F99A
:103BF00004A801F0EFF9214630680FF073FB88B19B
:103C0000204601F061F902903168C0F8801002A8E6
:103C1000DCE7204601F058F90090703001F06EF8B2
:103C20006846D3E7294620460CF0C0FC00281CBF9C
:103C300028460DF0A7F91AE73CA2002070B588B01D
:103C4000B0F908400DF10C0E0C9ED0F818C0456874
:103C50008EE87010B0F812C00024CDE90014CDF841
:103C600008C0B0F90C10B0F91040B0F90EC0B0F9AE
:103C70000A00194410442346624600F003F808B0D5
:103C800070BD00002DE9F04F8BB00C46DDE9141635
:103C9000DDE91758DDF868C046F480563C4F0CF15A
:103CA000600C8DE8C21021460DF0BAF804006BD00C
:103CB00001F00AF93022294604900CF093FE354FAA
:103CC000049A07F1080102F1340E91E82B1E8EE8E8
:103CD0002B1ED7E90A01C2E91501199850661698FA
:103CE000A2F87C000025C2F88050D566C2F8885042
:103CF0007868D06504A801F06DF905A9204600F0A8
:103D000084FA254841F2827103950094CDE90110AF
:103D1000BDF91E00BDF91A10BDF91C20401A431C44
:103D2000BDF91800121A521C0DF07AF80546786891
:103D3000416820468847204601F0C6F80490856611
:103D400004A801F047F942F20400064204BF2046ED
:103D50000DF01AFA204601F0B7F80090006F0190BC
:103D6000684601F037F9414601A806F079FA58B1E2
:103D7000204601F0A9F8009001990167684601F01A
:103D800029F920460EF0E6F80BB02046BDE8F08F8A
:103D9000153900083CA20020C54500082DE9F04176
:103DA000044698B0006800F0BDF9002814BFDB4D50
:103DB000DB4D6068152802BFA86A18B0BDE8F08125
:103DC00012DC0B282AD007DC002800F0928105289D
:103DD00000F02C8100F09DB90E2800F077811228A8
:103DE00000F03B8100F095B9162802BFE86918B0D1
:103DF000BDE8F081172802BF286A18B0BDE8F0813D
:103E0000182802BF686A18B0BDE8F0811C2802BFFC
:103E1000686918B0BDE8F08100F07BB920680E90A9
:103E20001C200F90206801F04FF80390016D0EA840
:103E30008847064603A801F0CDF8022E11DBD5E92C
:103E40000001AA680292CDE90001D4E904023346D8
:103E5000A16905F0DBFA20698719A069A0EB0608C3
:103E60002CE0286804F084FA2169E8690844421EBD
:103E7000606902F055F9A269E869101A411C60698D
:103E800002F04EF96069471C3946206902F072F968
:103E90003946A06902F06EF9686804F069FA206991
:103EA0003946401C02F066F9A0693946401E02F00E
:103EB00061F92069871CA069A0F10208286804F054
:103EC00057FA42463946606902F02AF9686804F0F8
:103ED0004FFA606942463946401C02F021F9686A8F
:103EE00002287DDDA86804F043FA60696A6A811CD3
:103EF0001044431E4246384602F036FA6069022EEC
:103F0000ACBF0644861CE069471E286804F030FAFE
:103F10003A463146206902F097F93A463146A0699F
:103F200002F092F9E069871E686804F021FA2069BE
:103F30003A463146401C02F087F9A0693A463146BC
:103F4000401E02F081F9E8690228DCBF286A0228D5
:103F500020DDA86A0228C7BFE1690F1AE069871E41
:103F6000A86804F005FAE969022907DD22693B46E1
:103F7000901C11444A1E314602F0F6F9286A0228C4
:103F800008DDA169E8698A1E081A3B463146401CD3
:103F900002F0EAF9286804F0EBF9D4E90620216977
:103FA00002F0BEF8686804F0E3F9A069421E2069D7
:103FB000411CE069401E02F0B3F8A86A02284BDDFC
:103FC00021698E1CA1698F1EE169081A441CA1F1A8
:103FD0000208A86804F0CCF943463A46214600E0BE
:103FE00003E0304602F0C0F993E0296AB14285DD72
:103FF0006069022E00F10208ACBF871947462069AC
:10400000ACBF3044801C22693B461144A1F101023F
:10401000414602F0A9F9A069022EACBF821B821EA4
:10402000E9693B46401A4146401C65E7208A00B2D8
:10403000ADF81800A18A09B2ADF81A10228B12B29D
:10404000ADF81C20A38B1BB2ADF81E30D5E9034C94
:10405000CDE9004C01F060FF5BE0208A298B084429
:10406000ADF81800A08AADF81A00208B298B401AF1
:10407000ADF81C00A08BADF81E00206800F024FFF6
:104080000390006FF0B1022004F0BAF9039991F89F
:104090007C00C0F3C00001EB8000006C04F068F904
:1040A0000398406B04F068F90398006F00F00CFF70
:1040B00003990A90B1F95A2006A901F0B1FC0AA8A7
:1040C00000F088FF03A800F085FF22E0208AADF809
:1040D0001800A08AADF81A00208BADF81C00A08B48
:1040E000ADF81E00A86804F043F906A802F068F9CC
:1040F0000FE0206800F0E8FE0390B0F85A1041F09D
:104100000C01A0F85A1003A800F064FF20680EF01C
:10411000F9FA18B00020BDE8F0810000C4A3002027
:10412000F0A3002038B5002458B100F0CDFE009077
:1041300090F87C0010F0080F18BF0124684600F0CA
:1041400049FF204638BDF8B50E4605004FF0000483
:104150000CD000F0B9FE0090C06D31468068026856
:10416000284690470446684600F034FF2046F8BDD4
:10417000014800687047000044A20020002808BFE2
:10418000704738B50C4600F09FFE0090816CA1424C
:1041900003D08464806E0DF0DDFE684600F01AFFE7
:1041A00038BD002808BF70472DE9F04182B00E46A7
:1041B000054600F089FE0190C16D8C6800F0C9F8D9
:1041C00007460198466301A800F004FF2268012118
:1041D000284690470646236803212846984780468C
:1041E00022680021284690470446284600F0AFF98F
:1041F0004346324639462846009400F029F92846BD
:104200000DF0A8FE02B0BDE8F0812DE9F04F0027C7
:104210008DB00C468146BA4600F056FE0190C06D46
:104220000121856848462A68904780462A6803210C
:104230004846904707902A680221484690470690D2
:104240002A68002148469047064601980EF0B0FEC5
:10425000059001980EF0B3FE8346019890F8321055
:1042600001F02001002918BFB0F958A04FF0000557
:1042700006D0B0F954501DB9406B02F01AFA851CF3
:104280000198C06E10B10DF024FB074625806780B1
:10429000A4F8048007990598401A06EB0A01401E0D
:1042A000294420813944E1800699ABEB0101491E84
:1042B0006181A4F80C8020827019E681401E608222
:1042C00001A800F087FEB4F90C70B4F910604D46F7
:1042D000484600F0F9FD0690C16DD0F8008006A8B0
:1042E000D1F8089000F076FED9F800200021284689
:1042F0009047814628460DF084F9050024D000F04F
:10430000E3FD0790B0F900200FFA88F1B0F904300E
:10431000521A5B1AB0F90210A1EB284149450BD1A2
:1043200090F8280010F0800F03D09642A8BF561EC8
:1043300002E09F42D8BF5F1C07A800F04BFE284652
:104340000DF00BFA0500DAD1A78126820DB0BDE889
:10435000F08F10B50146002091F8322012F0200FA6
:1043600008BF10BDB1F95400002818BF10BD486B3C
:1043700002F09FF9801C10BD70B58AB00E4604464D
:1043800000F0A2FD0990C06D856809A800F022FE2A
:104390000094002E08BF18200BD0012E08BF162055
:1043A00007D0022E08BF152003D0032E08BF172008
:1043B00000D101906968684688470AB070BD2DE950
:1043C000F04383B017468846814600F07DFD00909B
:1043D000C16D056868468C6800F0FCFD226800210C
:1043E00048469047064648460DF00BF9040004BFC6
:1043F00003B0BDE8F08300F067FD0190B0F9001054
:104400002AB2B0F90430891A9A1AB0F90230A3EB33
:104410002543B34211D190F8280010F0800F05D049
:1044200038688842A4BF481E386006E0D8F800000B
:104430009042DCBF501CC8F8000001A800F0CAFD83
:1044400020460DF08AF90400D5D103B0BDE8F08311
:104450002DE9FF4F85B09A4691460F46DDF848B0EA
:10446000059800F031FD0390C16D8C68FFF771FF76
:10447000064603A800F0AEFD22680121059890478A
:10448000029022680321059890470190226800213C
:10449000059890470546BE4204BF0298484506D19C
:1044A0000198504502BF5D4509B0BDE8F08FF41B8F
:1044B0000027B84605980DF0A4F8060004BF09B01F
:1044C000BDE8F08F0198A5EB0B05AAEB000A029856
:1044D000A0EB0909304600F0F7FC0090806A10F06C
:1044E000800F03D010F4007F06D025E010F4007F89
:1044F00022D010F0800F1FD124B122461146304641
:104500000DF05EFE009890F8280010F0800F06D0A5
:1045100004FB17A12A4630467F1C0DF0FCFD0098D5
:10452000008D10F4007F07D004FB08912A46304626
:1045300008F101080DF0EFFD684600F04BFD304634
:104540000DF00BF90600C5D109B0BDE8F08F70B5CC
:1045500086B0064600F0B8FC0590D0E91A4505A8DB
:1045600000F038FD54EA050004BF06B070BD69468E
:104570003046FFF74AFEACB1BDF90620BDF9041084
:1045800020460DF081FDBDF90A00BDF90610401A64
:10459000421CBDF90800BDF90410401A411C204618
:1045A0000EF040F9002D04BF06B070BDBDF9060045
:1045B000BDF90210421ABDF9041028460DF064FD41
:1045C00006B070BD2DE9F0430446406889B0054649
:1045D0000DF0CBF8814600F077FC0290D0F8808097
:1045E000876C466E02A800F0F5FC2068172862D0A0
:1045F00008DC0E2850D00F2816D0142818BF152814
:1046000059D052E01E2829D01F283ED0222802BFB0
:10461000E76009B0BDE8F083312801BF0020E06009
:1046200009B0BDE8F08340E06FF07040874204D0ED
:10463000384607F0CDFB00F063FF002E04BF09B041
:10464000BDE8F083D4E902122068CDE90405CDE984
:10465000061204A8B04709B0BDE8F083E06800285E
:1046600004BF09B0BDE8F083B8F1000F18BFA8453A
:1046700005D040460DF06AFF09B0BDE8F08328463A
:104680000DF0BCFF09B0BDE8F083214648460BF0B1
:104690008DFF09B0BDE8F083E0684168002904DDC2
:1046A00000680928EBD00A280BD0002E1CBF20463A
:1046B000C4F80490CED120460CF064FC09B0BDE8EB
:1046C000F08328460DF0E8FF09B0BDE8F083000054
:1046D00051B18200A2F1C042126842F0010382008F
:1046E000A2F1C042136009E08200A2F1C042126848
:1046F000034B1A408300A3F1C0431A6070470000C7
:10470000FEFF0F00D0E901121143C2681143026994
:1047100011434269114382691143C2691143026A1C
:104720001143426A1143826A1143C26A1143026B08
:10473000114302689200A2F1C04211608168082909
:104740000BD101688900A1F1C041096841F0400224
:1047500001688900A1F1C0410A60416B0968426BA0
:10476000526841EA0211426B926841EA0221426BAF
:10477000928941EA0241426B128A41EA0251426B3C
:10478000127D41EA0261426B926911430268521C38
:104790009200A2F1C0421160C16AB1F5804F1BD1F5
:1047A000816B0968826B526841EA0211826B9268E0
:1047B00041EA0221826B128A41EA0251826B127D28
:1047C00041EA0261826B9269114302689200A2F190
:1047D000C042C2F8041107E06FF07042016889001E
:1047E000A1F1C041C1F804217047000010B50020BC
:1047F00003F0BCFD6FF07F4003F0BAFD012003F031
:10480000EDFD002003F0F2FD002003F0F9FD002093
:1048100003F0B0FD0448006803F0AEFDBDE81040B1
:10482000002003F0B9BD00009C9E0020F0B50A46B0
:1048300000210023002400BF3DE0012505FA01F31B
:10484000156805EA03049C4234D105684F0003262D
:10485000BE40B543056015794E00B5400668354346
:1048600005601579012D02D01579022D16D18568C4
:104870004F000326BE40B543856055794E00B540D4
:10488000866835438560456801268E40B54345609E
:10489000456896798E40B6B235434560C5684F008D
:1048A0000326BE40B543C560D5794E00B540C66805
:1048B0003543C560491C1029BFD3F0BDF0B50023B6
:1048C00000244D07ED0E02FA05F3CE1000F120058D
:1048D00055F826504E07F70E0F26BE40B543CF10B1
:1048E00000F1200646F82750CE1000F1200555F8BB
:1048F000265045EA0304CE1000F1200545F8264075
:10490000F0BD0246002013690B400BB1012000E00E
:10491000002070472DE9F04F4B4989B00968B1F983
:1049200022200692D1F81CC0B1F92470DCF81C409A
:10493000A28982429CBFE389984205D8A0EB020974
:104940004FF0FF38266812E0D4E90162002A71D0E6
:10495000138883429CBF5588A8426BD8C01A5268FE
:1049600080B202EB8000B0F90090B0F90280B9F19A
:10497000FF3F5FD09CF81800A27C10FB02FB94F86C
:1049800010A00790B1F92A50284607F077FAC0B274
:1049900008902D4809FB0B620068A37C4FF00109C9
:1049A000816BCDE90293CDE90421C0695246C17EF5
:1049B000807ECDE90001DDE90603394606F00AFDF7
:1049C000B8F1FF3F18D045F0020007F057FA1E4833
:1049D000A37C08FB0B620068816BCDE90293CDE9F3
:1049E0000421C0695246C17E807ECDE90001DDE927
:1049F0000603394606F0EEFC134E3068C069417E6E
:104A0000007E814213D9022D11D085F0040007F0F9
:104A100035FA3068C069017EC27E11FB0271427EA8
:104A2000D319827E06981AFB020206F0ADFE0898A2
:104A300007F024FA0448627C0068418C11444184E8
:104A400009B0BDE8F08F0000A09E002004480029B6
:104A50000068C069C0691CBF027C0A60407C704766
:104A6000A09E0020022008807047C06982898A4287
:104A70009CBFC289914210D9806880B102888A4265
:104A80009CBF438899420AD8406800EB8100A0EBA4
:104A90008200B0F90000002801DB012070470020EF
:104AA000704700002DE9F043394D024687B0286871
:104AB000B0F92A60C069C1691046002904BF07B077
:104AC000BDE8F0830B8883429CBF4B88984205D990
:104AD00089680029F6D107B0BDE8F083002904BF3A
:104AE00007B0BDE8F08348680988511A00EBC1049B
:104AF0003046A77807F0C2F980462868626801232B
:104B0000816BCDE90237CDE90421C169CB7E8A7E74
:104B1000CDE900230B7EB0F924102278B0F92200F1
:104B200006F058FC2868C069417E027E91421FD978
:104B3000C07E11FB00F912FB00F7022E18D001F025
:104B400006FD064601F0E6FC03F012FC2968227817
:104B5000CB69B1F92200DB7E12FB0302B1F924100C
:104B600001EB0903394406F00FFE304603F000FC68
:104B7000404607F083F928686278C369B0F92210CB
:104B80009B7E12FB0311418407B0BDE8F083000057
:104B9000A09E002010B4044615480068D0F81CC040
:104BA0002046DCF81C2002B3138883429CBF538844
:104BB000984203D99268002AF6D116E0AAB110886B
:104BC0005368221A012000EBC2009CF81AC0185C3E
:104BD00010FB0CF0002904BF10BC704713F8322002
:104BE00012FB0CF20A6010BC704710BC002070472A
:104BF000A09E0020012008807047C06968B102882B
:104C00008A429CBF4288914203D980680028F6D12D
:104C100003E000281CBF01207047002070470029D6
:104C200004BF00207047F8B505460C46084600F062
:104C300013F806000ED000F047F9224600901DB18F
:104C40002946FBF7EAFB02E0002105F097FB6846E6
:104C500000F0C0F93046F8BD002808BF70470EF0DC
:104C6000C3BF38B50546FFF7F7FF040009D000F0D1
:104C70002BF92A460021009005F080FB684600F0E1
:104C8000A9F9204638BD0000024A106021F0030057
:104C90005060704724BD0020002808BF704770B5E1
:104CA0000E4C0546606B10F83510002918BF02291C
:104CB00028BF70BD042101EBC506815948680EF07C
:104CC00039FF6068401C6060616B606A8851616B8D
:104CD000002001F83500656270BD000064BC002052
:104CE000002808BF7047044AD16B0160002918BF33
:104CF0004860D0637047000064BC00202DE9F0419B
:104D0000056806460027D5B10E4C606B10F83510CB
:104D1000002918BF022912D2042101EBC50850F85E
:104D2000081048680EF006FF6068401C6060616B08
:104D3000606A41F80800606B00F8357065623760A2
:104D4000BDE8F08164BC00202DE9F05FB1F10008FE
:104D500081464FF00005C6BF154F4FF0000ABDE871
:104D6000F09F00BF09EB85063468CCB1786B10F872
:104D70003410002918BF022912D2042101EBC40B00
:104D800050F80B1048680EF0D5FE7868401C78602B
:104D9000796B786A41F80B00786B00F834A07C627C
:104DA0006D1CC6F800A04545DCDBBDE8F09F0000A7
:104DB00064BC00202DE9F041044613F0C7F9E01C63
:104DC000274E20F00300051D306CA84288BF054621
:104DD000F46BBCB154F8041CA94210D19CB12068FA
:104DE00000281CBF61684160606800281CBF216802
:104DF0000160F16BA14204BF2068F0632DE02468DC
:104E0000002CE7D10024F168B06B00EB010858F8E2
:104E1000040CA8EB0007386840B1002014F01AFD1C
:104E200058F8040CA8EB00073868B0B97868A842B5
:104E300013DB3844401B041D384614F0E1FCF068D5
:104E4000401BF0607069284470617868401B1CBF8B
:104E500039460EF06FFE44F8045C2046BDE8F08150
:104E600064BC002010B5002413F070F90D490F2028
:104E700001EBC002526C8AB101EBC000406C80684B
:104E800048B14168A14288BF0C46806800281CBF19
:104E900080680028F5D1A4F10C0010BD401EE7D5B4
:104EA000F9E7000064BC0020002140B1054904225C
:104EB00002EBC000496B08584068A0F10C0108469D
:104EC0007047000064BC00200949CA69521CCA61CD
:104ED0004A6B02EBC00213785B1C1370002808BFFA
:104EE0007047496B042202EBC00008580830704735
:104EF00064BC002070B5064682B00C460846FFF739
:104F0000ABFE050018BF002E1BD03046FFF7CCFFCC
:104F1000A042B8BF04462846FFF7D6FF00903046AF
:104F2000FFF7D2FF0146019022460098FBF775FA81
:104F3000684600F04FF801A800F04CF83046FFF743
:104F4000ABFE02B0284670BD10B5002413F0FEF889
:104F5000174B184A0F2000BF02EBC001496CD9B1B2
:104F600002EBC000406C8068C0B14168A14288BFBC
:104F70000C46806800281CBF80680028F5D1A4F189
:104F80000C00B0F5800F0CD983FB00104111A1EB90
:104F9000E070116A484310BD401EDDD5A4F10C003D
:104FA000F2E7116A4843A3FB0010400910BD00005E
:104FB0001F85EB5164BC00200549102898BF1020C4
:104FC00004D94A68B0EB520F28BF50088860704778
:104FD00024BD00200A4902684B6B52F8082C03EBF1
:104FE000C2021378022B04D3CB69002B1CBF5B1EBB
:104FF000CB611178491E117000210160084670478D
:1050000064BC0020002808BF70470449042202EB5A
:10501000C000496B085808307047000064BC00208D
:105020002DE9F0414FF0000682B00B465FEA000820
:1050300034462BD032B111461846FFF7F0FD06007A
:1050400008BF01244046FFF73FFF009007884568EE
:105050006846FFF7BFFFCCB9B800011D2846FFF72F
:1050600049FF050016D0FFF72FFF019040F8276099
:1050700001A8FFF7AFFF4046FFF726FF009045600D
:105080000188491C01806846FFF7A4FF02B0204652
:10509000BDE8F0813046FFF7FFFD0124F6E7082068
:1050A000FFF7DFBD002808BF704730B583B0054665
:1050B000FFF70AFF00904068D8B1FFF705FF0190A5
:1050C000009800240088002809DD019800EB840086
:1050D000FFF714FE0098641C0088A042F5DC01A8CC
:1050E000FFF778FF0098001DFFF708FE00990020E9
:1050F00008806846FFF76EFF2846FFF7CDFD03B036
:1051000030BD10B582B00C46FFF7DEFE009001887E
:10511000A14227D9406828B3FFF7D6FE019000EBE3
:105120008400FFF7EBFD00990888401E80B20880DC
:10513000011B002913DD019811F0010F00EB840021
:1051400003D050F8042F40F8042C491007D04268CF
:1051500040F8082B491E026840F8042CF7D101A83A
:10516000FFF738FF6846FFF735FF02B010BD38B5CE
:10517000002430B1FFF7A8FE009004886846FFF7CE
:1051800029FF204638BD30B583B00C46002590B1CC
:10519000FFF79AFE00900188A14209D9406838B112
:1051A000FFF792FE019050F8245001A8FFF712FF7C
:1051B0006846FFF70FFF03B0284630BD30B583B017
:1051C0000D460024B8B1FFF77FFE00900188A94288
:1051D0000ED9406860B1FFF777FE019050F8255076
:1051E00001A8FFF7F7FE280002D0FFF76DFE044686
:1051F0006846FFF7EFFE03B0204630BDF0B5074626
:1052000085B00E46154600241046FFF72AFD009093
:1052100030B33846FFF758FE3146019000F06BF886
:1052200002900098FFF750FE2A4603900299FBF780
:10523000F4F802A8FFF7CEFE03A8FFF7CBFEDDE9E6
:105240000020314600F06EF818B16846FFF756FDB1
:1052500003E00098FFF738FE044601A8FFF7BAFE06
:1052600005B02046F0BD2DE9F043002483B01E4672
:1052700090460D4600283AD0FFF726FE0190B0F880
:105280000090476801A8FFF7A5FE4D452FD277B3E0
:105290003846FFF719FE009050F825406846FFF7A2
:1052A00099FE24B12046FFF7FFFDB04211D03046F1
:1052B000FFF7D7FC04001AD03846FFF705FE00EBD5
:1052C000850500902846FFF719FD68462C60FFF71A
:1052D00081FEB8F1000F0AD02046FFF7F5FD3246F7
:1052E00041460290FBF799F802A8FFF773FE03B05E
:1052F0002046BDE8F08338B50C4601880025A14260
:105300000ED9406860B1FFF7DFFD009050F82440EF
:105310006846FFF75FFE200002D0FFF7D5FD054687
:10532000284638BD38B50C46014615460A88012086
:10533000A24298BF38BD4968002908BF38BD084659
:10534000FFF7C2FD00EB840400902046FFF7D6FC77
:1053500068462560FFF73EFE002038BD034900EB9C
:10536000800001EB800040797047000058BE0020AB
:105370002DE9F84F05460E46084601F0EFF8834642
:10538000DFF8C080304806EB860A012758F82A90DB
:10539000016831B92E4907602C480860084604F0BE
:1053A00057FF284906EB860001EB8004BBF1000F94
:1053B00021D0584602F09AFF00904FF07F4002F053
:1053C000D5FF00F09DF800221146286800F0E8FBA8
:1053D000286842880188584602F0DAFF48F82A50C7
:1053E0006771009802F082FF304601F0B7F8E0B92B
:1053F000607900BB23E048F82A506771206918B132
:1054000002F0F2FB00202061CDB10097E068A968AE
:105410003346421AA0686968411A286802F0EAFE19
:105420002061304601F09AF818B1012102F0B2FF74
:1054300005E0607918B12771206902F0B1FE484695
:10544000BDE8F88F58BE0020B8A0002035880108BC
:10545000BCA0002070B506460D461446104601F06B
:105460007DF80300154804EB84010AD050F82100B0
:1054700041688068711A2A1ABDE87040184602F027
:1054800085BF00EB8104A268B24214BF0122002252
:10549000E368AB4214BF012300231A4308BF70BD69
:1054A000236943B150F82100816840686A1A311AB3
:1054B000184602F0C1FBC4E9026570BD58BE002069
:1054C000C2B2CBB2D21A48BF524292B202FB02F32E
:1054D000C0F30722C1F3072CB2EB0C0248BF5242C3
:1054E00092B2000CA0EB114002FB023200B2002885
:1054F000BCBF404200B280B200FB002070470000F9
:105500002DE9F041002182B0084601F0E7F843F6AA
:10551000FF763746042006F0B1FC80461148C0688B
:10552000C16C006D8D1B841B0E440744ADF8005008
:10553000ADF80460ADF80240ADF8067068460DF0B5
:1055400045FD48B13B4632462146284606F01CF947
:105550000DF066FB0028F5D1404606F08FFC02B046
:10556000BDE8F081949E00202DE9F041064682B00E
:105570001C4617460D46042006F080FC8046124863
:10558000C168C86C096D064407440D440C44ADF86D
:105590000060ADF80470ADF80250ADF80640684602
:1055A0000DF014FD48B123463A462946304606F030
:1055B000EBF80DF035FB0028F5D1404606F05EFC17
:1055C00002B0BDE8F0810000949E0020B0F90630E2
:1055D000B0F90420B0F90210B0F90000FFF7C4BF21
:1055E0002DE9F8431C00DDE9089816460F460546EC
:1055F00002D10BF0CFFF04460096D5F800C0434619
:105600004A4621462846E047060008BFBDE8F88321
:105610000BF0B4FF8146698A30460BF085F83046BE
:105620000DF07DF948460DF07AF97F1E002FC8BFB6
:105630004FF000080FDD00BFCDF8008055F81CCFFB
:1056400000231A4649462846E047F8B10DF067F9AD
:105650007F1E002FF0DC1D2148460CF0C4FEB4F183
:10566000FF3F10D00BF0E2FF40B100BFFFF7CAFCD4
:105670008469B44218BF5FEA0400F7D1B4421CBF8A
:1056800030460CF0BBFF3046BDE8F88330460BF0E7
:10569000AFFC0020BDE8F883022BA4BF00207047B8
:1056A0002DE9F04106461C4615460F461C20FFF723
:1056B00081FB002808BFBDE8F081002F18BF0761FB
:1056C0000BD10A4A52F8241039B10A681AB11146AE
:1056D0001268002AFBD10969016184618582002179
:1056E00001604160C0E90216BDE8F081B89E00206B
:1056F0002DE9F04100241D46074688461646022B38
:1057000027DA1C20FFF756FB18B3B8F1000F18BFBB
:10571000C0F810800BD1104A52F8251039B10A6830
:105720001AB111461268002AFBD10969016185612D
:10573000868204604460C0E90247040009D000F09A
:1057400011F8E068006820B90448006800EB8500A3
:1057500084652046BDE8F081B89E0020A09E002010
:10576000FFF7BEBA00281CBF8269022AA4BF01202D
:10577000704710B4244C54F82210002908BF44F894
:1057800022003AD04B682BB119465B68002BFBD145
:10579000002935D0C3681B68D1F80CC0DCF800C004
:1057A0009C4503DD09680029F6D129E041B3D1F811
:1057B0000CC0DCF800C09C4504BFB0F814C0BCF1BC
:1057C000010F0DD1D1F800C0BCF1000F07D0614628
:1057D000DCF80CC0DCF800C09C45F3DA00E079B1DD
:1057E0004B68002B1DBF18604A68426044F82200D5
:1057F0004860884208BF0021016010BC002070474B
:1058000010BC012070470000B89E00200B4A81693F
:1058100052F82130834204BF036842F821304168C6
:1058200000291CBF02680A60016800291CBF426889
:105830004A6000210160416070470000B89E00206E
:105840000228A4BF00207047064951F82000002814
:1058500008BF7047C168096800291CBF006800289C
:10586000F8D17047B89E0020002808BF70472DE986
:10587000F8431E46174688460446FFF725FB00906E
:10588000006805686846FFF7A5FB33463A4641467F
:105890002046A847BDE8F88338B504004FF0000063
:1058A00008BF38BD2046FFF70FFB00900068456831
:1058B0006846FFF78FFB2046A84738BD38B504007F
:1058C0004FF0000008BF38BD2046FFF7FDFA0090FA
:1058D000006885686846FFF77DFB2046A84738BD0D
:1058E00070B5044603F0E2F810EB040503F0DEF8AF
:1058F0002C1A002CD8BF70BD00F0E8FC052CC8BFE6
:105900000524204603F0C4F8F0E70000002808BF93
:1059100070472DE9F04F83B0054600F029FE3B4C5F
:1059200080462068B0F9227000F0A6FE824620680A
:10593000818CA1EB0A0181842878002818BFA8F186
:10594000010946D047F6FF71284604F0D9FA83468C
:105950000146284604F09AFA2168064691F82C0080
:1059600000F00300012808BF304605D0022812BF0E
:10597000002006EBD67040104A8C101A4884ADF80F
:105980000000721E1044ADF80400888CADF80200CF
:105990004844ADF806006A465946284603F098FA8E
:1059A0002168BDF8020088845946284602F020FF8D
:1059B000054428780A2818BF0D2815D0BDF8000026
:1059C000216830444884287818B115F8010F002860
:1059D000B8D12068818C51448184818D21F00301EC
:1059E000818503B0BDE8F08F206890F82C1001F09D
:1059F000030101291DBF0229018C418447842978B4
:105A00000A29E0D1818C41448184DCE7A09E0020FA
:105A1000024B1B6859849A84FFF778BFA09E002030
:105A20002DE9F04182B006000D46174647F6FF7893
:105A30004FF0000404BF02B0BDE8F08165B1084634
:105A40000CF012FF040007D002462946684604F015
:105A5000B6FA68460CF008FF43463A4629463046F7
:105A600003F004FB20460CF0FFFE02B0BDE8F0811D
:105A7000002808BF70472DE9FF4F0C684F680E469D
:105A8000054638B221B287B0401A401C93460290B6
:105A900000F06EFD82461BF00C0F2BD00298019097
:105AA0000A98A8464FF000090090DDE90021404621
:105AB00004F00EFC8044002818BF09F10109F4D15C
:105AC0000BF00C00042818BF082802D00C2805D0C1
:105AD00010E0381409FB1A00401C09E02014C0EB48
