:020000040800F2
:1000000040DA0020850200082DDD0008F5A4000874
:1000100029DD0008BD2800081FF4000800000000CA
:10002000000000000000000000000000DDEC0008FF
:100030006D3A000800000000BDDD000859EE000820
:100040009F0200089F0200089F0200089F0200080C
:100050009F0200089F0200086344000873440008E0
:100060009F0200089F0200087B4400089F020008CE
:100070009F0200089F0200089F0200089F020008DC
:100080009F0200089F0200089F0200089F020008CC
:100090009F0200089F0200089F0200088344000896
:1000A0009F0200089F0200089F0200089F020008AC
:1000B00005F100089F0200089F0200089F02000847
:1000C0009F0200089F0200089F0200089F0200088C
:1000D0009F0200085DF200089F0200089F020008CE
:1000E0006B4400089F0200089F0200089F0200085E
:1000F0009F0200089F0200089F0200089F0200085C
:100100009F0200089F0200089F0200089F0200084B
:100110009F0200089F0200089F0200089F0200083B
:100120009F0200089F0200089F0200089F0200082B
:100130009F0200089F0200089F0200089F0200081B
:100140009F0200089F0200089F0200089F0200080B
:100150009F0200089F0200089F0200089F020008FB
:100160009F0200089F0200089F0200089F020008EB
:100170009F0200089F0200089F0200089F020008DB
:100180009F0200089F02000800F002F800F06BF8E0
:100190000AA090E8000C82448344AAF10107DA45E2
:1001A00001D100F060F8AFF2090EBAE80F0013F0C9
:1001B000010F18BFFB1A43F00103184744EC01007C
:1001C00064EC010010F8013B0A4413F0030408BF7B
:1001D00010F8014B1D1108BF10F8015B641E05D01B
:1001E00010F8016B641E01F8016BF9D1002D15D0D8
:1001F00010F8014B03F00C030C2BA1EB04040ABF15
:1002000010F8013BA4EB8314A4EB032405F10103D4
:1002100014F8016B5B1E01F8016BF9D5914238BFF0
:1002200010F8013BD1D3704700230024002500269D
:10023000103A28BF78C1FBD8520728BF30C148BF49
:100240000B607047002070471FB51AF0ADFB00F03F
:100250003FFD0400002000211AF090FB401C60606C
:100260001FBD10B510BD00F0F7FC1146FFF7ECFF05
:100270001AF012FA00F01EFD03B4FFF7F2FF03BC00
:100280001AF098F80948804709480047FEE7FEE75A
:10029000FEE7FEE7FEE7FEE7FEE7FEE7FEE7FEE736
:1002A00004480549054A064B704700005DEE00080A
:1002B0008901000840D4002040DA002040D6002008
:1002C00040D60020704700000FB4044910B503AABF
:1002D000029800F04FFA10BC5DF814FB04000020F7
:1002E0002DE9F0410E460446002020622046E168D8
:1002F000884730B3252805D0D4E901219047206AEA
:10030000401CF2E7E168204600278847050018D026
:10031000A5F14100192802D820354FF40067324674
:10032000294620462760FFF78DFF40B1012804D001
:10033000F61D26F007060836D8E7361DD6E728460C
:10034000DAE7206ABDE8F0810FB400B58DB010A9DE
:10035000099000910B904FF0FF300A9000200C9014
:10036000064878440690064878446A4607900F99F4
:1003700009A800F025FA0DB05DF814FB7B0400001D
:10038000930400002DE9FF5F1D464FF0FF3B9146AF
:100390004FF000085F46D5E90146A96901987F1C26
:1003A0008847296A824688470028F6D1BAF1FF3F7C
:1003B0000CD0002E24F4C06419DD600614D5BAF107
:1003C0002B0F09D0BAF12D0F0ED103E0584604B01F
:1003D000BDE8F09F44F48064A96901987F1C8847B8
:1003E000761E8246002E02DDBAF1300F03D0B9F13D
:1003F000000F26D032E0A969761E01987F1C44F4D4
:1004000000748847002E824605DDBAF1780F06D0C9
:10041000BAF1580F03D0B9F1000F10D01EE0B9F1B6
:10042000000F02D0B9F1100F18D1A969761E0198FA
:100430007F1C24F4007488478246102002E00820C4
:1004400000E00A20814609E0A96908FB0908761E38
:1004500001987F1C44F4007488478246002E05DD15
:100460004946504600F098F90028EDDAE96901980C
:100470008847A00502D46FF00100A8E7E00725D166
:10048000600613D5600502D5C8F1000000E04046C3
:1004900029680A1D2A600968220501D5087015E03F
:1004A000220701D5088011E008600FE02868011DCF
:1004B00029600068210502D580F8008006E0210748
:1004C00002D5A0F8008001E0C0F8008038467EE741
:1004D00040EA0103024630B59B0710D14FF00134CA
:1004E00000E008C208C91D1B9D4315EAC41FF8D0CF
:1004F00013F0FF0102F8011B0DD01B0AF8E711F8F9
:10050000013B002B02F8013B05D011F8013B002B09
:1005100002F8013BF3D130BD10B5431C02E010F8E6
:10052000011B71B18107FAD14FF0013202C88C1A58
:100530008C4314EAC211F9D0C01A0A0603D0C01EB7
:1005400010BDC01A10BD0A0401D0801E10BD0902E2
:10055000FCD0401E10BD032A40F2308010F0030C86
:1005600000F0158011F8013BBCF1020F624498BF06
:1005700011F801CB00F8013B38BF11F8013BA2F1A3
:10058000040298BF00F801CB38BF00F8013B11F01E
:10059000030300F06780083AC0F0088051F8043B7C
:1005A000083A51F804CBA0E80810F5E7121D5CBF2B
:1005B00051F8043B40F8043BAFF30080D20724BF5E
:1005C00011F8013B11F801CB48BF11F8012B24BFF2
:1005D00000F8013B00F801CB48BF00F8012B704741
:1005E000431A28BF9A427FF6B6AF032A104411443B
:1005F00040F2268010F0030F1EBF11F8013D521E7D
:1006000000F8013D10F0030F7FF4F6AF11F0030383
:1006100000F01981083AC0F00B8051F8043D083A07
:1006200051F804CD40F8043D40F804CDFFF7F3BF86
:10063000121D5CBF51F8043D40F8043DAFF300804B
:10064000D20724BF11F8013D11F801CD48BF11F8C0
:10065000012C24BF00F8013D00F801CD48BF00F88F
:10066000012C704710B5203AC0F00B80B1E818504B
:10067000203AA0E81850B1E81850A0E81850BFF48C
:10068000F5AF5FEA027C24BFB1E81850A0E818502B
:1006900044BF18C918C0BDE810405FEA827C24BF7F
:1006A00051F8043B40F8043B08BF7047D20728BF0D
:1006B00031F8023B48BF11F8012B28BF20F8023B5C
:1006C00048BF00F8012B704702F0FF0343EA032202
:1006D00042EA024200F002B84FF000020429C0F0E2
:1006E000128010F0030C00F01B80CCF1040CBCF164
:1006F000020F18BF00F8012BA8BF20F8022BA1EBB6
:100700000C0100F00DB85FEAC17C24BF00F8012B9A
:1007100000F8012B48BF00F8012B70474FF0000292
:1007200000B5134694469646203922BFA0E80C50E7
:10073000A0E80C50B1F12001BFF4F7AF090728BFC2
:10074000A0E80C5048BF0CC05DF804EB890028BF3E
:1007500040F8042B08BF704748BF20F8022B11F067
:10076000804F18BF00F8012B7047704770477047E3
:1007700070470000074B70B50D467B4400F09BF8B6
:100780000446284600F064FA10B14FF0FF3070BD07
:10079000204670BDFF9D01003A2800D2303820F07D
:1007A0002002412A01D3A2F13700884201D34FF041
:1007B000FF30704702681144137801601846704793
:1007C000D16005497944516104497944116200219D
:1007D0001161114600F082B8EDFFFFFFCD0000006F
:1007E000426842B1016811F8013B23B1521EC0E9D1
:1007F0000012184670470121C160881E7047426888
:100800005AB1C368016843B983688B4205D0491E59
:10081000521CC0E90012002070474FF0FF307047B3
:10082000431A28BF9A427FF61DAF104410F0030F01
:1008300011441EBF11F8013D521E00F8013D10F099
:10084000030F7FF4F6AF103AC0F00A8010B531E91B
:100850001850103A20E91850BFF4F9AFBDE8104025
:10086000530724BF31E9081020E9081044BF51F8AC
:10087000043D40F8043D12F0030F08BF7047D20753
:1008800028BF31F8023D48BF11F8012C28BF20F8DD
:10089000023D48BF00F8012C704710B5044600F037
:1008A00001FA0068005D00F0010010BD01694A1CFA
:1008B00002610878704700B58FB0CDE901310021A1
:1008C000059105497944CDE9031011466846FFF7C3
:1008D00007FD0FB000BD0000E5FFFFFF2DE9F34F5E
:1008E0004FF0000A0C4656468DB001200C9001F1E5
:1008F0000C000B9062690B9801219047051E2DD0CA
:10090000252D2CD0216A8847C0B162690B9801213E
:100910009047216A88470028F7D16269411E0B98E9
:10092000904700E0761CA1690D988847216A8847A6
:100930000028F7D1E1690D988847DBE7A1690D9898
:100940008847A842074601D1761CD3E7E1690D9894
:1009500088477F1C02D1BAF1000F6FD06BE162694A
:100960000B9800273D46394690472A2804D16269F2
:100970000B98012190470125DFF8D08262690B981E
:1009800001219047A0F130010A290AD24745E5DC50
:1009900007EB870100EB4107303FDFD445F010053E
:1009A000ECE7E90601D46FF000476C280AD04C2828
:1009B00014D0682815D06A280DD074281CD07A2845
:1009C0001AD01DE062690B98012190476C2802D073
:1009D00045F0040514E045F002050DE045F0200562
:1009E0000AE062690B9801219047682802D045F01F
:1009F000080505E045F4006562690B980121904700
:100A0000C4E9015765283DD019DC58287AD00CDCA0
:100A1000452837D004DC252826D041289ED131E056
:100A200046282FD0472899D12CE05B2877D0612821
:100A300028D063287CD0642823D15AE0F6E06F28C0
:100A400048D008DC66281DD067281BD0692821D033
:100A50006E2816D127E0702845D0732868D07528F5
:100A600047D078280DD14DE0A1690D9888472528F9
:100A700005463FF469AFE1690D9888476D1C3FF466
:100A80006AAFD8E00D9923466A466FF00100AFF3D4
:100A90000080C5E045F0400023464FF00002606052
:100AA000A80736D43EE0E8077FF447AF2068011D71
:100AB00021600068290501D506701BE7290701D5CB
:100AC000068017E7A90703D5F117C0E9006111E710
:100AD00006600FE745F0400023464FF008026060D3
:100AE000A80716D41EE040F60E0125EA010060605A
:100AF00016E045F0400023464FF00A026060A80768
:100B000007D40FE045F040006060A80708D52346F1
:100B100010220D996FF00100AFF3008080E007E034
:100B2000102223460D996FF00100FFF72BFC77E0B0
:100B30004FF0000963284F46C8464B46CB4602D0CB
:100B40005B2806D038E0E80601D40120A060012728
:100B500032E06269D4F80CB00B98012190475E280E
:100B600007D14FF0010949466269D4F80CB00B98DF
:100B70009047216939B900210A4603AB43F8212087
:100B8000491C0829FADBD8B3216949B308F10108E7
:100B900062690B98012190475D28F4D1B9F1000FEB
:100BA00009D0002003A951F82020D24341F8202089
:100BB000401C0828F7DB03AB2069002820794FEAA6
:100BC00040701ED05B462246CDF80080CDE90197EB
:100BD0000D9900286FF0010020DAAFF300801FE0CC
:100BE000C11703AA00EBD1614B1121F01F0102EBE9
:100BF0008302411A13680120884003431360C7E74A
:100C000019E00D99224600286FF00100009702DAE2
:100C1000AFF3008004E0AFF3008001E0AFF30080A9
:100C200000280ADA401C06D10C9820B14FF0FF30A2
:100C30000FB0BDE8F08F5046FAE7E90701D10AF19D
:100C4000010A064400200C9054E60000CCCCCC0CE9
:100C5000007B00F080007047754600F035F8AE4626
:100C600005006946534620F00700854618B020B5B8
:100C7000FFF716FBBDE820404FF000064FF00007DD
:100C80004FF000084FF0000B21F00701AC46ACE834
:100C9000C009ACE8C009ACE8C009ACE8C0098D46A1
:100CA0007047000010B500F013F8001D10BD00BF24
:100CB000CD9C010010B50446AFF300802046BDE88E
:100CC0001040FFF7D9BA000000487047DCD300207D
:100CD00000487047FCD300204FF0013C50F8042B33
:100CE00051F8043B9A4221D1A2EB0C03934313EA3F
:100CF000CC1317D150F8042B51F8043B9A4215D16C
:100D0000A2EB0C03934313EACC130BD150F8042B42
:100D100051F8043B9A4209D1A2EB0C03934313EA26
:100D2000CC13DBD04FF00000704700BFD01A01BADF
:100D3000B1FA81F101F0180122FA01F0CB40C1F1C2
:100D40002001DBB2C0B2C01A2CFA01F3D11A9143D0
:100D500011EAC311E6D170471CB5012188030DF0DB
:100D6000C5FA062105200DF0BBFF402000900020B1
:100D70008DF8040008208DF8050001208DF806008C
:100D8000684603F08FFB1CBD1CB5012120200DF02F
:100D90007DFA00208DF8040003208DF80500022064
:100DA0008DF80700402000906946024803F072FC6D
:100DB0001CBD00000014024008B517208DF800008B
:100DC0000C208DF8010000208DF8020001208DF824
:100DD000030068460CF0ACFF08BD1CB50121880378
:100DE0000DF084FA072105200DF07AFF8020009095
:100DF00000208DF8040008208DF8050001208DF8F2
:100E00000600684603F04EFB1CBD00001CB5012126
:100E100020200DF03BFA00208DF8040003208DF80F
:100E2000050002208DF807008020009069460248E6
:100E300003F030FC1CBD00000014024008B5172070
:100E40008DF800000C208DF8010000208DF80200C4
:100E500001208DF8030068460CF06AFF08BD1CB540
:100E6000012188030DF042FA082105200DF038FF1A
:100E70004FF48070009000208DF8040008208DF859
:100E8000050001208DF80600684603F00BFB1CBD31
:100E90001CB5012120200DF0F9F900208DF8040087
:100EA00003208DF8050002208DF80700C001009096
:100EB0006946024803F0EEFB1CBD0000001402402E
:100EC00008B517208DF800000C208DF801000020D7
:100ED0008DF8020001208DF8030068460CF028FF11
:100EE00008BD1CB5012188030DF000FA0921052079
:100EF0000DF0F6FE4FF40070009000208DF8040015
:100F000008208DF8050001208DF80600684603F0E2
:100F1000C9FA1CBD1CB5012120200DF0B7F9002035
:100F20008DF8040003208DF8050002208DF80700DD
:100F3000000200906946024803F0ACFB1CBD0000B3
:100F40000014024008B517208DF800000C208DF821
:100F5000010000208DF8020001208DF80300684692
:100F60000CF0E6FE08BD1CB5012188030DF0BEF9AA
:100F7000012100200DF0B4FE0220009000208DF829
:100F8000040008208DF8050001208DF80600684651
:100F900003F088FA1CBD00001CB5012108460DF0C5
:100FA00075F900208DF8040003208DF8050002205B
:100FB0008DF8070000906946014803F06BFB1CBDEB
:100FC0000000024008B507208DF800000C208DF8C5
:100FD000010000208DF8020001208DF80300684612
:100FE0000CF0A6FE08BD1CB5012188030DF07EF9AA
:100FF0000A2105200DF074FE4FF48060009000205F
:101000008DF8040008208DF8050001208DF80600F9
:10101000684603F047FA1CBD1CB5012120200DF0E5
:1010200035F900208DF8040003208DF8050002201A
:101030008DF80700400200906946024803F02AFB41
:101040001CBD00000014024008B528208DF80000E7
:101050000C208DF8010000208DF8020001208DF891
:10106000030068460CF064FE08BD1CB5012188032E
:101070000DF03CF9002108460DF032FE01200090F1
:1010800000208DF8040008208DF8050001208DF85F
:101090000600684603F006FA1CBD00001CB50121DD
:1010A00008460DF0F3F800208DF8040003208DF8B9
:1010B000050002208DF807000120009069460248D3
:1010C00003F0E8FA1CBD00000000024008B506204D
:1010D0008DF800000C208DF8010000208DF8020032
:1010E00001208DF8030068460CF022FE08BD1CB5F7
:1010F000012188030DF0FAF8042102200DF0F0FD23
:101100001020009000208DF8040008208DF80500C4
:1011100001208DF80600684603F0C4F91CBD0000EC
:101120001CB5012104200DF0B1F800208DF8040059
:1011300003208DF8050002208DF807001020009094
:101140006946024803F0A6FA1CBD000000080240F0
:1011500008B50A208DF800000C208DF80100002051
:101160008DF8020001208DF8030068460CF0E0FDC8
:1011700008BD00001CB5012108460DF087F80722C4
:1011800009210D4803F0CEFA07220A210A4803F08C
:10119000C9FA4FF4C060009002208DF804008DF869
:1011A000050000208DF806008DF80700694602480A
:1011B00003F070FA1CBD00000000024010B50446A8
:1011C000204600F017F8FFF7D5FF00F001F810BD3A
:1011D00008B525208DF800000C208DF801000020B6
:1011E0008DF8020001208DF8030068460CF0A0FD88
:1011F00008BD00001FB50446012110200DF076F84F
:1012000000940020ADF80400ADF80600ADF8080029
:10121000ADF80C000C20ADF80A00694606480EF047
:101220008BF8012240F2255103480EF05FF80121AE
:1012300001480EF025F81FBD0010014010B56FF0F9
:1012400004000DF0F5FD0A4800680A49B0FBF1F012
:10125000094908700846007800EB4001C1EBC01056
:101260004FF6FF7101EAC0000449088010BD00007C
:10127000F09D002000127A00080000200A000020E3
:1012800070B504464FF4077094FBF0F0C6B24FF40B
:10129000077094FBF0F100FB114085B205E04FF4BC
:1012A000077000F009F8701EC6B2002EF7D115B114
:1012B000284600F001F870BD0146114A12884A43E1
:1012C0004FF0E0235A6100229A611A46126942F0F7
:1012D00001021A6100BF4FF0E022106900F0010224
:1012E0001AB100F48032002AF5D04FF0E0221269E2
:1012F00022F001024FF0E0231A6100229A61704748
:101300000A00002038B504464FF480410E4803F02F
:101310002CFAB0B184220421684609F0EDF89DF85A
:1013200002009DF8031001F00F0140EA0120208027
:101330009DF800009DF8011040EA01206080002027
:1013400038BD0120FCE700000018024001B581B063
:1013500045F6C050009008E045F6C050009000BF30
:101360000098411E00910028FAD1BDF80400411EEA
:1013700089B201910028EFD10CBD00001CB50121FC
:1013800040200CF083FF00208DF8040003208DF82E
:10139000050002208DF807004003009069460248CE
:1013A00003F078F91CBD00000018024010B500BF22
:1013B000802000F02BF80028FAD1FFF7DFFF19F0AA
:1013C000EBF819F049F919F005F919F05CF9142056
:1013D000FFF7BCFF19F04EF810BD000010B58020DB
:1013E0000949088000F02EF840200749891E08802E
:1013F00000F028F840200449088000F023F88020FD
:101400000149891E088010BD1A04024070B50446C7
:101410000B48006800F0800080B10948006800F0C7
:10142000400058B100F09EF8204600F071F800F03E
:10143000C3F8054600F0AEF8284670BD0120FCE771
:101440001004024008B50020009004E09DF8000060
:10145000401CC0B200909DF800001E28F6DB08BDBD
:101460001CB5012102200CF011FF03208DF80500AE
:1014700001208DF804008DF8060000208DF807008B
:10148000402000906946064803F004F9802000904F
:101490006946034803F0FEF800F07CF81CBD00002C
:1014A0000004024010B5802007490880FFF7CAFFFA
:1014B000402005490880FFF7C5FF40200249891CEC
:1014C0000880FFF7BFFF10BD1804024070B500246C
:1014D000002516E06006040E40200C490880FFF746
:1014E000B1FF0A480838006800F0800008B1601CAD
:1014F000C4B240200549891C0880FFF7A3FF681C7F
:10150000C5B2082DE6DB204670BD0000180402407D
:1015100070B50446002520E004F0800018B180205A
:101520000F49088003E080200D49891C0880FFF7DF
:1015300089FF40200A490880FFF784FF40200849BE
:10154000891C0880072D02D18020891E0880600632
:10155000040EFFF777FF681CC5B2082DDCDB70BDF9
:101560001804024010B580200949088040200880F6
:10157000FFF768FF80200649891C0880FFF762FF9B
:1015800040200349891C0880FFF75CFF10BD000064
:101590001804024010B58020064908804020891EAA
:1015A0000880FFF74FFF80200249891E0880FFF75F
:1015B00049FF10BD1A04024010B580200C49088074
:1015C000FFF740FF40200A490880FFF73BFF08482B
:1015D0000838006800F0800008B1012400E0002411
:1015E00040200349891C0880FFF72CFF204610BDCE
:1015F0001804024000B59DB0042007900020089018
:101600000620099001200A9000200B900C900D906C
:1016100004200090002001900820029001200390F7
:10162000002004900590069006200E9000200F9058
:10163000109010201190002012901390149015908B
:1016400016904FF4805017900020189019901A901F
:10165000CDF86CD007A81C900EA802F087FF0121DE
:10166000062002F069FF1DB000BD00001CB501217D
:1016700008460CF01BFE012178200CF007FE0C221E
:101680000021574803F04EF80C220121544803F082
:1016900049F80C220421524803F044F80C22052199
:1016A0004F4803F03FF80C2208214D4803F03AF868
:1016B0000C2209214A4803F035F80C220A21484837
:1016C00003F030F80C220E21454803F02BF80C22D1
:1016D0000F21434803F026F84CF2337000900220AB
:1016E0008DF8040003208DF8050000208DF8060019
:1016F0008DF8070069463A4802F0CCFF0C2207211A
:10170000384803F00FF80C220821364803F00AF895
:101710000C220921334803F005F80C220A21314834
:1017200003F000F80C220B212E4802F0FBFF0C22E4
:1017300011462C4802F0F6FF0C220D21294802F038
:10174000F1FF0C220E21274802F0ECFF0C220F21A2
:10175000244802F0E7FF4FF6807000906946214868
:1017600002F098FF0C2201211F4802F0DBFF0C223F
:1017700002211D4802F0D6FF0C2203211A4802F074
:10178000D1FF0C220F21184802F0CCFF0C220E21B1
:10179000154802F0C7FF4CF20E000090694612484F
:1017A00002F078FF0C220121104802F0BBFF0C224E
:1017B00000210E4802F0B6FF0320009069460B4856
:1017C00002F068FF0C221146084802F0ABFF4FF40C
:1017D000805000906946054802F05CFF1CBD000087
:1017E000000C0240001002400014024000180240A9
:1017F00010B5FFF73BFFFFF7FDFE10BD06E04FF011
:10180000D8435B5A20F8023B891C521E002AF6D1AD
:10181000704710B506E030F8024B4FF0D8435C52E9
:10182000891C521E002AF6D110BD000010B500F030
:101830006FF84FF4F070344908804FF44870334922
:10184000088088200CF004FD0CF007FB0B200CF046
:1018500005FD0CF0F7FA89200CF0FAFC0CF0FDFA0B
:1018600002200CF0FBFC0CF0EDFA0A2110200CF029
:10187000FBFC812104200CF0F7FC0CF0E3FA63215F
:1018800014200CF0F1FC002115200CF0EDFC0321DC
:1018900016200CF0E9FC032117200CF0E5FC0B21CD
:1018A00018200CF0E1FCDF2119200CF0DDFC0121F7
:1018B0001A200CF0D9FC1F211B200CF0D5FC0021B4
:1018C0001C200CF0D1FC16211D200CF0CDFC0021B9
:1018D0001E200CF0C9FC01211F200CF0C5FC80214A
:1018E00001200CF0C1FC00200CF00EFC0021412076
:1018F0000CF0BAFC0548038803480288002108461A
:101900000CF050FC10BD0000E89D0020EA9D002076
:101910007047000000B599B0012178200CF0B6FCAA
:10192000012108460CF0C2FC4CF203700190022029
:101930008DF8080000208DF80A0003208DF80900BA
:1019400001208DF80B0001A9974802F0A3FE0C229C
:101950000021954802F0E6FE0C220121924802F097
:10196000E1FE0C220821904802F0DCFE0C22092145
:101970008D4802F0D7FE0C220A218B4802F0D2FEDD
:101980000C220E21884802F0CDFE0C220F21864841
:1019900002F0C8FE4FF68070019001A9834802F062
:1019A00079FE0C220721814802F0BCFE0C2208219E
:1019B0007E4802F0B7FE0C2209217C4802F0B2FEFC
:1019C0000C220A21794802F0ADFE0C220B21774847
:1019D00002F0A8FE0C221146744802F0A3FE0C226D
:1019E0000D21724802F09EFE0C220E216F4802F07B
:1019F00099FE0C220F216D4802F094FE4FF23F0039
:101A0000019001A96A4802F045FE0C2200216848B5
:101A100002F088FE0C220121654802F083FE0C22B0
:101A20000221634802F07EFE0C220321604802F08E
:101A300079FE0C2204215E4802F074FE0C2205217E
:101A40005B4802F06FFE0C221146594802F06AFE14
:101A50000C220D21564802F065FE0C220E2154483E
:101A600002F060FE0C220F21514802F05BFE3F2085
:101A7000019001A94F4802F00DFE0C2200214D48B3
:101A800002F050FE0C2201214A4802F04BFE0C22CB
:101A90000221484802F046FE0C220321454802F08C
:101AA00041FE0C220421434802F03CFE0C22052199
:101AB000404802F037FE4FF46050019001A93A48C7
:101AC00002F0E8FD0C220B21374802F02BFE0C221D
:101AD0001146354802F026FE0C220D21324802F054
:101AE00021FE3020019001A92F4802F0D3FD0C22E5
:101AF00004212D4802F016FE0C2205212A4802F08E
:101B000011FE4FF40070019001A92A4802F0C2FDB5
:101B10000C220921274802F005FE0320019001A9AB
:101B2000224802F0B7FD0C220021204802F0FAFD05
:101B30000C2201211D4802F0F5FD4FF48050019068
:101B400001A91C4802F0A6FD0C221146194802F01A
:101B5000E9FD0020039004900820059000200690E5
:101B600007900890099002200A9000200B900C909A
:101B700010200D9000200E9010900F901190129058
:101B80004FF480501390002014901590169003A8E5
:101B9000179018900AA802F0E9FC0121022002F037
:101BA000CBFC19B000BD0000000C02400010024048
:101BB000001402400018024010B54021074802F00E
:101BC000D4FD48B1402002F067FC00F03CF8044628
:101BD000214603480DF01FFC10BD00000014024018
:101BE0000010014000B585B00120049083200390CF
:101BF000032002900C20019000200090FFF7C4F811
:101C0000FFF7AAF8FFF7D8F8012241F20C0103A868
:101C1000FFF7FFFD0122110301A8FFF7FAFD0122E2
:101C200041F204016846FFF7F4FD012241F20C0184
:101C300002A8FFF7EEFD012241F2040104A8FFF71C
:101C4000E8FD05B000BD08B5012211036846FFF7A5
:101C5000D5FDBDF8000008BD704700B585B0012076
:101C6000049083200390032002900C200190002018
:101C70000090FFF7CBF8FFF7B0F8FFF7DFF801228D
:101C800041F20C2103A8FFF7C4FD01224FF490514B
:101C900001A8FFF7BEFD012241F204216846FFF7CB
:101CA000B8FD012241F20C2102A8FFF7B2FD01228A
:101CB00041F2042104A8FFF7ACFD05B000BD00000F
:101CC00010B54FF48071084802F04FFD50B14FF449
:101CD000807002F0E1FB00F03DF804462146034825
:101CE0000DF099FB10BD00000014024000100140EF
:101CF00000B585B00120049083200390032002905A
:101D00000C20019000200090FFF7C2F8FFF7A7F821
:101D1000FFF7D6F8012241F20C4103A8FFF779FD45
:101D200001224FF4A05101A8FFF773FD012241F2F7
:101D300004416846FFF76DFD012241F20C4102A803
:101D4000FFF767FD012241F2044104A8FFF761FD9E
:101D500005B000BD08B501224FF4A0516846FFF759
:101D60004DFDBDF8000008BD10B54FF400710448EA
:101D700002F0FBFC18B14FF4007002F08DFB10BDB7
:101D80000014024000B585B0012004908320039028
:101D9000032002900C20019000200090FFF7BAF879
:101DA000FFF79FF8FFF7CEF8012241F20C6103A87C
:101DB000FFF72FFD01224FF4B05101A8FFF729FDD5
:101DC000012241F204616846FFF723FD012241F23E
:101DD0000C6102A8FFF71DFD012241F2046104A875
:101DE000FFF717FD05B000BD10B50221314802F024
:101DF000BCFC00285CD0022002F04EFB00F098F8FA
:101E0000C4B2FF2C00D110BD2B480068012806D0B9
:101E1000022817D0032823D0042848D133E000201B
:101E20002649087026490870AA2C0AD1084601786C
:101E30000078401C224A10702248445402201E4957
:101E4000086034E0204804701D4801780078401C88
:101E50001B4A10701B48445403201749086026E0B1
:101E6000174801780078401C154A107015484454F2
:101E70001046017814480078401C814202D10420A9
:101E80000D49086013E001200B49086000200E494D
:101E900008700B4801780078401C094A1070094806
:101EA0004454552C02D101200449087000BF00BFE2
:101EB00000BFA8E700000240589E0020549E00206A
:101EC000559E002020A80020569E002000B585B019
:101ED0000120049083200390032002900C200190A5
:101EE00000200090FFF758F8FFF73DF8FFF76AF879
:101EF000012241F60C0103A8FFF78BFC01224FF4ED
:101F0000C05101A8FFF785FC012241F60401684693
:101F1000FFF77FFC012241F60C0102A8FFF779FCD4
:101F2000012241F6040104A8FFF773FC05B000BDCF
:101F300008B501224FF4C0516846FFF75FFCBDF8B9
:101F4000000008BD01B501224FF4C0516846FFF7FB
:101F500060FC08BD10B54FF48061084802F005FC34
:101F600050B14FF4806002F097FA00F03DF804465B
:101F7000214603480DF04FFA10BD00000014024046
:101F80000010014000B585B001200490832003902B
:101F9000032002900C20019000200090FFF73CF8F5
:101FA000FFF721F8FFF750F8012241F60C2103A8B2
:101FB000FFF72FFC01224FF4D05101A8FFF729FCB5
:101FC000012241F604216846FFF723FC012241F675
:101FD0000C2102A8FFF71DFC012241F6042104A8F0
:101FE000FFF717FC05B000BD08B501224FF4D05132
:101FF0006846FFF703FCBDF8000008BD10B50121DD
:10200000074802F0B2FB48B1012002F045FA00F0A7
:102010003DF80446214603480DF0FDF910BD0000CF
:10202000000002400010014000B585B0012004907E
:1020300083200390032002900C2001900020009048
:10204000FFF72CF8FFF711F8FFF740F8012241F6EF
:102050000C4103A8FFF7DDFB01224FF4E05101A87A
:10206000FFF7D7FB012241F604416846FFF7D1FB99
:10207000012241F60C4102A8FFF7CBFB012241F6F9
:10208000044104A8FFF7C5FB05B000BD08B5012257
:102090004FF4E0516846FFF7B1FBBDF8000008BD02
:1020A00010B51021074802F060FB48B1102002F083
:1020B000F3F900F03DF80446214603480DF0ABF972
:1020C00010BD0000000802400010014000B585B0BE
:1020D0000120049083200390032002900C200190A3
:1020E00000200090FFF71CF8FFF701F8FFF730F829
:1020F000012241F60C6103A8FFF78BFB01224FF48C
:10210000F05101A8FFF785FB012241F60461684602
:10211000FFF77FFB012241F60C6102A8FFF779FB74
:10212000012241F6046104A8FFF773FB05B000BD6E
:1021300008B501224FF4F0516846FFF75FFBBDF888
:10214000000008BD10B5FFF74DFDFFF786FDFFF756
:10215000CFFDFFF717FEFFF7B9FEFFF713FFFFF7FD
:1021600063FFFFF7B3FF10BD10B5FFF75FFB002063
:1021700009F0DAF8002008F079FB10BD10B504462C
:1021800000F004F8204600F011F810BD08B51C203E
:102190008DF8000000208DF801008DF8020001206C
:1021A0008DF8030068460BF0C3FD08BD3EB504463C
:1021B000012108460CF08AF8601E01905320ADF80A
:1021C00000000020ADF80800ADF8020069464FF0AD
:1021D00080400DF001F80122114690070CF0F2FF4B
:1021E000012188070CF0D1FF3EBD000008B568460C
:1021F000FFF788F888B90A4800880A4908800A4821
:1022000000880A490880BDF8000005490880BDF82B
:10221000020005490880002008BD0120FCE70000FD
:10222000D49D0020D89D0020D69D0020DA9D00205E
:102230001CB5012102200CF029F807220A210D48C3
:1022400002F070FA07220B210A4802F06BFA4FF4F1
:102250004060009002208DF804008DF805000020F9
:102260008DF806008DF807006946024802F012FA60
:102270001CBD00000004024010B50446204600F0DA
:1022800017F8FFF7D5FF00F001F810BD08B52720BB
:102290008DF800000D208DF8010000208DF802005F
:1022A00001208DF8030068460BF042FD08BD0000D8
:1022B0001FB50446012188040CF008F800940020A2
:1022C000ADF80400ADF80600ADF80800ADF80C005C
:1022D0000C20ADF80A00694609480DF02DF80122DE
:1022E00040F2255106480DF001F8012240F2244148
:1022F00003480CF0FBFF012101480CF0C1FF1FBD9A
:102300000048004010B50446214651200BF0ACFFB8
:1023100010BD2DE9F04105460C4616461F46DDF876
:102320001880E9B258200BF09FFF291259200BF0BA
:102330009BFFE1B25A200BF097FFB8F1000F04D1D8
:1023400021125B200BF090FF05E0802040EA242161
:102350005B200BF089FFF9B25C200BF085FF39128E
:102360005D200BF081FFF1B25E200BF07DFF31129A
:102370005F200BF079FFBDE8F081000010B501206F
:102380000449087050200BF063FF80200BF066FFBB
:1023900010BD0000DC9D002010B5002406E00BF00D
:1023A0007FFE00F0400000B903E0641C0348844253
:1023B000F5D300BF00200249087010BD801A060046
:1023C000DC9D002038B544680546014620460DF0E6
:1023D00045F8002808BF38BD464A286811280DD0A6
:1023E00006DC0B282AD00E2838D00F2817D07CE026
:1023F000282873D0B0F5107F0AD076E09268002AC2
:1024000008BF38BD294601B02046BDE8304010471E
:10241000526801B029462046BDE8304010472546A5
:10242000204602F085FC0090406E0468684602F089
:1024300005FD002C1CBF2846A04738BD204602F0F1
:1024400077FC0090683002F08DFB009803216C301F
:1024500002F0AEFB684602F0F1FC46E0E96848682D
:1024600009680D2902D0202918D037E0002835DD71
:102470004FF4807120460DF0AFF8204602F058FC72
:10248000009090F82850684602F0D8FC15F0020F32
:102490001ED0012120460EF013FD19E0002817DDA3
:1024A00025464FF4807120460DF096F8284602F03C
:1024B0003FFC009090F82840684602F0BFFC14F002
:1024C000020F08BF38BD012128460EF0F9FC38BDC7
:1024D0002046BDE83840022114F0EDBDE86820B97F
:1024E00020464FF480710CF09CFF2846BDE8384030
:1024F0000DF084BC009F002070B5044686B0806952
:10250000B4F908C0658A00260091CDE90165CDE9DE
:1025100003C0B4F90C00B4F91050C118B4F90A00A2
:10252000B4F90EC010442B46624600F007F8054689
:10253000616800F09CF906B0284670BD2DE9F043B3
:1025400085B00D46DDE90F61DDE90C4C154F4C31CE
:10255000CDE90271CDE9004C29460DF09DFB050047
:102560001BD002F0E5FB1022314604900DF092F9E9
:102570000D4C0499B4E8CD133431A1E8CD1394E89F
:102580000D10A1E80D1054F82C0D086004A802F0FD
:1025900055FC206841682846884705B02846BDE8B4
:1025A000F0830000C52300080C9F0020F0B504460E
:1025B00080688C4989B051F820506068002800F08C
:1025C0000A81052806D006287DD0122800F0B480A4
:1025D00000F004B9E869002808BF002651D0D5E909
:1025E0000012AB688DE80F0004F110010FC906F06E
:1025F00099FD002655F8260005F07AFDA169E869E5
:102600000A1A216901446069304403F093FCA1690E
:10261000E8690A1A21690144E069801B03F08AFC19
:10262000E169E8690A1A616901442069304403F0EC
:1026300015FDE169E8690A1A61690144A069801B16
:1026400003F00CFD761C022ED4DBA86805F050FDCB
:10265000E069E969D4F814C0431A2069421861445A
:10266000801C521E03F0A0FDE169E869A2690B1A03
:1026700061690144101A401C921E03F095FDEE6939
:1026800011E055F8260005F033FDE069831BA069D1
:10269000821B606981192069304403F09BFC761C21
:1026A000022EEEDB0226D5E90301CDE90001E16946
:1026B000606901444B10A1698A1B811C2069304468
:1026C00003F034FB00E011E0D5E90501CDE900019C
:1026D000E0696169831E01440122A06902EB610186
:1026E000821B2069304403F021FB77E0206802F070
:1026F0001FFB049020680FF093FC50B1A0680028E5
:1027000018BF00200AD10498006F002818BF0120CC
:1027100004E00498406F002818BF0220049901EBE0
:102720008000C56E04A802F089FB00231A462846E3
:10273000216802F0A3FF51E0206802F0F9FA04904A
:10274000866E002E08BF04A842D0A168B0F95C7064
:10275000002908BF012103D003290CBF0221002159
:1027600000EB8101406D0C6C05F0C6FC204605F0C5
:10277000BFFC06A803F0FCFDBDF81810A88B0144AF
:10278000ADF81810BDF81C10081AADF81C00BDF803
:102790001A00801CADF81A00BDF81E00801EADF8AE
:1027A0001E000498B0F96020B0F95E1006A804F08D
:1027B000CBFF04A802F042FB022005F0E1FC30460A
:1027C00002F0B6FA3A4606A9059003F033F805A8D8
:1027D00002F034FB02E020680EF00CFE09B000208D
:1027E000F0BD00006CE10108F0B583B016460D465F
:1027F000002804BF03B0F0BD02F09AFA0190806E89
:102800000027002808BF2F7011D002F091FA009025
:10281000FDF782FE0446701E84420DDC22462846E7
:102820000099FDF798FE684602F008FB2F5501A8B5
:1028300002F004FB03B0F0BD0446EFE700294FF0BF
:10284000100101D00CF0C8BE0CF0EBBD002808BF91
:10285000704738B50C46054602F06AFA00904465A8
:10286000684602F0EBFA28460EF0C2FA38BDF0B521
:1028700083B00F4605004FF001041CD002F058FA57
:102880000190866E01A8009602F0D8FA3946684693
:1028900007F086F878B100980024B04208D02846A6
:1028A00002F046FA01900099816601A802F0C6FA8A
:1028B00028460EF09DFA03B02046F0BD00BFFEE7AB
:1028C0002DE9F84F44680546014620460CF0C6FD48
:1028D000002808BFBDE8F88F28680B2873D00E28A1
:1028E00005D00F2823D0B0F5107F30D075E02046FA
:1028F00002F01EFA009090F8746090F875706846C7
:1029000002F09CFA20460FF08BFB002865D0E868A7
:102910004168002961DD006820285ED1781CB0FB89
:10292000F6F106FB1101204600F0D4FA55E02546E9
:10293000204602F0FDF90090006F0468684602F03E
:102940007DFA002C1CBF2846A047BDE8F88F26461C
:102950000027204602F0ECF9009090F8749090F86F
:102960007580B0F930A0684602F068FAEC6824B3CC
:1029700030460EF031F920B1394630460EF0A0FA5B
:102980002BE0207A88B1012130460EF011FC08F1CD
:102990000100B0FBF9F109FB1101304600F09AFA91
:1029A000012130460EF08CFA17E0022130460EF07D
:1029B00087FA504605F0F6FB0FE0032130460EF093
:1029C0007FFA0AE0FFE7204602F0B2F90090783083
:1029D00002F0C8F8684602F031FA2846BDE8F84F20
:1029E0000DF00CBA70B586B0B0F90840458AD0F841
:1029F00018C00026CDE90254CDE90016CDF810C06C
:102A0000B0F90C10B0F91040B0F90EC0B0F90A00DE
:102A1000194410442346624600F002F806B070BD27
:102A20002DE9FF4F85B0294CDDE912A7DDE91589B5
:102A30001D4616008B4601D035B10AE0206880683B
:102A400000688047064625B920688068006880478E
:102A500005461F486FF07041C068884208BF47F0C4
:102A6000010709F154011B48CDE900A7CDE9020196
:102A70002B463246594605980DF00EF9050021D037
:102A800002F056F91022414604900CF003FF241D79
:102A90000499B4E8CD133431A1E8CD1394E8CD11F5
:102AA000A1E8CD1154F8240D41F87009022081F8F5
:102AB00074000F20C86704A802F0C0F920684168BC
:102AC0002846884709B02846BDE8F08F4CA1002071
:102AD00050A10020C12800082DE9F04F04460068ED
:102AE00089B028B10FF09CFA002808BF012500D05A
:102AF0000025F44850F8256060680A2800F06281DB
:102B000008DC002800F0C881062838D007280CD03F
:102B100000F0D3B9122800F02481192802BFB0694F
:102B200009B0BDE8F08F00F0C8B9206802F000F9E4
:102B30000090C76F684602F081F9002556F825001D
:102B400005F0D6FA2069C119491B4B1E61691A4666
:102B50002944284403F03EFA6D1C032DEED3D6E938
:102B60000301CDE900012069C119491B4B1E6169B0
:102B70001A462944284403F0D9F800F09EB9A06809
:102B8000401E0690206802F0D3F80090D0F87C80B8
:102B9000684602F053F9CC4C54F82570002F1CBF46
:102BA000069800EB80000CD0B7F84810414505D1DD
:102BB00007EB8001896809B11FB1C8E0FF6C002FE5
:102BC000F2D1502002F02AF807006BD050220021E9
:102BD00006F074FF70697864A7F8488054F82500FF
:102BE000F864A8F10608B94844F8257080FB08107D
:102BF0004110A1EBE073032008900122CDF808807A
:102C000007F14000CDE90302069D08EBD87105EB02
:102C1000850007EB8000019005EB450007EB800085
:102C2000283000904810491001EBD172C01AA1EB76
:102C300062010590CE1808F10700C11700EB517032
:102C40004FEAE00A0AFB08F4204601F0E7FF81465C
:102C50002246002106F032FFDDE9042001282CDDA8
:102C6000089B012130463344834221DD4FEAE27C58
:102C700002EB5C7E02F0070C802424FA0CFC404539
:102C800009DA0AFB00F404EBEE0419F804B04BEA8D
:102C90000C0B09F804B06940401C834208DD002990
:102CA000F9D0ECE750218A4803F01AFA00F005B990
:102CB0000598521C761C9042D2DC04990298401A66
:102CC0000490904226DD0899012034463144A14207
:102CD0001BDDD31702EB537E02F007034FF0800C8D
:102CE0002CFA03F3444509DA0AFB04FC0CEBEE0C66
:102CF00019F80CB04BEA030B09F80CB06840641CDF
:102D0000A14202DD0028F9D0ECE70498521C761E9F
:102D10009042D8DC009802210160009901200871DE
:102D2000009A039991600199C88001980021A0F848
:102D300004A00198C0F8089001980161DDE9000144
:102D4000C860DDE9010101800198A0F802800698C1
:102D5000032200EB800007EB8000114602F02AFE00
:102D6000ABE0206801F0E4FF0290B0F9547090F8F5
:102D70005680D0F84490466B02A802F05FF82068B5
:102D800001F0D6FF0390B0F87C5003A802F056F88B
:102D900068460DF02BFBBDF8000005EB0801084468
:102DA000ADF80000246A304605F0A6F9022005F0CF
:102DB000E7F9484605F09CF93A466946204602F094
:102DC00039FD7AE0206801F0B3FF0290B0F9546059
:102DD00090F85690D0F83480876C02A802F02EF854
:102DE000206801F0A5FF0390B0F87C5003A802F022
:102DF00025F868460DF0FAFABDF8000005EB090168
:102E00000844ADF80000206A03F0EAFA04464046A0
:102E100003F00FFB26F00301042904BFBDF80610E0
:102E2000091A08D00C2908D1BDF90610091A491C45
:102E300001EBD1714910ADF8021026F00C01012907
:102E40000CD0022913D1BDF90420BDF90010521A8B
:102E5000121B02EBD27201EB620106E0BDF8042006
:102E6000BDF80010521A121B1144ADF80010BDF845
:102E70000010621E1144ADF80410BDF80210401E8F
:102E80000844ADF80600384605F032F94FF0FF313E
:102E9000684602F005FE10E020680EF0ABFA2068EC
:102EA00001F046FF0790B0F90610B0F90220891A28
:102EB000491CC16707A801F0C1FF09B00020BDE8A7
:102EC000F08F000058EB010894A300206766666647
:102ED000A8ED0108002808BF704738B50C46054624
:102EE00001F026FF009090F87410A1420CD980F8F0
:102EF0007540684601F0A2FF28460DF079FF0521D4
:102F000028460DF0DDFF38BD684601F097FF38BD5B
:102F100000B589B0002000900290039004900590C5
:102F20000690079008901920019004480068806876
:102F300041686846884709B000BD00004CA10020E8
:102F40007CB50DF089FA0546002000902B46044A16
:102F500004210190034802F04DFA044620467CBD4E
:102F60005D8C0108A8C201087CB50DF075FA054614
:102F7000002000902B46044A09210190034802F0EA
:102F800039FA044620467CBD998C010868BD0108C9
:102F90007CB50DF061FA0546002000902B46044AEE
:102FA00013210190034802F025FA044620467CBD17
:102FB0000191010864BE01087CB50DF04DFA05468B
:102FC000002000902B46044A02210190034802F0A1
:102FD00011FA044620467CBD819F010878C0010893
:102FE0007CB50DF039FA0546002000902B46044AC6
:102FF00012210190034802F0FDF9044620467CBDF1
:1030000035A00108B0C001082DE9F04389B00028BF
:1030100004BF09B0BDE8F08311296FD013295DD03A
:1030200007460C4601F084FE0290C06B01F0D3FF0E
:10303000804602A801F002FFA4F14100192898BFC0
:103040002034A1460024B8F1000FDCBF09B0BDE870
:10305000F0830025384601F06BFE0590C06B2146D9
:1030600001F0C5FF064605A801F0E8FE1EB1304696
:1030700001F05EFE05460395002D57D02878A0F19B
:103080004101192998BF2030C5B203A801F0D6FE2E
:103090004D454BD1002F04BF09B0BDE8F083384641
:1030A00001F046FE0190C06B01F095FF002818BFAB
:1030B000401E844240DC0198B0F93410A1422FD068
:1030C000848601A801F0BAFE38460DF091FE042175
:1030D00038460DF0F5FE09B0BDE8F083044601F076
:1030E00027FE0090B0F93450684601F0A7FE09B001
:1030F000691C2046BDE8F04300F034BC044601F0F2
:1031000017FE0190B0F9345001A801F097FE290094
:1031100018BF691E204609B0BDE8F04300F022BC8C
:1031200001A801F08BFE09B0BDE8F083641C4445A2
:103130008FDB09B0BDE8F0830446BCE7002814BF6C
:1031400000297047F8B50C46054601F0F1FD0090E6
:10315000C66B684601F072FE2046FDF7DDF9421CA1
:103160002146304601F090FE28460DF041FEF8BDA4
:10317000F0B54468054685B0204601F0D9FD0190C0
:10318000D0F8886001A801F059FE002E14BF012775
:103190000027294620460CF061F9002804BF05B03D
:1031A000F0BD286811286AD006DC0B2877D00E28DD
:1031B00076D00F2875D0C8E00027212805D0262812
:1031C0002BD0B0F5107F60D0BFE0E86841680029DF
:1031D0003FDD00680D283CD1304608F013FF002881
:1031E00006DB304608F00EFF0146204600F0BAFB31
:1031F000002C71D0204601F09BFD0290D0F8880091
:1032000038B10CF031FE0298C0F8887020460DF0FD
:10321000EFFD02A801F012FE94E0E868012809D051
:103220000A2802D00B2815D08FE00A2120460DF085
:1032300047FE8AE0304608F0E5FE002809DB30460C
:1032400008F0E0FE0146204600F08CFB20460DF021
:10325000F5FF7AE0002C78D0204601F069FD00905F
:10326000D0F8880038B10CF0FFFD0098C0F88870E5
:1032700020460DF0BDFD684601F0E0FD65E0002F41
:1032800063D1E868007A40BB5FE0E86878B1007A13
:1032900040B1012120460DF013FE05B0F0BD1DE048
:1032A00031E009E0022120460DF00AFEF5E7032196
:1032B00020460DF005FEF0E72646204601F038FDD9
:1032C0000290D0F88400046802A801F0B7FD002C39
:1032D0001CBF3046A04738E034E02BE0204601F028
:1032E00027FD0090C06B01F011FE0098D0F8880017
:1032F0000CF0BAFD0098D0F8940001F001FC68468B
:1033000001F09CFD21E0E868416800291DDD0168AD
:1033100020290FD009DC092910D00A2918BF1B2940
:1033200013D02046FFF770FEB7E7212918BF2229E6
:10333000F7D10AE0204600F0C5F906E00DF0D8F814
:10334000B04202D120460DF079FF28460CF056FD20
:10335000A3E7002808BF704738B5044601F0E8FC31
:103360000090D0F8880040B10CF07EFD009900205C
:10337000C1F8880020460DF03BFD684601F05EFD77
:1033800038BD70B586B0B0F90840458AD0F818C08D
:103390000026CDE90254CDE90016CDF810C0B0F9F1
:1033A0000C10B0F91040B0F90EC0B0F90A00194481
:1033B00010442346624600F003F806B070BD0000DA
:1033C0002DE9F04784B00DF130081E460D4698E80F
:1033D0009A10DFF8B8800CF16C0C8DE80A114FF0F0
:1033E000FF3329460CF058FC05004BD001F0A0FC3F
:1033F0001022394600900CF04DFA009880F88C406D
:10340000234C4C30B4E88E17A0E88E1794E88E1148
:10341000A0E88E1154F8241D40F88419002180F88A
:103420009010C686284601F083FC0190B0F9381050
:1034300019B9C06C02F0F8FF01460198C26AB0F9F0
:103440008030126801EB430156180EF019FC074654
:1034500001A801F0F3FC3246394628460EF05AF82E
:10346000684601F0EBFC01F04EFD0646284601F0EF
:103470005FFC0090C663684601F0E0FC206841688C
:103480002846884704B02846BDE8F0877131000817
:10349000409F00202DE9F041044688B0006801F00B
:1034A00047FC0690468ED0F8885006A801F0C6FC6E
:1034B000002D18BF012506F0010620680EF0B0FDB2
:1034C000002D18BF00200FD07D4951F820506068B2
:1034D000002800F0EE80022800F0CE8005280CD0F5
:1034E00012287DD000F0E8B8002E18BF0120EBD1E3
:1034F000002814BF02200320E6E7D5E90123A86ACB
:1035000029688DE80F0004F110000FC805F00AFECD
:103510005FF0000655F8260004F0EAFDA169A86AEC
:103520000A1A216901446069304402F003FDA1696F
:10353000A86A0A1A21690144E069801B02F0FAFCBA
:10354000E169A86A0A1A616901442069304402F0FD
:1035500085FDE169A86A0A1A61690144A069801BB6
:1035600002F07CFD761C022ED4DBA86A02281BDD4B
:10357000A86804F0BDFDE169A86AD4F810C00B1A70
:103580000CEB00014A1E616901440CF1020002F0DB
:103590000BFEE169A86AA2690B1A61690144101A5D
:1035A000401C921E02F000FED5E90301CDE90001A6
:1035B000E1696069A26901444B10A96AD4F810C09E
:1035C000521A8C44811C604602F0B0FBD5E905011B
:1035D000CDE90001A069AB6A6169C21AE06900E047
:1035E00019E001444FF0010C0CEB6101D4F810C05C
:1035F0009C44831E604602F099FB686A04F078FDE3
:10360000E2696169A369501A181A401C091D121F4A
:1036100002F024FD50E0206801F08AFB0090B0F831
:103620008060B0F98280C76C684601F007FC208A90
:10363000B11C0844ADF80800A08A801CADF80A004F
:10364000A08BA18A401A218B891B081AC01EADF8D5
:103650000C00A08B801EADF80E00022004F090FD3F
:10366000384604F049FD286A04F042FD424602A9AA
:10367000206A02F0DFF81FE06169E0694FF0FF3275
:10368000401AA0F1080102EB6106411CA269801BEF
:103690004410A2EB6107E86904F02AFD002E0BDB61
:1036A000BA19B91B204602F045FC641C761EF7D5FA
:1036B00002E020680DF09EFE08B00020BDE8F08119
:1036C0007CE10108002808BF70472DE9F04F9DB04C
:1036D000064601F02DFB0E9030460DF035F882467F
:1036E0000E98B0F9367090F89010099190F88C808F
:1036F000D0F83C90B0F934000690484601F06BFCDD
:1037000004460E98B0F88E100C91B0F98210079113
:10371000C16C0891D0E90012CDE90412D0F89450A0
:10372000016D1091416D1191816D1291C16D1391D7
:10373000016E1491416E1591016F1691416F1791B1
:10374000806F18900EA801F079FB30460CF067FFEF
:1037500001F0EEFA0D90D0F800B00DA801F06EFB6C
:103760004FEA2B4042420FFA8BF0414204A803F08B
:10377000EBFF18F0020F1ABFBDF81200C01BBDF816
:103780001600ADF8120030460CF049FF0221CDF8CA
:1037900000A0CDE901710146BDF91230BDF910203C
:1037A000002008F0C0FB074618F0010F07D038468C
:1037B000099908F0B0FE0121384608F0DFFD4FF00E
:1037C0000008002C0BD94146484601F010FC014688
:1037D000384608F0DFF808F101084445F3D8002422
:1037E0000DF14008214658F82420384608F0EFFD36
:1037F000641C032CF6D300240DF14C08214658F824
:103800002420384608F099FF641C032CF6D30024CA
:103810000DF15808214658F82420384608F05EFE7D
:10382000641C032CF6D315B3284601F081FA0F90DF
:1038300030F8028B00240546B8F1000FC8BF4FF0E6
:10384000010911DD05EBD40004F00701007809FA45
:1038500001F1084214BF012200222146384608F037
:10386000E2FD641C4445EDDB0FA801F0E7FA3846A1
:103870000C9908F00DFE3846089908F0BEFD384650
:10388000079908F048FF38460DF0D8FC3146384615
:1038900008F012FE3846069908F057FE012130461E
:1038A0000DF00EFB304601F043FA0E90C0F8887020
:1038B0000EA801F0C3FA1DB0BDE8F08F38B50024A2
:1038C00038B101F035FA0090B0F93440684601F0A3
:1038D000B5FA204638BD002808BF7047F8B50C4639
:1038E000074601F025FA0090D0F88850C06C02F02D
:1038F0009BFD06460098C464684601F09FFA38466E
:1039000000F07DF838460DF073FA002D08BFF8BDC1
:10391000204602F089FDB04205D03846FFF719FD78
:103920003846FFF7CFFE2146284608F066FDF8BD71
:10393000F8B50C46002698B101F0FAF90090B0F9FC
:103940003660D0F88850C486684601F077FA3DB1F9
:1039500028460CF0F9FE0146224628460DF0DAFD15
:103960003046F8BD38B50C46050008BF38BD01F03B
:10397000DFF90090C06B01F02EFB002818BF401E3D
:10398000844214DC0098B0F93410A1420BD0848634
:10399000684601F053FA28460DF02AFA0421284619
:1039A0000DF08EFA38BD684601F048FA38BD04467D
:1039B000E8E7002808BF704738B50C46054601F017
:1039C000B7F90090A0F88240684601F037FA28461F
:1039D0000DF00EFA38BD002808BF704738B50C4608
:1039E000054601F0A5F900900487684601F026FA23
:1039F000284600F004F828460DF0FAF938BDF8B56D
:103A0000044601F095F901460090B0F9380000280D
:103A100004BFC86C02F008FD0099CA6AB1F9803091
:103A2000126800EB4300151808460EF029F9064607
:103A3000684601F003FA2A46314620460DF06AFD39
:103A4000F8BD38B50D46002401F072F90090C06B46
:103A5000294601F0CCFA0546684601F0EFF91DB1A0
:103A6000284601F065F90446204638BD7047002815
:103A700008BF70472DE9F04F91B00E46044601F0A3
:103A800057F9039090F854A0D0F83490876DC56C26
:103A900003A801F0D3F927B131462046B84700F01A
:103AA000B8B901274FF00008122E75D006DC082E99
:103AB00073D0102E72D0112E3DD006E0132E70D090
:103AC0001D2E00F0F3801E2E6AD0202EC0F2A181A0
:103AD000BAF1000F00F00181204601F029F90590AC
:103AE000D0F834A0D0F84C9005A801F0A7F9BAF1AD
:103AF000000F00F0F280504601F01AF98246494664
:103B0000069004F013FD81465046FCF705FD48453C
:103B100040F2E080D144484604F0C4FC09EB0001C7
:103B20004846FCF7D5FC06A801F088F90521204697
:103B30000DF0C6F9D1E0B9F1000F00F06A814846F6
:103B400001F0F6F806462946049004F0EFFC06441E
:103B5000304604F0A1FC0546CDF8088004F0B0FC26
:103B60000746681C1FFA80F8404604F0A9FC054689
:103B7000AF420CD1414602A804F088FC2A4602A9B3
:103B80003046FCF7E8FC052120460DF099F904A821
:103B900001F054F900F03DB92FE03AE033E000E0E5
:103BA00059E0B9F1000F00F03481484601F0C0F847
:103BB00006462946049004F0B9FC0644304604F059
:103BC0006BFC0546CDF8088004F07AFC8046681E40
:103BD00087B2384604F074FC0546A845D7D139466B
:103BE00002A804F053FC2A4602A93046FCF7B3FCB5
:103BF000052120460DF064F9C9E7691C204600F054
:103C0000FDFB00F006B9691E204600F0F7FB00F04E
:103C100000B9002D00F0FD80691E204600F0EEFB8B
:103C2000204601F085F80190C76C456B01A801F0B2
:103C300005F9002D00F0ED80284601F079F80646E0
:103C40003946029004F072FC05463046FCF764FCED
:103C5000A84229D918E0204601F06AF80190C76C03
:103C6000456B01A801F0EAF8002D7ED0284601F04E
:103C70005FF806463946029004F058FC0546304687
:103C8000FCF74AFCA8420FD93544284604F00AFC48
:103C900029182846FCF71CFC02A801F0CFF80521E2
:103CA00020460DF00DF9B4E002A810E0204601F026
:103CB0003FF80390BAF1010F08BF80F8548005D097
:103CC00080F854702946204600F098FB03A801F0C4
:103CD000B5F89EE006A801F0B1F8B0B20890204611
:103CE00001F026F806460290B0F93800002813DDEE
:103CF000706B4FF0000940B101F01AF8009005F028
:103D0000C1FC8146684601F099F8B6F9381009F10E
:103D100001008842C8BF47460298C06C099002A8BB
:103D200001F08CF8002F74D0089804F0C9FB074606
:103D300026464FF00009204600F0FAFF0590406B40
:103D400040B100F0F5FF0A90FCF7E6FB81460AA8B7
:103D500001F074F8059907EB0900498F401A00F14A
:103D6000010905A801F06AF800E052E0B9F1000F7E
:103D70002ADD304609F1100900F0DAFF0090D0F892
:103D800034B0408F00EB090A684601F057F85146FD
:103D9000584600F0E3FF5FEA00093AD0BBF1000F9C
:103DA00007D100F0C5FF0D9080F800800DA801F04C
:103DB00045F8304600F0BCFF0090A0F83AA0C0F8EB
:103DC0003490684601F03AF8204600F0B1FF0290C6
:103DD000466B02A801F032F8304600F0A9FF064613
:103DE0000F90099904F0A2FB06443046FCF794FBBF
:103DF000421CF0193146FCF7F3FB3046089904F0F9
:103E000045FB0FA801F01AF8052120460DF058F8DF
:103E1000F3E620460CF0ECFF11B0BDE8F08F70B572
:103E20004468054682B020460EF0FAF80646294658
:103E300020460BF013FB002804BF02B070BD2868B9
:103E40000F2836D004DC0B2839D00E2842D058E099
:103E5000A0F58070133804D0A0F580702D3811D0F3
:103E60004FE020460DF058F92046002113F0BCFC2D
:103E7000204600F05DFF0190C06F00210DF0EFF8CB
:103E800001A824E0E86878B1017A41B101682046D0
:103E900000F01EF9012120460DF012F831E0022158
:103EA00020460DF00DF82CE0032120460DF008F817
:103EB00027E00121204613F097FC02B070BD204698
:103EC00000F036FF0090343000F04CFE684600F001
:103ED000B5FF16E0AEB1E8684168002911DD016860
:103EE0001B290ED009DC09291CBF0A290D2908D07D
:103EF0002046FFF7BCFD02B070BD212918BF222962
:103F0000F6D128460BF07AFF02B070BD70B50446BA
:103F100086B0D4E9056CB0F90850408A0DF1080E5E
:103F20008EE861100020CDE90010B4F90C00B4F95E
:103F30001050C118B4F90A00B4F90EC010442B4651
:103F4000624600F009F805001CBF618A00F043FAE0
:103F5000284606B070BD00002DE9F04186B00F463E
:103F6000DDE90C1CDDE910544CF4805C0F9EDFF899
:103F7000B880CDE9001C5834CDE9028439460BF0F5
:103F80008BFE04004BD000F0D3FE1022314604908B
:103F90000BF080FCDFF894C004999CE8CD1101F18E
:103FA000600E8EE8CD11012081F85500681C18BF05
:103FB000012081F88000002DD8BF082528B208878D
:103FC00000254D87461C04A84D6300F037FF2046AE
:103FD00000F0AEFE0090476B408F0644684600F04C
:103FE0002DFF3146384600F0B9FE5FEA000812D0D6
:103FF00037B900F09DFE0190057001A800F01EFF8A
:10400000204600F095FE00904687C0F83480684650
:1040100000F014FF03E020460BF026FF002406B05A
:104020002046BDE8F08100001F3E0008789F002078
:1040300038B5040008BF38BD72B100230A461946DE
:104040000BF0FEFD0546204600F072FE0090C567AD
:10405000684600F0F3FE38BD00F06AFE0090C06FC5
:104060000BF0EFFE00990020C86720460CF0C0FE60
:10407000684600F0E3FE38BDF0B583B016460D008B
:1040800012BF002803B0F0BD00F052FE00270190DF
:104090002F70406BA8B100F04BFE009005F0F2FAD3
:1040A0000146009804F042FA0446701E84420DDC7A
:1040B000224628460099FCF74EFA684600F0BEFEFC
:1040C0002F5501A800F0BAFE03B0F0BD0446EFE79B
:1040D000002808BF70472DE9F04186B00C4607461E
:1040E00000F026FE0090406B002849D000F020FE32
:1040F00003900098806E03F0FFFF804638460CF076
:1041000023FB0646039802F06BF90546009890F8E9
:10411000601001F00301012918D002290FD0416E6F
:10412000C06A00680844201A441E039805F0AAFAE1
:10413000002C11DA0021384600F060F917E0701BFE
:10414000401C00EBD070A4EB6004EEE7406E711BE6
:10415000081A201A441CE8E7A54204DB024621465F
:10416000039805F023FA0146384600F047F903A802
:1041700000F064FE404603F0BFFF38460CF038FE06
:10418000684600F05BFE06B0BDE8F08100294FF004
:10419000100101D00BF020BA0BF043B9002808BF82
:1041A000704738B50C46054600F0C2FD00908466A5
:1041B00028460CF01DFE684600F040FE38BD002881
:1041C00008BF70472DE9F04385B00C46054600F066
:1041D000AFFD0090B0F93810468F4FF00008A142B3
:1041E00045D012DD406B80B100F0A2FD019005F0DA
:1041F00049FAA04206DD2146019804F097F9019999
:1042000001F8008001A800F019FE684600F016FED3
:10421000A01B461C284600F08BFD0290D0F834907D
:10422000408F871902A800F009FE3946484600F081
:1042300095FD060013D0B9F1000F07D100F078FD0D
:10424000039080F8008003A800F0F8FD284600F0F5
:104250006FFD02904787466302A800F0EFFD2846F5
:1042600000F066FD0090048728460CF0C1FD68460A
:1042700000F0E4FD05B0BDE8F0832DE9F04F87B014
:104280008A4605004FF0000804BF07B0BDE8F08F74
:1042900000F04EFD0090B0F93870446B684600F0B5
:1042A000CDFD0026BAF1000F7DD054B1204600F0BC
:1042B0003FFD0190FCF730F900F1010801A800F082
:1042C000BDFD504605F0DEF90446B8426CDC2146DF
:1042D000504604F02BF9471CA7EB08094FF00008E3
:1042E000284600F025FD0390406B40B100F020FD12
:1042F0000590FCF711F9804605A800F09FFD039991
:1043000009EB0800498F401A00F1010803A800F0EA
:1043100095FDB8F1000F2ADD284608F11008049534
:1043200000F006FD0290D0F834B0408F00EB080991
:1043300002A800F083FD4946584600F00FFD5FEAF1
:10434000000840D0BBF1000F06D100F0F1FC069050
:10435000067006A800F072FD049800F0E9FC0290D7
:10436000A0F83A90C0F8348002A800F067FD284613
:1043700000F0DEFC0090406B00F0DAFC3A4651465B
:104380000190FCF7E8F80198384400F8016C0098B7
:10439000C464B0F938108C4201BF90F85410012960
:1043A000611EC16401E007E013E001A800F046FDD2
:1043B000684600F043FD06E00098343000F0D2FB80
:1043C00000984687C66428460CF012FD07B0BDE889
:1043D000F08F3C467BE7002808BF704738B50D4694
:1043E000044600F0A5FC009018B1056620460CF0CC
:1043F000FFFC684600F022FD38BD000010B582B019
:104400000C4600F095FC0090406BE8B100F090FC89
:10441000019005F037F9009991F85420002A18BF4F
:104420000122002C15DB844215DC00BFB1F93800F5
:10443000801AA04211DBC86CA04218BFCC640020D7
:10444000086501A800F0FAFC684600F0F7FC02B02D
:1044500010BD0024E7E70446E8E7B1F93800841A04
:10446000E9E710B5FDF7CAFD10BD10B5FDF772FD07
:1044700010BD10B5FDF7B8FC10BD10B5FDF710FE6E
:1044800010BD10B5FDF798FBFDF7E6FBFDF718FC36
:10449000FDF76AFC10BD000001490860704700008C
:1044A000143C0140002123498279002A3AD00A466F
:1044B000126803689A430B461A600A1D1268036863
:1044C0009A430B1D1A60027911440A6803681A4363
:1044D0000A60184A0832126803689A43154B083379
:1044E0001A601A1D126803689A43124B0C331A6043
:1044F0004279102A0ED11A1F126803681A430D4B15
:1045000008331A601A1D126803681A43094B0C33EA
:104510001A600DE00749427911440A6803681A439A
:104520000A6005E0027911440A6803689A430A6048
:1045300070470000003C014051B18200A2F1C0422E
:10454000126842F001038200A2F1C042136009E048
:104550008200A2F1C0421268034B1A408300A3F10B
:10456000C0431A6070470000FEFF0F00D0E901123F
:104570001143C268114302691143426911438269C0
:104580001143C2691143026A1143426A1143826AAC
:104590001143C26A1143026B114302689200A2F1F7
:1045A000C0421160816808290BD101688900A1F11E
:1045B000C041096841F0400201688900A1F1C04191
:1045C0000A60416B0968426B526841EA0211426B12
:1045D000926841EA0221426B928941EA0241426BB0
:1045E000128A41EA0251426B127D41EA0261426B3A
:1045F000926911430268521C9200A2F1C0421160FC
:10460000C16AB1F5804F1BD1816B0968826B52681A
:1046100041EA0211826B926841EA0221826B128A9E
:1046200041EA0251826B127D41EA0261826B92691A
:10463000114302689200A2F1C042C2F8041107E0DF
:104640006FF0704201688900A1F1C041C1F80421F6
:104650007047000010B5002003F048FD6FF07F4068
:1046600003F046FD012003F079FD002003F07EFDFC
:10467000002003F085FD002003F03CFD04480068A5
:1046800003F03AFDBDE81040002003F045BD0000F6
:10469000949E0020F0B50A4600210023002400BFAC
:1046A0003DE0012505FA01F3156805EA03049C4283
:1046B00034D105684F000326BE40B5430560157927
:1046C0004E00B5400668354305601579012D02D0CE
:1046D0001579022D16D185684F000326BE40B543DB
:1046E000856055794E00B5408668354385604568DC
:1046F00001268E40B5434560456896798E40B6B236
:1047000035434560C5684F000326BE40B543C560CC
:10471000D5794E00B540C6683543C560491C10299F
:10472000BFD3F0BDF0B5002300244D07ED0E02FA13
:1047300005F3CE1000F1200555F826504E07F70E70
:104740000F26BE40B543CF1000F1200646F8275093
:10475000CE1000F1200555F8265045EA0304CE108E
:1047600000F1200545F82640F0BD024600201369FF
:104770000B400BB1012000E0002070472DE9F04F05
:104780004B4989B00968B1F922200692D1F81CC0C2
:10479000B1F92470DCF81C40A28982429CBFE389F5
:1047A000984205D8A0EB02094FF0FF38266812E0C6
:1047B000D4E90162002A71D0138883429CBF5588D6
:1047C000A8426BD8C01A526880B202EB8000B0F9E0
:1047D0000090B0F90280B9F1FF3F5FD09CF818005B
:1047E000A27C10FB02FB94F810A00790B1F92A50AC
:1047F000284606F0A3FDC0B208902D4809FB0B62C5
:104800000068A37C4FF00109816BCDE90293CDE9EB
:104810000421C0695246C17E807ECDE90001DDE9F8
:104820000603394606F036F8B8F1FF3F18D045F0D8
:10483000020006F083FD1E48A37C08FB0B620068A3
:10484000816BCDE90293CDE90421C0695246C17E56
:10485000807ECDE90001DDE90603394606F01AF84D
:10486000134E3068C069417E007E814213D9022D0B
:1048700011D085F0040006F061FD3068C069017E4A
:10488000C27E11FB0271427ED319827E06981AFB0A
:10489000020206F0D9F9089806F050FD0448627C3F
:1048A0000068418C1144418409B0BDE8F08F0000DC
:1048B000989E0020044800290068C069C0691CBF98
:1048C000027C0A60407C7047989E0020022008808D
:1048D0007047C06982898A429CBFC289914210D9BF
:1048E000806880B102888A429CBF438899420AD876
:1048F000406800EB8100A0EB8200B0F900000028C6
:1049000001DB012070470020704700002DE9F043D3
:10491000394D024687B02868B0F92A60C069C1697C
:104920001046002904BF07B0BDE8F0830B8883421E
:104930009CBF4B88984205D989680029F6D107B0F9
:10494000BDE8F083002904BF07B0BDE8F0834868E4
:104950000988511A00EBC1043046A77806F0EEFC36
:104960008046286862680123816BCDE90237CDE972
:104970000421C169CB7E8A7ECDE900230B7EB0F98C
:1049800024102278B0F9220005F084FF2868C0695D
:10499000417E027E91421FD9C07E11FB00F912FBBD
:1049A00000F7022E18D001F0E8FC064601F0C8FC22
:1049B00003F09EFB29682278CB69B1F92200DB7EE7
:1049C00012FB0302B1F9241001EB0903394406F08C
:1049D0003BF9304603F08CFB404606F0AFFC2868FC
:1049E0006278C369B0F922109B7E12FB03114184E7
:1049F00007B0BDE8F0830000989E002010B4044684
:104A000015480068D0F81CC02046DCF81C2002B312
:104A1000138883429CBF5388984203D99268002A26
:104A2000F6D116E0AAB110885368221A012000EBD3
:104A3000C2009CF81AC0185C10FB0CF0002904BFDF
:104A400010BC704713F8322012FB0CF20A6010BC45
:104A5000704710BC00207047989E002001200880FD
:104A60007047C06968B102888A429CBF42889142FF
:104A700003D980680028F6D103E000281CBF01207C
:104A8000704700207047002904BF00207047F8B528
:104A900005460C46084600F013F806000ED000F05C
:104AA00047F9224600901DB12946FBF754FD02E06C
:104AB000002105F003F8684600F0C0F93046F8BD63
:104AC000002808BF70470DF0D9BD38B50546FFF77F
:104AD000F7FF040009D000F02BF92A4600210090CE
:104AE00004F0ECFF684600F0A9F9204638BD00004C
:104AF000024A106021F003005060704720D200206D
:104B0000002808BF704770B50E4C0546606B10F862
:104B10003510002918BF022928BF70BD042101EB00
:104B2000C506815948680DF04FFD6068401C606003
:104B3000616B606A8851616B002001F83500656225
:104B400070BD000060D10020002808BF7047044AF3
:104B5000D16B0160002918BF4860D0637047000026
:104B600060D100202DE9F041056806460027D5B147
:104B70000E4C606B10F83510002918BF022912D2B4
:104B8000042101EBC50850F8081048680DF01CFD21
:104B90006068401C6060616B606A41F80800606B8F
:104BA00000F8357065623760BDE8F08160D10020A3
:104BB0002DE9F05FB1F1000881464FF00005C6BF56
:104BC000154F4FF0000ABDE8F09F00BF09EB8506C6
:104BD0003468CCB1786B10F83410002918BF022962
:104BE00012D2042101EBC40B50F80B1048680DF0F1
:104BF000EBFC7868401C7860796B786A41F80B00B0
:104C0000786B00F834A07C626D1CC6F800A04545A6
:104C1000DCDBBDE8F09F000060D100202DE9F04111
:104C2000044611F037FFE01C274E20F00300051D5D
:104C3000306CA84288BF0546F46BBCB154F8041C24
:104C4000A94210D19CB1206800281CBF6168416056
:104C5000606800281CBF21680160F16BA14204BF9D
:104C60002068F0632DE02468002CE7D10024F1686F
:104C7000B06B00EB010858F8040CA8EB000738688B
:104C800040B1002013F076F958F8040CA8EB0007A7
:104C90003868B0B97868A84213DB3844401B041D5B
:104CA000384613F03DF9F068401BF0607069284405
:104CB00070617868401B1CBF39460DF085FC44F8D4
:104CC000045C2046BDE8F08160D1002010B50024CE
:104CD00011F0E0FE0D490F2001EBC002526C8AB1C9
:104CE00001EBC000406C806848B14168A14288BFB8
:104CF0000C46806800281CBF80680028F5D1A4F10C
:104D00000C0010BD401EE7D5F9E7000060D100207F
:104D1000002140B10549042202EBC000496B08584C
:104D20004068A0F10C0108467047000060D10020E7
:104D30000949CA69521CCA614A6B02EBC002137866
:104D40005B1C1370002808BF7047496B042202EBFC
:104D5000C00008580830704760D1002070B5064682
:104D600082B00C460846FFF7ABFE050018BF002EC8
:104D70001BD03046FFF7CCFFA042B8BF0446284600
:104D8000FFF7D6FF00903046FFF7D2FF01460190B3
:104D900022460098FBF7DFFB684600F04FF801A8B9
:104DA00000F04CF83046FFF7ABFE02B0284670BD6D
:104DB00010B5002411F06EFE174B184A0F2000BFEB
:104DC00002EBC001496CD9B102EBC000406C8068B5
:104DD000C0B14168A14288BF0C46806800281CBF52
:104DE00080680028F5D1A4F10C00B0F5800F0CD933
:104DF00083FB00104111A1EBE070116A484310BD24
:104E0000401EDDD5A4F10C00F2E7116A4843A3FB74
:104E10000010400910BD00001F85EB5160D100203B
:104E20000549102898BF102004D94A68B0EB520FEA
:104E300028BF50088860704720D200200A490268C5
:104E40004B6B52F8082C03EBC2021378022B04D3ED
:104E5000CB69002B1CBF5B1ECB611178491E117002
:104E6000002101600846704760D10020002808BF7B
:104E700070470449042202EBC000496B085808300F
:104E80007047000060D100202DE9F0414FF000068E
:104E900082B00B465FEA000834462BD032B111468F
:104EA0001846FFF7F0FD060008BF01244046FFF753
:104EB0003FFF0090078845686846FFF7BFFFCCB901
:104EC000B800011D2846FFF749FF050016D0FFF77F
:104ED0002FFF019040F8276001A8FFF7AFFF404681
:104EE000FFF726FF009045600188491C0180684655
:104EF000FFF7A4FF02B02046BDE8F0813046FFF77F
:104F0000FFFD0124F6E70820FFF7DFBD002808BFFA
:104F1000704730B583B00546FFF70AFF0090406840
:104F2000D8B1FFF705FF0190009800240088002801
:104F300009DD019800EB8400FFF714FE0098641C63
:104F40000088A042F5DC01A8FFF778FF0098001D5B
:104F5000FFF708FE0099002008806846FFF76EFF03
:104F60002846FFF7CDFD03B030BD10B582B00C462A
:104F7000FFF7DEFE00900188A14227D9406828B3E0
:104F8000FFF7D6FE019000EB8400FFF7EBFD0099E0
:104F90000888401E80B20880011B002913DD01989B
:104FA00011F0010F00EB840003D050F8042F40F8FB
:104FB000042C491007D0426840F8082B491E0268AB
:104FC00040F8042CF7D101A8FFF738FF6846FFF737
:104FD00035FF02B010BD38B5002430B1FFF7A8FE90
:104FE000009004886846FFF729FF204638BD30B599
:104FF00083B00C46002590B1FFF79AFE009001881F
:10500000A14209D9406838B1FFF792FE019050F8EB
:10501000245001A8FFF712FF6846FFF70FFF03B007
:10502000284630BD30B583B00D460024B8B1FFF737
:105030007FFE00900188A9420ED9406860B1FFF759
:1050400077FE019050F8255001A8FFF7F7FE2800E1
:1050500002D0FFF76DFE04466846FFF7EFFE03B08F
:10506000204630BDF0B5074685B00E4615460024F3
:105070001046FFF72AFD009030B33846FFF758FE80
:105080003146019000F023F802900098FFF750FE9F
:105090002A4603900299FBF75EFA02A8FFF7CEFEBC
:1050A00003A8FFF7CBFEDDE90020314600F026F82B
:1050B00018B16846FFF756FD03E00098FFF738FE89
:1050C000044601A8FFF7BAFE05B02046F0BD38B58A
:1050D0000C4601880025A1420ED9406860B1FFF757
:1050E00027FE009050F824406846FFF7A7FE2000F6
:1050F00002D0FFF71DFE0546284638BD38B50C46E0
:10510000014615460A880120A24298BF38BD496869
:10511000002908BF38BD0846FFF70AFE00EB8404EB
:1051200000902046FFF71EFD68462560FFF786FECB
:10513000002038BD1368082988BF704703EB010CB5
:10514000C2F800C000228CF800204A1ED2B22CBF48
:105150000649704700F00F0C000911F80CC003F865
:1051600002C0521ED2B2F5D2704700007CEB01089B
:10517000034900EB800001EB80004079704700009C
:1051800054D300202DE9F84F05460E46084601F09D
:10519000FBF88346DFF8C080304806EB860A01271B
:1051A00058F82A90016831B92E4907602C480860E8
:1051B000084604F0EDFB284906EB860001EB80046D
:1051C000BBF1000F21D0584602F050FF00904FF085
:1051D0007F4002F08BFF00F09DF800221146286806
:1051E00000F0E8FB286842880188584602F090FFEA
:1051F00048F82A506771009802F038FF304601F0F5
:10520000C3F8E0B9607900BB23E048F82A50677121
:10521000206918B102F0A8FB00202061CDB10097F1
:10522000E068A9683346421AA0686968411A28688C
:1052300002F0A0FE2061304601F0A6F818B101216D
:1052400002F068FF05E0607918B12771206902F06B
:1052500067FE4846BDE8F88F54D3002084A00020A4
:105260007D71010888A0002070B506460D461446E1
:10527000104601F089F80300154804EB84010AD0B8
:1052800050F8210041688068711A2A1ABDE8704000
:10529000184602F03BBF00EB8104A268B24214BF83
:1052A00001220022E368AB4214BF012300231A430A
:1052B00008BF70BD236943B150F821008168406880
:1052C0006A1A311A184602F077FBC4E9026570BD0C
:1052D00054D30020C2B2CBB2D21A48BF524292B2CB
:1052E00002FB02F3C0F30722C1F3072CB2EB0C025E
:1052F00048BF524292B2000CA0EB114002FB0232B6
:1053000000B20028BCBF404200B280B200FB0020C7
:10531000704700002DE9F041002182B0084601F0FD
:105320009DF843F6FF763746042006F007F88046DE
:105330001148C068C16C006D8D1B841B0E4407446E
:10534000ADF80050ADF80460ADF80240ADF806705D
:1053500068460CF09DFC48B13B4632462146284643
:1053600005F072FC0CF0C4FA0028F5D1404605F0B7
:10537000E5FF02B0BDE8F0818C9E00202DE9F041F0
:10538000064682B01C4617460D46042005F0D6FF9F
:1053900080461248C168C86C096D064407440D4434
:1053A0000C44ADF80060ADF80470ADF80250ADF8F3
:1053B000064068460CF06CFC48B123463A46294644
:1053C000304605F041FC0CF093FA0028F5D1404638
:1053D00005F0B4FF02B0BDE8F08100008C9E002013
:1053E000B0F90630B0F90420B0F90210B0F90000AD
:1053F000FFF7C4BF2DE9F8431C00DDE90898164605
:105400000F46054602D10BF027F804460096D5F862
:1054100000C043464A4621462846E047060008BFEA
:10542000BDE8F8830BF00CF88146698A30460AF033
:10543000D3F830460CF0DCF848460CF0D9F87F1E63
:10544000002FC8BF4FF000080FDD00BFCDF800806F
:1054500055F81CCF00231A4649462846E047F8B1C4
:105460000CF0C6F87F1E002FF0DC1D2148460BF023
:105470008CFEB4F1FF3F10D00BF03AF840B100BF02
:10548000FFF7F4FC8469B44218BF5FEA0400F7D167
:10549000B4421CBF30460BF029FF3046BDE8F8830C
:1054A00030460AF0E1FC0020BDE8F883022BA4BFDF
:1054B000002070472DE9F04106461C4615460F4670
:1054C0001C20FFF7ABFB002808BFBDE8F081002FD0
:1054D00018BF07610BD10A4A52F8241039B10A6883
:1054E0001AB111461268002AFBD109690161846171
:1054F0008582002101604160C0E90216BDE8F081AB
:10550000B09E00202DE9F04100241D460746884644
:105510001646022B27DA1C20FFF780FB18B3B8F1E0
:10552000000F18BFC0F810800BD1104A52F8251098
:1055300039B10A681AB111461268002AFBD109690B
:1055400001618561868204604460C0E9024704000D
:1055500009D000F011F8E068006820B9044800683C
:1055600000EB850084652046BDE8F081B09E0020F8
:10557000989E0020FFF7E8BA00281CBF8269022A23
:10558000A4BF0120704710B4244C54F82210002905
:1055900008BF44F822003AD04B682BB119465B682B
:1055A000002BFBD1002935D0C3681B68D1F80CC093
:1055B000DCF800C09C4503DD09680029F6D129E02C
:1055C00041B3D1F80CC0DCF800C09C4504BFB0F872
:1055D00014C0BCF1010F0DD1D1F800C0BCF1000F17
:1055E00007D06146DCF80CC0DCF800C09C45F3DA5B
:1055F00000E079B14B68002B1DBF18604A6842601B
:1056000044F822004860884208BF0021016010BCB5
:105610000020704710BC012070470000B09E0020A1
:105620000B4A816952F82130834204BF036842F873
:105630002130416800291CBF02680A600168002906
:105640001CBF42684A600021016041607047000051
:10565000B09E00200228A4BF00207047064951F8E0
:105660002000002808BF7047C168096800291CBFD6
:1056700000680028F8D17047B09E0020002808BFBD
:1056800070472DE9F8431E46174688460446FFF743
:105690004FFB0090006805686846FFF7CFFB334674
:1056A0003A4641462046A847BDE8F88338B504008D
:1056B0004FF0000008BF38BD2046FFF739FB0090CF
:1056C000006845686846FFF7B9FB2046A84738BD23
:1056D00038B504004FF0000008BF38BD2046FFF782
:1056E00027FB0090006885686846FFF7A7FB204607
:1056F000A84738BD70B5044603F054F810EB040514
:1057000003F050F82C1A002CD8BF70BD00F01AFD21
:10571000052CC8BF0524204603F036F8F0E700004A
:10572000002808BF70472DE9F04F83B0054600F010
:1057300035FE3B4C80462068B0F9227000F05CFEDC
:1057400082462068818CA1EB0A0181842878002898
:1057500018BFA8F1010946D047F6FF71284603F0AB
:105760006FFF83460146284603F030FF2168064656
:1057700091F82C0000F00300012808BF304605D046
:10578000022812BF002006EBD67040104A8C101A77
:105790004884ADF80000721E1044ADF80400888CF7
:1057A000ADF802004844ADF806006A46594628465E
:1057B00003F01AFA2168BDF8020088845946284689
:1057C00002F0B4FE054428780A2818BF0D2815D029
:1057D000BDF80000216830444884287818B115F8D5
:1057E000010F0028B8D12068818C51448184818DBB
:1057F00021F00301818503B0BDE8F08F206890F8A7
:105800002C1001F0030101291DBF0229018C4184E4
:10581000478429780A29E0D1818C41448184DCE7DE
:10582000989E0020024B1B6859849A84FFF778BF2A
:10583000989E00202DE9F04182B006000D461746E3
:1058400047F6FF784FF0000404BF02B0BDE8F081D6
:1058500065B108460BF080FE040007D002462946D9
:10586000684603F04CFF68460BF076FE43463A4626
:105870002946304603F086FA20460BF06DFE02B052
:10588000BDE8F081002808BF70472DE9FF4F0C6884
:105890004F680E46054638B221B287B0401A401C08
:1058A0009346029000F07AFD82461BF00C0F2BD03D
:1058B000029801900A98A8464FF000090090DDE98F
:1058C0000021404604F0A4F88044002818BF09F1E4
:1058D0000109F4D10BF00C00042818BF082802D0ED
:1058E0000C2805D010E0381409FB1A00401C09E010
:1058F0002014C0EB274109FB1A11491C01EBD1719F
:1059000000EB610060F31F4430460BF025FE5FEAB8
:10591000000909D0CDE904470246314604A803F046
:10592000EEFE04A80BF018FEAAF1010828460A9A18
:10593000029904F0AFF8039008EB244060F31F478E
:10594000CDE900472846039903F040FE1BF0030110
:1059500008BF30880DD001290ED0022911D1B6F927
:105960000420B6F90010521A101A00EBD07001EBA7
:105970006000ADF8000004E0B188081A401CADF8E2
:1059800000006A462846039903F02EF928460A9A31
:10599000029904F03DF805440AEB244060F31F44EB
:1059A00028780028C2D148460BF0D6FD0BB0BDE8E0
:1059B000F08F00002DE9F04F374F044689B038686A
:1059C000C36C006D5E1885182088711E0844ADF800
:1059D0001860ADF81C006088691E0844ADF81E0010
:1059E000ADF81A5006A80CF053F9002819BFDFF8DB
:1059F000ACB04FF0010A09B0BDE8F08F0020D4F838
:105A00000C9002F077FB8046B9F1000F1BBF99F8AC
:105A10000400002828F0020048F0020002F06AFBAF
:105A2000206970B1D4E902120091CDE9012ACDF8C4
:105A30000CA0D0F800C06388228829463046E04791
:105A400018E03868DBF800302146427CE06898476F
:105A5000D0B1A288E388A168CDF800A0CDE90410F8
:105A6000CDE90232CDF804A0638822882946304669
:105A700004F010FF404602F03DFB0BF039FF002818
:105A8000BCD109B0BDE8F08FE088012812BF00202A
:105A90003868806BDDE70000989E0020909E002013
:105AA00010B50A4682B00146684603F063FF2B48F2
:105AB000BDF800100068B0F84C201144ADF800109B
:105AC000BDF80210B0F850201144ADF80210BDF836
:105AD0000410B0F84C201144ADF80410BDF80610C5
