:020000040800F2
:1000000088B800208102000831A20008C97E0008DB
:100010002DA200083523000897B800080000000052
:10002000000000000000000000000000A1B1000876
:100030006123000800000000C1A200081DB30008F1
:100040009B0200089B0200089B0200089B0200081C
:100050009B0200089B02000863230008732300082A
:100060009B0200089B0200087B2300089B020008FB
:100070009B0200089B0200089B0200089B020008EC
:100080009B0200089B0200089B0200089B020008DC
:100090009B0200089B0200089B02000883230008C3
:1000A0009B0200089B0200089B0200089B020008BC
:1000B0007DB500089B0200089B0200089B02000817
:1000C0009B0200089B0200089B0200089B0200089C
:1000D0009B020008D5B600089B0200089B0200089E
:1000E0006B2300089B0200089B0200089B0200088B
:1000F0009B0200089B0200089B0200089B0200086C
:100100009B0200089B0200089B0200089B0200085B
:100110009B0200089B0200089B0200089B0200084B
:100120009B0200089B0200089B0200089B0200083B
:100130009B0200089B0200089B0200089B0200082B
:100140009B0200089B0200089B0200089B0200081B
:100150009B0200089B0200089B0200089B0200080B
:100160009B0200089B0200089B0200089B020008FB
:100170009B0200089B0200089B0200089B020008EB
:100180009B0200089B02000800F002F800F068F8EB
:100190000AA090E8000C82448344AAF10107DA45E2
:1001A00001D100F05DF8AFF2090EBAE80F0013F0CC
:1001B000010F18BFFB1A43F001031847988501008F
:1001C000B885010010F8013B0A4413F0030408BF8E
:1001D00010F8014B1D1108BF10F8015B641E05D01B
:1001E00010F8016B641E01F8016BF9D1002D15D0D8
:1001F00010F8014B03F00C030C2BA1EB04040ABF15
:1002000010F8013BA4EB8314A4EB032405F10103D4
:1002100014F8016B5B1E01F8016BF9D5914238BFF0
:1002200010F8013BD1D3704700230024002500269D
:10023000103A28BF78C1FBD8520728BF30C148BF49
:100240000B607047642900F07D80782900F0B6804B
:10025000002070471FB514F039FD1FBD10B510BD4B
:1002600000F0EEFA1146FFF7F5FF14F0CFFC00F0B6
:100270000CFB03B4FFF7F2FF03BC14F063FB0000B8
:100280000948804709480047FEE7FEE7FEE7FEE72A
:10029000FEE7FEE7FEE7FEE7FEE7FEE70448054966
:1002A000054A064B7047000021B300088901000889
:1002B00088B2002088B8002088B4002088B40020CC
:1002C000704700000FB4044910B503AA029800F06B
:1002D0004BFA10BC5DF814FB040000202DE9F0413E
:1002E0000E460446002020622046E168884730B36D
:1002F000252805D0D4E901219047206A401CF2E767
:10030000E168204600278847050018D0A5F1410084
:10031000192802D820354FF4006732462946204676
:100320002760FFF78FFF40B1012804D0F61D26F0AB
:1003300007060836D8E7361DD6E72846DAE7206AEA
:10034000BDE8F0812DE9F0410646002410687529CA
:10035000314616A510D0AFF30080002802DA4042E3
:1003600013A507E031688A0701D512A502E0490705
:1003700004D511A5012401E0AFF3008000210A2279
:1003800006F1240709E0B0FBF2FCB0FBF2F302FB3C
:100390001C00303078541846491C0028F3D12346FD
:1003A0002A463046BDE8F04100F085B90000000063
:1003B0002D0000002B0000002000000070B5044656
:1003C0000D4621461068AFF300802188090502D54B
:1003D0000F4A7A4402E00E4A7A440E32002104F1B8
:1003E000240305E000F00F060009965D5E54491CE9
:1003F0000028F7D120780023000704D5702D02D003
:1004000009B1022311322046BDE8704000F053B913
:100410005A82010040EA0103024630B59B0710D121
:100420004FF0013400E008C208C91D1B9D4315EAC6
:10043000C41FF8D013F0FF0102F8011B0DD01B0AF6
:10044000F8E711F8013B002B02F8013B05D011F849
:10045000013B002B02F8013BF3D130BD10B5431C2A
:1004600002E010F8011B71B18107FAD14FF001329F
:1004700002C88C1A8C4314EAC211F9D0C01A0A06B9
:1004800003D0C01E10BDC01A10BD0A0401D0801ECA
:1004900010BD0902FCD0401E10BD032A40F230807E
:1004A00010F0030C00F0158011F8013BBCF1020FB5
:1004B000624498BF11F801CB00F8013B38BF11F836
:1004C000013BA2F1040298BF00F801CB38BF00F84D
:1004D000013B11F0030300F06780083AC0F0088088
:1004E00051F8043B083A51F804CBA0E80810F5E7AE
:1004F000121D5CBF51F8043B40F8043BAFF3008091
:10050000D20724BF11F8013B11F801CB48BF11F805
:10051000012B24BF00F8013B00F801CB48BF00F8D5
:10052000012B7047431A28BF9A427FF6B6AF032AC1
:100530001044114440F2268010F0030F1EBF11F842
:10054000013D521E00F8013D10F0030F7FF4F6AF9D
:1005500011F0030300F02D81083AC0F00B8051F830
:10056000043D083A51F804CD40F8043D40F804CD6C
:10057000FFF7F3BF121D5CBF51F8043D40F8043D86
:10058000AFF30080D20724BF11F8013D11F801CD6F
:1005900048BF11F8012C24BF00F8013D00F801CD3F
:1005A00048BF00F8012C704710B5203AC0F00B800E
:1005B000B1E81850203AA0E81850B1E81850A0E867
:1005C0001850BFF4F5AF5FEA027C24BFB1E81850C1
:1005D000A0E8185044BF18C918C0BDE810405FEA31
:1005E000827C24BF51F8043B40F8043B08BF7047AD
:1005F000D20728BF31F8023B48BF11F8012B28BFB2
:1006000020F8023B48BF00F8012B704702F0FF03BF
:1006100043EA032242EA024200F002B84FF000022D
:100620000429C0F0128010F0030C00F01B80CCF104
:10063000040CBCF1020F18BF00F8012BA8BF20F872
:10064000022BA1EB0C0100F00DB85FEAC17C24BFC6
:1006500000F8012B00F8012B48BF00F8012B704770
:100660004FF0000200B5134694469646203922BF4B
:10067000A0E80C50A0E80C50B1F12001BFF4F7AF96
:10068000090728BFA0E80C5048BF0CC05DF804EB78
:10069000890028BF40F8042B08BF704748BF20F8E6
:1006A000022B11F0804F18BF00F8012B70477047E4
:1006B0007047704770472DE9F0470D4699469246BE
:1006C000044600F124080168880604D5E06921F099
:1006D0001001216000E00120A84201DD471B00E07D
:1006E0000027A1697A1902EB0900081AA061207895
:1006F000C00602D42046AFF30080002608E0D4E90B
:1007000001211AF806009047206A401C761C2062DE
:100710004E45F4DB2078C0060AD52046AFF30080B2
:1007200006E0D4E9012130209047206A401C206275
:10073000381EA7F10107F4DC07E0D4E9012118F81D
:1007400005009047206A401C2062281EA5F1010583
:10075000F3DC2046AFF300802078000602D50220AB
:10076000BDE8F0870120FBE7074B70B50D467B44E1
:1007700000F04FF80446284600F05EF810B14FF044
:10078000FF3070BD204670BD7F430100431A28BF73
:100790009A427FF609AF104410F0030F11441EBFB8
:1007A00011F8013D521E00F8013D10F0030F7FF4D7
:1007B000F6AF103AC0F00A8010B531E91850103A7F
:1007C00020E91850BFF4F9AFBDE81040530724BF2B
:1007D00031E9081020E9081044BF51F8043D40F801
:1007E000043D12F0030F08BF7047D20728BF31F84D
:1007F000023D48BF11F8012C28BF20F8023D48BF38
:1008000000F8012C7047000001694A1C0261087859
:10081000704700B58FB0CDE9013100210591054940
:100820007944CDE9031011466846FFF757FD0FB034
:1008300000BD0000E5FFFFFF007B00F08000704777
:10084000754600F02BF8AE4605006946534620F089
:100850000700854618B020B5FFF720FDBDE8204011
:100860004FF000064FF000074FF000084FF0000B6C
:1008700021F00701AC46ACE8C009ACE8C009ACE81F
:10088000C009ACE8C0098D46704710B50446AFF307
:1008900000802046BDE81040FFF7EBBC00487047E1
:1008A00028B200201CB50121880309F0A1FF062110
:1008B00005200AF077FC4020009000208DF804000D
:1008C00008208DF8050001208DF80600684601F02B
:1008D00069FD1CBD1CB50121202009F059FF002035
:1008E0008DF8040003208DF8050002208DF8070024
:1008F000402000906946024801F04CFE1CBD0000FB
:100900000014024008B517208DF800000C208DF867
:10091000010000208DF8020001208DF803006846D8
:1009200009F088FC08BD1CB50121880309F060FFAF
:10093000072105200AF036FC8020009000208DF869
:10094000040008208DF8050001208DF80600684697
:1009500001F028FD1CBD00001CB50121202009F07C
:1009600017FF00208DF8040003208DF805000220F9
:100970008DF80700802000906946024801F00AFEC9
:100980001CBD00000014024008B517208DF80000BF
:100990000C208DF8010000208DF8020001208DF858
:1009A0000300684609F046FC08BD1CB50121880318
:1009B00009F01EFF082105200AF0F4FB4FF48070B7
:1009C000009000208DF8040008208DF8050001201B
:1009D0008DF80600684601F0E5FC1CBD1CB5012140
:1009E000202009F0D5FE00208DF8040003208DF8AA
:1009F000050002208DF80700C001009069460248FA
:100A000001F0C8FD1CBD00000014024008B517200D
:100A10008DF800000C208DF8010000208DF80200F8
:100A200001208DF80300684609F004FC08BD1CB5E0
:100A30000121880309F0DCFE092105200AF0B2FB40
:100A40004FF40070009000208DF8040008208DF80D
:100A5000050001208DF80600684601F0A3FC1CBDCE
:100A60001CB50121202009F093FE00208DF8040020
:100A700003208DF8050002208DF807000002009089
:100A80006946024801F086FD1CBD000000140240CA
:100A900008B517208DF800000C208DF8010000200B
:100AA0008DF8020001208DF80300684609F0C2FBB2
:100AB00008BD1CB50121880309F09AFE0121002020
:100AC0000AF070FB0220009000208DF8040008203E
:100AD0008DF8050001208DF80600684601F062FCE3
:100AE0001CBD00001CB50121084609F051FE002084
:100AF0008DF8040003208DF8050002208DF8070012
:100B000000906946014801F045FD1CBD000002400F
:100B100008B507208DF800000C208DF8010000209A
:100B20008DF8020001208DF80300684609F082FB71
:100B300008BD1CB50121880309F05AFE0A210520D1
:100B40000AF030FB4FF48060009000208DF8040024
:100B500008208DF8050001208DF80600684601F098
:100B600021FC1CBD1CB50121202009F011FE002034
:100B70008DF8040003208DF8050002208DF8070091
:100B8000400200906946024801F004FD1CBD0000CF
:100B90000014024008B528208DF800000C208DF8C4
:100BA000010000208DF8020001208DF80300684646
:100BB00009F040FB08BD1CB50121880309F018FEAF
:100BC000002108460AF0EEFA0120009000208DF87E
:100BD000040008208DF8050001208DF80600684605
:100BE00001F0E0FB1CBD00001CB50121084609F026
:100BF000CFFD00208DF8040003208DF805000220B1
:100C00008DF80700012000906946024801F0C2FCFF
:100C10001CBD00000000024008B506208DF8000051
:100C20000C208DF8010000208DF8020001208DF8C5
:100C30000300684609F0FEFA08BD1CB501218803CF
:100C400009F0D6FD042102200AF0ACFA1020009031
:100C500000208DF8040008208DF8050001208DF893
:100C60000600684601F09EFB1CBD00001CB501217A
:100C7000042009F08DFD00208DF8040003208DF87C
:100C8000050002208DF807001020009069460248F8
:100C900001F080FC1CBD00000008024008B50A20DD
:100CA0008DF800000C208DF8010000208DF8020066
:100CB00001208DF80300684609F0BCFA08BD000069
:100CC0001CB50121084609F063FD072209210D48E2
:100CD00001F0A8FC07220A210A4801F0A3FC4FF406
:100CE000C060009002208DF804008DF805000020FF
:100CF0008DF806008DF807006946024801F04AFCAD
:100D00001CBD00000000024010B50446204600F063
:100D100017F8FFF7D5FF00F001F810BD08B5252042
:100D20008DF800000C208DF8010000208DF80200E5
:100D300001208DF80300684609F07CFA08BD000028
:100D40001FB504460121102009F052FD0094002037
:100D5000ADF80400ADF80600ADF80800ADF80C00E1
:100D60000C20ADF80A00694606480AF021FD012270
:100D700040F2255103480AF0F5FC012101480AF030
:100D8000BBFC1FBD0010014010B56FF004000AF05D
:100D9000B1FA0A4800680A49B0FBF1F00949087045
:100DA0000846007800EB4001C1EBC0104FF6FF7120
:100DB00001EAC0000449088010BD0000F09D002039
:100DC00000127A00080000200A00002038B504460E
:100DD0004FF480410E4801F048FCB0B18422042158
:100DE000684607F073F89DF802009DF8031001F0C3
:100DF0000F0140EA012020809DF800009DF80110BD
:100E000040EA01206080002038BD0120FCE700009E
:100E10000018024001B581B045F6C050009008E0CE
:100E200045F6C050009000BF0098411E0091002878
:100E3000FAD1BDF80400411E89B201910028EFD11A
:100E40000CBD00001CB50121402009F0A1FC0020D0
:100E50008DF8040003208DF8050002208DF80700AE
:100E6000400300906946024801F094FB1CBD00005D
:100E70000018024010B500BF802000F02BF80028B9
:100E8000FAD1FFF7DFFF13F041FE13F09FFE13F0DE
:100E90005BFE13F0B2FE1420FFF7BCFF13F0A4FDBD
:100EA00010BD000010B580200949088000F02EF820
:100EB00040200749891E088000F028F84020044996
:100EC000088000F023F880200149891E088010BDA9
:100ED0001A04024070B504460B48006800F0800018
:100EE00080B10948006800F0400058B100F09EF859
:100EF000204600F071F800F0C3F8054600F0AEF8A7
:100F0000284670BD0120FCE71004024008B500200F
:100F1000009004E09DF80000401CC0B200909DF8D5
:100F200000001E28F6DB08BD1CB50121022009F0D7
:100F30002FFC03208DF8050001208DF804008DF8AA
:100F4000060000208DF80700402000906946064802
:100F500001F020FB802000906946034801F01AFB55
:100F600000F07CF81CBD00000004024010B5802099
:100F700007490880FFF7CAFF402005490880FFF7AE
:100F8000C5FF40200249891C0880FFF7BFFF10BD44
:100F90001804024070B50024002516E06006040E17
:100FA00040200C490880FFF7B1FF0A480838006864
:100FB00000F0800008B1601CC4B240200549891CC3
:100FC0000880FFF7A3FF681CC5B2082DE6DB2046AA
:100FD00070BD00001804024070B50446002520E0F2
:100FE00004F0800018B180200F49088003E08020C1
:100FF0000D49891C0880FFF789FF40200A490880B5
:10100000FFF784FF40200849891C0880072D02D182
:101010008020891E08806006040EFFF777FF681C99
:10102000C5B2082DDCDB70BD1804024010B580206D
:101030000949088040200880FFF768FF80200649A2
:10104000891C0880FFF762FF40200349891C088043
:10105000FFF75CFF10BD00001804024010B58020AF
:10106000064908804020891E0880FFF74FFF802036
:101070000249891E0880FFF749FF10BD1A0402408B
:1010800010B580200C490880FFF740FF40200A4936
:101090000880FFF73BFF08480838006800F0800030
:1010A00008B1012400E0002440200349891C088085
:1010B000FFF72CFF204610BD1804024000B59DB07C
:1010C00004200790002008900620099001200A9033
:1010D00000200B900C900D900420009000200190B7
:1010E00008200290012003900020049005900690B3
:1010F00006200E9000200F901090102011900020DC
:10110000129013901490159016904FF480501790F1
:101110000020189019901A90CDF86CD007A81C9058
:101120000EA801F0A3F90121062001F085F91DB0F8
:1011300000BD00001CB50121084609F039FB012162
:10114000782009F025FB0C220021574801F06AFAAB
:101150000C220121544801F065FA0C220421524866
:1011600001F060FA0C2205214F4801F05BFA0C22D5
:1011700008214D4801F056FA0C2209214A4801F095
:1011800051FA0C220A21484801F04CFA0C220E2197
:10119000454801F047FA0C220F21434801F042FA7A
:1011A0004CF23370009002208DF8040003208DF87B
:1011B000050000208DF806008DF8070069463A48C2
:1011C00001F0E8F90C220721384801F02BFA0C2233
:1011D0000821364801F026FA0C220921334801F093
:1011E00021FA0C220A21314801F01CFA0C220B21B1
:1011F0002E4801F017FA0C2211462C4801F012FA81
:101200000C220D21294801F00DFA0C220E2127484D
:1012100001F008FA0C220F21244801F003FA4FF6DE
:10122000807000906946214801F0B4F90C22012138
:101230001F4801F0F7F90C2202211D4801F0F2F9D4
:101240000C2203211A4801F0EDF90C220F21184855
:1012500001F0E8F90C220E21154801F0E3F94CF2F7
:101260000E0000906946124801F094F90C22012109
:10127000104801F0D7F90C2200210E4801F0D2F9F4
:101280000320009069460B4801F084F90C221146B6
:10129000084801F0C7F94FF48050009069460548AE
:1012A00001F078F91CBD0000000C02400010024063
:1012B000001402400018024010B5FFF73BFFFFF793
:1012C000FDFE10BD06E04FF0D8435B5A20F8023B0C
:1012D000891C521E002AF6D1704710B506E030F87E
:1012E000024B4FF0D8435C52891C521E002AF6D1A3
:1012F00010BD000010B500F06FF84FF4F0703449E5
:1013000008804FF4487033490880882009F022FA99
:1013100009F025F80B2009F023FA09F015F88920C7
:1013200009F018FA09F01BF8022009F019FA09F07F
:101330000BF80A21102009F019FA8121042009F084
:1013400015FA09F001F86321142009F00FFA0021C1
:10135000152009F00BFA0321162009F007FA0321E2
:10136000172009F003FA0B21182009F0FFF9DF21FB
:10137000192009F0FBF901211A2009F0F7F91F21C2
:101380001B2009F0F3F900211C2009F0EFF91621C8
:101390001D2009F0EBF900211E2009F0E7F90121D9
:1013A0001F2009F0E3F98021012009F0DFF9002076
:1013B00009F02CF90021412009F0D8F905480388EB
:1013C000034802880021084609F06EF910BD0000AC
:1013D000E89D0020EA9D00207047000000B599B00C
:1013E0000121782009F0D4F90121084609F0E0F93B
:1013F0004CF20370019002208DF8080000208DF857
:101400000A0003208DF8090001208DF80B0001A9C6
:10141000974801F0BFF80C220021954801F002F92D
:101420000C220121924801F0FDF80C22082190487D
:1014300001F0F8F80C2209218D4801F0F3F80C2294
:101440000A218B4801F0EEF80C220E21884801F0A9
:10145000E9F80C220F21864801F0E4F84FF680707D
:10146000019001A9834801F095F80C2207218148D9
:1014700001F0D8F80C2208217E4801F0D3F80C22A4
:1014800009217C4801F0CEF80C220A21794801F0AC
:10149000C9F80C220B21774801F0C4F80C22114640
:1014A000744801F0BFF80C220D21724801F0BAF81F
:1014B0000C220E216F4801F0B5F80C220F216D4867
:1014C00001F0B0F84FF23F00019001A96A4801F025
:1014D00061F80C220021684801F0A4F80C220121D7
:1014E000654801F09FF80C220221634801F09AF848
:1014F0000C220321604801F095F80C2204215E487B
:1015000001F090F80C2205215B4801F08BF80C22C9
:101510001146594801F086F80C220D21564801F079
:1015200081F80C220E21544801F07CF80C220F2186
:10153000514801F077F83F20019001A94F4801F090
:1015400029F80C2200214D4801F06CF80C220121F1
:101550004A4801F067F80C220221484801F062F87D
:101560000C220321454801F05DF80C220421434878
:1015700001F058F80C220521404801F053F84FF4CF
:101580006050019001A93A4801F004F80C220B21A7
:10159000374801F047F80C221146354801F042F86F
:1015A0000C220D21324801F03DF83020019001A9B4
:1015B0002F4800F0EFFF0C2204212D4801F032F8F3
:1015C0000C2205212A4801F02DF84FF400700190FB
:1015D00001A92A4800F0DEFF0C220921274801F06A
:1015E00021F80320019001A9224800F0D3FF0C222A
:1015F0000021204801F016F80C2201211D4801F0BD
:1016000011F84FF48050019001A91C4800F0C2FF6E
:101610000C221146194801F005F8002003900490AF
:10162000082005900020069007900890099002205D
:101630000A9000200B900C9010200D9000200E902E
:1016400010900F90119012904FF480501390002042
:1016500014901590169003A8179018900AA800F0FF
:1016600005FF0121022000F0E7FE19B000BD0000D7
:10167000000C02400010024000140240001802401A
:1016800010B54021074800F0F0FF48B1402000F0BD
:1016900083FE00F03CF80446214603480AF0F7F8C0
:1016A00010BD0000001402400010014000B585B0DC
:1016B00001200490832003900320029024200190B5
:1016C00000200090FFF706F9FFF7ECF8FFF71AF992
:1016D000012241F20C0103A8FFF7FFFD01221103D3
:1016E00001A8FFF7FAFD012241F204016846FFF765
:1016F000F4FD012241F20C0102A8FFF7EEFD0122E8
:1017000041F2040104A8FFF7E8FD05B000BD08B5EB
:10171000012211036846FFF7D5FDBDF8000008BDA2
:1017200010B58021034800F0A0FF10B1802000F028
:1017300033FE10BD0014024000B585B001200490B6
:101740008320039003200290242001900020009029
:10175000FFF702F9FFF7E7F8FFF716F9012241F268
:101760000C2103A8FFF7B9FD01224FF4905101A805
:10177000FFF7B3FD012241F204216846FFF7ADFDFA
:10178000012241F20C2102A8FFF7A7FD012241F23C
:10179000042104A8FFF7A1FD05B000BD10B54FF46A
:1017A0008071244800F061FF002841D04FF4807020
:1017B00000F0F2FD00F07EF8C4B21F480068012876
:1017C00004D002280ED003282BD11BE01B4801783F
:1017D0000078401C194A10701948445402201649D8
:1017E00008601EE0154801780078401C134A10700C
:1017F0001348445410460078052802D103200E49AE
:1018000008600EE001200C4908600C48017800785F
:10181000401C0A4A10700A484454012009490870C3
:1018200000BF00BF22460548017807A0FEF74AFD29
:1018300010BD000000140240209E00201D9E0020CC
:10184000D4A500201C9E002025642025780D0A00C8
:1018500000B585B0012004908320039003200290FE
:101860002420019000200090FFF7B8F8FFF79DF8C2
:10187000FFF7CCF8012241F20C4103A8FFF72DFD40
:1018800001224FF4A05101A8FFF727FD012241F2E8
:1018900004416846FFF721FD012241F20C4102A8F4
:1018A000FFF71BFD012241F2044104A8FFF715FDDB
:1018B00005B000BD08B501224FF4A0516846FFF7FE
:1018C00001FDBDF8000008BD10B54FF400710848D7
:1018D00000F0CBFE50B14FF4007000F05DFD00F061
:1018E0003DF804462146034809F0D1FF10BD000031
:1018F000001402400010014000B585B001200490A2
:101900008320039003200290242001900020009067
:10191000FFF7A6F8FFF78BF8FFF7BAF8012241F2BC
:101920000C6103A8FFF7D9FC01224FF4B05101A8C4
:10193000FFF7D3FC012241F204616846FFF7CDFCBA
:10194000012241F20C6102A8FFF7C7FC012241F21B
:10195000046104A8FFF7C1FC05B000BD08B5012271
:101960004FF4B0516846FFF7ADFCBDF8000008BD6C
:1019700010B50221074800F078FE48B1022000F0BF
:101980000BFD00F03DF804462146034809F07FFFB7
:1019900010BD0000000002400010014000B585B0FD
:1019A00001200490832003900320029024200190C2
:1019B00000200090FFF796F8FFF77BF8FFF7A8F8F4
:1019C000012241F60C0103A8FFF787FC01224FF426
:1019D000C05101A8FFF781FC012241F604016846CD
:1019E000FFF77BFC012241F60C0102A8FFF775FC12
:1019F000012241F6040104A8FFF76FFC05B000BD09
:101A000008B501224FF4C0516846FFF75BFCBDF8F2
:101A1000000008BD10B54FF48061084800F025FEB5
:101A200050B14FF4806000F0B7FC00F03DF8044680
:101A30002146034809F02BFF10BD000000140240AE
:101A40000010014000B585B0012004908320039070
:101A5000032002902420019000200090FFF782F8DC
:101A6000FFF767F8FFF796F8012241F60C2103A86B
:101A7000FFF733FC01224FF4D05101A8FFF72DFCF2
:101A8000012241F604216846FFF727FC012241F6B6
:101A90000C2102A8FFF721FC012241F6042104A831
:101AA000FFF71BFC05B000BD08B501224FF4D05173
:101AB0006846FFF707FCBDF8000008BD10B501211E
:101AC000074800F0D2FD48B1012000F065FC00F0AD
:101AD0003DF804462146034809F0D9FE10BD000038
:101AE000000002400010014000B585B001200490C4
:101AF0008320039003200290242001900020009076
:101B0000FFF772F8FFF757F8FFF786F8012241F662
:101B10000C4103A8FFF7E1FB01224FF4E05101A8BB
:101B2000FFF7DBFB012241F604416846FFF7D5FBD6
:101B3000012241F60C4102A8FFF7CFFB012241F63A
:101B4000044104A8FFF7C9FB05B000BD08B5012298
:101B50004FF4E0516846FFF7B5FBBDF8000008BD43
:101B600010B51021074800F080FD48B1102000F0AA
:101B700013FC00F03DF804462146034809F087FEB7
:101B800010BD0000000802400010014000B585B003
:101B900001200490832003900320029024200190D0
:101BA00000200090FFF762F8FFF747F8FFF776F89C
:101BB000012241F60C6103A8FFF78FFB01224FF4CD
:101BC000F05101A8FFF789FB012241F60461684644
:101BD000FFF783FB012241F60C6102A8FFF77DFBB2
:101BE000012241F6046104A8FFF777FB05B000BDB0
:101BF00008B501224FF4F0516846FFF763FBBDF8CA
:101C0000000008BD10B5FFF751FDFFF795FDFFF788
:101C10001FFEFFF771FEFFF7C1FEFFF713FFFFF78F
:101C200063FFFFF7B3FF10BD10B5FFF763FB0020A4
:101C300007F01CF8002006F0BBFA10BD10B50446F2
:101C400000F004F8204600F011F810BD08B51C2083
:101C50008DF8000000208DF801008DF802000120B1
:101C60008DF80300684608F0E5FA08BD3EB5044665
:101C70000121084608F0ACFD601E01905320ADF82C
:101C800000000020ADF80800ADF8020069464FF0F2
:101C9000804009F0DDFC01221146900709F0CEFCDE
:101CA0000121880709F0ADFC3EBD000008B568467B
:101CB000FFF78CF8C0B90D4800880D4908800D4821
:101CC00000880D490880BDF8000008490880BDF86B
:101CD000020008490880084602880448018807A0D5
:101CE000FEF7F0FA002008BD0120FCE7D49D00209B
:101CF000D89D0020D69D0020DA9D0020583A20254E
:101D0000642C20593A202564200D0A001CB50121BD
:101D1000022008F03DFD07220A210D4800F082FC58
:101D200007220B210A4800F07DFC4FF44060009030
:101D300002208DF804008DF8050000208DF80600C3
:101D40008DF807006946024800F024FC1CBD000025
:101D50000004024010B50446204600F017F8FFF7D3
:101D6000D5FF00F001F810BD08B527208DF8000060
:101D70000D208DF8010000208DF8020001208DF863
:101D80000300684608F056FA08BD00001FB5044677
:101D90000121880408F01CFD00940020ADF8040027
:101DA000ADF80600ADF80800ADF80C000C20ADF859
:101DB0000A006946094809F0FBFC012240F225515E
:101DC000064809F0CFFC012240F22441034809F003
:101DD000C9FC0121014809F08FFC1FBD00480040EB
:101DE00010B504462146512008F0C0FC10BD2DE975
:101DF000F04105460C4616461F46DDF81880E9B24C
:101E0000582008F0B3FC2912592008F0AFFCE1B2C9
:101E10005A2008F0ABFCB8F1000F04D121125B206E
:101E200008F0A4FC05E0802040EA24215B2008F0B3
:101E30009DFCF9B25C2008F099FC39125D2008F095
:101E400095FCF1B25E2008F091FC31125F2008F0A1
:101E50008DFCBDE8F081000010B501200449087038
:101E6000502008F077FC802008F07AFC10BD0000BC
:101E7000DC9D002010B5002406E008F093FB00F084
:101E8000400000B903E0641C03488442F5D300BF5E
:101E900000200249087010BD801A0600DC9D002059
:101EA00038B5446805460146204609F013FD002870
:101EB00008BF38BD464A286811280DD006DC0B281B
:101EC0002AD00E2838D00F2817D07CE0282873D0CD
:101ED000B0F5107F0AD076E09268002A08BF38BDBE
:101EE000294601B02046BDE830401047526801B095
:101EF00029462046BDE8304010472546204600F0E0
:101F000097FE0090406E0468684600F017FF002CB2
:101F10001CBF2846A04738BD204600F089FE00902F
:101F2000683000F09FFD009803216C3000F0C0FD88
:101F3000684600F003FF46E0E968486809680D2933
:101F400002D0202918D037E0002835DD4FF4807109
:101F5000204609F07DFD204600F06AFE009090F8D2
:101F60002850684600F0EAFE15F0020F1ED001214D
:101F700020460BF0E7F819E0002817DD25464FF45E
:101F80008071204609F064FD284600F051FE009063
:101F900090F82840684600F0D1FE14F0020F08BF08
:101FA00038BD012128460BF0CDF838BD2046BDE8EC
:101FB0003840022111F00AB8E86820B920464FF4F1
:101FC000807109F06AFC2846BDE838400AF0BAB8CA
:101FD000949E002070B5044686B08069B4F908C0AC
:101FE000658A00260091CDE90165CDE903C0B4F909
:101FF0000C00B4F91050C118B4F90A00B4F90EC0BD
:1020000010442B46624600F007F80546616800F070
:102010006AF906B0284670BD2DE9F04385B00D463B
:10202000DDE90F61DDE90C4C154F4C31CDE9027152
:10203000CDE9004C294609F0D3FF05001BD000F084
:10204000F7FD10223146049009F0C8FD0D4C0499AB
:10205000B4E8CD133431A1E8CD1394E80D10A1E814
:102060000D1054F82C0D086004A800F067FE2068DD
:1020700041682846884705B02846BDE8F08300003F
:10208000A11E0008A09E0020F0B5044680688C497F
:1020900089B051F820506068002800F00A810528B6
:1020A00006D006287DD0122800F0B48000F004B9D4
:1020B000E869002808BF002651D0D5E90012AB68B6
:1020C0008DE80F0004F110010FC904F02DFD00266A
:1020D00055F8260003F0A0FDA169E8690A1A2169F4
:1020E00001446069304401F081FDA169E8690A1A80
:1020F00021690144E069801B01F078FDE169E8692C
:102100000A1A616901442069304401F003FEE16963
:10211000E8690A1A61690144A069801B01F0FAFDAF
:10212000761C022ED4DBA86803F076FDE069E9692D
:10213000D4F814C0431A206942186144801C521E0E
:1021400001F042FEE169E869A2690B1A6169014484
:10215000101A401C921E01F037FEEE6911E055F88E
:10216000260003F059FDE069831BA069821B6069AA
:1021700081192069304401F089FD761C022EEEDBC6
:102180000226D5E90301CDE90001E1696069014456
:102190004B10A1698A1B811C2069304401F022FC8C
:1021A00000E011E0D5E90501CDE90001E0696169D0
:1021B000831E01440122A06902EB6101821B206998
:1021C000304401F00FFC77E0206800F031FD04900E
:1021D00020680CF05FF850B1A068002818BF0020FC
:1021E0000AD10498006F002818BF012004E0049869
:1021F000406F002818BF0220049901EB8000C56ED3
:1022000004A800F09BFD00231A462846216801F02F
:102210007DF951E0206800F00BFD0490866E002EE1
:1022200008BF04A842D0A168B0F95C70002908BFBB
:10223000012103D003290CBF0221002100EB810101
:10224000406D0C6C03F0ECFC204603F0E5FC06A8A6
:1022500001F09EFEBDF81810A88B0144ADF81810CF
:10226000BDF81C10081AADF81C00BDF81A00801C3F
:10227000ADF81A00BDF81E00801EADF81E000498CF
:10228000B0F96020B0F95E1006A803F01FF804A8AA
:1022900000F054FD022003F007FD304600F0C8FCBA
:1022A0003A4606A9059001F082F905A800F046FD1E
:1022B00002E020680BF0E0F909B00020F0BD00005A
:1022C000A07C0108002808BF704738B50C460546B9
:1022D00000F0AEFC00904465684600F02FFD2846F3
:1022E0000AF0C8FE38BDF0B583B00F4605004FF0C8
:1022F00001041CD000F09CFC0190866E01A80096A1
:1023000000F01CFD3946684605F034F878B10098B5
:102310000024B04208D0284600F08AFC01900099C1
:10232000816601A800F00AFD28460AF0A3FE03B06A
:102330002046F0BD00BFFEE77CB50AF0EDF905468A
:10234000002000902B46044A06210190034800F02B
:1023500099FF044620467CBD95470108A45D01080D
:10236000704710B5FFF7AAFB10BD10B5FFF752FB81
:1023700010BD10B5FFF7FCFA10BD10B5FFF7F0FB6C
:1023800010BD10B5FFF77CF9FFF7CAF9FFF706FAA1
:10239000FFF79AFA10BD000001490860704700007D
:1023A000143C0140002123498279002A3AD00A4690
:1023B000126803689A430B461A600A1D1268036884
:1023C0009A430B1D1A60027911440A6803681A4384
:1023D0000A60184A0832126803689A43154B08339A
:1023E0001A601A1D126803689A43124B0C331A6064
:1023F0004279102A0ED11A1F126803681A430D4B36
:1024000008331A601A1D126803681A43094B0C330B
:102410001A600DE00749427911440A6803681A43BB
:102420000A6005E0027911440A6803689A430A6069
:1024300070470000003C014051B18200A2F1C0424F
:10244000126842F001038200A2F1C042136009E069
:102450008200A2F1C0421268034B1A408300A3F12C
:10246000C0431A6070470000FEFF0F00D0E9011260
:102470001143C268114302691143426911438269E1
:102480001143C2691143026A1143426A1143826ACD
:102490001143C26A1143026B114302689200A2F118
:1024A000C0421160816808290BD101688900A1F13F
:1024B000C041096841F0400201688900A1F1C041B2
:1024C0000A60416B0968426B526841EA0211426B33
:1024D000926841EA0221426B928941EA0241426BD1
:1024E000128A41EA0251426B127D41EA0261426B5B
:1024F000926911430268521C9200A2F1C04211601D
:10250000C16AB1F5804F1BD1816B0968826B52683B
:1025100041EA0211826B926841EA0221826B128ABF
:1025200041EA0251826B127D41EA0261826B92693B
:10253000114302689200A2F1C042C2F8041107E000
:102540006FF0704201688900A1F1C041C1F8042117
:102550007047000010B5002003F05CFB6FF07F4077
:1025600003F05AFB012003F08DFB002003F092FBE7
:10257000002003F099FB002003F050FB04480068A2
:1025800003F04EFBBDE81040002003F059BB0000F3
:10259000389E0020F0B50A4600210023002400BF29
:1025A0003DE0012505FA01F3156805EA03049C42A4
:1025B00034D105684F000326BE40B5430560157948
:1025C0004E00B5400668354305601579012D02D0EF
:1025D0001579022D16D185684F000326BE40B543FC
:1025E000856055794E00B5408668354385604568FD
:1025F00001268E40B5434560456896798E40B6B257
:1026000035434560C5684F000326BE40B543C560ED
:10261000D5794E00B540C6683543C560491C1029C0
:10262000BFD3F0BDF0B5002300244D07ED0E02FA34
:1026300005F3CE1000F1200555F826504E07F70E91
:102640000F26BE40B543CF1000F1200646F82750B4
:10265000CE1000F1200555F8265045EA0304CE10AF
:1026600000F1200545F82640F0BD02460020136920
:102670000B400BB1012000E0002070472DE9F04F26
:102680004B4989B00968B1F922200692D1F81CC0E3
:10269000B1F92470DCF81C40A28982429CBFE38916
:1026A000984205D8A0EB02094FF0FF38266812E0E7
:1026B000D4E90162002A71D0138883429CBF5588F7
:1026C000A8426BD8C01A526880B202EB8000B0F901
:1026D0000090B0F90280B9F1FF3F5FD09CF818007C
:1026E000A27C10FB02FB94F810A00790B1F92A50CD
:1026F000284606F0C5FAC0B208902D4809FB0B62C7
:102700000068A37C4FF00109816BCDE90293CDE90C
:102710000421C0695246C17E807ECDE90001DDE919
:102720000603394605F058FDB8F1FF3F18D045F0D3
:10273000020006F0A5FA1E48A37C08FB0B620068A5
:10274000816BCDE90293CDE90421C0695246C17E77
:10275000807ECDE90001DDE90603394605F03CFD48
:10276000134E3068C069417E007E814213D9022D2C
:1027700011D085F0040006F083FA3068C069017E4C
:10278000C27E11FB0271427ED319827E06981AFB2B
:10279000020205F0FBFE089806F072FA0448627C1B
:1027A0000068418C1144418409B0BDE8F08F0000FD
:1027B0003C9E0020044800290068C069C0691CBF15
:1027C000027C0A60407C70473C9E0020022008800A
:1027D0007047C06982898A429CBFC289914210D9E0
:1027E000806880B102888A429CBF438899420AD897
:1027F000406800EB8100A0EB8200B0F900000028E7
:1028000001DB012070470020704700002DE9F043F4
:10281000394D024687B02868B0F92A60C069C1699D
:102820001046002904BF07B0BDE8F0830B8883423F
:102830009CBF4B88984205D989680029F6D107B01A
:10284000BDE8F083002904BF07B0BDE8F083486805
:102850000988511A00EBC1043046A77806F010FA37
:102860008046286862680123816BCDE90237CDE993
:102870000421C169CB7E8A7ECDE900230B7EB0F9AD
:1028800024102278B0F9220005F0A6FC2868C0695F
:10289000417E027E91421FD9C07E11FB00F912FBDE
:1028A00000F7022E18D001F078FB064601F058FB25
:1028B00003F0B2F929682278CB69B1F92200DB7EF6
:1028C00012FB0302B1F9241001EB0903394405F0AE
:1028D0005DFE304603F0A0F9404606F0D1F92868C5
:1028E0006278C369B0F922109B7E12FB0311418408
:1028F00007B0BDE8F08300003C9E002010B4044601
:1029000015480068D0F81CC02046DCF81C2002B333
:10291000138883429CBF5388984203D99268002A47
:10292000F6D116E0AAB110885368221A012000EBF4
:10293000C2009CF81AC0185C10FB0CF0002904BF00
:1029400010BC704713F8322012FB0CF20A6010BC66
:10295000704710BC002070473C9E0020012008807A
:102960007047C06968B102888A429CBF4288914220
:1029700003D980680028F6D103E000281CBF01209D
:10298000704700207047002904BF00207047F8B549
:1029900005460C46084600F013F806000ED000F07D
:1029A00047F9224600901DB12946FDF776FD02E069
:1029B000002104F06DFD684600F0C0F93046F8BD16
:1029C000002808BF70470BF093BF38B50546FFF7E6
:1029D000F7FF040009D000F02BF92A4600210090EF
:1029E00004F056FD684600F0A9F9204638BD000005
:1029F000024A106021F00300506070476CB0002064
:102A0000002808BF704770B50E4C0546606B10F883
:102A10003510002918BF022928BF70BD042101EB21
:102A2000C506815948680BF009FF6068401C60606A
:102A3000616B606A8851616B002001F83500656246
:102A400070BD0000ACAF0020002808BF7047044AEA
:102A5000D16B0160002918BF4860D0637047000047
:102A6000ACAF00202DE9F041056806460027D5B13E
:102A70000E4C606B10F83510002918BF022912D2D5
:102A8000042101EBC50850F8081048680BF0D6FE89
:102A90006068401C6060616B606A41F80800606BB0
:102AA00000F8357065623760BDE8F081ACAF00209A
:102AB0002DE9F05FB1F1000881464FF00005C6BF77
:102AC000154F4FF0000ABDE8F09F00BF09EB8506E7
:102AD0003468CCB1786B10F83410002918BF022983
:102AE00012D2042101EBC40B50F80B1048680BF014
:102AF000A5FE7868401C7860796B786A41F80B0015
:102B0000786B00F834A07C626D1CC6F800A04545C7
:102B1000DCDBBDE8F09F0000ACAF00202DE9F04108
:102B200004460FF0D1FFE01C274E20F00300051DE6
:102B3000306CA84288BF0546F46BBCB154F8041C45
:102B4000A94210D19CB1206800281CBF6168416077
:102B5000606800281CBF21680160F16BA14204BFBE
:102B60002068F0632DE02468002CE7D10024F16890
:102B7000B06B00EB010858F8040CA8EB00073868AC
:102B800040B1002010F0FAFF58F8040CA8EB000741
:102B90003868B0B97868A84213DB3844401B041D7C
:102BA000384610F0C1FFF068401BF060706928449F
:102BB00070617868401B1CBF39460BF03FFE44F83B
:102BC000045C2046BDE8F081ACAF002010B50024C5
:102BD0000FF07AFF0D490F2001EBC002526C8AB151
:102BE00001EBC000406C806848B14168A14288BFD9
:102BF0000C46806800281CBF80680028F5D1A4F12D
:102C00000C0010BD401EE7D5F9E70000ACAF002076
:102C1000002140B10549042202EBC000496B08586D
:102C20004068A0F10C01084670470000ACAF0020DE
:102C30000949CA69521CCA614A6B02EBC002137887
:102C40005B1C1370002808BF7047496B042202EB1D
:102C5000C000085808307047ACAF002070B5064679
:102C600082B00C460846FFF7ABFE050018BF002EE9
:102C70001BD03046FFF7CCFFA042B8BF0446284621
:102C8000FFF7D6FF00903046FFF7D2FF01460190D4
:102C900022460098FDF701FC684600F04FF801A8B5
:102CA00000F04CF83046FFF7ABFE02B0284670BD8E
:102CB00010B500240FF008FF174B184A0F2000BF73
:102CC00002EBC001496CD9B102EBC000406C8068D6
:102CD000C0B14168A14288BF0C46806800281CBF73
:102CE00080680028F5D1A4F10C00B0F5800F0CD954
:102CF00083FB00104111A1EBE070116A484310BD45
:102D0000401EDDD5A4F10C00F2E7116A4843A3FB95
:102D10000010400910BD00001F85EB51ACAF002032
:102D20000549102898BF102004D94A68B0EB520F0B
:102D300028BF5008886070476CB000200A490268BC
:102D40004B6B52F8082C03EBC2021378022B04D30E
:102D5000CB69002B1CBF5B1ECB611178491E117023
:102D60000021016008467047ACAF0020002808BF72
:102D700070470449042202EBC000496B0858083030
:102D800070470000ACAF00202DE9F0414FF0000685
:102D900082B00B465FEA000834462BD032B11146B0
:102DA0001846FFF7F0FD060008BF01244046FFF774
:102DB0003FFF0090078845686846FFF7BFFFCCB922
:102DC000B800011D2846FFF749FF050016D0FFF7A0
:102DD0002FFF019040F8276001A8FFF7AFFF4046A2
:102DE000FFF726FF009045600188491C0180684676
:102DF000FFF7A4FF02B02046BDE8F0813046FFF7A0
:102E0000FFFD0124F6E70820FFF7DFBD002808BF1B
:102E1000704730B583B00546FFF70AFF0090406861
:102E2000D8B1FFF705FF0190009800240088002822
:102E300009DD019800EB8400FFF714FE0098641C84
:102E40000088A042F5DC01A8FFF778FF0098001D7C
:102E5000FFF708FE0099002008806846FFF76EFF24
:102E60002846FFF7CDFD03B030BD10B582B00C464B
:102E7000FFF7DEFE00900188A14227D9406828B301
:102E8000FFF7D6FE019000EB8400FFF7EBFD009901
:102E90000888401E80B20880011B002913DD0198BC
:102EA00011F0010F00EB840003D050F8042F40F81C
:102EB000042C491007D0426840F8082B491E0268CC
:102EC00040F8042CF7D101A8FFF738FF6846FFF758
:102ED00035FF02B010BD38B5002430B1FFF7A8FEB1
:102EE000009004886846FFF729FF204638BD30B5BA
:102EF00083B00D460024B8B1FFF79AFE0090018818
:102F0000A9420ED9406860B1FFF792FE019050F8D7
:102F1000255001A8FFF712FF280002D0FFF788FE16
:102F200004466846FFF70AFF03B0204630BDF0B5FF
:102F3000074685B00E46154600241046FFF745FDAE
:102F4000009030B33846FFF773FE3146019000F031
:102F500023F802900098FFF76BFE2A46039002992F
:102F6000FDF79BFA02A8FFF7E9FE03A8FFF7E6FECC
:102F7000DDE90020314600F026F818B16846FFF779
:102F800071FD03E00098FFF753FE044601A8FFF728
:102F9000D5FE05B02046F0BD38B50C4601880025A9
:102FA000A1420ED9406860B1FFF742FE009050F890
:102FB00024406846FFF7C2FE200002D0FFF738FE2B
:102FC0000546284638BD38B50C46014615460A88E0
:102FD0000120A24298BF38BD4968002908BF38BD0A
:102FE0000846FFF725FE00EB840400902046FFF71B
:102FF00039FD68462560FFF7A1FE002038BD0000BE
:10300000034900EB800001EB80004079704700002D
:1030100048B100202DE9F84F05460E46084600F05D
:10302000C3FF8346DFF8C080304806EB860A0127DD
:1030300058F82A90016831B92E4907602C48086079
:10304000084604F08FF9284906EB860001EB80045E
:10305000BBF1000F21D0584602F0CAFD00904FF09E
:103060007F4002F0D7FD00F09DF80022114628684D
:1030700000F05CFB286842880188584602F0DCFDBD
:1030800048F82A506771009802F0B2FD304600F00F
:103090008BFFE0B9607900BB23E048F82A506771E4
:1030A000206918B102F022FA00202061CDB100970A
:1030B000E068A9683346421AA0686968411A28681E
:1030C00002F01AFD2061304600F06EFF18B10121B8
:1030D00002F0B4FD05E0607918B12771206902F0B3
:1030E000E1FC4846BDE8F88F48B10020AC9F0020C5
:1030F00095300108B09F002070B506460D46144675
:10310000104600F051FF0300154804EB84010AD07B
:1031100050F8210041688068711A2A1ABDE8704091
:10312000184602F087BD00EB8104A268B24214BFCA
:1031300001220022E368AB4214BF012300231A439B
:1031400008BF70BD236943B150F821008168406811
:103150006A1A311A184602F0F1F9C4E9026570BD25
:1031600048B10020C2B2CBB2D21A48BF524292B28A
:1031700002FB02F3C0F30722C1F3072CB2EB0C02EF
:1031800048BF524292B2000CA0EB114002FB023247
:1031900000B20028BCBF404200B280B200FB002059
:1031A000704700002DE9F041002182B0084600F090
:1031B00049FF43F6FF763746042005F061FD80465F
:1031C0001148C068C16C006D8D1B841B0E44074400
:1031D000ADF80050ADF80460ADF80240ADF80670EF
:1031E00068460AF08FFE48B13B46324621462846E3
:1031F00005F0CCF90AF0BEFC0028F5D1404605F0F8
:103200003FFD02B0BDE8F081309E00202DE9F04185
:10321000064682B01C4617460D46042005F030FDD8
:1032200080461248C168C86C096D064407440D44C5
:103230000C44ADF80060ADF80470ADF80250ADF884
:10324000064068460AF05EFE48B123463A462946E3
:10325000304605F09BF90AF08DFC0028F5D1404678
:1032600005F00EFD02B0BDE8F0810000309E0020A8
:10327000B0F90630B0F90420B0F90210B0F900003E
:10328000FFF7C4BF2DE9F8431C00DDE90898164696
:103290000F46054602D109F03FFA04460096D5F8DC
:1032A00000C043464A4621462846E047060008BF7C
:1032B000BDE8F88309F024FA8146698A304608F0AF
:1032C000C7FB30460AF0D6FA48460AF0D3FA7F1E0A
:1032D000002FC8BF4FF000080FDD00BFCDF8008001
:1032E00055F81CCF00231A4649462846E047F8B156
:1032F0000AF0C0FA7F1E002FF0DC1D2148460AF0BC
:1033000086F8B4F1FF3F10D009F052FA40B100BF87
:10331000FFF72CFD8469B44218BF5FEA0400F7D1BF
:10332000B4421CBF30460AF023F93046BDE8F883AA
:10333000304608F03DFF0020BDE8F883022BA4BF13
:10334000002070472DE9F04106461C4615460F4601
:103350001C20FFF7E3FB002808BFBDE8F081002F29
:1033600018BF07610BD10A4A52F8241039B10A6814
:103370001AB111461268002AFBD109690161846102
:103380008582002101604160C0E90216BDE8F0813C
:10339000549E00202DE9F04100241D460746884632
:1033A0001646022B27DA1C20FFF7B8FB18B3B8F13A
:1033B000000F18BFC0F810800BD1104A52F825102A
:1033C00039B10A681AB111461268002AFBD109699D
:1033D00001618561868204604460C0E9024704009F
:1033E00009D000F011F8E068006820B904480068CE
:1033F00000EB850084652046BDE8F081549E0020E6
:103400003C9E0020FFF720BB00281CBF8269022AD7
:10341000A4BF0120704710B4244C54F82210002996
:1034200008BF44F822003AD04B682BB119465B68BC
:10343000002BFBD1002935D0C3681B68D1F80CC024
:10344000DCF800C09C4503DD09680029F6D129E0BD
:1034500041B3D1F80CC0DCF800C09C4504BFB0F803
:1034600014C0BCF1010F0DD1D1F800C0BCF1000FA8
:1034700007D06146DCF80CC0DCF800C09C45F3DAEC
:1034800000E079B14B68002B1DBF18604A684260AC
:1034900044F822004860884208BF0021016010BC47
:1034A0000020704710BC012070470000549E00208F
:1034B0000B4A816952F82130834204BF036842F805
:1034C0002130416800291CBF02680A600168002998
:1034D0001CBF42684A6000210160416070470000E3
:1034E000549E00200228A4BF00207047064951F8CE
:1034F0002000002808BF7047C168096800291CBF68
:1035000000680028F8D17047549E0020002808BFAA
:1035100070472DE9F8431E46174688460446FFF7D4
:1035200087FB0090006805686846FFF707FC334694
:103530003A4641462046A847BDE8F88338B504001E
:103540004FF0000008BF38BD2046FFF771FB009028
:10355000006845686846FFF7F1FB2046A84738BD7C
:1035600038B504004FF0000008BF38BD2046FFF713
:103570005FFB0090006885686846FFF7DFFB204628
:10358000A84738BD70B5044602F06EFE10EB040586
:1035900002F06AFE2C1A002CD8BF70BD00F0E2FBCE
:1035A000052CC8BF0524204602F050FEF0E72DE9A7
:1035B000F04182B006000D46174647F6FF784FF0FF
:1035C000000404BF02B0BDE8F08165B108460AF00E
:1035D00005F9040007D002462946684603F079FD44
:1035E00068460AF0FBF843463A462946304603F05F
:1035F000CBF820460AF0F2F802B0BDE8F0810028CE
:1036000008BF70472DE9FF4F0C684F680E4605460E
:1036100038B221B287B0401A401C9346029000F0A5
:10362000CDFC82461BF00C0F2BD0029801900A981B
:10363000A8464FF000090090DDE90021404603F064
:10364000D1FE8044002818BF09F10109F4D10BF024
:103650000C00042818BF082802D00C2805D010E060
:10366000381409FB1A00401C09E02014C0EB274164
:1036700009FB1A11491C01EBD17100EB610060F3E9
:103680001F4430460AF0AAF85FEA000909D0CDE9E4
:1036900004470246314604A803F01BFD04A80AF0C3
:1036A0009DF8AAF1010828460A9A029903F0DCFE67
:1036B000039008EB244060F31F47CDE900472846FC
:1036C000039903F06DFC1BF0030108BF30880DD097
:1036D00001290ED0022911D1B6F90420B6F9001043
:1036E000521A101A00EBD07001EB6000ADF8000028
:1036F00004E0B188081A401CADF800006A4628466C
:10370000039902F073FF28460A9A029903F06AFEB1
:1037100005440AEB244060F31F4428780028C2D1F6
:1037200048460AF05BF80BB0BDE8F08F2DE9F04F8A
:10373000374F044689B03868C36C006D5E18851831
:103740002088711E0844ADF81860ADF81C00608830
:10375000691E0844ADF81E00ADF81A5006A80AF01C
:10376000D1FB002819BFDFF8ACB04FF0010A09B057
:10377000BDE8F08F0020D4F80C9002F04FFA80469C
:10378000B9F1000F1BBF99F80400002828F00200CF
:1037900048F0020002F042FA206970B1D4E9021246
:1037A0000091CDE9012ACDF80CA0D0F800C06388C3
:1037B000228829463046E04718E03868DBF80030B8
:1037C0002146427CE0689847D0B1A288E388A1688E
:1037D000CDF800A0CDE90410CDE90232CDF804A067
:1037E000638822882946304604F0F6FC404602F001
:1037F00015FA0AF0BFF90028BCD109B0BDE8F08F76
:10380000E088012812BF00203868806BDDE70000E7
:103810003C9E0020349E00202DE9FF4FDFF8BCC104
:103820009FB0DCF80040D4F84CC060441F90246D79
:10383000601820900CEB02002190E01822901F9855
:10384000ADF850002198ADF854002098ADF8520022
:103850002298ADF8560014A80AF054FB002804BFC3
:1038600023B0BDE8F08F21991F98081A1C902C985E
:10387000C0F307201B902C98C0F307401A902C9897
:10388000000E19902D98C0F3072018902D98C0F3C2
:10389000074017902D98000E1690209806901F9FB5
:1038A0002298DDE92C5401904D48219E049000F0AF
:1038B00074FB1390A54207D1284605F0C5F932469E
:1038C0003846019B069973E01C98401C01280CBFE8
:1038D0004FF00109A0F10109E8B20C901B980DF11D
:1038E000580E0B909EE80E0C04F0FF0C4FF00108F0
:1038F00028463C46B7425EDC0C9DA2EB0B02ACEBCB
:10390000050CCDF840C0DDF82CC0A1EB0A01A3EBFB
:103910000C030D930F921291109AE11B4A4392FBF4
:10392000F9F30C9A129D1A4402F0FF0C0D9A4A43C7
:1039300092FBF9F30B9A1A44D3B20F9A4CEA032381
:103940004A4392FBF9F2694391FBF9F15A44D2B22E
:10395000514443EA024242EA0165BC4218DD854215
:1039600008BF08F1010813D005F06EF9B8F1010F96
:1039700007DDA4EB0800621E019B069904F006FE19
:1039800004E0049B601E019A069998474FF00108D5
:10399000641C2846B442BFDD05F056F93046B8F144
:1039A000010F0BDDA0EB0801481C3246019B069974
:1039B00004F0ECFD06E005F047F93046049B019A5F
:1039C00006999847139805F03FF90AF0D3F80028B4
:1039D0007FF463AF23B0BDE8F08F00003C9E002071
:1039E000298500082DE9FF4FDFF8F8C1A1B0DCF808
:1039F0000040D4F84CC060442190246D601822909F
:103A00000CEB02002390E01824902198ADF85000B0
:103A10002398ADF854002298ADF852002498ADF8E0
:103A2000560014A80AF06EFA002804BF25B0BDE8BD
:103A3000F08F22992498401A1C902E98C0F30720EA
:103A40001B902E98C0F307401A902E98000E1990E4
:103A50002F98C0F3072018902F98C0F307401790B5
:103A60002F98000E169021980390DDE92280019096
:103A7000DDE92E455C4807900120249E1D9000F052
:103A80008CFA1390AC4207D1204605F0DDF833469E
:103A90004146019A03988CE01C98401C01280CBFF9
:103AA0004FF00109A0F10109E0B20E901B980890B7
:103AB000DDE91613DDE9182A01272046DDF868B094
:103AC00005F0FF0C4446B0456CDC0E9DA1EB0A01ED
:103AD000ACEB050CCDF844C0DDF820C0CDF84010AB
:103AE000A2EB0C020F92A3EB0B020C92119AA4EB27
:103AF00008014A4392FBF9F30E9A109D1A4402F012
:103B0000FF0C0F9A4A4392FBF9F3089A1A44D3B276
:103B10000C9A4CEA03234A4392FBF9F2694391FB66
:103B2000F9F15A44D2B2514443EA024242EA0165F1
:103B3000444522DD854208BF7F1C1ED005F084F875
:103B40001D98012F0DDD00281FBFE11B631E019A88
:103B5000039801BFE01B621E019B039904F016FD50
:103B60000AE0019A20B1079B611E0398984703E081
:103B7000079B601E039998470127641C2846B4429E
:103B8000B4DD05F061F81D993046012F14DD0029E0
:103B9000A0EB070109D03346491C019A039804F0B1
:103BA000F5FC14E005F050F807E0481C3246019B94
:103BB000039904F0EBFC0AE029B1079B3146019A16
:103BC0000398984703E0079B019A03999847139835
:103BD00005F03AF809F0CEFF00287FF444AF25B095
:103BE000BDE8F08F3C9E002055840008F0B5134CD2
:103BF000844683B02368D86C4618196D851801EB8C
:103C00000C07ADF80060ADF80450ADF80270ADF8E7
:103C1000067068460AF076F9002804BF03B0F0BDCC
:103C200020682A463946406E03683046984709F0B6
:103C3000A1FF0028F4D103B0F0BD00003C9E00209D
:103C400070B5114C82B02268D36C1E18106DADF89F
:103C500004604518ADF80060ADF80650ADF80250AC
:103C600068460AF04FF9002804BF02B070BD206812
:103C70002946406E42683046904709F07BFF002895
:103C8000F5D102B070BD00003C9E0020F0B5DFF819
:103C900080C083B0DCF80040E76C94F818C03E1890
:103CA000206DACF1010C4518C418A6EB0C001744AC
:103CB000ADF8000007EB0C00ADF80400A5EB0C001C
:103CC000ADF8020004EB0C00ADF8060068460AF0FF
:103CD00019F9002804BF03B0F0BD3A462946304622
:103CE00004F0B8FB3A462146304604F0B3FB621EAE
:103CF000691C304604F018FC621E691C384604F04A
:103D000013FC09F037FF0028E7D103B0F0BD000035
:103D10003C9E002070B5124B82B01B68D3F84CC09B
:103D20000CEB0006186DADF8006045188418ADF86E
:103D30000460ADF80250ADF8064068460AF0E2F8BB
:103D4000002804BF02B070BD22462946304604F068
:103D5000EBFB09F00FFF0028F6D102B070BD0000A8
:103D60003C9E00202DE9F041154D00273C46286877
:103D700018B18047002818BF012408F0E5FA002890
:103D800018BF01240F4E306808B1804700B99CB1BC
:103D900001272868002418B18047002818BF012493
:103DA00008F0D2FA002818BF0124306810B180470B
:103DB0000028EDD1002CEBD13846BDE8F0810000A1
:103DC000609E00205C9E0020F0B5DFF850C083B0FC
:103DD000DCF80040D4F84CC00CEB0007206D0CEB75
:103DE00002054618C418ADF80070ADF80450ADF8DF
:103DF0000260ADF8064068460AF084F8002804BF67
:103E000003B0F0BD23462A463146384604F0BEFBD7
:103E100009F0B0FE0028F5D103B0F0BD3C9E0020B3
:103E2000002808BF7047B0F806C083888068BCF1DE
:103E3000080F02BF02FB0311405C704709DCBCF1B4
:103E4000010F0ED0BCF1020F17D0BCF1040F21D02E
:103E500005E0BCF1100F28D0BCF1200F2BD00020C2
:103E600070475A4302EBD10201F00701805CC1F1B7
:103E70000701C84000F0010070475A4302EB91026D
:103E8000805C062202EA4101C1F10601C84000F04F
:103E9000030070475A4302EB510211F0010F805C9E
:103EA00014BF00F00F00000970475B0802FB03110C
:103EB00030F8110070479B0802FB031150F82100F5
:103EC0007047DDF800C0082802BF0CFB0130105C11
:103ED000704708DC0CFB01F101280AD0022813D03E
:103EE00004281DD003E0102824D0202828D000204A
:103EF000704701EBD30003F00701105CC1F107012B
:103F0000C84000F00100704701EB93000621105CEF
:103F100001EA4301C1F10601C84000F00300704707
:103F200001EB530013F0010F105C14BF00F00F0001
:103F30000009704748100CFB003032F81000704741
:103F400088100CFB003052F820007047034951F8EC
:103F50002000C1688A6A082110470000549E002092
:103F600010B504F059FBBDE8104004F079BC000026
:103F700002490968C9694A68002110473C9E00202F
:103F8000024A1268D2695268104700003C9E002025
:103F9000002808BF704708F089BB10B504F044FB47
:103FA000BDE8104004F05CBC002102283CBF02497F
:103FB00051F8201008467047C89F0020024800684A
:103FC000C069407E704700003C9E002070B51446DA
:103FD0000D4604F07BFB002808BF70BD0020286060
:103FE000206070BD044AB2F9002002600348B0F9B5
:103FF00000000860704700007C9E00207E9E00202C
:1040000010B5044603F028F801462046BDE81040EC
:1040100002F0C6BF02F028B9417EC07E11FB00F05D
:1040200070470000024951F820000069006870479D
:10403000549E0020024951F82000006940687047F2
:10404000549E0020024A12685084002091847047D8
:104050003C9E002070B52D48016821F001010160EF
:104060002B48012686602B49016000682A49884256
:1040700000D0FEE7294DA86960B9AE6102F0D4F81E
:1040800004F082FE05F11C012548086008466969B4
:10409000416068612E20287002F0ECF8E868214C3D
:1040A000011DC0E90E010064091D6161417C1E48CB
:1040B00050F82100C1680A6B04F1080190471B48C1
:1040C0006066A868E061E86808306061267608F0FC
:1040D00023FBA064032084F868006FF07040206325
:1040E0006063002004F076FD6FF07F4004F0ACFDCB
:1040F0000F48286110F0A6FC04460021084601F094
:10410000A7FD08F0E1FE204670BD0000002000E0A1
:1041100000300240C2A507F4CDB5E8B5309E0020BE
:104120004130010878B00020549E00204C5E010808
:10413000F86B010810B582B030B90F480068006E06
:10414000002804BF02B010BDFEF772FD0090446964
:104150006846FEF7F3FD002C04BF02B010BD2046F8
:10416000FEF766FD019081688968884701A8FEF71F
:10417000E5FD02B010BD00003C9E002001490A464A
:1041800000F002B801F0FFFF002808BF70472DE9DA
:10419000F047814686B016460C46002001F03EFDF1
:1041A0002E4D80462868076E4846FEF741FD009078
:1041B0000068806901F01CFD824640F6FF70C44231
:1041C00004D10098B0F90440B0F906600098621E6E
:1041D0000189ADF808401144ADF80C104089711EFA
:1041E0000844ADF80A60ADF80E0007F00BFE684613
:1041F000FEF7A4FD02A809F085FE40B13246214633
:10420000484600F031FC09F0B5FC0028F6D15046D4
:1042100001F0EEFC28683C00006E1BD0002818BF9F
:1042200001F0DCFC07F084FF2046FEF701FD019061
:1042300029680C660068FFF7E7F801A8FEF77EFD25
:1042400004F090FD04F0F2FC404601F0E7FC06B0FB
:10425000BDE8F08701F0C2FCF6E700003C9E0020BC
:104260002DE9F04F82461C48894683B000680C9EB9
:104270001F46417C194890464FF0000B50F82140F2
:10428000E0680068042803D02468002CF8D100E01E
:104290001CB90846FFF726F904460121E068C26A06
:1042A00020469047050012D02469A0688047B0F1ED
:1042B000FF3F04BF0A4C46F001063B460096CDE99D
:1042C000015442464946504600F058FA834603B02E
:1042D0005846BDE8F08F00003C9E0020549E002010
:1042E000707D0108002808BF704738B504460D48A6
:1042F0000068006EA04208BF01F070FC2046FEF787
:1043000097FC00904069002818BF01F07BFF0098DF
:104310000068FFF777F86846FEF710FD2046FEF7C5
:104320006FFB38BD3C9E00202DE9FF4F05464948F4
:1043300083B09A460068DDF840B08946447C464820
:1043400000570128204606DD04F028FA07462046DB
:1043500004F048FA05E004F0CFF90746204604F0DF
:10436000F4F904462DB302A901A8FFF73BFEB5F905
:104370000080B8F1000FB8BF4FF00008B5F9026037
:10438000002EB8BF0026B5F90400019939444A1E31
:104390009042D8BF0246B5F9061002982044401E4C
:1043A0008142D8BF0846A2EB08014A1C801B441C6E
:1043B00003E04FF0000846463A46BAF1000F08BF46
:1043C000C4F1000A002ACFBF002C002007B0BDE8CE
:1043D000F08F534631464046CDF800B0FFF740FF1E
:1043E0005FEA000A2FD000F05BF80746504600F065
:1043F0003FF9DFF868B00025611BB942BCBF5046E9
:1044000000F01EF93DB172194146504600F054F9D2
:104410005046FFF78FFE0598C847DBF800100029CB
:104420001CBF002088475046FFF7A8FE3D44A54228
:10443000E2DB5046FFF756FF002000F019F907B005
:104440000020BDE8F08F0598C84707B00120BDE8FF
:10445000F08F00003C9E0020749E0020F09F002002
:1044600038B5002460B1FEF7E3FB009000680069F6
:104470008068804704F007FE04466846FEF75EFC4D
:10448000204638BD002808BF704738B5FEF7D0FB7E
:1044900000F1180400906846FEF750FC204638BD35
:1044A00038B5002418B907480068006E38B1FEF727
:1044B000BFFB0090B0F90A406846FEF73FFC20467B
:1044C00038BD00003C9E00202DE9F04F85B08046AD
:1044D0004FF0000A4046FEF7ABFB0390D0E9009591
:1044E000D0F824B003A8FEF729FC28B20FFA89F708
:1044F000C01B441C4FEA2946C6EB2540451C002C36
:10450000CCBF002D0AF1010A7EDDBBF1000F16D0F1
:104510005846FEF78DFB0490B0F90440B0F9065000
:1045200004A8FEF70BFC0FFA89F0A04208BFAE42C8
:104530005AD032463946584600F0BEF854E008F0EA
:10454000EBF8804511D104F015F9814604F036F9F5
:104550004C45D8BF854208DD4C4562DC854262DCB3
:104560002A462146404609F017F9314901202F4AD1
:10457000CDE900010292314638462B46224600F032
:10458000FDF806464046FEF753FB03904662BEB375
:10459000816A41F48031816203A8FEF7CFFB304687
:1045A00000F066F80746012001F072FE3046FFF782
:1045B00069FF04FB05F18A001E49097802F068FFD3
:1045C0001D4D1E4C4046C5F80080266808F0F3F9E2
:1045D0002060404609F0FCFE00202660286001F0C3
:1045E00057FE384600F044F84046FEF7BFFB406AED
:1045F0000AF1010A40B105B0BDE8F04F00F08EB8F5
:1046000003A8FEF79BFB00E004E0404609F0E0FE53
:104610000AF1010ABAF1050FFFF65CAF05B0BDE87B
:10462000F08F4C469AE705469AE70000707D010836
:10463000C8850108F49F00205C9F0020709E002028
:1046400038B50C4628B909480068006E002808BF34
:1046500038BDFEF7EDFA0090B0F90A10A142B8BFDC
:104660000C4644816846FEF769FB38BD3C9E00203D
:10467000F8B5104E04003068056E17D0002D18BF35
:1046800001F0ACFA07F054FD2046FEF7D1FA009095
:1046900031680C660068FEF7B7FE6846FEF74EFB11
:1046A00004F060FB04F0C2FA2846F8BD01F096FA67
:1046B000FAE700003C9E002030B583B015460C465A
:1046C00030B915480068006E002804BF03B030BD43
:1046D000FEF7AEFA2DB20090C58024B2848004F0BB
:1046E000A5FA0098406988B1FEF7A2FA009A0190F5
:1046F000B2F908108180B2F90A20C28000291EBFD9
:10470000002A0480458001A8FEF718FB6846FEF7E2
:1047100015FB03B030BD00003C9E002070B584B096
:10472000040004BF04B070BDFEF782FA0290B0F935
:1047300004600189B0F90650721E1144ADF80410EE
:10474000ADF800604089691E0844ADF80600ADF878
:10475000025002A8FEF7F2FA684609F0D3FB0028DF
:1047600004BF04B070BD2A463146204600F062F90D
:1047700009F000FA0028F6D104B070BD2DE9FF4F12
:10478000DFF8FCB083B01C46DBF80000DDE9108CDC
:1047900092460027437C3A4660461299FEF7CEFDCA
:1047A000050068D028698068804704F06CFC814669
:1047B0000AFB09F0C01DC608FEF77AFA18F0010FCF
:1047C00005D1C11700EB9170801000EB4000002C68
:1047D00009DC002E1ABF1838B0FBF6F00020644246
:1047E000A042D8BF044618F0010F08D10020009065
:1047F000DDE903012346524601F07EFC0746002C0A
:1048000006DC2846FEF7FEFD07B00020BDE8F08F6D
:1048100004FB06F0183018F0010F02D0FEF7D0F8B4
:1048200001E0FEF7D2F85FEA00081CD0FEF700FABC
:1048300001900560039981800499C180A0F808A0C7
:1048400044814761C0E9036901A8FEF777FA12982D
:10485000C5F808802861DBF80000407CA86107B03B
:104860004046BDE8F08F2846FEF7CCFD002F1CBF68
:104870003846FEF7C5F8002007B0BDE8F08F00000D
:104880003C9E00202DE9F74F96B014460F4616982F
:10489000FEF7CEF90D90B0F908100791B0F90A5063
:1048A00000680069D0F804800DA8FEF747FADFF829
:1048B00078915E4ED9F80000407C56F82000C1681F
:1048C0008A6A082190470A90182824BF20200A905D
:1048D000D9F80000407C56F8200000690990D0E922
:1048E00000615348814214BF012000201090002035
:1048F00001F0C1FC00281CBF19B0BDE8F08F07987B
:104900003918D9F80000B0F90C20891A491E00297D
:10491000C6BF079A511A07990691B0F90810B94213
:1049200006DDC91B069A0F440891511A069102E050
:104930000021089106990029DCBF19B0BDE8F08F6D
:104940006119B0F90E20891A491E0029D2BF0C95B1
:10495000691A0C91B0F90A00A042DCBF00250C983E
:1049600004DD051B0C982C44401B0C900028DCBF78
:1049700019B0BDE8F08F00BF0699DDF820A01698A9
:1049800005910DF1480BDDF81C90FFF77BFD09FB4D
:1049900005F100EB8100CDE9008B00EB8A02214696
:1049A0003846059B01F0AAFF5FEA000B04BF19B06F
:1049B000BDE8F08F1098E8B1DDE909325846069954
:1049C00001F040FDB0B90998DDF81CA0D946D0F837
:1049D00010C0BCF1000F05D05946042352460846CA
:1049E000E04707E0D9F80000B04749F8040BBAF1F6
:1049F000010AF7D100200A99CDE90210CDE904B0EF
:104A000001200190009021460346641C3846069A16
:104A100003F0E2FB0C9805F10105401E0C90ABD1B0
:104A200019B0BDE8F08F00003C9E0020549E00208D
:104A30007F880008F8B515460E460746FEF7F8F8D9
:104A4000009000681621C068436A00209847044619
:104A50006846FEF773F9002C08BFF8BD2A463146B8
:104A60003846A047F8BD00002DE9F04FA1B0174629
:104A70000E468146FEF7DCF81990446919A8FEF746
:104A80005DF94846FFF7ECFCF54D082802DD002CE7
:104A900000F02282F349CDE91576D1E90001CDE994
:104AA0001C014846FEF7C4F817904469C16812918A
:104AB000B0F9081007691491B0F90A100B91006859
:104AC0000069406811902868407CFFF73FFA1B900E
:104AD0002868407CFFF7AEFA064617A8FEF72EF9C5
:104AE000082F9CBF01200A9004D9102F94BF0220E8
:104AF00004200A90012F0CBF0DF170084FF0000840
:104B00001198B04200F02E812868407CFFF78AFAA5
:104B10001E9014988000FDF753FF1890002804BFE2
:104B200021B0BDE8F08F4846FFF7ACFC0890002CA0
:104B300000F006812046FEF77BF81A9000200D90C9
:104B40000B98002840F3F880002009901A980D9ADD
:104B500081684B6909A998471499064688424DD146
:104B60001898FEF765F8089D04461390082F2CD975
:104B70000296DDF86CB0DDF844A0DDF8789006947C
:104B800035F8020BD047C84744F8040B761EF7D11E
:104B9000BBF1200F04D25A460299069801F08CFB13
:104BA00002AB1B980021139A83E8070101200190B2
:104BB000009015990D9801230144149A169803F05A
:104BC0000BFB13A8FEF7BAF8AAE0DDF86CB0DDF82D
:104BD00044A0DDF878900396CDF8104015F8010B4D
:104BE000D047C84744F8040B761EF7D1BBF1200F1D
:104BF0003CBF5A46DDE90310D2D2CFE7012F28D0BF
:104C0000002E4FD00D99159808441F901898FEF764
:104C10000FF804461390DDE908010A9A082F42D9DB
:104C200001FB02091B98DDF844B0DDF878A0019083
:104C30003546059439F8020BD847D04744F8040BA1
:104C40006D1EF7D10198202849D2024631460598B9
:104C500043E0002E64D00D99159845180124099859
:104C60000094C21700EB5273089A00F0070102EBA0
:104C7000E303129ACDE90581CDE90323CDE901478C
:104C8000169A294610440123324604F0C7F80998C1
:104C90000D9A304409901A9881684B6909A9984780
:104CA0000600DCD13CE001FB02051B98DDF844B0B6
:104CB000DDF878A00390B146CDF8104015F8010B4F
:104CC000D847D04744F8040BB9F10109F6D103984D
:104CD000202804D202463146049801F0EDFA002063
:104CE0001B99CDE9021001200090139ACDE9042808
:104CF0000190099A16980123104432461F9903F037
:104D00006BFA13A8FEF71AF809980D9A3044099027
:104D10001A9881684B6909A9984706007FF476AF15
:104D200008991298084408900D98401C01460D906F
:104D30000B988142FFF608AF1AA8FDF7FFFF0EE0BF
:104D40001299CDF81480CDE9031001200090CDE92F
:104D50000107DDE915100B9B149A03F03DFA189832
:104D600000F080BA4846FFF78DFB0646002C76D04F
:104D70002046FDF75DFF1A900B9800240028C4BF61
:104D80004FF0000B4FF0010963DD00BF1A98CDF81A
:104D900024B0224681684B6909A9984705461498B2
:104DA000854229D11A98A246621C81684B6909A9DB
:104DB0009847A84208D11A98A21C641C81684B69C4
:104DC00009A99847A842F6D0CDF800901298CDF8DE
:104DD0001480CDE90306CDE901971598A4EB0A05E7
:104DE00000EB0A016B1C149A169803F0F5F912985F
:104DF000691C01FB006628E0012F35D0002D1CBF87
:104E0000159800EB040A1ED0DDE9090100FB0161E1
:104E1000CDF80090129ACDF81480CDE90321CDE9A8
:104E20000197169A5146104401232A4603F0D4F9FB
:104E300009982246284409901A9881684B6909A963
:104E400098470500E0D1129806440B98641C8442F0
:104E50009CDB1AA8FDF772FF21B0BDE8F08F2DE0B2
:104E60003C9E0020987C0108002D1CBF159800EB8B
:104E7000040AE8D00998CDF80090C21700EB5272EE
:104E800006EBE20300F00701129ACDE90581CDE9B6
:104E90000323CDE90197169A5146104401232A466F
:104EA00003F0BCFF09982246284409901A988168AB
:104EB0004B6909A998470500DCD1C4E71298CDF8E1
:104EC0001480CDE9030601200090CDE90107DDE95A
:104ED00015100B9B149A3BE004464846CDF8109001
:104EE0000C96FDF7A5FE1290B0F908100691B0F9E6
:104EF0000A80C168039100F1180102910068D0F89E
:104F000010A012A8FDF71AFF2868D849DAF804B0F3
:104F1000407C51F820100D692E68FFF717F808281B
:104F200098BF4FF0010905D9102894BF4FF002092E
:104F30004FF00409AA450ED100210298CDE90401E1
:104F400001200090CDE9010443463946069A0C98A9
:104F500003F042F980E7202C3ED0102C7FF47CAF88
:104F6000069819FB00F0FDF72BFD149000283FF484
:104F700073AFFDF75DFE13900498FDF759FE129094
:104F8000296900F11804002919BFDAF81410002962
:104F90004FEAC900109000F01B81B0F908008000B2
:104FA000FDF70EFD0E90002808BF089000F052811A
:104FB000FDF73EFE0890002818BF4FEAC90600F032
:104FC000498100BFB9F1010F75D0B9F1020F73D05B
:104FD000B9F1040F71D0E0E0069819FB00F0FDF77D
:104FE000EFFC149000283FF437AFFDF721FE13903B
:104FF0000498FDF71DFE00F118041290286900289E
:1050000008BF4FEAC90B42D000264FF0010A4FEA11
:10501000C90B00BFB9F1010F06D0B9F1020F0ED0D4
:10502000B9F1040F16D01FE0D5F810C01399012371
:105030002046069AE047069804EB800414E0D5F871
:1050400010C0139902232046069AE047069804EB05
:10505000800409E0D5F810C0139904232046069A6D
:10506000E047069804EB800413983946CDE90360C5
:10507000CDF800A00596CDE901AB7F1C0123069A6F
:105080000C9803F0A9F8B8F10108C3D140E0069DDF
:10509000B9F1010F08BFDDF84CA00FD0B9F1020F34
:1050A00008BFDDF84CA011D0B9F1040F08BFDDF83E
:1050B0004CA013D019E035E048E05BE054F8040B55
:1050C000B0470AF8010B6D1EF8D10EE054F8040B3E
:1050D000B0472AF8020B6D1EF8D106E054F8040B15
:1050E000B0474AF8040B6D1EF8D113990020CDE9A2
:1050F0000301059001200090CDE9010B39460346DC
:105100007F1C069A0C9803F067F8B8F10108BED12D
:1051100012A8FDF713FE13A8FDF710FE1498FDF773
:105120006FFC99E6DAF814C0DDF84CB00223204693
:10513000069A0899E047D5F810C001235946069A07
:105140000898E047069804EB400426E0DAF814C01B
:10515000DDF84CB002232046069A0899E047D5F8BE
:1051600010C002235946069A0898E047069804EBB7
:10517000400412E0DAF814C0DDF84CB002232046F7
:10518000069A0899E047D5F810C004235946069AB4
:105190000898E047069804EB400413990020CDE9F5
:1051A0000301059001200090CDE901063946034630
:1051B0007F1C069A0C9803F00FF8B8F101087FF4F1
:1051C00001AF08A8FDF7BAFD0E98FDF719FC41E004
:1051D000069DB9F1010F08BFDDF84CA00CD0B9F164
:1051E000020F08BFDDF84CA00FD0B9F1040F08BFC3
:1051F000DDF84CA012D019E034F8020BD847B047C4
:105200000AF8010B6D1EF7D110E034F8020BD847F5
:10521000B0472AF8020B6D1EF7D107E034F8020BF5
:10522000D847B0474AF8040B6D1EF7D100201099FB
:10523000CDE90210139ACDE90420012001900090DD
:10524000394603467F1C069A0C9802F0C5FFB8F158
:105250000108BDD112A8FDF771FD13A8FDF76EFD81
:10526000DDF85000FDF7CCFBF6E50000549E002071
:10527000002808BF704700290CBF1146002A20D023
:10528000B1F900C0B2F900309C45B8BF6346038055
:10529000B1F902C0B2F902309C45B8BF6346438001
:1052A000B1F904C0B2F904309C45C8BF634683809D
:1052B000B1F90610B2F906209142D8BF1146C1805B
:1052C00070470A684968026041607047002808BF5B
:1052D000704703880B440380838819448180418888
:1052E00011444180C1881144C1807047134A10B4F1
:1052F000D2E90013994212D1114A914219BF51E9E2
:10530000032351F8041CD1E90F23496C0260C0E962
:105310000131007A002818BF012010BC7047D1E984
:105320000034D1F808C0C0F808C0C0E90034054B0B
:1053300099420CBF02490C311160EAE7809E0020BF
:10534000E8B0002024B100200348D0E900108142D9
:105350000CBF012000207047809E002070B5204ABD
:10536000204B1E491160D3E900C18C451AD01E4C58
:10537000A1420CBF04F13C02A1F10C02057A167A9D
:10538000B5420FD194450DD0A2420CBF04F13C02AE
:105390000C3A127A954205D1A14214BF0C3904F19E
:1053A0003C015960D0E9002485688D60C1E9002482
:1053B0000E4A91420CBF0C490C3159608C4505D105
:1053C000944514BF0CF10C01074919609968002934
:1053D00018BF8847BDE8704000F070BC35CA0008AF
:1053E000649E0020809E0020E8B0002024B10020B0
:1053F0000A4B0020D3E900218A4208BF7047DFF83A
:1054000020C0D2E9000162450CBF064A083210B53F
:105410001A6007F0A1FE012010BD0000B89F002017
:10542000C0B1002070B1002070B51D4C82B024685E
:10543000DDE9066CB4F90850854226DCB4F90C505D
:10544000954224DB8242BCBF02B070BDB4F90A5061
:105450008D421EDCB4F90E509D421DDB8B42BCBF59
:1054600002B070BDDCF80C402468002C18BF042C7E
:1054700005D0DCF80040002C18BFA446F2D1CDE9DD
:10548000006C03F073FA02B070BD2846D6E72A46D6
:10549000D8E7B4F90A10DDE7B4F90E30DEE7000012
:1054A0003C9E0020B0F90220B1F906309A4213DC8C
:1054B000B1F90220B0F906309A420DDCB0F90020B3
:1054C000B1F904309A4207DCB1F90010B0F90400D8
:1054D0008842A4BF0120704700207047014602485F
:1054E00070220068FBF760B83C9E0020002808BFCF
:1054F000704738B504460EF061FF2046FDF798FB73
:1055000000900068FDF7D4FF6846FDF717FC2046C1
:10551000FDF78EFB00900068FDF796FA0098C068D2
:10552000FDF76EFA0098C069FDF76AFA6846FDF764
:1055300005FC2046FDF764FA38BD0000002808BFCE
:1055400070472DE9F04FB1B0CDE91F21FDF770FB99
:10555000039001681091B0F9042020998A420AD181
:10556000B0F906101F98814205D103A8FDF7E6FBAC
:1055700031B0BDE8F08F0020FFF77AF8299010983D
:1055800080692190FE48016821984A7C24929042CB
:1055900018BF48740398B0F90480B0F9061012914E
:1055A000B0F90810A1EB0801491C0A91B0F90A20D2
:1055B0001299511A491C279100210E91017C11F07A
:1055C000020F00F04B82416920300F9020981A9111
:1055D000A0EB080612991F98401A1790002E08DDBC
:1055E000002023900A9F1496781E4FF0010A19900C
:1055F0000AE00A984FF0FF3A401E239000201490D2
:1056000023985746304419901798002809DD012047
:105610001890279800241390401E1C9017981D90F6
:105620000CE04FF0FF3018902798441E4FF0FF30E9
:10563000139000201D90179820441C90109DD14A73
:1056400004A9A8694FF000091056012810DDADF833
:105650001290ADF81090A86903F0A0F8401EADF8C4
:105660001400A86903F0BEF8401EADF8160003E070
:10567000E868026B284690475146039809F032FDCE
:105680002690002800F0EA815146039809F02AFD8F
:105690002290002800F0DE810398C068002800F006
:1056A000F480FDF7C5FA029425901398844200F027
:1056B000E8801D9902988842A5BF1C99814200206C
:1056C00001202A9012990298239C01441798BC4209
:1056D0000844079000F0CC8002990A9848432E9025
:1056E00017990298401A2B900299129808442C900E
:1056F0004FF000092146029A1A98FEF791FB5FEAE3
:10570000000B77D00F9800EB84012E9801EB8000FE
:10571000169008EB040085191498A042DCBF199874
:10572000844204DC2A98002818BF012000D1002000
:105730002D90BDF91000A84241DCBDF91210079868
:105740008142DCBFBDF91400854238DCBDF916107A
:105750000798884233DC0B9010980D9003981190B5
:10576000B0F90400A84237DC1199B1F9082095423C
:1057700032DC11990B9AB1F9061091422CDC119A86
:10578000B2F90A300B9A9A4226DCA5EB00090B9875
:10579000401A009011984946009A4069FEF740FB74
:1057A000D0B11198009AB0F90810B0F90400081AA5
:1057B000411C119801FB0291203050F821902D9846
:1057C000C8B1A11B5CBF2B9800282ED402461A98A2
:1057D000FEF726FB48BB0EE00D980068002808BFC6
:1057E0004FF00009EBD0C1680B9A4B6929469847E6
:1057F0008146E4E738E0BDF9102004EB08002C995D
:105800008242DCBFBDF912208A420EDCBDF91420B1
:105810008242A4BFBDF916208A4206DB229A00927A
:10582000169A109B12680EF06DFABDF91000A8428E
:1058300017DCBDF9121007988142DCBFBDF91400D6
:1058400085420EDCBDF916100798884209DC2598C0
:10585000109B079950F82B202698009028460EF0B0
:1058600051FA1698C0F800905444BC427FF440AFFF
:1058700018990298084401460290139881427FF4D7
:1058800018AF25A8FDF75AFAE0E013980294844275
:105890007CD002991D98814205DB08461C998842FC
:1058A000D8BF012000DD00202A9012990298239C85
:1058B00008441799BC420844079068D00A99029896
:1058C00048432C9002991798081A2B901298084474
:1058D000CDF8B8004FF000092146029A1A98FEF759
:1058E0009FFA4FEA106B2890BBF1FF0F7DD00F9805
:1058F00000EB84012C9801EB8000169008EB04006B
:10590000851914988442A4BF1998A04204DB2A98F0
:10591000002818BF012000D100202D90BDF91000F3
:10592000A8421EDCBDF9121007988142DCBFBDF908
:105930001400854215DCBDF916100798884210DC6A
:1059400001462846039B109A0CF03FFA0E49219A13
:10595000814620F07F4051F8221009694968884744
:105960000E902D9858B1A11B5CBF2B98002829D40C
:1059700002461A98FEF754FA000EFF2822D107E0DB
:105980003C9E0020749E0020549E00205EE055E066
:10599000BDF9102004EB08002E998242DCBFBDF94E
:1059A00012208A420EDCBDF914208242A4BFBDF948
:1059B00016208A4206DB229A0092169A109B1268E1
:1059C0000EF0A0F9BDF91000A84230DCBDF91210AC
:1059D00007988142DCBFBDF91400854227DCBDF980
:1059E00016100798884222DC00E023E02B49219A18
:1059F0002898BBF1000F51F8221020F07F40096970
:105A000049680BD08847CBF1FF020E9901F000FCEA
:105A10002249219A51F82210096909688847269974
:105A2000009102462846109B07990EF06BF91698D4
:105A3000C0F800905444BC427FF44CAF18990298CF
:105A400008441399029088427FF423AF2299039867
:105A50000EF026F8269903980EF022F80398209964
:105A600081801F99C1800A9A20991144491E0181A1
:105A7000279A1F991144491E4181249921988842EF
:105A800003D008460649096848742998FEF7F0FDD6
:105A900003A8FDF753F931B0BDE8F08F549E002004
:105AA0003C9E0020002808BF704710B582B0044615
:105AB000FDF7BEF80090007C10F0020F17D12046D1
:105AC000FDF7B6F801900068FDF79EFC01A8FDF710
:105AD00035F96846FDF732F920460EF015FB2046F1
