:020000040800F2
:10000000C8AD0020790200082B7C0008A36A000814
:10001000277C0008E5220008C389000800000000D2
:10002000000000000000000000000000F182000855
:100030001123000800000000B97C00084984000872
:10004000930200089302000893020008930200083C
:1000500093020008930200081323000823230008DA
:1000600093020008930200082B2300089302000863
:10007000930200089302000893020008930200080C
:1000800093020008930200089302000893020008FC
:10009000930200089302000893020008332300082B
:1000A00093020008930200089302000893020008DC
:1000B000A986000893020008930200089302000832
:1000C00093020008930200089302000893020008BC
:1000D00093020008018800089302000893020008B8
:1000E0001B230008930200089302000893020008F3
:1000F000930200089302000893020008930200088C
:10010000930200089302000893020008930200087B
:10011000930200089302000893020008930200086B
:10012000930200089302000893020008930200085B
:10013000930200089302000893020008930200084B
:10014000930200089302000893020008930200083B
:10015000930200089302000893020008930200082B
:10016000930200089302000893020008930200081B
:10017000930200089302000893020008930200080B
:10018000930200089302000800F002F800F065F8FE
:100190000AA090E8000C82448344AAF10107DA45E2
:1001A00001D100F05AF8AFF2090EBAE80F0013F0CF
:1001B000010F18BFFB1A43F0010318476C1401002C
:1001C0008C14010010F8013B0A4413F0030408BF2B
:1001D00010F8014B1D1108BF10F8015B641E05D01B
:1001E00010F8016B641E01F8016BF9D1002D15D0D8
:1001F00010F8014B03F00C030C2BA1EB04040ABF15
:1002000010F8013BA4EB8314A4EB032405F10103D4
:1002100014F8016B5B1E01F8016BF9D5914238BFF0
:1002200010F8013BD1D3704700230024002500269D
:10023000103A28BF78C1FBD8520728BF30C148BF49
:100240000B607047642900F07980002070471FB56B
:100250000EF0FEFD1FBD10B510BD00F0C1FA114635
:10026000FFF7F5FF0EF0C8FD00F0DFFA03B4FFF76B
:10027000F2FF03BC0EF05CFC0948804709480047C8
:10028000FEE7FEE7FEE7FEE7FEE7FEE7FEE7FEE746
:10029000FEE7FEE704480549054A064B70470000A3
:1002A0004D84000889010008C8A70020C8AD0020BF
:1002B000C8A90020C8A90020704700000FB4044955
:1002C00010B503AA029800F0FDF910BC5DF814FB0C
:1002D000040000202DE9F0410E4604460020206273
:1002E0002046E168884730B3252805D0D4E90121AC
:1002F0009047206A401CF2E7E168204600278847C3
:10030000050018D0A5F14100192802D820354FF476
:1003100000673246294620462760FFF793FF40B129
:10032000012804D0F61D26F007060836D8E7361D4A
:10033000D6E72846DAE7206ABDE8F0812DE9F041EA
:100340000646002410687529314616A510D0AFF373
:100350000080002802DA404213A507E031688A07CE
:1003600001D512A502E0490704D511A5012401E039
:10037000AFF3008000210A2206F1240709E0B0FB58
:10038000F2FCB0FBF2F302FB1C003030785418464C
:10039000491C0028F3D123462A463046BDE8F041E7
:1003A00000F037B9000000002D0000002B00000015
:1003B0002000000040EA0103024630B59B0710D13F
:1003C0004FF0013400E008C208C91D1B9D4315EA27
:1003D000C41FF8D013F0FF0102F8011B0DD01B0A57
:1003E000F8E711F8013B002B02F8013B05D011F8AA
:1003F000013B002B02F8013BF3D130BD10B5431C8B
:1004000002E010F8011B71B18107FAD14FF00132FF
:1004100002C88C1A8C4314EAC211F9D0C01A0A0619
:1004200003D0C01E10BDC01A10BD0A0401D0801E2A
:1004300010BD0902FCD0401E10BD032A40F23080DE
:1004400010F0030C00F0158011F8013BBCF1020F15
:10045000624498BF11F801CB00F8013B38BF11F896
:10046000013BA2F1040298BF00F801CB38BF00F8AD
:10047000013B11F0030300F06780083AC0F00880E8
:1004800051F8043B083A51F804CBA0E80810F5E70E
:10049000121D5CBF51F8043B40F8043BAFF30080F1
:1004A000D20724BF11F8013B11F801CB48BF11F866
:1004B000012B24BF00F8013B00F801CB48BF00F836
:1004C000012B7047431A28BF9A427FF6B6AF032A22
:1004D0001044114440F2268010F0030F1EBF11F8A3
:1004E000013D521E00F8013D10F0030F7FF4F6AFFE
:1004F00011F0030300F00B81083AC0F00B8051F8B3
:10050000043D083A51F804CD40F8043D40F804CDCC
:10051000FFF7F3BF121D5CBF51F8043D40F8043DE6
:10052000AFF30080D20724BF11F8013D11F801CDCF
:1005300048BF11F8012C24BF00F8013D00F801CD9F
:1005400048BF00F8012C704710B5203AC0F00B806E
:10055000B1E81850203AA0E81850B1E81850A0E8C7
:100560001850BFF4F5AF5FEA027C24BFB1E8185021
:10057000A0E8185044BF18C918C0BDE810405FEA91
:10058000827C24BF51F8043B40F8043B08BF70470D
:10059000D20728BF31F8023B48BF11F8012B28BF12
:1005A00020F8023B48BF00F8012B704702F0FF0320
:1005B00043EA032242EA024200F0D5B84FF00002BB
:1005C00000B5134694469646203922BFA0E80C5049
:1005D000A0E80C50B1F12001BFF4F7AF090728BF24
:1005E000A0E80C5048BF0CC05DF804EB890028BFA0
:1005F00040F8042B08BF704748BF20F8022B11F0C9
:10060000804F18BF00F8012B704770477047704744
:1006100070472DE9F0470D4699469246044600F191
:1006200024080168880604D5E06921F010012160E2
:1006300000E00120A84201DD471B00E00027A1697E
:100640007A1902EB0900081AA0612078C00602D4CA
:100650002046AFF30080002608E0D4E901211AF813
:1006600006009047206A401C761C20624E45F4DB51
:100670002078C0060AD52046AFF3008006E0D4E912
:10068000012130209047206A401C2062381EA7F1CB
:100690000107F4DC07E0D4E9012118F805009047D0
:1006A000206A401C2062281EA5F10105F3DC2046CB
:1006B000AFF300802078000602D50220BDE8F08765
:1006C0000120FBE7074B70B50D467B4400F071F845
:1006D0000446284600F080F810B14FF0FF3070BD9E
:1006E000204670BD0FE60000431A28BF9A427FF6ED
:1006F0002BAF104410F0030F11441EBF11F8013D41
:10070000521E00F8013D10F0030F7FF4F6AF103ACF
:10071000C0F00A8010B531E91850103A20E918509D
:10072000BFF4F9AFBDE81040530724BF31E908100A
:1007300020E9081044BF51F8043D40F8043D12F090
:10074000030F08BF7047D20728BF31F8023D48BFEA
:1007500011F8012C28BF20F8023D48BF00F8012CF9
:1007600070474FF000020429C0F0128010F0030C13
:100770003FF426AFCCF1040CBCF1020F18BF00F817
:10078000012BA8BF20F8022BA1EB0C01FFF718BF2B
:100790005FEAC17C24BF00F8012B00F8012B48BFA1
:1007A00000F8012B7047000001694A1C02610878BB
:1007B000704700B58FB0CDE90131002105910549A1
:1007C0007944CDE9031011466846FFF783FD0FB069
:1007D00000BD0000E5FFFFFF007B00F080007047D8
:1007E000754600F02BF8AE4605006946534620F0EA
:1007F0000700854618B020B5FFF74CFDBDE8204046
:100800004FF000064FF000074FF000084FF0000BCC
:1008100021F00701AC46ACE8C009ACE8C009ACE87F
:10082000C009ACE8C0098D46704710B50446AFF367
:1008300000802046BDE81040FFF718BD0048704713
:1008400064A700201CB50121880307F0CDFC062118
:10085000052007F04FFD4020009000208DF8040097
:1008600008208DF8050001208DF80600684601F08B
:1008700071FD1CBD1CB50121202007F085FC002066
:100880008DF8040003208DF8050002208DF8070084
:10089000402000906946024801F054FE1CBD000053
:1008A0000014024008B517208DF800000C208DF8C8
:1008B000010000208DF8020001208DF80300684639
:1008C00007F0B4F908BD1CB50121880307F08CFCC2
:1008D0000721052007F00EFD8020009000208DF8F4
:1008E000040008208DF8050001208DF806006846F8
:1008F00001F030FD1CBD00001CB50121202007F0D7
:1009000043FC00208DF8040003208DF80500022030
:100910008DF80700802000906946024801F012FE21
:100920001CBD00000014024008B517208DF800001F
:100930000C208DF8010000208DF8020001208DF8B8
:100940000300684607F072F908BD1CB50121880351
:1009500007F04AFC0821052007F0CCFC4FF480701A
:10096000009000208DF8040008208DF8050001207B
:100970008DF80600684601F0EDFC1CBD1CB5012198
:10098000202007F001FC00208DF8040003208DF8E2
:10099000050002208DF80700C0010090694602485A
:1009A00001F0D0FD1CBD00000014024008B5172066
:1009B0008DF800000C208DF8010000208DF8020059
:1009C00001208DF80300684607F030F908BD1CB51A
:1009D0000121880307F008FC0921052007F08AFCA3
:1009E0004FF40070009000208DF8040008208DF86E
:1009F000050001208DF80600684601F0ABFC1CBD27
:100A00001CB50121202007F0BFFB00208DF8040059
:100A100003208DF8050002208DF8070000020090E9
:100A20006946024801F08EFD1CBD00000014024022
:100A300008B517208DF800000C208DF8010000206B
:100A40008DF8020001208DF80300684607F0EEF8EB
:100A500008BD1CB50121880307F0C6FB0121002059
:100A600007F048FC0220009000208DF804000820C8
:100A70008DF8050001208DF80600684601F06AFC3B
:100A80001CBD00001CB50121084607F07DFB0020BD
:100A90008DF8040003208DF8050002208DF8070072
:100AA00000906946014801F04DFD1CBD0000024068
:100AB00008B507208DF800000C208DF801000020FB
:100AC0008DF8020001208DF80300684607F0AEF8AB
:100AD00008BD1CB50121880307F086FB0A2105200B
:100AE00007F008FC4FF48060009000208DF80400AF
:100AF00008208DF8050001208DF80600684601F0F9
:100B000029FC1CBD1CB50121202007F03DFB002065
:100B10008DF8040003208DF8050002208DF80700F1
:100B2000400200906946024801F00CFD1CBD000027
:100B30000014024008B528208DF800000C208DF824
:100B4000010000208DF8020001208DF803006846A6
:100B500007F06CF808BD1CB50121880307F044FBC1
:100B60000021084607F0C6FB0120009000208DF808
:100B7000040008208DF8050001208DF80600684665
:100B800001F0E8FB1CBD00001CB50121084607F080
:100B9000FBFA00208DF8040003208DF805000220E8
:100BA0008DF80700012000906946024801F0CAFC58
:100BB0001CBD00000000024008B506208DF80000B2
:100BC0000C208DF8010000208DF8020001208DF826
:100BD0000300684607F02AF808BD1CB50121880308
:100BE00007F002FB0421022007F084FB1020009094
:100BF00000208DF8040008208DF8050001208DF8F4
:100C00000600684601F0A6FB1CBD00001CB50121D2
:100C1000042007F0B9FA00208DF8040003208DF8B5
:100C2000050002208DF80700102000906946024858
:100C300001F088FC1CBD00000008024008B50A2035
:100C40008DF800000C208DF8010000208DF80200C6
:100C500001208DF80300684606F0E8FF08BD00009B
:100C60001CB50121084607F08FFA072209210D481B
:100C700001F0B0FC07220A210A4801F0ABFC4FF456
:100C8000C060009002208DF804008DF8050000205F
:100C90008DF806008DF807006946024801F052FC05
:100CA0001CBD00000000024010B50446204600F0C4
:100CB00017F8FFF7D5FF00F001F810BD08B52520A3
:100CC0008DF800000C208DF8010000208DF8020046
:100CD00001208DF80300684606F0A8FF08BD00005B
:100CE0001FB504460121102007F07EFA0094002071
:100CF000ADF80400ADF80600ADF80800ADF80C0042
:100D00000C20ADF80A006946064807F0E7FD01220D
:100D100040F22551034807F0BBFD0121014807F0CF
:100D200081FD1FBD0010014010B56FF0040007F0F9
:100D300077FB0A4800680A49B0FBF1F009490870DE
:100D40000846007800EB4001C1EBC0104FF6FF7180
:100D500001EAC0000449088010BD0000F09D002099
:100D600000127A00080000200A00002070B5044636
:100D70004FF4077094FBF0F0C6B24FF4077094FB89
:100D8000F0F100FB114085B205E04FF4077000F070
:100D900009F8701EC6B2002EF7D115B1284600F032
:100DA00001F870BD0146114A12884A434FF0E02312
:100DB0005A6100229A611A46126942F001021A61D0
:100DC00000BF4FF0E022106900F001021AB100F4F8
:100DD0008032002AF5D04FF0E022126922F00102A1
:100DE0004FF0E0231A6100229A6170470A00002048
:100DF00038B504464FF480410E4801F00EFCB0B106
:100E000084220421684605F04EFE9DF802009DF8FC
:100E1000031001F00F0140EA012020809DF800003E
:100E20009DF8011040EA01206080002038BD0120BB
:100E3000FCE700000018024001B581B045F6C05043
:100E4000009008E045F6C050009000BF0098411E99
:100E500000910028FAD1BDF80400411E89B2019129
:100E60000028EFD10CBD00001CB50121402007F087
:100E70008BF900208DF8040003208DF80500022076
:100E80008DF80700400300906946024801F05AFBC4
:100E90001CBD00000018024010B500BF802000F00B
:100EA0002BF80028FAD1FFF7DFFF0DF025FF0DF03A
:100EB00083FF0DF03FFF0DF096FF1420FFF7BCFFFE
:100EC0000DF088FE10BD000010B580200949088093
:100ED00000F02EF840200749891E088000F028F80D
:100EE00040200449088000F023F880200149891E31
:100EF000088010BD1A04024070B504460B48006813
:100F000000F0800080B10948006800F0400058B14E
:100F100000F09EF8204600F071F800F0C3F8054696
:100F200000F0AEF8284670BD0120FCE71004024036
:100F300008B50020009004E09DF80000401CC0B2FD
:100F400000909DF800001E28F6DB08BD1CB50121AD
:100F5000022007F019F903208DF8050001208DF813
:100F600004008DF8060000208DF807004020009056
:100F70006946064801F0E6FA802000906946034879
:100F800001F0E0FA00F07CF81CBD00000004024013
:100F900010B5802007490880FFF7CAFF40200549A7
:100FA0000880FFF7C5FF40200249891C0880FFF731
:100FB000BFFF10BD1804024070B50024002516E0E4
:100FC0006006040E40200C490880FFF7B1FF0A4874
:100FD0000838006800F0800008B1601CC4B24020EE
:100FE0000549891C0880FFF7A3FF681CC5B2082DBE
:100FF000E6DB204670BD00001804024070B50446D0
:10100000002520E004F0800018B180200F490880FE
:1010100003E080200D49891C0880FFF789FF4020EC
:101020000A490880FFF784FF40200849891C08808E
:10103000072D02D18020891E08806006040EFFF76C
:1010400077FF681CC5B2082DDCDB70BD18040240B8
:1010500010B580200949088040200880FFF768FF0C
:1010600080200649891C0880FFF762FF4020034961
:10107000891C0880FFF75CFF10BD000018040240C7
:1010800010B58020064908804020891E0880FFF79F
:101090004FFF80200249891E0880FFF749FF10BDDD
:1010A0001A04024010B580200C490880FFF740FF69
:1010B00040200A490880FFF73BFF084808380068CD
:1010C00000F0800008B1012400E000244020034922
:1010D000891C0880FFF72CFF204610BD1804024031
:1010E00000B59DB0042007900020089006200990CC
:1010F00001200A9000200B900C900D90042000908D
:10110000002001900820029001200390002004900C
:101110000590069006200E9000200F901090102051
:1011200011900020129013901490159016904FF487
:10113000805017900020189019901A90CDF86CD01C
:1011400007A81C900EA801F069F90121062001F002
:101150004BF91DB000BD00001CB50121084607F089
:1011600023F80121782007F00FF80C2200215748BE
:1011700001F030FA0C220121544801F02BFA0C2224
:101180000421524801F026FA0C2205214F4801F0B3
:1011900021FA0C2208214D4801F01CFA0C220921E9
:1011A0004A4801F017FA0C220A21484801F012FAC5
:1011B0000C220E21454801F00DFA0C220F21434864
:1011C00001F008FA4CF23370009002208DF8040010
:1011D00003208DF8050000208DF806008DF807002B
:1011E00069463A4801F0AEF90C220721384801F06F
:1011F000F1F90C220821364801F0ECF90C22092102
:10120000334801F0E7F90C220A21314801F0E2F9F4
:101210000C220B212E4801F0DDF90C2211462C483E
:1012200001F0D8F90C220D21294801F0D3F90C2244
:101230000E21274801F0CEF90C220F21244801F09D
:10124000C9F94FF6807000906946214801F07AF99B
:101250000C2201211F4801F0BDF90C2202211D487A
:1012600001F0B8F90C2203211A4801F0B3F90C225D
:101270000F21184801F0AEF90C220E21154801F09B
:10128000A9F94CF20E0000906946124801F05AF993
:101290000C220121104801F09DF90C2200210E487A
:1012A00001F098F90320009069460B4801F04AF9D3
:1012B0000C221146084801F08DF94FF4805000903F
:1012C0006946054801F03EF91CBD0000000C0240D3
:1012D00000100240001402400018024010B5FFF751
:1012E0003BFFFFF7FDFE10BD06E04FF0D8435B5A11
:1012F00020F8023B891C521E002AF6D1704710B517
:1013000006E030F8024B4FF0D8435C52891C521E65
:10131000002AF6D110BD000010B500F06FF84FF4B0
:10132000F070344908804FF44870334908808820B1
:1013300006F00CFF06F00FFD0B2006F00DFF06F087
:10134000FFFC892006F002FF06F005FD022006F0F2
:1013500003FF06F0F5FC0A21102006F003FF8121AF
:10136000042006F0FFFE06F0EBFC6321142006F0DB
:10137000F9FE0021152006F0F5FE0321162006F0E7
:10138000F1FE0321172006F0EDFE0B21182006F0D8
:10139000E9FEDF21192006F0E5FE01211A2006F002
:1013A000E1FE1F211B2006F0DDFE00211C2006F0BF
:1013B000D9FE16211D2006F0D5FE00211E2006F0C4
:1013C000D1FE01211F2006F0CDFE8021012006F074
:1013D000C9FE002006F016FE0021412006F0C2FEE4
:1013E00005480388034802880021084606F058FE95
:1013F00010BD0000E89D0020EA9D0020704700001D
:1014000000B599B00121782006F0BEFE0121084602
:1014100006F0CAFE4CF20370019002208DF808001D
:1014200000208DF80A0003208DF8090001208DF8B6
:101430000B0001A9974801F085F80C22002195487E
:1014400001F0C8F80C220121924801F0C3F80C22E7
:101450000821904801F0BEF80C2209218D4801F0C6
:10146000B9F80C220A218B4801F0B4F80C220E21A5
:10147000884801F0AFF80C220F21864801F0AAF845
:101480004FF68070019001A9834801F05BF80C22AF
:101490000721814801F09EF80C2208217E4801F0C6
:1014A00099F80C2209217C4801F094F80C220A21B9
:1014B000794801F08FF80C220B21774801F08AF867
:1014C0000C221146744801F085F80C220D21724857
:1014D00001F080F80C220E216F4801F07BF80C22FD
:1014E0000F216D4801F076F84FF23F00019001A9FD
:1014F0006A4801F027F80C220021684801F06AF8D8
:101500000C220121654801F065F80C220221634894
:1015100001F060F80C220321604801F05BF80C2216
:1015200004215E4801F056F80C2205215B4801F0C9
:1015300051F80C221146594801F04CF80C220D21AB
:10154000564801F047F80C220E21544801F042F8A9
:101550000C220F21514801F03DF83F20019001A9D4
:101560004F4800F0EFFF0C2200214D4801F032F807
:101570000C2201214A4801F02DF80C220221484892
:1015800001F028F80C220321454801F023F80C2231
:101590000421434801F01EF80C220521404801F0C7
:1015A00019F84FF46050019001A93A4800F0CAFFC1
:1015B0000C220B21374801F00DF80C22114635485A
:1015C00001F008F80C220D21324801F003F8302018
:1015D000019001A92F4800F0B5FF0C2204212D48ED
:1015E00000F0F8FF0C2205212A4800F0F3FF4FF429
:1015F0000070019001A92A4800F0A4FF0C220921E3
:10160000274800F0E7FF0320019001A9224800F0DD
:1016100099FF0C220021204800F0DCFF0C22012160
:101620001D4800F0D7FF4FF48050019001A91C48DD
:1016300000F088FF0C221146194800F0CBFF002073
:1016400003900490082005900020069007900890D1
:10165000099002200A9000200B900C9010200D9011
:1016600000200E9010900F90119012904FF4805027
:101670001390002014901590169003A817901890BE
:101680000AA800F0CBFE0121022000F0ADFE19B047
:1016900000BD0000000C0240001002400014024097
:1016A0000018024010B54021074800F0B6FF48B1CD
:1016B000402000F049FE00F03CF804462146034873
:1016C00007F07BF910BD000000140240001001403B
:1016D00000B585B001200490832003900320029080
:1016E0000620019000200090FFF7C4F8FFF7AAF849
:1016F000FFF7D8F8012241F20C0103A8FFF7FFFD24
:101700000122110301A8FFF7FAFD012241F20401B1
:101710006846FFF7F4FD012241F20C0102A8FFF731
:10172000EEFD012241F2040104A8FFF7E8FD05B037
:1017300000BD08B5012211036846FFF7D5FDBDF8CD
:10174000000008BD10B58021034800F066FF10B10D
:10175000802000F0F9FD10BD0014024000B585B0F6
:101760000120049083200390032002900620019022
:1017700000200090FFF7C0F8FFF7A5F8FFF7D4F8B6
:10178000012241F20C2103A8FFF7B9FD01224FF419
:10179000905101A8FFF7B3FD012241F204216846F0
:1017A000FFF7ADFD012241F20C2102A8FFF7A7FDD2
:1017B000012241F2042104A8FFF7A1FD05B000BDFC
:1017C00010B54FF48071084800F027FF50B14FF476
:1017D000807000F0B9FD00F03DF804462146034852
:1017E00007F0EBF810BD00000014024000100140AB
:1017F00000B585B00120049083200390032002905F
:101800000620019000200090FFF7B8F8FFF79DF840
:10181000FFF7CCF8012241F20C4103A8FFF76FFD5E
:1018200001224FF4A05101A8FFF769FD012241F206
:1018300004416846FFF763FD012241F20C4102A812
:10184000FFF75DFD012241F2044104A8FFF757FDB7
:1018500005B000BD08B501224FF4A0516846FFF75E
:1018600043FDBDF8000008BD10B54FF400710848F5
:1018700000F0D3FE50B14FF4007000F065FD00F0B1
:101880003DF804462146034807F097F810BD0000D4
:10189000001402400010014000B585B00120049002
:1018A00083200390032002900620019000200090E6
:1018B000FFF7A6F8FFF78BF8FFF7BAF8012241F21D
:1018C0000C6103A8FFF71BFD01224FF4B05101A8E2
:1018D000FFF715FD012241F204616846FFF70FFD95
:1018E000012241F20C6102A8FFF709FD012241F239
:1018F000046104A8FFF703FD05B000BD08B501228F
:101900004FF4B0516846FFF7EFFCBDF8000008BD8A
:1019100010B50221074800F080FE48B1022000F017
:1019200013FD00F03DF804462146034807F045F852
:1019300010BD0000000002400010014000B585B05D
:101940000120049083200390032002900620019040
:1019500000200090FFF796F8FFF77BF8FFF7A8F854
:10196000012241F60C0103A8FFF7C9FC01224FF444
:10197000C05101A8FFF7C3FC012241F604016846EB
:10198000FFF7BDFC012241F60C0102A8FFF7B7FCEE
:10199000012241F6040104A8FFF7B1FC05B000BD27
:1019A00008B501224FF4C0516846FFF79DFCBDF811
:1019B000000008BD10B54FF48061084800F02DFE0E
:1019C00050B14FF4806000F0BFFC00F03DF80446D9
:1019D0002146034806F0F1FF10BD0000001402404C
:1019E0000010014000B585B00120049083200390D1
:1019F000032002900620019000200090FFF782F85B
:101A0000FFF767F8FFF796F8012241F60C2103A8CB
:101A1000FFF775FC01224FF4D05101A8FFF76FFCCE
:101A2000012241F604216846FFF769FC012241F6D4
:101A30000C2102A8FFF763FC012241F6042104A84F
:101A4000FFF75DFC05B000BD08B501224FF4D05191
:101A50006846FFF749FCBDF8000008BD01B501224A
:101A60004FF4D0516846FFF74AFC08BD10B501217C
:101A7000074800F0D2FD48B1012000F065FC00F0FD
:101A80003DF804462146034806F097FF10BD0000CC
:101A9000000002400010014000B585B00120049014
:101AA00083200390032002900620019000200090E4
:101AB000FFF76AF8FFF74FF8FFF77EF8012241F6CB
:101AC0000C4103A8FFF71BFC01224FF4E05101A8D1
:101AD000FFF715FC012241F604416846FFF70FFCB1
:101AE000012241F60C4102A8FFF709FC012241F650
:101AF000044104A8FFF703FC05B000BD08B50122AE
:101B00004FF4E0516846FFF7EFFBBDF8000008BD59
:101B100010B51021074800F080FD48B1102000F0FA
:101B200013FC00F03DF804462146034806F045FF4B
:101B300010BD0000000802400010014000B585B053
:101B4000012004908320039003200290062001903E
:101B500000200090FFF75AF8FFF73FF8FFF76EF804
:101B6000012241F60C6103A8FFF7C9FB01224FF4E3
:101B7000F05101A8FFF7C3FB012241F6046168465A
:101B8000FFF7BDFB012241F60C6102A8FFF7B7FB8E
:101B9000012241F6046104A8FFF7B1FB05B000BDC6
:101BA00008B501224FF4F0516846FFF79DFBBDF8E0
:101BB000000008BD10B5FFF78BFDFFF7CFFDFFF765
:101BC00017FEFFF769FEFFF7B9FEFFF70BFFFFF700
:101BD00063FFFFF7B3FF10BD10B5FFF79DFB0020BB
:101BE00005F0D2FD002005F071F810BD10B50446D7
:101BF00000F004F8204600F011F810BD08B51C20D4
:101C00008DF8000000208DF801008DF80200012001
:101C10008DF80300684606F009F808BD3EB5044695
:101C20000121084606F0D0FA601E01905320ADF85D
:101C300000000020ADF80800ADF8020069464FF042
:101C4000804006F09BFD01221146900706F08CFDB6
:101C50000121880706F06BFD3EBD000008B568460F
:101C6000FFF7C6F8C0B90D4800880D4908800D4837
:101C700000880D490880BDF8000008490880BDF8BB
:101C8000020008490880084602880448018807A025
:101C9000FEF714FB002008BD0120FCE7D49D0020C6
:101CA000D89D0020D69D0020DA9D0020583A20259E
:101CB000642C20593A202564200D0A001CB501210E
:101CC000022006F061FA07220A210D4800F082FC8A
:101CD00007220B210A4800F07DFC4FF44060009081
:101CE00002208DF804008DF8050000208DF8060014
:101CF0008DF807006946024800F024FC1CBD000076
:101D00000004024010B50446204600F017F8FFF723
:101D1000D5FF00F001F810BD08B527208DF80000B0
:101D20000D208DF8010000208DF8020001208DF8B3
:101D30000300684605F07AFF08BD00001FB50446A1
:101D40000121880406F040FA00940020ADF8040058
:101D5000ADF80600ADF80800ADF80C000C20ADF8A9
:101D60000A006946094806F0B9FD012240F22551F2
:101D7000064806F08DFD012240F22441034806F09A
:101D800087FD0121014806F04DFD1FBD00480040C0
:101D900010B504462146512006F0E4F910BD2DE9A6
:101DA000F04105460C4616461F46DDF81880E9B29C
:101DB000582006F0D7F92912592006F0D3F9E1B2DC
:101DC0005A2006F0CFF9B8F1000F04D121125B20A0
:101DD00006F0C8F905E0802040EA24215B2006F0E7
:101DE000C1F9F9B25C2006F0BDF939125D2006F0A8
:101DF000B9F9F1B25E2006F0B5F931125F2006F0B4
:101E0000B1F9BDE8F081000010B501200449087067
:101E1000502006F09BF9802006F09EF910BD0000CE
:101E2000DC9D002010B5002406E006F0B7F800F0B5
:101E3000400000B903E0641C03488442F5D300BFAE
:101E400000200249087010BD801A0600DC9D0020A9
:101E500038B5446805460146204606F0CAFD00280C
:101E600008BF38BD464A286811280DD006DC0B286B
:101E70002AD00E2838D00F2817D07CE0282873D01D
:101E8000B0F5107F0AD076E09268002A08BF38BD0E
:101E9000294601B02046BDE830401047526801B0E5
:101EA00029462046BDE8304010472546204600F030
:101EB00079FE0090406E0468684600F0CFFE002C6A
:101EC0001CBF2846A04738BD204600F06BFE00909E
:101ED000683000F081FD009803216C3000F0A2FD15
:101EE000684600F0BBFE46E0E968486809680D29CD
:101EF00002D0202918D037E0002835DD4FF480715A
:101F0000204606F034FE204600F04CFE009090F88B
:101F10002850684600F0A2FE15F0020F1ED00121E5
:101F2000204607F041FF19E0002817DD25464FF451
:101F30008071204606F01BFE284600F033FE00901C
:101F400090F82840684600F089FE14F0020F08BFA0
:101F500038BD0121284607F027FF38BD2046BDE8DF
:101F6000384002210CF07CB8E86820B920464FF4D4
:101F7000807106F028FD2846BDE8384007F03EB8DD
:101F8000B89E002070B5044686B08069B4F908C0D8
:101F9000658A00260091CDE90165CDE903C0B4F959
:101FA0000C00B4F91050C118B4F90A00B4F90EC00D
:101FB00010442B46624600F007F80546616800F0C1
:101FC0006AF906B0284670BD2DE9F04385B00D468C
:101FD000DDE90F61DDE90C4C154F4C31CDE90271A3
:101FE000CDE9004C294606F057FF05001BD000F054
:101FF000D9FD10223146049006F0D0FD0D4C049915
:10200000B4E8CD133431A1E8CD1394E80D10A1E864
:102010000D1054F82C0D086004A800F01FFE206875
:1020200041682846884705B02846BDE8F08300008F
:10203000511E0008C49E0020F0B5044680688C49FB
:1020400089B051F820506068002800F00A81052806
:1020500006D006287DD0122800F0B48000F004B924
:10206000E869002808BF002651D0D5E90012AB6806
:102070008DE80F0004F110010FC903F05BFF00268B
:1020800055F8260003F0ACF8A169E8690A1A21693D
:1020900001446069304401F0C5F9A169E8690A1A90
:1020A00021690144E069801B01F0BCF9E169E8693C
:1020B0000A1A616901442069304401F021FAE1699A
:1020C000E8690A1A61690144A069801B01F018FAE5
:1020D000761C022ED4DBA86803F082F8E069E96977
:1020E000D4F814C0431A206942186144801C521E5F
:1020F00001F060FAE169E869A2690B1A61690144BB
:10210000101A401C921E01F055FAEE6911E055F8C4
:10211000260003F065F8E069831BA069821B6069F3
:1021200081192069304401F0A7F9761C022EEEDBFC
:102130000226D5E90301CDE90001E16960690144A6
:102140004B10A1698A1B811C2069304401F066F89C
:1021500000E011E0D5E90501CDE90001E069616920
:10216000831E01440122A06902EB6101821B2069E8
:10217000304401F053F877E0206800F013FD04903C
:10218000206808F0C5FD50B1A068002818BF0020E5
:102190000AD10498006F002818BF012004E00498B9
:1021A000406F002818BF0220049901EB8000C56E23
:1021B00004A800F053FD00231A462846216800F0C9
:1021C00041FF51E0206800F0EDFC0490866E002E87
:1021D00008BF04A842D0A168B0F95C70002908BF0C
:1021E000012103D003290CBF0221002100EB810152
:1021F000406D0C6C02F0F8FF204602F0F1FF06A8DB
:1022000001F078FABDF81810A88B0144ADF8181049
:10221000BDF81C10081AADF81C00BDF81A00801C8F
:10222000ADF81A00BDF81E00801EADF81E0004981F
:10223000B0F96020B0F95E1006A802F0E7FB04A830
:1022400000F00CFD022003F00FF8304600F0AAFC6D
:102250003A4606A9059000F022FF05A800F0FEFC12
:1022600002E0206808F002F809B00020F0BD00008C
:10227000540C0108002808BF704738B50C460546C5
:1022800000F090FC00904465684600F0E7FC2846AA
:1022900007F022FD38BDF0B583B00F4605004FF0C2
:1022A00001041CD000F07EFC0190866E01A800960F
:1022B00000F0D4FC3946684604F052FA78B1009830
:1022C0000024B04208D0284600F06CFC0190009930
:1022D000816601A800F0C2FC284607F0FDFC03B0AF
:1022E0002046F0BD00BFFEE77CB507F04FF905467C
:1022F000002000902B46044A06210190034800F07C
:102300005DFD044620467CBD35EA000800F8000863
:10231000704710B5FFF7AAFB10BD10B5FFF74AFBD9
:1023200010BD10B5FFF7F4FA10BD10B5FFF7F0FBC4
:1023300010BD10B5FFF7B6F9FFF704FAFFF740FA42
:10234000FFF792FA10BD00000149086070470000D5
:10235000143C0140002123498279002A3AD00A46E0
:10236000126803689A430B461A600A1D12680368D4
:102370009A430B1D1A60027911440A6803681A43D4
:102380000A60184A0832126803689A43154B0833EA
:102390001A601A1D126803689A43124B0C331A60B4
:1023A0004279102A0ED11A1F126803681A430D4B86
:1023B00008331A601A1D126803681A43094B0C335C
:1023C0001A600DE00749427911440A6803681A430C
:1023D0000A6005E0027911440A6803689A430A60BA
:1023E00070470000003C014051B18200A2F1C042A0
:1023F000126842F001038200A2F1C042136009E0BA
:102400008200A2F1C0421268034B1A408300A3F17C
:10241000C0431A6070470000FEFF0F00D0E90112B0
:102420001143C26811430269114342691143826931
:102430001143C2691143026A1143426A1143826A1D
:102440001143C26A1143026B114302689200A2F168
:10245000C0421160816808290BD101688900A1F18F
:10246000C041096841F0400201688900A1F1C04102
:102470000A60416B0968426B526841EA0211426B83
:10248000926841EA0221426B928941EA0241426B21
:10249000128A41EA0251426B127D41EA0261426BAB
:1024A000926911430268521C9200A2F1C04211606D
:1024B000C16AB1F5804F1BD1816B0968826B52688C
:1024C00041EA0211826B926841EA0221826B128A10
:1024D00041EA0251826B127D41EA0261826B92698C
:1024E000114302689200A2F1C042C2F8041107E051
:1024F0006FF0704201688900A1F1C041C1F8042168
:102500007047000010B5002002F068FE6FF07F40B9
:1025100002F066FE012002F095FE002002F09AFE15
:10252000002002F0A1FE002002F05CFE04480068DA
:1025300002F05AFEBDE81040002002F061BE00002B
:102540005C9E0020F0B50A4600210023002400BF55
:102550003DE0012505FA01F3156805EA03049C42F4
:1025600034D105684F000326BE40B5430560157998
:102570004E00B5400668354305601579012D02D03F
:102580001579022D16D185684F000326BE40B5434C
:10259000856055794E00B54086683543856045684D
:1025A00001268E40B5434560456896798E40B6B2A7
:1025B00035434560C5684F000326BE40B543C5603E
:1025C000D5794E00B540C6683543C560491C102911
:1025D000BFD3F0BDF0B5002300244D07ED0E02FA85
:1025E00005F3CE1000F1200555F826504E07F70EE2
:1025F0000F26BE40B543CF1000F1200646F8275005
:10260000CE1000F1200555F8265045EA0304CE10FF
:1026100000F1200545F82640F0BD02460020136970
:102620000B400BB1012000E0002070472DE9F04F76
:102630004B4989B00968B1F922200692D1F81CC033
:10264000B1F92470DCF81C40A28982429CBFE38966
:10265000984205D8A0EB02094FF0FF38266812E037
:10266000D4E90162002A71D0138883429CBF558847
:10267000A8426BD8C01A526880B202EB8000B0F951
:102680000090B0F90280B9F1FF3F5FD09CF81800CC
:10269000A27C10FB02FB94F810A00790B1F92A501D
:1026A000284605F07BF8C0B208902D4809FB0B6264
:1026B0000068A37C4FF00109816BCDE90293CDE95D
:1026C0000421C0695246C17E807ECDE90001DDE96A
:1026D0000603394604F00EFBB8F1FF3F18D045F071
:1026E000020005F05BF81E48A37C08FB0B62006843
:1026F000816BCDE90293CDE90421C0695246C17EC8
:10270000807ECDE90001DDE90603394604F0F2FAE6
:10271000134E3068C069417E007E814213D9022D7C
:1027200011D085F0040005F039F83068C069017EE9
:10273000C27E11FB0271427ED319827E06981AFB7B
:10274000020204F0B1FC089805F028F80448627C05
:102750000068418C1144418409B0BDE8F08F00004D
:10276000609E0020044800290068C069C0691CBF41
:10277000027C0A60407C7047609E00200220088036
:102780007047C06982898A429CBFC289914210D930
:10279000806880B102888A429CBF438899420AD8E7
:1027A000406800EB8100A0EB8200B0F90000002837
:1027B00001DB012070470020704700002DE9F04345
:1027C000394D024687B02868B0F92A60C069C169EE
:1027D0001046002904BF07B0BDE8F0830B88834290
:1027E0009CBF4B88984205D989680029F6D107B06B
:1027F000BDE8F083002904BF07B0BDE8F083486856
:102800000988511A00EBC1043046A77804F0C6FFCE
:102810008046286862680123816BCDE90237CDE9E3
:102820000421C169CB7E8A7ECDE900230B7EB0F9FD
:1028300024102278B0F9220004F05CFA2868C069FC
:10284000417E027E91421FD9C07E11FB00F912FB2E
:1028500000F7022E18D000F052FF064600F032FFBB
:1028600002F0BEFC29682278CB69B1F92200DB7E38
:1028700012FB0302B1F9241001EB0903394404F0FF
:1028800013FC304602F0ACFC404604F087FF286899
:102890006278C369B0F922109B7E12FB0311418458
:1028A00007B0BDE8F0830000609E002010B404462D
:1028B00015480068D0F81CC02046DCF81C2002B384
:1028C000138883429CBF5388984203D99268002A98
:1028D000F6D116E0AAB110885368221A012000EB45
:1028E000C2009CF81AC0185C10FB0CF0002904BF51
:1028F00010BC704713F8322012FB0CF20A6010BCB7
:10290000704710BC00207047609E002001200880A6
:102910007047C06968B102888A429CBF4288914270
:1029200003D980680028F6D103E000281CBF0120ED
:10293000704700207047002808BF704708F00CBDA2
:1029400038B50546FFF7F7FF040009D000F02AF973
:102950002A460021009003F091FF684600F07EF9BE
:10296000204638BD024A106021F0030050607047D5
:10297000A8A50020002808BF704770B50E4C05467A
:10298000606B10F83510002918BF022928BF70BDF0
:10299000042101EBC5068159486808F083FC606892
:1029A000401C6060616B606A8851616B002001F8B7
:1029B0003500656270BD0000E8A40020002808BF53
:1029C0007047044AD16B0160002918BF4860D0638A
:1029D00070470000E8A400202DE9F0410568064694
:1029E0000027D5B10E4C606B10F83510002918BFC8
:1029F000022912D2042101EBC50850F808104868DA
:102A000008F050FC6068401C6060616B606A41F8CF
:102A10000800606B00F8357065623760BDE8F081D2
:102A2000E8A400202DE9F05FB1F1000881464FF0E5
:102A30000005C6BF154F4FF0000ABDE8F09F00BF6C
:102A400009EB85063468CCB1786B10F83410002996
:102A500018BF022912D2042101EBC40B50F80B104D
:102A6000486808F01FFC7868401C7860796B786AC9
:102A700041F80B00786B00F834A07C626D1CC6F83E
:102A800000A04545DCDBBDE8F09F0000E8A4002085
:102A90002DE9F04104460BF0DDF8E01C274E20F054
:102AA0000300051D306CA84288BF0546F46BBCB11D
:102AB00054F8041CA94210D19CB1206800281CBF06
:102AC00061684160606800281CBF21680160F16B8B
:102AD000A14204BF2068F0632DE02468002CE7D1F8
:102AE0000024F168B06B00EB010858F8040CA8EB67
:102AF0000007386840B100200BF0C6FC58F8040C01
:102B0000A8EB00073868B0B97868A84213DB3844EE
:102B1000401B041D38460BF08DFCF068401BF06034
:102B20007069284470617868401B1CBF394608F002
:102B3000B9FB44F8045C2046BDE8F081E8A400201D
:102B400010B500240BF086F80D490F2001EBC002F0
:102B5000526C8AB101EBC000406C806848B141689A
:102B6000A14288BF0C46806800281CBF80680028EE
:102B7000F5D1A4F10C0010BD401EE7D5F9E7000027
:102B8000E8A40020002140B10549042202EBC00066
:102B9000496B08584068A0F10C01084670470000D6
:102BA000E8A400200949CA69521CCA614A6B02EBB9
:102BB000C00213785B1C1370002808BF7047496B74
:102BC000042202EBC000085808307047E8A4002037
:102BD00010B500240BF03EF8174B184A0F2000BF29
:102BE00002EBC001496CD9B102EBC000406C8068B7
:102BF000C0B14168A14288BF0C46806800281CBF54
:102C000080680028F5D1A4F10C00B0F5800F0CD934
:102C100083FB00104111A1EBE070116A484310BD25
:102C2000401EDDD5A4F10C00F2E7116A4843A3FB76
:102C30000010400910BD00001F85EB51E8A40020E2
:102C40000549102898BF102004D94A68B0EB520FEC
:102C500028BF500888607047A8A500200A4902686C
:102C60004B6B52F8082C03EBC2021378022B04D3EF
:102C7000CB69002B1CBF5B1ECB611178491E117004
:102C80000021016008467047E8A40020002808BF22
:102C900070470449042202EBC000496B0858083011
:102CA00070470000E8A4002070B506460D461446A3
:102CB000104600F02BFD0300154804EB84010AD0F8
:102CC00050F8210041688068711A2A1ABDE87040E6
:102CD000184602F093BA00EB8104A268B24214BF16
:102CE00001220022E368AB4214BF012300231A43F0
:102CF00008BF70BD236943B150F821008168406866
:102D00006A1A311A184601F091FFC4E9026570BDD4
:102D100024A70020C2B2CBB2D21A48BF524292B20C
:102D200002FB02F3C0F30722C1F3072CB2EB0C0243
:102D300048BF524292B2000CA0EB114002FB02329B
:102D400000B20028BCBF404200B280B200FB0020AD
:102D5000704700002DE9F041002182B0084600F0E4
:102D600011FD43F6FF763746042004F017FD804638
:102D70001148C068C16C006D8D1B841B0E44074454
:102D8000ADF80050ADF80460ADF80240ADF8067043
:102D9000684607F0F5FD48B13B46324621462846D5
:102DA00004F082F907F024FC0028F5D1404604F035
:102DB000F5FC02B0BDE8F081549E00202DE9F843F7
:102DC0001C00DDE9089816460F46054602D106F0BC
:102DD000DDFB04460096D5F800C043464A4621462E
:102DE0002846E047060008BFBDE8F88306F0C2FBAE
:102DF0008146698A304605F0BAFE304607F086FA09
:102E0000484607F083FA7F1E002FC8BF4FF0000826
:102E10000FDD00BFCDF8008055F81CCF00231A4607
:102E200049462846E047F8B107F070FA7F1E002FA8
:102E3000F0DC1D21484607F008F9B4F1FF3F10D03F
:102E400006F0E4FB40B100BFFFF720FF8469B44205
:102E500018BF5FEA0400F7D1B4421CBF304607F048
:102E600081F93046BDE8F883304606F0EBF80020E3
:102E7000BDE8F883022BA4BF002070472DE9F04184
:102E800006461C4615460F461C20FFF701FE00288B
:102E900008BFBDE8F081002F18BF07610BD10A4AB7
:102EA00052F8241039B10A681AB111461268002A82
:102EB000FBD1096901618461858200210160416063
:102EC000C0E90216BDE8F081789E00202DE9F041AE
:102ED00000241D46074688461646022B27DA1C208A
:102EE000FFF7D6FD18B3B8F1000F18BFC0F8108077
:102EF0000BD1104A52F8251039B10A681AB111469F
:102F00001268002AFBD1096901618561868204602B
:102F10004460C0E90247040009D000F011F8E068FD
:102F2000006820B90448006800EB850084652046ED
:102F3000BDE8F081789E0020609E0020FFF73EBD36
:102F400000281CBF8269022AA4BF0120704710B468
:102F5000244C54F82210002908BF44F822003AD02B
:102F60004B682BB119465B68002BFBD1002935D08B
:102F7000C3681B68D1F80CC0DCF800C09C4503DDB9
:102F800009680029F6D129E041B3D1F80CC0DCF87A
:102F900000C09C4504BFB0F814C0BCF1010F0DD1B6
:102FA000D1F800C0BCF1000F07D06146DCF80CC0BE
:102FB000DCF800C09C45F3DA00E079B14B68002BE7
:102FC0001DBF18604A68426044F822004860884289
:102FD00008BF0021016010BC0020704710BC012018
:102FE00070470000789E00200B4A816952F821301A
:102FF000834204BF036842F82130416800291CBFA6
:1030000002680A60016800291CBF42684A6000210A
:103010000160416070470000789E00200228A4BF34
:1030200000207047064951F82000002808BF70476B
:10303000C168096800291CBF00680028F8D17047E2
:10304000789E0020002808BF70472DE9F8431E46EF
:10305000174688460446FFF7A5FD009000680568FE
:103060006846FFF7FBFD33463A4641462046A847EF
:10307000BDE8F88370B5044602F00AFB10EB0405C6
:1030800002F006FB2C1A002CD8BF70BD00F060FACD
:10309000052CC8BF0524204602F0ECFAF0E72DE924
:1030A000F04182B006000D46174647F6FF784FF014
:1030B000000404BF02B0BDE8F08165B1084607F026
:1030C00019F9040007D002462946684603F0F7F9CB
:1030D000684607F00FF943463A462946304602F063
:1030E00067FD204607F006F902B0BDE8F081002830
:1030F00008BF70472DE9FF4F0C684F680E46054624
:1031000038B221B287B0401A401C9346029000F0BA
:1031100007FB82461BF00C0F2BD0029801900A98F7
:10312000A8464FF000090090DDE90021404603F079
:103130004FFB8044002818BF09F10109F4D10BF0BE
:103140000C00042818BF082802D00C2805D010E075
:10315000381409FB1A00401C09E02014C0EB274179
:1031600009FB1A11491C01EBD17100EB610060F3FE
:103170001F44304607F0BEF85FEA000909D0CDE9E8
:1031800004470246314604A803F099F904A807F061
:10319000B1F8AAF1010828460A9A029903F05AFBED
:1031A000039008EB244060F31F47CDE90047284611
:1031B000039903F0FBF81BF0030108BF30880DD022
:1031C00001290ED0022911D1B6F90420B6F9001058
:1031D000521A101A00EBD07001EB6000ADF800003D
:1031E00004E0B188081A401CADF800006A46284681
:1031F000039902F00FFC28460A9A029903F0E8FAB4
:1032000005440AEB244060F31F4428780028C2D10B
:10321000484607F06FF80BB0BDE8F08F2DE9FF4F7F
:10322000DFF8F8C1A1B0DCF80040D4F84CC060442D
:103230002190246D601822900CEB02002390E0187E
:1032400024902198ADF850002398ADF854002298AE
:10325000ADF852002498ADF8560014A807F090FB82
:10326000002804BF25B0BDE8F08F22992498401AA9
:103270001C902E98C0F307201B902E98C0F3074097
:103280001A902E98000E19902F98C0F307201890CE
:103290002F98C0F3074017902F98000E1690219892
:1032A0000390DDE922800190DDE92E455C4807901E
:1032B0000120249E1D9000F022FA1390AC4207D109
:1032C000204604F04FFA33464146019A03988CE0B9
:1032D0001C98401C01280CBF4FF00109A0F1010906
:1032E000E0B20E901B980890DDE91613DDE9182A6C
:1032F00001272046DDF868B005F0FF0C4446B045D4
:103300006CDC0E9DA1EB0A01ACEB050CCDF844C0C2
:10331000DDF820C0CDF84010A2EB0C020F92A3EB19
:103320000B020C92119AA4EB08014A4392FBF9F3A9
:103330000E9A109D1A4402F0FF0C0F9A4A4392FB1A
:10334000F9F3089A1A44D3B20C9A4CEA03234A437D
:1033500092FBF9F2694391FBF9F15A44D2B251441C
:1033600043EA024242EA0165444522DD854208BF44
:103370007F1C1ED004F0F6F91D98012F0DDD0028EA
:103380001FBFE11B631E019A039801BFE01B621E71
:10339000019B039903F088FE0AE0019A20B1079B84
:1033A000611E0398984703E0079B601E03999847A6
:1033B0000127641C2846B442B4DD04F0D3F91D99FA
:1033C0003046012F14DD0029A0EB070109D0334658
:1033D000491C019A039803F067FE14E004F0C2F957
:1033E00007E0481C3246019B039903F05DFE0AE0AA
:1033F00029B1079B3146019A0398984703E0079B40
:10340000019A03999847139804F0ACF907F0F0F883
:1034100000287FF444AF25B0BDE8F08F609E002007
:10342000716F0008F0B5134C844683B02368D86CE4
:103430004618196D851801EB0C07ADF80060ADF862
:103440000450ADF80270ADF80670684607F098FABF
:10345000002804BF03B0F0BD20682A463946406EFC
:1034600003683046984707F0C3F80028F4D103B04A
:10347000F0BD0000609E0020F0B5DFF880C083B092
:10348000DCF80040E76C94F818C03E18206DACF1F1
:10349000010C4518C418A6EB0C001744ADF8000049
:1034A00007EB0C00ADF80400A5EB0C00ADF8020032
:1034B00004EB0C00ADF80600684607F061FA00283E
:1034C00004BF03B0F0BD3A462946304603F050FD34
:1034D0003A462146304603F04BFD621E691C3046D9
:1034E00003F0B0FD621E691C384603F0ABFD07F027
:1034F0007FF80028E7D103B0F0BD0000609E0020F7
:1035000070B5124B82B01B68D3F84CC00CEB0006B0
:10351000186DADF8006045188418ADF80460ADF87A
:103520000250ADF80640684607F02AFA002804BFAA
:1035300002B070BD22462946304603F083FD07F0F5
:1035400057F80028F6D102B070BD0000609E002040
:103550002DE9F041154D00273C46286818B18047F9
:10356000002818BF012405F039FE002818BF0124E7
:103570000F4E306808B1804700B99CB10127286818
:10358000002418B18047002818BF012405F026FE4A
:10359000002818BF0124306810B180470028EDD101
:1035A000002CEBD13846BDE8F0810000849E00205D
:1035B000809E0020F0B5DFF850C083B0DCF80040FA
:1035C000D4F84CC00CEB0007206D0CEB020546183C
:1035D000C418ADF80070ADF80450ADF80260ADF855
:1035E0000640684607F0CCF9002804BF03B0F0BDE0
:1035F00023462A463146384603F056FD06F0F8FFCA
:103600000028F5D103B0F0BD609E0020002808BF5F
:103610007047B0F806C083888068BCF1080F02BF0D
:1036200002FB0311405C704709DCBCF1010F0ED0B6
:10363000BCF1020F17D0BCF1040F21D005E0BCF1A2
:10364000100F28D0BCF1200F2BD0002070475A4318
:1036500002EBD10201F00701805CC1F10701C84013
:1036600000F0010070475A4302EB9102805C062291
:1036700002EA4101C1F10601C84000F003007047B1
:103680005A4302EB510211F0010F805C14BF00F0AD
:103690000F00000970475B0802FB031130F81100AE
:1036A00070479B0802FB031150F82100704700008F
:1036B000034951F82000C1688A6A082110470000B8
:1036C000789E002010B503F035FDBDE8104003F0F2
:1036D00055BE000002490968C9694A6800211047BF
:1036E000609E0020024A1268D269526810470000AA
:1036F000609E0020002808BF704705F021BF10B56C
:1037000003F020FDBDE8104003F038BE0021022880
:103710003CBF024951F8201008467047849F0020A2
:1037200002480068C069407E70470000609E00202B
:1037300070B514460D4603F057FD002808BF70BD54
:1037400000202860206070BD044AB2F900200260A9
:103750000348B0F90000086070470000A09E0020F8
:10376000A29E0020024951F82000006900687047BD
:10377000789E0020024951F8200000694068704797
:10378000789E0020024A126850840020918470477D
:10379000609E002070B52D48016821F00101016094
:1037A0002B48012686602B49016000682A4988421F
:1037B00000D0FEE7294DA86960B9AE6101F048FF6D
:1037C00004F05CF805F11C012548086008466969A9
:1037D000416068612E20287001F060FFE868214C8C
:1037E000011DC0E90E010064091D6161417C1E4894
:1037F00050F82100C1680A6B04F1080190471B488A
:103800006066A868E061E86808306061267605F0C7
:10381000BDFEA064032084F868006FF07040206350
:103820006063002003F064FF6FF07F4003F09AFFB5
:103830000F4828610BF0FCF904460021084601F00E
:10384000E7FC06F073F9204670BD0000002000E0A0
:1038500000300240C2A507F4CDB5E8B5549E002063
:10386000D5E00008B4A50020789E0020A8F8000844
:10387000ACFB000810B582B030B90F480068006E8C
:10388000002804BF02B010BDFFF78CF90090446916
:103890006846FFF7E3F9002C04BF02B010BD2046D4
:1038A000FFF780F9019081688968884701A8FFF7D0
:1038B000D5F902B010BD0000609E002001490A4603
:1038C00000F002B801F0FFFF002808BF70472DE9A3
:1038D000F047814686B016460C46002001F082FC77
:1038E0002E4D80462868076E4846FFF75BF900902A
:1038F0000068806901F060FC824640F6FF70C442B7
:1039000004D10098B0F90440B0F906600098621E36
:103910000189ADF808401144ADF80C104089711EC2
:103920000844ADF80A60ADF80E0005F027FA6846C5
:10393000FFF794F902A807F023F840B13246214678
:10394000484600F031FC06F053FE0028F6D1504600
:1039500001F032FC28683C00006E1BD0002818BF24
:1039600001F020FC05F040FB2046FFF71BF9019019
:1039700029680C660068FFF7E3FA01A8FFF76EF903
:1039800003F06AFF03F0E0FE404601F02BFC06B0B6
:10399000BDE8F08701F006FCF6E70000609E00201D
:1039A0002DE9F04F82461C48894683B000680C9E82
:1039B0001F46417C194890464FF0000B50F82140BB
:1039C000E0680068042803D02468002CF8D100E0E7
:1039D0001CB90846FFF722FB04460121E068C26AD1
:1039E00020469047050012D02469A0688047B0F1B6
:1039F000FF3F04BF0A4C46F001063B460096CDE966
:103A0000015442464946504600F058FA834603B0F6
:103A10005846BDE8F08F0000609E0020789E002090
:103A20007C0C0108002808BF704738B504460D48D3
:103A30000068006EA04208BF01F0B4FB2046FFF70B
:103A4000B1F800904069002818BF01F0EFFD009820
:103A50000068FFF773FA6846FFF700F92046FEF7A3
:103A600089FF38BD609E00202DE9FF4F054649487B
:103A700083B09A460068DDF840B08946447C4648E9
:103A800000570128204606DD03F016FC07462046B5
:103A900003F036FC05E003F0BDFB0746204603F0CB
:103AA000E2FB04462DB302A901A8FFF74DFEB5F9CC
:103AB0000080B8F1000FB8BF4FF00008B5F9026000
:103AC000002EB8BF0026B5F90400019939444A1EFA
:103AD0009042D8BF0246B5F9061002982044401E15
:103AE0008142D8BF0846A2EB08014A1C801B441C37
:103AF00003E04FF0000846463A46BAF1000F08BF0F
:103B0000C4F1000A002ACFBF002C002007B0BDE896
:103B1000F08F534631464046CDF800B0FFF740FFE6
:103B20005FEA000A2FD000F05BF80746504600F02D
:103B30003FF9DFF868B00025611BB942BCBF5046B1
:103B400000F01EF93DB172194146504600F054F99B
:103B50005046FFF78FFE0598C847DBF80010002994
:103B60001CBF002088475046FFF7A8FE3D44A542F1
:103B7000E2DB5046FFF756FF002000F019F907B0CE
:103B80000020BDE8F08F0598C84707B00120BDE8C8
:103B9000F08F0000609E0020989E0020AC9F0020C7
:103BA00038B5002460B1FEF7FDFF009000680069A1
:103BB0008068804703F0E1FF04466846FFF74EF84F
:103BC000204638BD002808BF704738B5FEF7EAFF29
:103BD00000F1180400906846FFF740F8204638BD11
:103BE00038B5002418B907480068006E38B1FEF7F0
:103BF000D9FF0090B0F90A406846FFF72FF8204639
:103C000038BD0000609E00202DE9F04F85B0804651
:103C10004FF0000A4046FEF7C5FF0390D0E900953B
:103C2000D0F824B003A8FFF719F828B20FFA89F7E3
:103C3000C01B441C4FEA2946C6EB2540451C002CFE
:103C4000CCBF002D0AF1010A7EDDBBF1000F16D0BA
:103C50005846FEF7A7FF0490B0F90440B0F90650AB
:103C600004A8FEF7FBFF0FFA89F0A04208BFAE429E
:103C70005AD032463946584600F0BEF854E005F0B6
:103C800085FC804511D103F003FB814603F024FB42
:103C90004C45D8BF854208DD4C4562DC854262DC7C
:103CA0002A462146404606F003FB314901202F4AAF
:103CB000CDE900010292314638462B46224600F0FB
:103CC000FDF806464046FEF76DFF03904662BEB320
:103CD000816A41F48031816203A8FEF7BFFF30465C
:103CE00000F066F80746012001F0E6FC3046FFF7D9
:103CF00069FF04FB05F18A001E49097802F0BEFD48
:103D00001D4D1E4C4046C5F80080266805F0ACFCF1
:103D10002060404607F09AF800202660286001F0F5
:103D2000CBFC384600F044F84046FEF7AFFF406A4F
:103D30000AF1010A40B105B0BDE8F04F00F08EB8BD
:103D400003A8FEF78BFF00E004E0404607F07EF892
:103D50000AF1010ABAF1050FFFF65CAF05B0BDE844
:103D6000F08F4C469AE705469AE700007C0C010864
:103D7000D4140108B09F0020249F0020949E0020AE
:103D800038B50C4628B909480068006E002808BFFD
:103D900038BDFEF707FF0090B0F90A10A142B8BF86
:103DA0000C4644816846FEF759FF38BD609E0020EE
:103DB000F8B5104E04003068056E17D0002D18BFFE
:103DC00001F0F0F905F010F92046FEF7EBFE009047
:103DD00031680C660068FFF7B3F86846FEF73EFFEF
:103DE00003F03AFD03F0B0FC2846F8BD01F0DAF923
:103DF000FAE70000609E002030B583B015460C46FF
:103E000030B915480068006E002804BF03B030BD0B
:103E1000FEF7C8FE2DB20090C58024B2848003F066
:103E200093FC0098406988B1FEF7BCFE009A0190AF
:103E3000B2F908108180B2F90A20C28000291EBFA1
:103E4000002A0480458001A8FEF708FF6846FEF7B7
:103E500005FF03B030BD0000609E002070B584B047
:103E6000040004BF04B070BDFEF79CFE0290B0F9E0
:103E700004600189B0F90650721E1144ADF80410B7
:103E8000ADF800604089691E0844ADF80600ADF841
:103E9000025002A8FEF7E2FE684606F071FD002817
:103EA00004BF04B070BD2A463146204600F062F9D6
:103EB00006F09EFB0028F6D104B070BD2DE9FF4F3F
:103EC000DFF8FCB083B01C46DBF80000DDE9108CA5
:103ED00092460027437C3A4660461299FEF7CAFF95
:103EE000050068D028698068804703F046FE814657
:103EF0000AFB09F0C01DC608FEF76AFE18F0010FA4
:103F000005D1C11700EB9170801000EB4000002C30
:103F100009DC002E1ABF1838B0FBF6F0002064420E
:103F2000A042D8BF044618F0010F08D1002000902D
:103F3000DDE903012346524601F0F2FA0746002C60
:103F400006DC2846FEF7FAFF07B00020BDE8F08F38
:103F500004FB06F0183018F0010F02D0FEF7EBFC5E
:103F600001E0FEF7EDFC5FEA00081CD0FEF71AFE48
:103F700001900560039981800499C180A0F808A090
:103F800044814761C0E9036901A8FEF767FE129802
:103F9000C5F808802861DBF80000407CA86107B004
:103FA0004046BDE8F08F2846FEF7C8FF002F1CBF33
:103FB0003846FEF7DFFC002007B0BDE8F08F0000B8
:103FC000609E00202DE9F74F96B014460F461698D4
:103FD000FEF7E8FD0D90B0F908100791B0F90A500E
:103FE00000680069D0F804800DA8FEF737FEDFF8FE
:103FF00078915E4ED9F80000407C56F82000C168E8
:104000008A6A082190470A90182824BF20200A9025
:10401000D9F80000407C56F8200000690990D0E9EA
:1040200000615348814214BF0120002010900020FD
:1040300001F035FB00281CBF19B0BDE8F08F0798D0
:104040003918D9F80000B0F90C20891A491E002946
:10405000C6BF079A511A07990691B0F90810B942DC
:1040600006DDC91B069A0F440891511A069102E019
:104070000021089106990029DCBF19B0BDE8F08F36
:104080006119B0F90E20891A491E0029D2BF0C957A
:10409000691A0C91B0F90A00A042DCBF00250C9807
:1040A00004DD051B0C982C44401B0C900028DCBF41
:1040B00019B0BDE8F08F00BF0699DDF820A0169872
:1040C00005910DF1480BDDF81C90FFF77BFD09FB16
:1040D00005F100EB8100CDE9008B00EB8A0221465F
:1040E0003846059B01F010FE5FEA000B04BF19B0D3
:1040F000BDE8F08F1098E8B1DDE90932584606991D
:1041000001F0B4FBB0B90998DDF81CA0D946D0F88D
:1041100010C0BCF1000F05D0594604235246084692
:10412000E04707E0D9F80000B04749F8040BBAF1BE
:10413000010AF7D100200A99CDE90210CDE904B0B7
:1041400001200190009021460346641C3846069ADF
:1041500002F0D0FD0C9805F10105401E0C90ABD18A
:1041600019B0BDE8F08F0000609E0020789E00200E
:104170009B730008F8B515460E460746FEF712FD7C
:10418000009000681621C068436A002098470446E2
:104190006846FEF763FD002C08BFF8BD2A4631468D
:1041A0003846A047F8BD00002DE9F04FA1B01746F2
:1041B0000E468146FEF7F6FC1990446919A8FEF7F1
:1041C0004DFD4846FFF7ECFCF54D082802DD002CBC
:1041D00000F02282F349CDE91576D1E90001CDE95D
:1041E0001C014846FEF7DEFC17904469C168129135
:1041F000B0F9081007691491B0F90A100B91006822
:104200000069406811902868407CFFF751FA1B90C4
:104210002868407CFFF7AEFA064617A8FEF71EFD99
:10422000082F9CBF01200A9004D9102F94BF0220B0
:1042300004200A90012F0CBF0DF170084FF0000808
:104240001198B04200F02E812868407CFFF78AFA6E
:104250001E9014988000FEF76EFB1890002804BF93
:1042600021B0BDE8F08F4846FFF7ACFC0890002C69
:1042700000F006812046FEF795FC1A9000200D9074
:104280000B98002840F3F880002009901A980D9AA6
:1042900081684B6909A998471499064688424DD10F
:1042A0001898FEF77FFC089D04461390082F2CD920
:1042B0000296DDF86CB0DDF844A0DDF87890069445
:1042C00035F8020BD047C84744F8040B761EF7D1E7
:1042D000BBF1200F04D25A460299069801F000FA69
:1042E00002AB1B980021139A83E80701012001907B
:1042F000009015990D9801230144149A169802F024
:10430000F9FC13A8FEF7AAFCAAE0DDF86CB0DDF812
:1043100044A0DDF878900396CDF8104015F8010B15
:10432000D047C84744F8040B761EF7D1BBF1200FE5
:104330003CBF5A46DDE90310D2D2CFE7012F28D087
:10434000002E4FD00D99159808441F901898FEF72D
:1043500029FC04461390DDE908010A9A082F42D986
:1043600001FB02091B98DDF844B0DDF878A001904C
:104370003546059439F8020BD847D04744F8040B6A
:104380006D1EF7D10198202849D202463146059882
:1043900043E0002E64D00D99159845180124099822
:1043A0000094C21700EB5273089A00F0070102EB69
:1043B000E303129ACDE90581CDE90323CDE9014755
:1043C000169A294610440123324603F0A1FA0998AF
:1043D0000D9A304409901A9881684B6909A9984749
:1043E0000600DCD13CE001FB02051B98DDF844B07F
:1043F000DDF878A00390B146CDF8104015F8010B18
:10440000D847D04744F8040BB9F10109F6D1039815
:10441000202804D202463146049801F061F90020B8
:104420001B99CDE9021001200090139ACDE90428D0
:104430000190099A16980123104432461F9902F000
:1044400059FC13A8FEF70AFC09980D9A304409900C
:104450001A9881684B6909A9984706007FF476AFDE
:1044600008991298084408900D98401C01460D9038
:104470000B988142FFF608AF1AA8FEF7EFFB0EE09B
:104480001299CDF81480CDE9031001200090CDE9F8
:104490000107DDE915100B9B149A02F02BFC18980C
:1044A00000F080BA4846FFF78DFB0646002C76D018
:1044B0002046FEF777FB1A900B9800240028C4BF13
:1044C0004FF0000B4FF0010963DD00BF1A98CDF8E3
:1044D00024B0224681684B6909A99847054614987B
:1044E000854229D11A98A246621C81684B6909A9A4
:1044F0009847A84208D11A98A21C641C81684B698D
:1045000009A99847A842F6D0CDF800901298CDF8A6
:104510001480CDE90306CDE901971598A4EB0A05AF
:1045200000EB0A016B1C149A169802F0E3FB129838
:10453000691C01FB006628E0012F35D0002D1CBF4F
:10454000159800EB040A1ED0DDE9090100FB0161AA
:10455000CDF80090129ACDF81480CDE90321CDE971
:104560000197169A5146104401232A4602F0C2FBD5
:1045700009982246284409901A9881684B6909A92C
:1045800098470500E0D1129806440B98641C8442B9
:104590009CDB1AA8FEF762FB21B0BDE8F08F2DE08E
:1045A000609E00204C0C0108002D1CBF159800EBEC
:1045B000040AE8D00998CDF80090C21700EB5272B7
:1045C00006EBE20300F00701129ACDE90581CDE97F
:1045D0000323CDE90197169A5146104401232A4638
:1045E00003F096F909982246284409901A988168A0
:1045F0004B6909A998470500DCD1C4E71298CDF8AA
:104600001480CDE9030601200090CDE90107DDE922
:1046100015100B9B149A3BE004464846CDF81090C9
:104620000C96FEF7BFFA1290B0F908100691B0F997
:104630000A80C168039100F1180102910068D0F866
:1046400010A012A8FEF70AFB2868D849DAF804B0CF
:10465000407C51F820100D692E68FFF729F80828D2
:1046600098BF4FF0010905D9102894BF4FF00209F7
:104670004FF00409AA450ED100210298CDE90401AA
:1046800001200090CDE9010443463946069A0C9872
:1046900002F030FB80E7202C3ED0102C7FF47CAF62
:1046A000069819FB00F0FEF746F9149000283FF435
:1046B00073AFFEF777FA13900498FEF773FA12902F
:1046C000296900F11804002919BFDAF8141000292B
:1046D0004FEAC900109000F01B81B0F9080080007B
:1046E000FEF729F90E90002808BF089000F05281CB
:1046F000FEF758FA0890002818BF4FEAC90600F0E4
:10470000498100BFB9F1010F75D0B9F1020F73D023
:10471000B9F1040F71D0E0E0069819FB00F0FEF744
:104720000AF9149000283FF437AFFEF73BFA1390D4
:104730000498FEF737FA00F118041290286900284F
:1047400008BF4FEAC90B42D000264FF0010A4FEADA
:10475000C90B00BFB9F1010F06D0B9F1020F0ED09D
:10476000B9F1040F16D01FE0D5F810C0139901233A
:104770002046069AE047069804EB800414E0D5F83A
:1047800010C0139902232046069AE047069804EBCE
:10479000800409E0D5F810C0139904232046069A36
:1047A000E047069804EB800413983946CDE903608E
:1047B000CDF800A00596CDE901AB7F1C0123069A38
:1047C0000C9802F097FAB8F10108C3D140E0069DB9
:1047D000B9F1010F08BFDDF84CA00FD0B9F1020FFD
:1047E00008BFDDF84CA011D0B9F1040F08BFDDF807
:1047F0004CA013D019E035E048E05BE054F8040B1E
:10480000B0470AF8010B6D1EF8D10EE054F8040B06
:10481000B0472AF8020B6D1EF8D106E054F8040BDD
:10482000B0474AF8040B6D1EF8D113990020CDE96A
:104830000301059001200090CDE9010B39460346A4
:104840007F1C069A0C9802F055FAB8F10108BED107
:1048500012A8FEF703FA13A8FEF700FA1498FEF761
:1048600089F899E6DAF814C0DDF84CB00223204646
:10487000069A0899E047D5F810C001235946069AD0
:104880000898E047069804EB400426E0DAF814C0E4
:10489000DDF84CB002232046069A0899E047D5F887
:1048A00010C002235946069A0898E047069804EB80
:1048B000400412E0DAF814C0DDF84CB002232046C0
:1048C000069A0899E047D5F810C004235946069A7D
:1048D0000898E047069804EB400413990020CDE9BE
:1048E0000301059001200090CDE9010639460346F9
:1048F0007F1C069A0C9802F0FDF9B8F101087FF4CC
:1049000001AF08A8FEF7AAF90E98FEF733F841E0C8
:10491000069DB9F1010F08BFDDF84CA00CD0B9F12C
:10492000020F08BFDDF84CA00FD0B9F1040F08BF8B
:10493000DDF84CA012D019E034F8020BD847B0478C
:104940000AF8010B6D1EF7D110E034F8020BD847BE
:10495000B0472AF8020B6D1EF7D107E034F8020BBE
:10496000D847B0474AF8040B6D1EF7D100201099C4
:10497000CDE90210139ACDE90420012001900090A6
:10498000394603467F1C069A0C9802F0B3F9B8F139
:104990000108BDD112A8FEF761F913A8FEF75EF970
:1049A000DDF85000FDF7E6FFF6E50000789E0020F8
:1049B000002808BF704700290CBF1146002A20D0EC
:1049C000B1F900C0B2F900309C45B8BF634603801E
:1049D000B1F902C0B2F902309C45B8BF63464380CA
:1049E000B1F904C0B2F904309C45C8BF6346838066
:1049F000B1F90610B2F906209142D8BF1146C18024
:104A000070470A684968026041607047002808BF23
:104A1000704703880B440380838819448180418850
:104A200011444180C1881144C1807047134A10B4B9
:104A3000D2E90013994212D1114A914219BF51E9AA
:104A4000032351F8041CD1E90F23496C0260C0E92B
:104A50000131007A002818BF012010BC7047D1E94D
:104A60000034D1F808C0C0F808C0C0E90034054BD4
:104A700099420CBF02490C311160EAE7A49E002064
:104A800024A6002060A600200348D0E9001081423F
:104A90000CBF012000207047A49E002070B5204A62
:104AA000204B1E491160D3E900C18C451AD01E4C21
:104AB000A1420CBF04F13C02A1F10C02057A167A66
:104AC000B5420FD194450DD0A2420CBF04F13C0277
:104AD0000C3A127A954205D1A14214BF0C3904F167
:104AE0003C015960D0E9002485688D60C1E900244B
:104AF0000E4A91420CBF0C490C3159608C4505D1CE
:104B0000944514BF0CF10C010749196099680029FC
:104B100018BF8847BDE8704000F0B0BBCD960008D4
:104B2000889E0020A49E002024A6002060A60020CD
:104B30000A4B0020D3E900218A4208BF7047DFF802
:104B400020C0D2E9000162450CBF064A083210B508
:104B50001A6005F033F9012010BD0000749F002099
:104B6000D4A6002084A6002070B51D4C82B0246815
:104B7000DDE9066CB4F90850854226DCB4F90C5026
:104B8000954224DB8242BCBF02B070BDB4F90A502A
:104B90008D421EDCB4F90E509D421DDB8B42BCBF22
:104BA00002B070BDDCF80C402468002C18BF042C47
:104BB00005D0DCF80040002C18BFA446F2D1CDE9A6
:104BC000006C02F061FC02B070BD2846D6E72A46B0
:104BD000D8E7B4F90A10DDE7B4F90E30DEE70000DB
:104BE000609E0020B0F90220B1F906309A4213DC31
:104BF000B1F90220B0F906309A420DDCB0F900207C
:104C0000B1F904309A4207DCB1F90010B0F90400A0
:104C10008842A4BF01207047002070470146024827
:104C200070220068FBF790BC609E0020002808BF3F
:104C300070472DE9F04FB1B0CDE91F21FDF7B2FF6C
:104C4000039001681091B0F9042020998A420AD19A
:104C5000B0F906101F98814205D103A8FDF7FEFFA9
:104C600031B0BDE8F08F0020FFF7A2F8299010982E
:104C700080692190FE48016821984A7C24929042E4
:104C800018BF48740398B0F90480B0F90610129167
:104C9000B0F90810A1EB0801491C0A91B0F90A20EB
:104CA0001299511A491C279100210E91017C11F093
:104CB000020F00F04B82416920300F9020981A912A
:104CC000A0EB080612991F98401A1790002E08DDD5
:104CD000002023900A9F1496781E4FF0010A199025
:104CE0000AE00A984FF0FF3A401E239000201490EB
:104CF00023985746304419901798002809DD012061
:104D00001890279800241390401E1C9017981D900F
:104D10000CE04FF0FF3018902798441E4FF0FF3002
:104D2000139000201D90179820441C90109DD14A8C
:104D300004A9A8694FF000091056012810DDADF84C
:104D40001290ADF81090A86902F0B6FA401EADF8C6
:104D50001400A86902F0D4FA401EADF8160003E072
:104D6000E868026B284690475146039806F0CAFC53
:104D70002690002800F0EA815146039806F0C2FC14
:104D80002290002800F0DE810398C068002800F01F
:104D9000F480FDF707FF029425901398844200F0F9
:104DA000E8801D9902988842A5BF1C998142002085
:104DB00001202A9012990298239C01441798BC4222
:104DC0000844079000F0CC8002990A9848432E903E
:104DD00017990298401A2B900299129808442C9027
:104DE0004FF000092146029A1A98FEF70FFC5FEA7D
:104DF000000B77D00F9800EB84012E9801EB800018
:104E0000169008EB040085191498A042DCBF19988D
:104E1000844204DC2A98002818BF012000D1002019
:104E20002D90BDF91000A84241DCBDF91210079881
:104E30008142DCBFBDF91400854238DCBDF9161093
:104E40000798884233DC0B9010980D9003981190CE
:104E5000B0F90400A84237DC1199B1F90820954255
:104E600032DC11990B9AB1F9061091422CDC119A9F
:104E7000B2F90A300B9A9A4226DCA5EB00090B988E
:104E8000401A009011984946009A4069FEF7BEFB0F
:104E9000D0B11198009AB0F90810B0F90400081ABE
:104EA000411C119801FB0291203050F821902D985F
:104EB000C8B1A11B5CBF2B9800282ED402461A98BB
:104EC000FEF7A4FB48BB0EE00D980068002808BF61
:104ED0004FF00009EBD0C1680B9A4B6929469847FF
:104EE0008146E4E738E0BDF9102004EB08002C9976
:104EF0008242DCBFBDF912208A420EDCBDF91420CB
:104F00008242A4BFBDF916208A4206DB229A009293
:104F1000169A109B126809F07BFBBDF91000A8429D
:104F200017DCBDF9121007988142DCBFBDF91400EF
:104F300085420EDCBDF916100798884209DC2598D9
:104F4000109B079950F82B2026980090284609F0CE
:104F50005FFB1698C0F800905444BC427FF440AF09
:104F600018990298084401460290139881427FF4F0
:104F700018AF25A8FDF772FEE0E013980294844272
:104F80007CD002991D98814205DB08461C99884215
:104F9000D8BF012000DD00202A9012990298239C9E
:104FA00008441799BC420844079068D00A990298AF
:104FB00048432C9002991798081A2B90129808448D
:104FC000CDF8B8004FF000092146029A1A98FEF772
:104FD0001DFB4FEA106B2890BBF1FF0F7DD00F989F
:104FE00000EB84012C9801EB8000169008EB040084
:104FF000851914988442A4BF1998A04204DB2A980A
:10500000002818BF012000D100202D90BDF910000C
:10501000A8421EDCBDF9121007988142DCBFBDF921
:105020001400854215DCBDF916100798884210DC83
:1050300001462846039B109A08F021FB0E49219A4D
:10504000814620F07F4051F822100969496888475D
:105050000E902D9858B1A11B5CBF2B98002829D425
:1050600002461A98FEF7D2FA000EFF2822D107E076
:10507000609E0020989E0020789E00205EE055E013
:10508000BDF9102004EB08002E998242DCBFBDF967
:1050900012208A420EDCBDF914208242A4BFBDF961
:1050A00016208A4206DB229A0092169A109B1268FA
:1050B00009F0AEFABDF91000A84230DCBDF91210BB
:1050C00007988142DCBFBDF91400854227DCBDF999
:1050D00016100798884222DC00E023E02B49219A31
:1050E0002898BBF1000F51F8221020F07F40096989
:1050F00049680BD08847CBF1FF020E9901F07EFA88
:105100002249219A51F8221009690968884726998D
:10511000009102462846109B079909F079FA1698E3
:10512000C0F800905444BC427FF44CAF18990298E8
:1051300008441399029088427FF423AF2299039880
:1051400009F034F92699039809F030F90398209969
:1051500081801F99C1800A9A20991144491E0181BA
:10516000279A1F991144491E418124992198884208
:1051700003D008460649096848742998FEF718FEC6
:1051800003A8FDF76BFD31B0BDE8F08F789E0020DD
:10519000609E0020024970220968FBF7D5B9000023
:1051A000609E002010B502F081FA02F055FBBDE8C8
:1051B000104003F0E3BD000070B504460548022C22
:1051C0000068457C3CBF4474FFF7ECFF0248046074
:1051D000284670BD609E0020049F002002F088BA1F
:1051E00002F0C0BA02F0DABA034900280968CA69B5
:1051F00018BFC86110467047609E002002F0EABAEE
:10520000024909688A7E887610467047609E0020B1
:10521000084A1080084A1180084A1268537C084ADC
:1052200052F82330DA68D2F820C00A460146184600
:1052300060470000A09E0020A29E0020609E0020EB
:10524000789E0020024909680A7E08761046704759
:10525000609E002003490968B1F92C20888510461A
:1052600070470000609E002003490968B1F92A20B8
:105270004885104670470000609E00200248006884
:10528000002808BF704700478C9F002003498A68A8
:10529000002A08BF8860FFF7F1BF0000749F00205C
:1052A000002808BF704770B5294E044684B03068A6
:1052B000A04218BF054606D1FDF774FC0090806837
:1052C0003060684610E02846FDF76CFC019080686D
:1052D000A04219D1FDF766FC0199009080688860B2
:1052E0006846FDF7BBFC01A8FDF7B8FC4CB32046AF
:1052F000FDF758FC00907568A5420AD140687060BF
:105300006846FDF7ABFC1CE0054601A8FDF7A6FCCE
:10531000D9E79DB12846FDF745FC01904568A542B7
:1053200007D1009801994068486001A8FDF796FCF4
:1053300004E001A8FDF792FC002DEBD16846FDF7D3
:105340008DFC04B02046BDE87040FDF713BB0000A3
:10535000ACA0002038B50C46002808BF01240AD0B4
:10536000FDF720FC00908089204214BF0124002416
:105370006846FDF773FC204638BD000038B504468A
:10538000002020600648056845B12846FDF70AFC64
:105390000090006920606846FDF760FC284638BD33
:1053A000ACA0002038B504004FF000000D460860A6
:1053B00011D02046FDF7F6FB0090846844B16846A2
:1053C000FDF74CFC2046FDF7EDFB009000692860DE
:1053D0006846FDF743FC204638BD000002490148FD
:1053E00008607047B0F80008649E00202DE9F04185
:1053F000084E044605683068016828468847074615
:105400003068416828468847284420603846BDE80F
:10541000F0810000649E00202DE9F0410024064642
:105420004D1E28BF064F07D338684168304688476D
:10543000064404446D1EF7D22046BDE8F08100000A
:10544000649E00202DE9F0411F46069D14468846C3
:1054500006462246B068641C3B46D0F804C041466C
:105460003046E0476D1EF4D1BDE8F08170B5B0F96B
:1054700000C0A1EB0C01B0F904C08C45D8BF70BDD1
:1054800000F1140CB0F902400069121B02FB00C0CD
:1054900000EBE104C818421ED010B0EBE1004FF061
:1054A000FF0302F00702C2F1070201F0070103FA4D
:1054B00002F223FA01F1D5B210D02278461E114330
:1054C00004F8011B002E05DDFF2231462046FBF7C4
:1054D0006DF8344420782843207070BD207829402E
:1054E0000843F9E7B0F90030B0F902C0C91A00F179
:1054F00014030069A2EB0C0202FB003000EBE10098
:1055000001F007010278802323FA01F111430170B1
:105510007047B0F90610026951431430FBF74EB8DA
:105520002DE9F843804602F10F000011460003FB0D
:1055300006F01C4615460F461430FDF701FA5FEAE7
:10554000000908BFBDE8F883FDF72CFB0090A0F828
:10555000008047808580C480054981600121818168
:1055600006616846FDF77AFB4846BDE8F88300000F
:105570000815010830B4B0F90650B0F904400B68C2
:1055800000F1140C954220DD00699C4202FB00C032
:1055900000EBE30C19DD601EC010A0EBE3041CF867
:1055A000010B03F00702904010F0FF0009D164B135
:1055B0001CF8010B03F10802641E22F00703002807
:1055C000F5D010F0800F09D102E030BC0020704708
:1055D0004006000E5B1C10F0800FF9D0FF2816BFAC
:1055E0001A46DA1D10F0400F05D04006000E521C7E
:1055F00010F0400FF9D1072090430ED1641E0CD457
:105600001CF8010BFF280DD010F0800F05D04006CC
:10561000000E521C10F0800FF9D10B60D01A30BC74
:10562000401C70470832641EEAD5F6E738B50546D7
:10563000FDF7B8FA00908189491E0CB28481684652
:10564000FDF70CFB002C04BF2846FDF793F938BD8D
:1056500010B54FF0C840064908604FF48011044867
:105660000068FDF77FF98020FDF7EAFA10BD000021
:10567000189E0020044A1268111800BF024A1268DE
:105680008A1A002AFADC7047149E00207047000036
:105690000148006870470000149E0020704700B564
:1056A00083B0002814BF02AA0022002301A9684683
:1056B00000F02AFE03B000BD084910B5CC680028F0
:1056C00014BF01200020C86014BF4FF0FF306FF0FE
:1056D0007F4001F0F3FA204610BD00008CA00020AE
:1056E00030B4082A1FDC0346012A47D0022A7CD0A6
:1056F000042A7BD00129D8BF0121181F5A1E11F09E
:10570000010F03D010F8043F02F8013F491007D001
:105710000379537010F8083F02F8023F491EF7D191
:1057200030BC01207047102AC2BF002030BC704737
:105730000129D8BF00211CDDA1F1010CBCF1000F33
:1057400015DD021F831E11F0010F03D132F8044F43
:1057500023F8024F54685FEA6C0C08D032F8085FF7
:105760005C80546823F8045FBCF1010CF6D1491E3B
:10577000D6D430F8212020F81120D1E710F8042BDE
:10578000D207120E491E38D010F804CB491E0CF077
:10579000010C42EA8C1230D010F804CB491E0CF0F8
:1057A000010C42EA4C1228D010F804CB491E0CF030
:1057B000010C42EA0C1220D010F804CB491E0CF068
:1057C000010C42EACC0218D010F804CB491E0CF0B0
:1057D000010C42EA8C0210D010F804CB491E0CF0E8
:1057E000010C42EA4C0208D001E00BE02CE010F87A
:1057F00004CB0CF0010C4CEA020203F8012B002947
:10580000BCD18DE710F8042B9207120E491E16D05A
:1058100010F804CB491E0CF0030C42EA0C120ED017
:1058200010F804CB491E0CF0030C42EA8C0206D09F
:1058300010F804CB491E0CF0030C4CEA020203F8EA
:10584000012B0029DED16BE710F8042B1207120E92
:10585000491E06D010F804CB491E0CF00F0C4CEA80
:10586000020203F8012B0029EED159E708B54FF0E9
:10587000000CCDF800C000F001F808BD2DE9F041A2
:105880000D46069E0446002E08BF06461F68082ADD
:1058900008DC012A1ED0022A67D0042A7ED0082AFA
:1058A0007DD0B3E0102AC4BF0020BDE8F081D3F85A
:1058B00010C0BCF1000F05D00A4602233146204635
:1058C000E047A3E054F8040BB84726F8020B6D1E1E
:1058D000F8D19BE054F8040BB847C0074FEA1068B2
:1058E0006D1E3DD054F8040BB84748EA801000F014
:1058F000FF086D1E34D054F8040BB84748EA401036
:1059000000F0FF086D1E2BD054F8040BB84748EA8E
:10591000001000F0FF086D1E22D054F8040BB847A9
:1059200048EAC00000F0FF086D1E19D054F8040BBF
:10593000B84748EA800000F0FF086D1E10D054F808
:10594000040BB84748EA400000F0FF086D1E07D07E
:1059500054F8040BB84740EA080000F0FF086D1E39
:1059600006F8018B002DB5D150E054F8040BB84770
:1059700080074FEA10686D1E1CD054F8040BB8471E
:1059800048EA001000F0FF086D1E13D054F8040B15
:10599000B84748EA800000F0FF0801E00FE023E08C
:1059A0006D1E07D054F8040BB84740EA080000F019
:1059B000FF086D1E06F8018B002DD6D126E054F8A5
:1059C000040BB84700074FEA10686D1E07D054F863
:1059D000040BB84740EA080000F0FF086D1E06F807
:1059E000018B002DEBD111E0D3F810C0BCF1000FFA
:1059F00005D00A46012331462046E04706E054F828
:105A0000040BB84706F8010B6D1EF8D10120BDE864
:105A1000F08100002DE9F04306466148DFF88481FB
:105A2000614C0068614D85B00F46002843D00020CE
:105A300004F0A6FF002804BF05B0BDE8F083E946E6
:105A400004970296D8F8002004A9304690470290A7
:105A50002068406918B14946FFF7C4F820B3012017
:105A600000F056FD2068C069406920B18268049941
:105A70000298904715E00498401E049011D402A8A3
:105A8000FFF7B4FC81462068C06901684846884732
:105A9000296800291CBF484688470498401E049086
:105AA000EDD5002000F034FD04F0A2FD0028C6D1A1
:105AB00005B0BDE8F08351681068CDE900012068A9
:105AC000BDF80010B0F84C201144ADF80010BDF83E
:105AD0000210B0F850201144ADF80210BDF80410C7
