:020000040800F2
:10000000B8B200208D02000841ED000843A50008A9
:100010003DED0008BD2A000863050108000000004E
:10002000000000000000000000000000C7FD000804
:10003000ED35000800000000D1ED000899FF000830
:10004000A7020008A7020008A7020008A7020008EC
:10005000A7020008A702000897400008A740000870
:10006000A7020008A7020008AF400008A702000886
:10007000A7020008A7020008A7020008A7020008BC
:10008000A7020008A7020008A7020008A7020008AC
:10009000A7020008A7020008A7020008B74000084E
:1000A000A7020008A7020008A7020008A70200088C
:1000B00065020108A7020008A7020008A7020008BD
:1000C000A7020008A7020008A7020008A70200086C
:1000D000A7020008A1030108A7020008A702000860
:1000E0009F400008A7020008A7020008A702000816
:1000F000A7020008A7020008A7020008A70200083C
:10010000A7020008A7020008A7020008A70200082B
:10011000A7020008A7020008A7020008A70200081B
:10012000A7020008A7020008A7020008A70200080B
:10013000A7020008A7020008A7020008A7020008FB
:10014000A7020008A7020008A7020008A7020008EB
:10015000A7020008A7020008A7020008A7020008DB
:10016000A7020008A7020008A7020008A7020008CB
:10017000A7020008A7020008A7020008A7020008BB
:10018000A7020008A702000800F002F800F06EF8CD
:100190000AA090E8000C82448344AAF10107DA45E2
:1001A00001D100F063F8AFF2090EBAE80F0013F0C6
:1001B000010F18BFFB1A43F001031847F0F10100CB
:1001C00010F2010010F8013B0A4413F0030408BFC9
:1001D00010F8014B1D1108BF10F8015B641E05D01B
:1001E00010F8016B641E01F8016BF9D1002D15D0D8
:1001F00010F8014B03F00C030C2BA1EB04040ABF15
:1002000010F8013BA4EB8314A4EB032405F10103D4
:1002100014F8016B5B1E01F8016BF9D5914238BFF0
:1002200010F8013BD1D3704700230024002500269D
:10023000103A28BF78C1FBD8520728BF30C148BF49
:100240000B607047642900F09780002070471FB54D
:100250001BF0C4F900F0EEFD0400002000211BF0AB
:10026000A7F9401C60601FBD10B510BD00F0A6FDD1
:100270001146FFF7ECFF1BF053F900F0CDFD03B47E
:10028000FFF7F2FF03BC1AF0E7FF000009488047C0
:1002900009480047FEE7FEE7FEE7FEE7FEE7FEE768
:1002A000FEE7FEE7FEE7FEE704480549054A064B80
:1002B000704700009DFF000889010008B8AC0020CD
:1002C000B8B20020B8AE0020B8AE002070470000E1
:1002D0000FB4044910B503AA029800F0F3FA10BC59
:1002E0005DF814FB000000200FB41CB5074B06AAF4
:1002F0007B4469460090059800F0CBFA00206946DF
:1003000000F0DAFA1CBC5DF814FB0000C505000023
:100310002DE9F0410E460446002020622046E168A7
:10032000884730B3252805D0D4E901219047206AB9
:10033000401CF2E7E168204600278847050018D0F6
:10034000A5F14100192802D820354FF40067324644
:10035000294620462760FFF775FF40B1012804D0E9
:10036000F61D26F007060836D8E7361DD6E72846DC
:10037000DAE7206ABDE8F0812DE9F0410646002465
:1003800010687529314616A510D0AFF300800028FB
:1003900002DA404213A507E031688A0701D512A5A9
:1003A00002E0490704D511A5012401E0AFF3008064
:1003B00000210A2206F1240709E0B0FBF2FCB0FBA1
:1003C000F2F302FB1C00303078541846491C002818
:1003D000F3D123462A463046BDE8F04100F0FBB990
:1003E000000000002D0000002B0000002000000095
:1003F0000FB400B58DB010A9099000910B904FF08B
:10040000FF300A9000200C90064878440690064879
:1004100078446A4607900F9909A800F079FA0DB060
:100420005DF814FB230500003B0500002DE9FF5F8C
:100430001D464FF0FF3B91464FF000085F46D5E95F
:100440000146A96901987F1C8847296A8246884726
:100450000028F6D1BAF1FF3F0CD0002E24F4C0647E
:1004600019DD600614D5BAF12B0F09D0BAF12D0FA2
:100470000ED103E0584604B0BDE8F09F44F4806418
:10048000A96901987F1C8847761E8246002E02DDEE
:10049000BAF1300F03D0B9F1000F26D032E0A969CC
:1004A000761E01987F1C44F400748847002E824613
:1004B00005DDBAF1780F06D0BAF1580F03D0B9F1C3
:1004C000000F10D01EE0B9F1000F02D0B9F1100FEB
:1004D00018D1A969761E01987F1C24F400748847FE
:1004E0008246102002E0082000E00A20814609E050
:1004F000A96908FB0908761E01987F1C44F4007462
:1005000088478246002E05DD4946504600F0ECF94A
:100510000028EDDAE96901988847A00502D46FF058
:100520000100A8E7E00725D1600613D5600502D5D4
:10053000C8F1000000E0404629680A1D2A600968E9
:10054000220501D5087015E0220701D5088011E0C9
:1005500008600FE02868011D29600068210502D5A8
:1005600080F8008006E0210702D5A0F8008001E0B5
:10057000C0F8008038467EE740EA0103024630B505
:100580009B0710D14FF0013400E008C208C91D1BC1
:100590009D4315EAC41FF8D013F0FF0102F8011BB8
:1005A0000DD01B0AF8E711F8013B002B02F8013BC4
:1005B00005D011F8013B002B02F8013BF3D130BD0F
:1005C00010B5431C02E010F8011B71B18107FAD18C
:1005D0004FF0013202C88C1A8C4314EAC211F9D0D0
:1005E000C01A0A0603D0C01E10BDC01A10BD0A04EE
:1005F00001D0801E10BD0902FCD0401E10BD032A90
:1006000040F2308010F0030C00F0158011F8013B2F
:10061000BCF1020F624498BF11F801CB00F8013B16
:1006200038BF11F8013BA2F1040298BF00F801CBDA
:1006300038BF00F8013B11F0030300F06780083A6F
:10064000C0F0088051F8043B083A51F804CBA0E808
:100650000810F5E7121D5CBF51F8043B40F8043B5D
:10066000AFF30080D20724BF11F8013B11F801CB92
:1006700048BF11F8012B24BF00F8013B00F801CB63
:1006800048BF00F8012B7047431A28BF9A427FF6F3
:10069000B6AF032A1044114440F2268010F0030F35
:1006A0001EBF11F8013D521E00F8013D10F0030F6E
:1006B0007FF4F6AF11F0030300F06D81083AC0F04B
:1006C0000B8051F8043D083A51F804CD40F8043D40
:1006D00040F804CDFFF7F3BF121D5CBF51F8043D95
:1006E00040F8043DAFF30080D20724BF11F8013D6C
:1006F00011F801CD48BF11F8012C24BF00F8013DCD
:1007000000F801CD48BF00F8012C704710B5203A21
:10071000C0F00B80B1E81850203AA0E81850B1E8BA
:100720001850A0E81850BFF4F5AF5FEA027C24BF70
:10073000B1E81850A0E8185044BF18C918C0BDE867
:1007400010405FEA827C24BF51F8043B40F8043B30
:1007500008BF7047D20728BF31F8023B48BF11F8E5
:10076000012B28BF20F8023B48BF00F8012B70473F
:1007700002F0FF0343EA032242EA024200F037B9E3
:100780004FF0000200B5134694469646203922BF2A
:10079000A0E80C50A0E80C50B1F12001BFF4F7AF75
:1007A000090728BFA0E80C5048BF0CC05DF804EB57
:1007B000890028BF40F8042B08BF704748BF20F8C5
:1007C000022B11F0804F18BF00F8012B70477047C3
:1007D0007047704770472DE9F0470D46994692469D
:1007E000044600F124080168880604D5E06921F078
:1007F0001001216000E00120A84201DD471B00E05C
:100800000027A1697A1902EB0900081AA061207873
:10081000C00602D42046AFF30080002608E0D4E9E9
:1008200001211AF806009047206A401C761C2062BD
:100830004E45F4DB2078C0060AD52046AFF3008091
:1008400006E0D4E9012130209047206A401C206254
:10085000381EA7F10107F4DC07E0D4E9012118F8FC
:1008600005009047206A401C2062281EA5F1010562
:10087000F3DC2046AFF300802078000602D502208A
:10088000BDE8F0870120FBE701694A1C0261087896
:10089000704700B58FB0CDE90131002105910549C0
:1008A0007944CDE9031011466846FFF731FD0FB0DA
:1008B00000BD0000E5FFFFFF0A6802F8010B0A60B7
:1008C00070470000074B70B50D467B44FFF7E1FF12
:1008D0000446284600F06EFA10B14FF0FF3070BDAC
:1008E000204670BD37AB01003A2800D2303820F0E6
:1008F0002002412A01D3A2F13700884201D34FF0F0
:10090000FF30704702681144137801601846704741
:10091000D16005497944516104497944116200214B
:100920001161114600F08CB8EDFFFFFF11010000CE
:10093000426842B1016811F8013B23B1521EC0E97F
:100940000012184670470121C160881E7047426836
:100950005AB1C368016843B983688B4205D0491E08
:10096000521CC0E90012002070474FF0FF30704762
:10097000431A28BF9A427FF6C9AE104410F0030F05
:1009800011441EBF11F8013D521E00F8013D10F048
:10099000030F7FF4F6AF103AC0F00A8010B531E9CA
:1009A0001850103A20E91850BFF4F9AFBDE81040D4
:1009B000530724BF31E9081020E9081044BF51F85B
:1009C000043D40F8043D12F0030F08BF7047D20702
:1009D00028BF31F8023D48BF11F8012C28BF20F88C
:1009E000023D48BF00F8012C70474FF00002042977
:1009F000C0F0128010F0030C3FF4C4AECCF1040C34
:100A0000BCF1020F18BF00F8012BA8BF20F8022B81
:100A1000A1EB0C01FFF7B6BE5FEAC17C24BF00F872
:100A2000012B00F8012B48BF00F8012B704710B5CF
:100A3000044600F0E9F90068005D00F0010010BD17
:100A40002DE9F34F4FF0000A0C4656468DB00120B9
:100A50000C9001F10C000B9062690B9801219047FA
:100A6000051E2DD0252D2CD0216A8847C0B1626982
:100A70000B9801219047216A88470028F7D16269C5
:100A8000411E0B98904700E0761CA1690D9888479D
:100A9000216A88470028F7D1E1690D988847DBE78C
:100AA000A1690D988847A842074601D1761CD3E773
:100AB000E1690D9888477F1C02D1BAF1000F6FD011
:100AC0006BE162690B9800273D46394690472A281A
:100AD00004D162690B98012190470125DFF8D0828B
:100AE00062690B9801219047A0F130010A290AD2CE
:100AF0004745E5DC07EB870100EB4107303FDFD4DA
:100B000045F01005ECE7E90601D46FF000476C28CA
:100B10000AD04C2814D0682815D06A280DD0742823
:100B20001CD07A281AD01DE062690B9801219047E9
:100B30006C2802D045F0040514E045F002050DE0F4
:100B400045F020050AE062690B980121904768286A
:100B500002D045F0080505E045F4006562690B9890
:100B600001219047C4E9015765283DD019DC582878
:100B70007AD00CDC452837D004DC252826D0412843
:100B80009ED131E046282FD0472899D12CE05B2810
:100B900077D0612828D063287CD0642823D15AE0FC
:100BA000F6E06F2848D008DC66281DD067281BD0E7
:100BB000692821D06E2816D127E0702845D07328E7
:100BC00068D0752847D078280DD14DE0A1690D98DF
:100BD0008847252805463FF469AFE1690D988847A5
:100BE0006D1C3FF46AAFD8E00D9923466A466FF05A
:100BF0000100AFF30080C5E045F0400023464FF010
:100C000000026060A80736D43EE0E8077FF447AFF3
:100C10002068011D21600068290501D506701BE7C9
:100C2000290701D5068017E7A90703D5F117C0E901
:100C3000006111E706600FE745F0400023464FF0E2
:100C400008026060A80716D41EE040F60E0125EAEF
:100C50000100606016E045F0400023464FF00A02B4
:100C60006060A80707D40FE045F040006060A80767
:100C700008D5234610220D996FF00100AFF30080D4
:100C800080E007E0102223460D996FF00100FFF786
:100C9000CDFB77E04FF0000963284F46C8464B462E
:100CA000CB4602D05B2806D038E0E80601D401200C
:100CB000A060012732E06269D4F80CB00B980121E2
:100CC00090475E2807D14FF0010949466269D4F880
:100CD0000CB00B989047216939B900210A4603AB43
:100CE00043F82120491C0829FADBD8B3216949B30C
:100CF00008F1010862690B98012190475D28F4D141
:100D0000B9F1000F09D0002003A951F82020D243E7
:100D100041F82020401C0828F7DB03AB206900289D
:100D200020794FEA40701ED05B462246CDF8008005
:100D3000CDE901970D9900286FF0010020DAAFF39B
:100D400000801FE0C11703AA00EBD1614B1121F015
:100D50001F0102EB8302411A1368012088400343FC
:100D60001360C7E719E00D99224600286FF00100D3
:100D7000009702DAAFF3008004E0AFF3008001E0F7
:100D8000AFF3008000280ADA401C06D10C9820B18D
:100D90004FF0FF300FB0BDE8F08F5046FAE7E9079B
:100DA00001D10AF1010A064400200C9054E600002B
:100DB000CCCCCC0C007B00F080007047754600F076
:100DC00035F8AE4605006946534620F007008546D3
:100DD00018B020B5FFF768FABDE820404FF00006D4
:100DE0004FF000074FF000084FF0000B21F0070113
:100DF000AC46ACE8C009ACE8C009ACE8C009ACE856
:100E0000C0098D467047000010B500F013F8001DB2
:100E100010BD00BF9DA7010010B50446AFF30080D0
:100E20002046BDE81040FFF72ABA0000004870478E
:100E300058AC00200048704778AC00204FF0013CCF
:100E400050F8042B51F8043B9A4221D1A2EB0C0339
:100E5000934313EACC1317D150F8042B51F8043BF9
:100E60009A4215D1A2EB0C03934313EACC130BD196
:100E700050F8042B51F8043B9A4209D1A2EB0C0321
:100E8000934313EACC13DBD04FF00000704700BF50
:100E9000D01A01BAB1FA81F101F0180122FA01F079
:100EA000CB40C1F12001DBB2C0B2C01A2CFA01F371
:100EB000D11A914311EAC311E6D170471CB5012143
:100EC00088030EF01DFA062105200EF07DFF40205C
:100ED000009000208DF8040008208DF80500012006
:100EE0008DF80600684603F0F7F81CBD1CB501211B
:100EF00020200EF0D5F900208DF8040003208DF895
:100F0000050002208DF80700402000906946024845
:100F100004F0B8F81CBD00000014024008B517200A
:100F20008DF800000C208DF8010000208DF80200E3
:100F300001208DF8030068460DF004FF08BD1CB5C4
:100F4000012188030EF0DCF9072105200EF03CFF9B
:100F50008020009000208DF8040008208DF8050006
:100F600001208DF80600684603F0B6F81CBD0000AD
:100F70001CB5012120200EF093F900208DF804000B
:100F800003208DF8050002208DF8070080200090D6
:100F90006946024804F076F81CBD000000140240C7
:100FA00008B517208DF800000C208DF801000020F6
:100FB0008DF8020001208DF8030068460DF0C2FE96
:100FC00008BD1CB5012188030EF09AF908210520FF
:100FD0000EF0FAFE4FF48070009000208DF80400AF
:100FE00008208DF8050001208DF80600684603F002
:100FF00073F81CBD1CB5012120200EF051F9002012
:101000008DF8040003208DF8050002208DF80700FC
:10101000C00100906946024804F034F81CBD00008D
:101020000014024008B517208DF800000C208DF840
:10103000010000208DF8020001208DF803006846B1
:101040000DF080FE08BD1CB5012188030EF058F993
:10105000092105200EF0B8FE4FF40070009000202A
:101060008DF8040008208DF8050001208DF8060099
:10107000684603F031F81CBD1CB5012120200EF09C
:101080000FF900208DF8040003208DF805000220E0
:101090008DF80700000200906946024803F0F2FF55
:1010A0001CBD00000014024008B517208DF8000098
:1010B0000C208DF8010000208DF8020001208DF831
:1010C000030068460DF03EFE08BD1CB501218803F3
:1010D0000EF016F9012100200EF076FE022000909D
:1010E00000208DF8040008208DF8050001208DF8FF
:1010F0000600684602F0F0FF1CBD00001CB501218F
:1011000008460EF0CDF800208DF8040003208DF87D
:10111000050002208DF8070000906946014803F0A1
:10112000B1FF1CBD0000024008B507208DF800008B
:101130000C208DF8010000208DF8020001208DF8B0
:10114000030068460DF0FEFD08BD1CB501218803B3
:101150000EF0D6F80A2105200EF036FE4FF480601E
:10116000009000208DF8040008208DF80500012073
:101170008DF80600684602F0AFFF1CBD1CB50121CA
:1011800020200EF08DF800208DF8040003208DF84B
:10119000050002208DF807004002009069460248D1
:1011A00003F070FF1CBD00000014024008B52820A9
:1011B0008DF800000C208DF8010000208DF8020051
:1011C00001208DF8030068460DF0BCFD08BD1CB57C
:1011D000012188030EF094F8002108460EF0F4FD7A
:1011E0000120009000208DF8040008208DF80500F3
:1011F00001208DF80600684602F06EFF1CBD00005D
:101200001CB5012108460EF04BF800208DF80400B3
:1012100003208DF8050002208DF8070001200090C2
:101220006946024803F02EFF1CBD0000000002408A
:1012300008B506208DF800000C208DF80100002074
:101240008DF8020001208DF8030068460DF07AFD4C
:1012500008BD1CB5012188030EF052F804210220BC
:101260000EF0B2FD1020009000208DF80400082040
:101270008DF8050001208DF80600684602F02CFF6D
:101280001CBD00001CB5012104200EF009F800204F
:101290008DF8040003208DF8050002208DF807006A
:1012A000102000906946024803F0ECFE1CBD0000CF
:1012B0000008024008B50A208DF800000C208DF8C7
:1012C000010000208DF8020001208DF8030068461F
:1012D0000DF038FD08BD00001CB5012108460DF0D9
:1012E000DFFF072209210D4803F014FF07220A211E
:1012F0000A4803F00FFF4FF4C060009002208DF801
:1013000004008DF8050000208DF806008DF8070018
:101310006946024803F0B6FE1CBD00000000024012
:1013200010B50446204600F017F8FFF7D5FF00F08F
:1013300001F810BD08B525208DF800000C208DF8AF
:10134000010000208DF8020001208DF8030068469E
:101350000DF0F8FC08BD00001FB504460121102067
:101360000DF0CEFF00940020ADF80400ADF80600AB
:10137000ADF80800ADF80C000C20ADF80A00694685
:1013800006480FF07BF8012240F2255103480FF088
:101390004FF8012101480FF015F81FBD0010014062
:1013A00010B56FF004000EF0E3FD0A4800680A492A
:1013B000B0FBF1F0094908700846007800EB4001E5
:1013C000C1EBC0104FF6FF7101EAC000044908806C
:1013D00010BD0000F09D002000127A0004000020E3
:1013E0000600002070B504464FF4077094FBF0F03F
:1013F000C6B24FF4077094FBF0F100FB114085B2C8
:1014000005E04FF4077000F009F8701EC6B2002E18
:10141000F7D115B1284600F001F870BD0146114A18
:1014200012884A434FF0E0235A6100229A611A461B
:10143000126942F001021A6100BF4FF0E022106908
:1014400000F001021AB100F48032002AF5D04FF00A
:10145000E022126922F001024FF0E0231A6100221B
:101460009A6170470600002038B504464FF4804169
:101470000E4803F072FEB0B184220421684609F0E0
:1014800062F89DF802009DF8031001F00F0140EA98
:10149000012020809DF800009DF8011040EA012005
:1014A0006080002038BD0120FCE7000000180240E9
:1014B00001B581B045F6C050009008E045F6C05037
:1014C000009000BF0098411E00910028FAD1BDF89D
:1014D0000400411E89B201910028EFD10CBD00002B
:1014E0001CB5012140200DF0DBFE00208DF804002A
:1014F00003208DF8050002208DF8070040030090BE
:101500006946024803F0BEFD1CBD00000018024001
:1015100010B500BF802000F02BF80028FAD1FFF7AB
:10152000DFFF19F07DFF19F0DBFF19F097FF19F0CD
:10153000EEFF1420FFF7BCFF19F0E0FE10BD000025
:1015400010B580200949088000F02EF84020074996
:10155000891E088000F028F840200449088000F027
:1015600023F880200149891E088010BD1A0402401A
:1015700070B504460B48006800F0800080B109484F
:10158000006800F0400058B100F09EF8204600F0DE
:1015900071F800F0C3F8054600F0AEF8284670BDBB
:1015A0000120FCE71004024008B50020009004E090
:1015B0009DF80000401CC0B200909DF800001E285D
:1015C000F6DB08BD1CB5012102200DF069FE0320E9
:1015D0008DF8050001208DF804008DF8060000202C
:1015E0008DF80700402000906946064803F04AFD48
:1015F000802000906946034803F044FD00F07CF829
:101600001CBD00000004024010B58020074908807E
:10161000FFF7CAFF402005490880FFF7C5FF4020BB
:101620000249891C0880FFF7BFFF10BD1804024063
:1016300070B50024002516E06006040E40200C4919
:101640000880FFF7B1FF0A480838006800F0800002
:1016500008B1601CC4B240200549891C0880FFF70E
:10166000A3FF681CC5B2082DE6DB204670BD000054
:101670001804024070B50446002520E004F0800004
:1016800018B180200F49088003E080200D49891C93
:101690000880FFF789FF40200A490880FFF784FF90
:1016A00040200849891C0880072D02D18020891E0E
:1016B00008806006040EFFF777FF681CC5B2082D8E
:1016C000DCDB70BD1804024010B580200949088099
:1016D00040200880FFF768FF80200649891C0880A9
:1016E000FFF762FF40200349891C0880FFF75CFF79
:1016F00010BD00001804024010B580200649088083
:101700004020891E0880FFF74FFF80200249891E74
:101710000880FFF749FF10BD1A04024010B5802071
:101720000C490880FFF740FF40200A490880FFF776
:101730003BFF08480838006800F0800008B1012429
:1017400000E0002440200349891C0880FFF72CFF9B
:10175000204610BD1804024000B59DB0042007903B
:10176000002008900620099001200A9000200B908C
:101770000C900D9004200090002001900820029011
:1017800001200390002004900590069006200E9002
:1017900000200F90109010201190002012901390B4
:1017A0001490159016904FF48050179000201890C8
:1017B00019901A90CDF86CD007A81C900EA803F0D1
:1017C000CDFB0121062003F0AFFB1DB000BD0000E2
:1017D0001CB5012108460DF073FD012178200DF0A4
:1017E0005FFD0C220021574803F094FC0C220121DC
:1017F000544803F08FFC0C220421524803F08AFC69
:101800000C2205214F4803F085FC0C2208214D488D
:1018100003F080FC0C2209214A4803F07BFC0C22D7
:101820000A21484803F076FC0C220E21454803F0BB
:1018300071FC0C220F21434803F06CFC4CF2337016
:10184000009002208DF8040003208DF80500002090
:101850008DF806008DF8070069463A4803F012FC3F
:101860000C220721384803F055FC0C220821364889
:1018700003F050FC0C220921334803F04BFC0C22EE
:101880000A21314803F046FC0C220B212E4803F0BC
:1018900041FC0C2211462C4803F03CFC0C220D218B
:1018A000294803F037FC0C220E21274803F032FCB4
:1018B0000C220F21244803F02DFC4FF6807000907D
:1018C0006946214803F0DEFB0C2201211F4803F08A
:1018D00021FC0C2202211D4803F01CFC0C220321D8
:1018E0001A4803F017FC0C220F21184803F012FCD1
:1018F0000C220E21154803F00DFC4CF20E00009056
:101900006946124803F0BEFB0C220121104803F087
:1019100001FC0C2200210E4803F0FCFB0320009088
:1019200069460B4803F0AEFB0C221146084803F051
:10193000F1FB4FF4805000906946054803F0A2FB8C
:101940001CBD0000000C02400010024000140240C8
:101950000018024010B5FFF73BFFFFF7FDFE10BD7A
:1019600006E04FF0D8435B5A20F8023B891C521E18
:10197000002AF6D1704710B506E030F8024B4FF060
:10198000D8435C52891C521E002AF6D110BD0000BB
:1019900010B500F06FF84FF4F070344908804FF440
:1019A00048703349088088200DF05CFC0DF05FFA28
:1019B0000B200DF05DFC0DF04FFA89200DF052FC6C
:1019C0000DF055FA02200DF053FC0DF045FA0A21F6
:1019D00010200DF053FC812104200DF04FFC0DF080
:1019E0003BFA632114200DF049FC002115200DF075
:1019F00045FC032116200DF041FC032117200DF0BA
:101A00003DFC0B2118200DF039FCDF2119200DF0D1
:101A100035FC01211A200DF031FC1F211B200DF097
:101A20002DFC00211C200DF029FC16211D200DF09D
:101A300025FC00211E200DF021FC01211F200DF0AE
:101A40001DFC802101200DF019FC00200DF066FB2B
:101A5000002141200DF012FC05480388034802884C
:101A6000002108460DF0A8FB10BD0000E49D0020F9
:101A7000E69D00207047000000B599B00121782054
:101A80000DF00EFC012108460DF01AFC4CF203701B
:101A9000019002208DF8080000208DF80A00032034
:101AA0008DF8090001208DF80B0001A9974803F07B
:101AB000E9FA0C220021954803F02CFB0C220121AD
:101AC000924803F027FB0C220821904803F022FBE8
:101AD0000C2209218D4803F01DFB0C220A218B48A2
:101AE00003F018FB0C220E21884803F013FB0C2294
:101AF0000F21864803F00EFB4FF68070019001A97C
:101B0000834803F0BFFA0C220721814803F002FB4F
:101B10000C2208217E4803F0FDFA0C2209217C48A2
:101B200003F0F8FA0C220A21794803F0F3FA0C22A8
:101B30000B21774803F0EEFA0C221146744803F0AB
:101B4000E9FA0C220D21724803F0E4FA0C220E216E
:101B50006F4803F0DFFA0C220F216D4803F0DAFA28
:101B60004FF23F00019001A96A4803F08BFA0C2262
:101B70000021684803F0CEFA0C220121654803F0E9
:101B8000C9FA0C220221634803F0C4FA0C22032193
:101B9000604803F0BFFA0C2204215E4803F0BAFA51
:101BA0000C2205215B4803F0B5FA0C221146594876
:101BB00003F0B0FA0C220D21564803F0ABFA0C22C8
:101BC0000E21544803F0A6FA0C220F21514803F0CD
:101BD000A1FA3F20019001A94F4803F053FA0C22CB
:101BE00000214D4803F096FA0C2201214A4803F0E7
:101BF00091FA0C220221484803F08CFA0C220321AE
:101C0000454803F087FA0C220421434803F082FA86
:101C10000C220521404803F07DFA4FF460500190FA
:101C200001A93A4803F02EFA0C220B21374803F0A1
:101C300071FA0C221146354803F06CFA0C220D2182
:101C4000324803F067FA3020019001A92F4803F0D1
:101C500019FA0C2204212D4803F05CFA0C2205210C
:101C60002A4803F057FA4FF40070019001A92A485E
:101C700003F008FA0C220921274803F04BFA03204D
:101C8000019001A9224803F0FDF90C22002120480F
:101C900003F040FA0C2201211D4803F03BFA4FF4F7
:101CA0008050019001A91C4803F0ECF90C22114668
:101CB000194803F02FFA00200390049008200590A3
:101CC0000020069007900890099002200A900020BA
:101CD0000B900C9010200D9000200E9010900F9003
:101CE000119012904FF48050139000201490159092
:101CF000169003A8179018900AA803F02FF9012155
:101D0000022003F011F919B000BD0000000C0240E0
:101D100000100240001402400018024010B540219B
:101D2000074803F01AFA48B1402002F0CFF900F05A
:101D30003CF80446214603480EF00FFC10BD00009D
:101D4000001402400010014000B585B0012004904D
:101D50008320039003200290242001900020009013
:101D6000FFF7C4F8FFF7AAF8FFF7D8F8012241F20D
:101D70000C0103A8FFF7FFFD0122110301A8FFF7E3
:101D8000FAFD012241F204016846FFF7F4FD012249
:101D900041F20C0102A8FFF7EEFD012241F204011D
:101DA00004A8FFF7E8FD05B000BD08B50122110346
:101DB0006846FFF7D5FDBDF8000008BD704700B5C7
:101DC00085B00120049083200390032002902420FA
:101DD000019000200090FFF7CBF8FFF7B0F8FFF775
:101DE000DFF8012241F20C2103A8FFF7C4FD012214
:101DF0004FF4905101A8FFF7BEFD012241F20421EA
:101E00006846FFF7B8FD012241F20C2102A8FFF756
:101E1000B2FD012241F2042104A8FFF7ACFD05B098
:101E200000BD000010B54FF48071084803F095F92B
:101E300050B14FF4807002F049F900F03DF80446CB
:101E4000214603480EF089FB10BD0000001402403B
:101E50000010014000B585B001200490832003905C
:101E6000032002902420019000200090FFF7C2F888
:101E7000FFF7A7F8FFF7D6F8012241F20C4103A8BB
:101E8000FFF779FD01224FF4A05101A8FFF773FD80
:101E9000012241F204416846FFF76DFD012241F243
:101EA0000C4102A8FFF767FD012241F2044104A89A
:101EB000FFF761FD05B000BD08B501224FF4A05148
:101EC0006846FFF74DFDBDF8000008BD70B54FF442
:101ED00000714E4803F041F9002871D04FF40070B2
:101EE00002F0F4F800F0D2F8C4B24948006818B122
:101EF00000204749086070BD46480068072815D291
:101F0000DFE800F08004152735415F0000204249DA
:101F10000870AA2C0AD1084601780078401C3E4A75
:101F200010703E48445402203A4908606AE0BB2CD5
:101F30000BD1394801780078401C374A1070374877
:101F4000445403203349086002E00120314908600D
:101F500058E033480470304801780078401C2E4A1D
:101F600010702E48445404202A4908604AE02A4848
:101F700001780078401C284A1070284844540520F5
:101F8000244908603EE0244801780078401C224A39
:101F900010702248445410460078401E1F49085CC7
:101FA000AA2802D101201A4908601B4801781C4860
:101FB0000078C01C814202D106201649086021E049
:101FC00021E001201349086014480679052504E042
:101FD0001248405D4640681CC5B211480078C01CDC
:101FE000A842F5DC00200E490870A6420AD10A4832
:101FF00001780078401C084A1070084844540120B9
:102000000849087000BF00BF75E7000000140240D7
:10201000EC9D0020FC9E0020F99E002026A90020B7
:10202000FA9E0020F89E002000B585B001200490A3
:102030008320039003200290242001900020009030
:10204000FFF71AF8FEF7FFFFFFF72EF8012241F223
:102050000C6103A8FFF78FFC01224FF4B05101A8D7
:10206000FFF789FC012241F204616846FFF783FC17
:10207000012241F20C6102A8FFF77DFC012241F22E
:10208000046104A8FFF777FC05B000BD08B5012284
:102090004FF4B0516846FFF763FCBDF8000008BD7F
:1020A00001B501224FF4B0516846FFF764FC08BD4A
:1020B00010B50221074803F050F848B1022002F0A1
:1020C00005F800F03DF80446214603480EF045FAB5
:1020D00010BD0000000002400010014000B585B0B6
:1020E000012004908320039003200290242001907B
:1020F00000200090FFF702F8FEF7E7FFFFF714F863
:10210000012241F60C0103A8FFF735FC01224FF430
:10211000C05101A8FFF72FFC012241F604016846D7
:10212000FFF729FC012241F60C0102A8FFF723FC6E
:10213000012241F6040104A8FFF71DFC05B000BD13
:1021400008B501224FF4C0516846FFF709FCBDF8FD
:10215000000008BD10B54FF48061084802F0FDFF93
:1021600050B14FF4806001F0B1FF00F03DF804463B
:10217000214603480EF0F1F910BD000000140240A2
:102180000010014000B585B0012004908320039029
:10219000032002902420019000200090FEF7EEFF23
:1021A000FEF7D3FFFFF702F8012241F60C2103A846
:1021B000FFF7E1FB01224FF4D05101A8FFF7DBFB51
:1021C000012241F604216846FFF7D5FB012241F6C2
:1021D0000C2102A8FFF7CFFB012241F6042104A83D
:1021E000FFF7C9FB05B000BD08B501224FF4D0517F
:1021F0006846FFF7B5FBBDF8000008BD10B501212A
:10220000074802F0AAFF48B1012001F05FFF00F08B
:102210003DF80446214603480EF09FF910BD00002A
:10222000000002400010014000B585B0012004907C
:10223000832003900320029024200190002000902E
:10224000FEF7DEFFFEF7C3FFFEF7F2FF012241F6C5
:102250000C4103A8FFF78FFB01224FF4E05101A8C6
:10226000FFF789FB012241F604416846FFF783FB33
:10227000012241F60C4102A8FFF77DFB012241F645
:10228000044104A8FFF777FB05B000BD08B50122A3
:102290004FF4E0516846FFF763FBBDF8000008BD4E
:1022A00010B51021074802F058FF48B1102001F086
:1022B0000DFF00F03DF80446214603480EF04DF9AD
:1022C00010BD0000000802400010014000B585B0BC
:1022D0000120049083200390032002902420019089
:1022E00000200090FEF7CEFFFEF7B3FFFEF7E2FFFF
:1022F000012241F60C6103A8FFF73DFB01224FF4D8
:10230000F05101A8FFF737FB012241F6046168464E
:10231000FFF731FB012241F60C6102A8FFF72BFB0E
:10232000012241F6046104A8FFF725FB05B000BDBA
:1023300008B501224FF4F0516846FFF711FBBDF8D4
:10234000000008BD10B5FFF7FFFCFFF738FDFFF7F1
:1023500081FDFFF769FEFFF7C1FEFFF713FFFFF7EF
:1023600063FFFFF7B3FF10BD10B5FFF711FB0020AF
:1023700009F006F9002008F06DFB10BD10B5044609
:1023800000F004F8204600F011F810BD08B51C203C
:102390008DF8000000208DF801008DF8020001206A
:1023A0008DF8030068460CF0CDFC08BD3EB5044630
:1023B000012108460CF094FF601E01905320ADF8F7
:1023C00000000020ADF80800ADF8020069464FF0AB
:1023D00080400DF0A3FF0122114690070DF094FFFD
:1023E000012188070DF073FF3EBD000008B5684667
:1023F000FFF73AF888B90A4800880A4908800A486D
:1024000000880A490880BDF8000005490880BDF829
:10241000020005490880002008BD0120FCE70000FB
:10242000D09D0020D49D0020D29D0020D69D00206C
:102430001CB5012102200CF033FF07220A210D48B0
:1024400002F068FE07220B210A4802F063FE4FF4F7
:102450004060009002208DF804008DF805000020F7
:102460008DF806008DF807006946024802F00AFE62
:102470001CBD00000004024010B50446204600F0D8
:1024800017F8FFF7D5FF00F001F810BD08B52720B9
:102490008DF800000D208DF8010000208DF802005D
:1024A00001208DF8030068460CF04CFC08BD0000CC
:1024B0001FB50446012188040CF012FF009400208F
:1024C000ADF80400ADF80600ADF80800ADF80C005A
:1024D0000C20ADF80A00694609480DF0CFFF012233
:1024E00040F2255106480DF0A3FF012240F224419D
:1024F00003480DF09DFF012101480DF063FF1FBD52
:102500000048004010B50446214651200CF0B6FEAC
:1025100010BD2DE9F04105460C4616461F46DDF874
:102520001880E9B258200CF0A9FE291259200CF0AD
:10253000A5FEE1B25A200CF0A1FEB8F1000F04D1C3
:1025400021125B200CF09AFE05E0802040EA242155
:102550005B200CF093FEF9B25C200CF08FFE391278
:102560005D200CF08BFEF1B25E200CF087FE311284
:102570005F200CF083FEBDE8F081000010B5012063
:102580000449087050200CF06DFE80200CF070FEA5
:1025900010BD0000D89D002010B5002406E00CF00E
:1025A00089FD00F0400000B903E0641C0348844248
:1025B000F5D300BF00200249087010BD801A060044
:1025C000D89D002038B544680546014620460DF0E8
:1025D000E0FF002808BF38BD464A286811280DD002
:1025E00006DC0B282AD00E2838D00F2817D07CE024
:1025F000282873D0B0F5107F0AD076E09268002AC0
:1026000008BF38BD294601B02046BDE8304010471C
:10261000526801B029462046BDE8304010472546A3
:10262000204603F07DF80090406E0468684603F091
:10263000FDF8002C1CBF2846A04738BD204603F0FB
:102640006FF80090683002F085FF009803216C302D
:1026500002F0A6FF684603F0E9F846E0E96848683A
:1026600009680D2902D0202918D037E0002835DD6F
:102670004FF4807120460EF04AF8204603F050F8DF
:10268000009090F82850684603F0D0F815F0020F3B
:102690001ED0012120460FF006FE19E0002817DDAC
:1026A00025464FF4807120460EF031F8284603F09D
:1026B00037F8009090F82840684603F0B7F814F017
:1026C000020F08BF38BD012128460FF0ECFD38BDD0
:1026D0002046BDE83840022115F066BAE86820B906
:1026E00020464FF480710DF03EFF2846BDE838408B
:1026F0000EF0B4BCD49F002070B5044686B080694B
:10270000B4F908C0658A00260091CDE90165CDE9DC
:1027100003C0B4F90C00B4F91050C118B4F90A00A0
:10272000B4F90EC010442B46624600F007F8054687
:10273000616800F09CF906B0284670BD2DE9F043B1
:1027400085B00D46DDE90F61DDE90C4C154F4C31CC
:10275000CDE90271CDE9004C29460EF0CDFB050014
:102760001BD002F0DDFF1022314604900EF05CF920
:102770000D4C0499B4E8CD133431A1E8CD1394E89D
:102780000D10A1E80D1054F82C0D086004A803F0FA
:102790004DF8206841682846884705B02846BDE8BE
:1027A000F0830000C5250008E09F0020F0B5044636
:1027B00080688C4989B051F820506068002800F08A
:1027C0000A81052806D006287DD0122800F0B480A2
:1027D00000F004B9E869002808BF002651D0D5E907
:1027E0000012AB688DE80F0004F110010FC907F06B
:1027F000BFF8002655F8260005F074FFA169E869C6
:102800000A1A216901446069304403F055FFA16947
:10281000E8690A1A21690144E069801B03F04CFF52
:10282000E169E8690A1A616901442069304403F0EA
:10283000D7FFE169E8690A1A61690144A069801B50
:1028400003F0CEFF761C022ED4DBA86805F04AFF09
:10285000E069E969D4F814C0431A20694218614458
:10286000801C521E04F04CF8E169E869A2690B1A59
:1028700061690144101A401C921E04F041F8EE698F
:1028800011E055F8260005F02DFFE069831BA069D3
:10289000821B606981192069304403F05DFF761C5A
:1028A000022EEEDB0226D5E90301CDE90001E16944
:1028B000606901444B10A1698A1B811C2069304466
:1028C00003F0F6FD00E011E0D5E90501CDE90001D6
:1028D000E0696169831E01440122A06902EB610184
:1028E000821B2069304403F0E3FD77E0206802F0AA
:1028F00017FF0490206810F073FE50B1A068002804
:1029000018BF00200AD10498006F002818BF0120CA
:1029100004E00498406F002818BF0220049901EBDE
:102920008000C56E04A802F081FF00231A462846E5
:10293000216803F063FA51E0206802F0F1FE049090
:10294000866E002E08BF04A842D0A168B0F95C7062
:10295000002908BF012103D003290CBF0221002157
:1029600000EB8101406D0C6C05F0C0FE204605F0C7
:10297000B9FE06A804F06EF8BDF81810A88B014443
:10298000ADF81810BDF81C10081AADF81C00BDF801
:102990001A00801CADF81A00BDF81E00801EADF8AC
:1029A0001E000498B0F96020B0F95E1006A805F08A
:1029B00081FA04A802F03AFF022005F0D7FE304663
:1029C00002F0AEFE3A4606A9059003F0F3FA05A818
:1029D00002F02CFF02E020680FF0A6FF09B00020F3
:1029E000F0BD0000A8E80108F0B583B016460D461A
:1029F000002804BF03B0F0BD02F092FE0190806E8B
:102A00000027002808BF2F7011D002F089FE009027
:102A1000FDF7D6FD0446701E84420DDC2246284692
:102A20000099FDF7ECFD684602F000FF2F5501A864
:102A300002F0FCFE03B0F0BD0446EFE700294FF0C2
:102A4000100101D00DF063BE0DF08DBD002808BF50
:102A5000704738B50C46054602F062FE00904465AA
:102A6000684602F0E3FE28460FF02CFB38BDF0B5B7
:102A700083B00F4605004FF001041CD002F050FE59
:102A80000190866E01A8009602F0D0FE3946684695
:102A900007F0B6FB78B100980024B04208D0284671
:102AA00002F03EFE01900099816601A802F0BEFE90
:102AB00028460FF007FB03B02046F0BD00BFFEE73D
:102AC0007CB50EF007FE0546002000902B46044A18
:102AD0000E210190034803F04DF8044620467CBDCA
:102AE00075910108ECC801087CB50EF0F3FD0546B0
:102AF000002000902B46044A0D210190034803F06A
:102B000039F8044620467CBDE5990108B0C20108A9
:102B10007CB50EF0DFFD0546002000902B46044AF0
:102B20000D210190034803F025F8044620467CBDA2
:102B3000B1A601081CC401087CB50EF0CBFD05460A
:102B4000002000902B46044A0D210190034803F019
:102B500011F8044620467CBDEDAA010888C501088D
:102B60007CB50EF0B7FD0546002000902B46044AC8
:102B700012210190034802F0FDFF044620467CBD6F
:102B8000D9AE0108F4C601082DE9F04389B0002848
:102B900004BF09B0BDE8F08311296FD013295DD0BF
:102BA00007460C4602F0BCFD0290C06B02F0D5FE59
:102BB000804602A802F03AFEA4F14100192898BF0D
:102BC0002034A1460024B8F1000FDCBF09B0BDE8F5
:102BD000F0830025384602F0A3FD0590C06B214626
:102BE00002F0C7FE064605A802F020FE1EB13046E0
:102BF00002F096FD05460395002D57D02878A0F1E8
:102C00004101192998BF2030C5B203A802F00EFE79
:102C10004D454BD1002F04BF09B0BDE8F0833846C5
:102C200002F07EFD0190C06B02F097FE002818BFF5
:102C3000401E844240DC0198B0F93410A1422FD0EC
:102C4000848601A802F0F2FD38460FF03BFA042119
:102C500038460FF028FB09B0BDE8F083044602F0C7
:102C60005FFD0090B0F93450684602F0DFFD09B016
:102C7000691C2046BDE8F04300F034BC044602F075
:102C80004FFD0190B0F9345001A802F0CFFD2900AA
:102C900018BF691E204609B0BDE8F04300F022BC11
:102CA00001A802F0C3FD09B0BDE8F083641C4445EF
:102CB0008FDB09B0BDE8F0830446BCE7002814BFF1
:102CC00000297047F8B50C46054602F029FD009032
:102CD000C66B684602F0AAFD2046FDF771FC421C57
:102CE0002146304602F0C8FD28460FF0EBF9F8BD4A
:102CF000F0B54468054685B0204602F011FD01900C
:102D0000D0F8886001A802F091FD002E14BF0127C1
:102D10000027294620460DF03CFC002804BF05B0E2
:102D2000F0BD286811286AD006DC0B2877D00E2861
:102D300076D00F2875D0C8E00027212805D0262896
:102D40002BD0B0F5107F60D0BFE0E8684168002963
:102D50003FDD00680D283CD1304609F023FC0028F7
:102D600006DB304609F01EFC0146204600F0BAFBA7
:102D7000002C71D0204602F0D3FC0290D0F88800DD
:102D800038B10EF0A1F90298C0F8887020460FF013
:102D900099F902A802F04AFD94E0E868012809D0F8
:102DA0000A2802D00B2815D08FE00A2120460FF008
:102DB0007AFA8AE0304609F0F5FB002809DB304654
:102DC00009F0F0FB0146204600F08CFB20460FF096
:102DD000CFFC7AE0002C78D0204602F0A1FC0090D5
:102DE000D0F8880038B10EF06FF90098C0F88870FC
:102DF00020460FF067F9684602F018FD65E0002FE5
:102E000063D1E868007A40BB5FE0E86878B1007A97
:102E100040B1012120460FF046FA05B0F0BD1DE09B
:102E200031E009E0022120460FF03DFAF5E70321E9
:102E300020460FF038FAF0E72646204602F070FCF4
:102E40000290D0F88400046802A802F0EFFC002C85
:102E50001CBF3046A04738E034E02BE0204602F0AB
:102E60005FFC0090C06B02F049FD0098D0F888002C
:102E70000EF02AF90098D0F8940002F039FB684669
:102E800002F0D4FC21E0E868416800291DDD0168FA
:102E900020290FD009DC092910D00A2918BF1B29C5
:102EA00013D02046FFF770FEB7E7212918BF22296B
:102EB000F7D10AE0204600F0C5F906E00EF056FC16
:102EC000B04202D120460FF053FC28460EF0C6F85F
:102ED000A3E7002808BF704738B5044602F020FC7D
:102EE0000090D0F8880040B10EF0EEF80099002074
:102EF000C1F8880020460FF0E5F8684602F096FC1D
:102F000038BD70B586B0B0F90840458AD0F818C011
:102F10000026CDE90254CDE90016CDF810C0B0F975
:102F20000C10B0F91040B0F90EC0B0F90A00194405
:102F300010442346624600F003F806B070BD00005E
:102F40002DE9F04784B00DF130081E460D4698E893
:102F50009A10DFF8B8800CF16C0C8DE80A114FF074
:102F6000FF3329460DF0C8FF05004BD002F0D8FB17
:102F70001022394600900DF057FD009880F88C40E3
:102F8000234C4C30B4E88E17A0E88E1794E88E11CD
:102F9000A0E88E1154F8241D40F88419002180F80F
:102FA0009010C686284602F0BBFB0190B0F938109D
:102FB00019B9C06C03F0EEFD01460198C26AB0F980
:102FC0008030126801EB4301561810F033F90746C0
:102FD00001A802F02BFC3246394628460FF034FD9A
:102FE000684602F023FC02F086FC0646284602F002
:102FF00097FB0090C663684602F018FC20684168A1
:103000002846884704B02846BDE8F087F12C000820
:1030100014A000202DE9F041044688B0006802F0B9
:103020007FFB0690468ED0F8885006A802F0FEFB83
:10303000002D18BF012506F00106206810F0D0FA17
:10304000002D18BF00200FD07D4951F82050606836
:10305000002800F0EE80022800F0CE8005280CD079
:1030600012287DD000F0E8B8002E18BF0120EBD167
:10307000002814BF02200320E6E7D5E90123A86A4F
:1030800029688DE80F0004F110000FC806F070FCED
:103090005FF0000655F8260005F024FBA169A86A38
:1030A0000A1A216901446069304403F005FBA169F3
:1030B000A86A0A1A21690144E069801B03F0FCFA3E
:1030C000E169A86A0A1A616901442069304403F081
:1030D00087FBE169A86A0A1A61690144A069801B3B
:1030E00003F07EFB761C022ED4DBA86A02281BDDCF
:1030F000A86805F0F7FAE169A86AD4F810C00B1ABD
:103100000CEB00014A1E616901440CF1020003F05E
:10311000F7FBE169A86AA2690B1A61690144101AF8
:10312000401C921E03F0ECFBD5E90301CDE9000140
:10313000E1696069A26901444B10A96AD4F810C022
:10314000521A8C44811C604603F0B2F9D5E905019E
:10315000CDE90001A069AB6A6169C21AE06900E0CB
:1031600019E001444FF0010C0CEB6101D4F810C0E0
:103170009C44831E604603F09BF9686A05F0B2FA2E
:10318000E2696169A369501A181A401C091D121FCF
:1031900003F026FB50E0206802F0C2FA0090B0F87D
:1031A0008060B0F98280C76C684602F03FFB208ADD
:1031B000B11C0844ADF80800A08A801CADF80A00D4
:1031C000A08BA18A401A218B891B081AC01EADF85A
:1031D0000C00A08B801EADF80E00022005F0C6FA90
:1031E000384605F083FA286A05F07CFA424602A9BF
:1031F000206A02F0DFFE1FE06169E0694FF0FF32F4
:10320000401AA0F1080102EB6106411CA269801B73
:103210004410A2EB6107E86905F064FA002E0BDBAD
:10322000BA19B91B204603F047FA641C761EF7D57D
:1032300002E020680FF078FB08B00020BDE8F081C4
:10324000B8E80108002808BF70472DE9F04F9DB08D
:10325000064602F065FA0E9030460EF0DEFB82461E
:103260000E98B0F9367090F89010099190F88C8013
:10327000D0F83C90B0F934000690484602F06DFB5F
:1032800004460E98B0F88E100C91B0F98210079198
:10329000C16C0891D0E90012CDE90412D0F8945025
:1032A000016D1091416D1191816D1291C16D13915C
:1032B000016E1491416E1591016F1691416F179136
:1032C000806F18900EA802F0B1FA30460EF0EDFAB9
:1032D00002F026FA0D90D0F800B00DA802F0A6FA80
:1032E0004FEA2B4042420FFA8BF0414204A804F00F
:1032F000E1FD18F0020F1ABFBDF81200C01BBDF8A7
:103300001600ADF8120030460EF0CFFA0221CDF8CB
:1033100000A0CDE901710146BDF91230BDF91020C0
:10332000002009F0D0F8074618F0010F07D0384602
:10333000099909F0C0FB0121384609F0EFFA4FF076
:103340000008002C0BD94146484602F012FB01460A
:10335000384608F0EFFD08F101084445F3D8002491
:103360000DF14008214658F82420384609F0FFFAAC
:10337000641C032CF6D300240DF14C08214658F8A8
:103380002420384609F0A9FC641C032CF6D3002441
:103390000DF15808214658F82420384609F06EFBF4
:1033A000641C032CF6D315B3284602F0B9F90F902C
:1033B00030F8028B00240546B8F1000FC8BF4FF06B
:1033C000010911DD05EBD40004F00701007809FACA
:1033D00001F1084214BF012200222146384609F0BB
:1033E000F2FA641C4445EDDB0FA802F01FFA3846E0
:1033F0000C9909F01DFB3846089909F0CEFA3846B9
:10340000079909F058FC38460FF0B2F931463846B2
:1034100009F022FB3846069909F067FB0121304686
:103420000EF041FF304602F07BF90E90C0F8887034
:103430000EA802F0FBF91DB0BDE8F08F38B50024EE
:1034400038B102F06DF90090B0F93440684602F0EE
:10345000EDF9204638BD002808BF7047F8B50C4686
:10346000074602F05DF90090D0F88850C06C03F078
:1034700091FB06460098C464684602F0D7F93846C6
:1034800000F07DF838460EF01DFE002D08BFF8BD97
:10349000204603F07FFBB04205D03846FFF719FD08
:1034A0003846FFF7CFFE2146284609F076FAF8BDE8
:1034B000F8B50C46002698B102F032F90090B0F948
:1034C0003660D0F88850C486684602F0AFF93DB146
:1034D00028460EF0A2FA0146224628460FF0B4FA1A
:1034E0003046F8BD38B50C46050008BF38BD02F0BF
:1034F00017F90090C06B02F030FA002818BF401E88
:10350000844214DC0098B0F93410A1420BD08486B8
:10351000684602F08BF928460EF0D4FD04212846B7
:103520000EF0C1FE38BD684602F080F938BD044691
:10353000E8E7002808BF704738B50C46054602F09A
:10354000EFF80090A0F88240684602F06FF9284634
:103550000EF0B8FD38BD002808BF704738B50C46DE
:10356000054602F0DDF800900487684602F05EF937
:10357000284600F004F828460EF0A4FD38BDF8B542
:10358000044602F0CDF801460090B0F9380000285A
:1035900004BFC86C03F0FEFA0099CA6AB1F9803022
:1035A000126800EB4300151808460FF043FE06466C
:1035B000684602F03BF92A46314620460FF044FAAD
:1035C000F8BD38B50D46002402F0AAF80090C06B93
:1035D000294602F0CEF90546684602F027F91DB1EA
:1035E000284602F09DF80446204638BD704700008A
:1035F0002DE9F04105468846002600240FE01A49CF
:10360000085DFEF74DFD042C04DB072C02DC164898
:10361000005D46400120FDF7E5FE601CC4B2082CA9
:10362000EDDB08EB8507B8B2FEF73AFD86EA070046
:10363000C6B20120FDF7D6FE3046FEF731FD1E2052
:10364000FDF7D0FE0948007840B10948007A28B952
:103650000020064908700120BDE8F08100200349E0
:10366000087000BFF8E70000D09E0020F89E002000
:1036700026A90020002808BF70472DE9F04F91B01F
:103680000E46044602F04CF8039090F854A0D0F88F
:103690003490876DC56C03A802F0C8F827B1314695
:1036A0002046B84700F0B8B901274FF00008122EA5
:1036B00075D006DC082E73D0102E72D0112E3DD09E
:1036C00006E0132E70D01D2E00F0F3801E2E6AD05F
:1036D000202EC0F2A181BAF1000F00F00181204636
:1036E00002F01EF80590D0F834A0D0F84C9005A850
:1036F00002F09CF8BAF1000F00F0F280504602F0A0
:103700000FF882464946069005F028FA8146504651
:10371000FCF756FF484540F2E080D144484605F0AA
:10372000D9F909EB00014846FCF726FF06A802F08C
:103730007DF8052120460EF0B6FDD1E0B9F1000F6D
:1037400000F06A81484601F0EBFF064629460490E6
:1037500005F004FA0644304605F0B6F90546CDF802
:10376000088005F0C5F90746681C1FFA80F8404636
:1037700005F0BEF90546AF420CD1414602A805F05E
:103780009DF92A4602A93046FCF739FF052120465B
:103790000EF089FD04A802F049F800F03DB92FE0D1
:1037A0003AE033E000E059E0B9F1000F00F0348175
:1037B000484601F0B5FF06462946049005F0CEF9CB
:1037C0000644304605F080F90546CDF8088005F03E
:1037D0008FF98046681E87B2384605F089F905469C
:1037E000A845D7D1394602A805F068F92A4602A9AA
:1037F0003046FCF704FF052120460EF054FDC9E7D2
:10380000691C204600F014FC00F006B9691E204631
:1038100000F00EFC00F000B9002D00F0FD80691EE4
:10382000204600F005FC204601F07AFF0190C76CAD
:10383000456B01A801F0FAFF002D00F0ED8028464D
:1038400001F06EFF06463946029005F087F90546FD
:103850003046FCF7B5FEA84229D918E0204601F011
:103860005FFF0190C76C456B01A801F0DFFF002DE1
:103870007ED0284601F054FF06463946029005F0F6
:103880006DF905463046FCF79BFEA8420FD935443A
:10389000284605F01FF929182846FCF76DFE02A8F6
:1038A00001F0C4FF052120460EF0FDFCB4E002A8A3
:1038B00010E0204601F034FF0390BAF1010F08BF79
:1038C00080F8548005D080F854702946204600F0D6
:1038D000AFFB03A801F0AAFF9EE006A801F0A6FF37
:1038E000B0B20890204601F01BFF06460290B0F9E6
:1038F0003800002813DD706B4FF0000940B101F073
:103900000FFF009006F0EEFA8146684601F08EFF48
:10391000B6F9381009F101008842C8BF474602983D
:10392000C06C099002A801F081FF002F74D00898A4
:1039300005F0DEF8074626464FF00009204601F064
:10394000EFFE0590406B40B101F0EAFE0A90FCF7F3
:1039500037FE81460AA801F069FF059907EB0900C7
:10396000498F401A00F1010905A801F05FFF00E04E
:1039700052E0B9F1000F2ADD304609F1100901F0DB
:10398000CFFE0090D0F834B0408F00EB090A6846B3
:1039900001F04CFF5146584601F0D8FE5FEA00099D
:1039A0003AD0BBF1000F07D101F0BAFE0D9080F8BC
:1039B00000800DA801F03AFF304601F0B1FE009002
:1039C000A0F83AA0C0F83490684601F02FFF2046D6
:1039D00001F0A6FE0290466B02A801F027FF3046D8
:1039E00001F09EFE06460F90099905F0B7F80644CF
:1039F0003046FCF7E5FD421CF0193146FCF744FE69
:103A00003046089905F05AF80FA801F00FFF05217C
:103A100020460EF048FCF3E620460EF053FB11B0B2
:103A2000BDE8F08F70B54468054682B020460FF0BF
:103A3000D7FD0646294620460CF0ABFD002804BF02
:103A400002B070BD28680F2836D004DC0B2839D0AE
:103A50000E2842D058E0A0F58070133804D0A0F5AD
:103A600080702D3811D04FE020460EF095FD204695
:103A7000002114F063F9204601F052FE0190C06F5E
:103A800000210EF0E0FC01A824E0E86878B1017A9A
:103A900041B10168204600F035F9012120460EF0C1
:103AA00002FC31E0022120460EF0FDFB2CE0032158
:103AB00020460EF0F8FB27E00121204614F03EF9E5
:103AC00002B070BD204601F02BFE0090343001F0B2
:103AD00041FD684601F0AAFE16E0AEB1E868416813
:103AE000002911DD01681B290ED009DC09291CBF42
:103AF0000A290D2908D02046FFF7BCFD02B070BD91
:103B0000212918BF2229F6D128460DF0A7FA02B0C4
:103B100070BD70B5044686B0D4E9056CB0F90850A4
:103B2000408A0DF1080E8EE861100020CDE90010EA
:103B3000B4F90C00B4F91050C118B4F90A00B4F982
:103B40000EC010442B46624600F008F805001CBF6A
:103B5000618A00F05AFA284606B070BD2DE9F0419E
:103B600086B00F46DDE90C1CDDE910544CF4805C96
:103B70000F9EDFF8B880CDE9001C5834CDE90284EF
:103B800039460DF0B9F904004BD001F0C9FD1022FF
:103B9000314604900CF048FFDFF894C004999CE88B
:103BA000CD1101F1600E8EE8CD11012081F8550094
:103BB000681C18BF012081F88000002DD8BF08259F
:103BC00028B2088700254D87461C04A84D6301F0E4
:103BD0002DFE204601F0A4FD0090476B408F064467
:103BE000684601F023FE3146384601F0AFFD5FEA3A
:103BF000000812D037B901F093FD0190057001A8BB
:103C000001F014FE204601F08BFD00904687C0F8BD
:103C10003480684601F00AFE03E020460DF054FAB5
:103C2000002406B02046BDE8F0810000253A0008D7
:103C30004CA0002038B5040008BF38BD72B1002385
:103C40000A4619460DF02CF90546204601F068FD9C
:103C50000090C567684601F0E9FD38BD01F060FDE0
:103C60000090C06F0DF01DFA00990020C867204633
:103C70000EF028FA684601F0D9FD38BD10B582B0C3
:103C8000002480B101F04CFD0090406B40B101F088
:103C900047FD019006F026F9044601A801F0C6FD93
:103CA000684601F0C3FD02B0204610BDF0B583B0F8
:103CB00016460D0012BF002803B0F0BD01F030FD24
:103CC000002701902F70406BA8B101F029FD0090F2
:103CD00006F008F90146009804F040FF0446701E03
:103CE00084420DDC224628460099FCF788FC684691
:103CF00001F09CFD2F5501A801F098FD03B0F0BD27
:103D00000446EFE7002808BF70472DE9F04186B070
:103D10000C46074601F004FD0090406B002849D096
:103D200001F0FEFC03900098806E04F0DFFC8046FA
:103D300038460DF072FE0646039802F0C3FE0546B3
:103D4000009890F8601001F00301012918D00229B1
:103D50000FD0416EC06A00680844201A441E0398C0
:103D600006F0C0F8002C11DA0021384600F060F9A6
:103D700017E0701B401C00EBD070A4EB6004EEE772
:103D8000406E711B081A201A441CE8E7A54204DBA8
:103D900002462146039806F02FF80146384600F007
:103DA00047F903A801F042FD404604F09FFC384665
:103DB0000EF088F9684601F039FD06B0BDE8F081E3
:103DC00000294FF0100101D00CF0A1BC0CF0CBBBCE
:103DD000002808BF704738B50C46054601F0A0FC26
:103DE0000090846628460EF06DF9684601F01EFDCD
:103DF00038BD002808BF70472DE9F04385B00C4658
:103E0000054601F08DFC0090B0F93810468F4FF058
:103E10000008A14245D012DD406B80B101F080FC6A
:103E2000019006F05FF8A04206DD2146019804F0FB
:103E300095FE019901F8008001A801F0F7FC6846A1
:103E400001F0F4FCA01B461C284601F069FC02901E
:103E5000D0F83490408F871902A801F0E7FC39466A
:103E6000484601F073FC060013D0B9F1000F07D1EA
:103E700001F056FC039080F8008003A801F0D6FC06
:103E8000284601F04DFC02904787466302A801F0E6
:103E9000CDFC284601F044FC0090048728460EF033
:103EA00011F9684601F0C2FC05B0BDE8F0832DE9C8
:103EB000F04F87B08A4605004FF0000804BF07B0F6
:103EC000BDE8F08F01F02CFC0090B0F93870446B25
:103ED000684601F0ABFC0026BAF1000F7DD054B16A
:103EE000204601F01DFC0190FCF76AFB00F101087F
:103EF00001A801F09BFC504605F0F4FF0446B842CF
:103F00006CDC2146504604F029FE471CA7EB08094B
:103F10004FF00008284601F003FC0390406B40B1CD
:103F200001F0FEFB0590FCF74BFB804605A801F075
:103F30007DFC039909EB0800498F401A00F1010844
:103F400003A801F073FCB8F1000F2ADD284608F140
:103F50001008049501F0E4FB0290D0F834B0408FD3
:103F600000EB080902A801F061FC4946584601F03F
:103F7000EDFB5FEA000840D0BBF1000F06D101F075
:103F8000CFFB0690067006A801F050FC049801F0E3
:103F9000C7FB0290A0F83A90C0F8348002A801F064
:103FA00045FC284601F0BCFB0090406B01F0B8FBDB
:103FB0003A4651460190FCF722FB0198384400F83C
:103FC000016C0098C464B0F938108C4201BF90F8BD
:103FD00054100129611EC16401E007E013E001A84B
:103FE00001F024FC684601F021FC06E00098343022
:103FF00001F0B0FA00984687C66428460EF062F8D1
:1040000007B0BDE8F08F3C467BE7002808BF70474B
:1040100038B50D46044601F083FB009018B10566E3
:1040200020460EF04FF8684601F000FC38BD000055
:1040300010B582B00C4601F073FB0090406BE8B104
:1040400001F06EFB019005F04DFF009991F85420AE
:10405000002A18BF0122002C15DB844215DC00BFAA
:10406000B1F93800801AA04211DBC86CA04218BF19
:10407000CC640020086501A801F0D8FB684601F077
:10408000D5FB02B010BD0024E7E70446E8E7B1F92C
:104090003800841AE9E710B5FEF7B0F810BD10B586
:1040A000FEF758F810BD10B5FEF702F810BD10B5B8
:1040B000FEF7F6F810BD10B5FDF730FEFDF77EFEF9
:1040C000FDF7B0FEFDF702FF10BD000001490860DA
:1040D00070470000143C0140002123498279002AE6
:1040E0003AD00A46126803689A430B461A600A1DC2
:1040F000126803689A430B1D1A60027911440A681A
:1041000003681A430A60184A0832126803689A431F
:10411000154B08331A601A1D126803689A43124B34
:104120000C331A604279102A0ED11A1F12680368E4
:104130001A430D4B08331A601A1D126803681A439C
:10414000094B0C331A600DE00749427911440A68A3
:1041500003681A430A6005E0027911440A6803689B
:104160009A430A6070470000003C01402DE9F04787
:10417000446805468EB00027204601F0D1FA009031
:10418000B0F87CA0D0F86890D0F88080D0F8886033
:10419000C06D002818BF0768684601F047FB56B19C
:1041A00071682846884700281CBF0EB0BDE8F0871C
:1041B0003668002EF4D12868172802BFC5F80C9085
:1041C0000EB0BDE8F08713DC0F2844D00ADC0B28C2
:1041D00000F04B810D2808BF1AF0080F00F0EE80A8
:1041E00000F04CB9112814D014286FD000F046B953
:1041F00026286CD006DC1E286AD0202800F0E88033
:1042000000F03CB92A2818D0B0F5107F29D000F072
:1042100035B92046EE6801F083FA0190717A0029E1
:1042200004BF317A012905D1B0F87C1041F48071C6
:10423000A0F87C1001A800F0F5B8204601F070FA53
:104240000090E968002912BFC0F88410D0F88400FB
:10425000E860684678E0002F1CBF2046B84700F0B1
:104260000DB927462046EE6801F05AFA0190B0F8E1
:104270007C4001A801F0DAFAE868002804BF0EB01B
:10428000BDE8F087307A20B314F0080F04BF384639
:104290000EF06EFA38460CF097FD14F0100F12BFB6
:1042A00014F4807F0EB0BDE8F087002314F0800F77
:1042B0001CBF0EB0BDE8F08775483146B0F900204C
:1042C00038460EF0D9F90EB0BDE8F0870FE018E0DF
:1042D00024E0384601F024FA0190B0F87C1021F473
:1042E0008071A0F87C1001A801F0A0FAEBE705A905
:1042F000204600F0B6FBDDE90612E8680160426086
:10430000E1E7E8680228DED10C94E8680D902720E8
:104310000A900AA9A8680FF06DFBD4E7E8680128A5
:1043200015D0002CCFD0204601F0FAF90190B0F85A
:104330007C1011F0080F06D021F00801A0F87C10C5
:1043400020460DF0BFFE01A801F070FABBE7404621
:104350000DF02AFF58B140460EF00AFA40460DF023
:10436000B3FD88B1012140460CF0D1F90CE048467C
:104370000EF056FA8046204601F0D2F90090C0F8BF
:104380008080684601F052FA94B1204601F0C8F9E5
:104390000290B0F87C1011F0080F06D141F008012E
:1043A000A0F87C1020460DF08DFE02A801F03EFA28
:1043B000B8F1000F04BF0020E86084E7E868C06837
:1043C00000281FBF007A002820460EF0D1F955E0E2
:1043D000EE684EB3214670680FF0DAF800282746E1
:1043E000204622D001F09CF90490B0F87C1011F026
:1043F000080F06D141F00801A0F87C1038460DF0F6
:1044000061FE04A801F012FA214670680FF0ACF8C2
:1044100050B1204601F084F902907168C0F8801014
:104420000DF1080001F002FA28E001F079F904909A
:10443000B0F87C1011F0080F06D021F00801A0F8A8
:104440007C1038460DF03EFE04A801F0EFF921463D
:1044500030680FF089F888B1204601F061F90290C8
:104460003168C0F8801002A8DCE7204601F058F956
:104470000090703001F06EF86846D3E72946204678
:104480000CF087F800281CBF28460CF0E7FD1AE75F
:10449000B4A2002070B588B0B0F908400DF10C0E40
:1044A0000C9ED0F818C045688EE87010B0F812C0A5
:1044B0000024CDE90014CDF808C0B0F90C10B0F913
:1044C0001040B0F90EC0B0F90A0019441044234658
:1044D000624600F003F808B070BD00002DE9F04F0F
:1044E0008BB00C46DDE91416DDE91758DDF868C01D
:1044F00046F480563C4F0CF1600C8DE8C21021460A
:104500000CF0FAFC04006BD001F00AF930222946C5
:1045100004900CF089FA354F049A07F1080102F172
:10452000340E91E82B1E8EE82B1ED7E90A01C2E952
:104530001501199850661698A2F87C000025C2F85B
:104540008050D566C2F888507868D06504A801F01C
:104550006DF905A9204600F084FA254841F28271E0
:1045600003950094CDE90110BDF91E00BDF91A10A4
:10457000BDF91C20401A431CBDF91800121A521C28
:104580000CF0BAFC0546786841682046884720460A
:1045900001F0C6F80490856604A801F047F942F2DC
:1045A0000400064204BF20460CF05AFE204601F0EB
:1045B000B7F80090006F0190684601F037F9414666
:1045C00001A805F01DFE58B1204601F0A9F80090A1
:1045D00001990167684601F029F920460DF072FD46
:1045E0000BB02046BDE8F08F6D410008B4A200205A
:1045F0001D4E00082DE9F041044698B0006800F017
:10460000BDF9002814BFDB4DDB4D6068152802BFE3
:10461000A86A18B0BDE8F08112DC0B282AD007DCAC
:10462000002800F09281052800F02C8100F09DB94F
:104630000E2800F07781122800F03B8100F095B938
:10464000162802BFE86918B0BDE8F081172802BF3C
:10465000286A18B0BDE8F081182802BF686A18B04F
:10466000BDE8F0811C2802BF686918B0BDE8F08180
:1046700000F07BB920680E901C200F90206801F09C
:104680004FF80390016D0EA88847064603A801F075
:10469000CDF8022E11DBD5E90001AA680292CDE91E
:1046A0000001D4E904023346A16905F065F82069E8
:1046B0008719A069A0EB06082CE0286804F012F81E
:1046C0002169E8690844421E606901F0F5FFA269AA
:1046D000E869101A411C606901F0EEFF6069471C2F
:1046E0003946206902F012F83946A06902F00EF846
:1046F000686803F0F7FF20693946401C02F006F8AD
:10470000A0693946401E02F001F82069871CA069A3
:10471000A0F10208286803F0E5FF424639466069C7
:1047200001F0CAFF686803F0DDFF60694246394660
:10473000401C01F0C1FF686A02287DDDA86803F013
:10474000D1FF60696A6A811C1044431E42463846A4
:1047500002F0D6F86069022EACBF0644861CE06900
:10476000471E286803F0BEFF3A463146206902F032
:1047700037F83A463146A06902F032F8E069871E00
:10478000686803F0AFFF20693A463146401C02F0EA
:1047900027F8A0693A463146401E02F021F8E86940
:1047A0000228DCBF286A022820DDA86A0228C7BFC9
:1047B000E1690F1AE069871EA86803F093FFE969B1
:1047C000022907DD22693B46901C11444A1E3146EE
:1047D00002F096F8286A022808DDA169E8698A1EB5
:1047E000081A3B463146401C02F08AF8286803F05C
:1047F00079FFD4E90620216901F05EFF686803F0C3
:1048000071FFA069421E2069411CE069401E01F051
:1048100053FFA86A02284BDD21698E1CA1698F1EF7
:10482000E169081A441CA1F10208A86803F05AFFC4
:1048300043463A46214600E003E0304602F060F885
:1048400093E0296AB14285DD6069022E00F1020819
:10485000ACBF871947462069ACBF3044801C226931
:104860003B461144A1F10102414602F049F8A0691A
:10487000022EACBF821B821EE9693B46401A4146AC
:10488000401C65E7208A00B2ADF81800A18A09B281
:10489000ADF81A10228B12B2ADF81C20A38B1BB2FC
:1048A000ADF81E30D5E9034CCDE9004C01F000FE17
:1048B0005BE0208A298B0844ADF81800A08AADF887
:1048C0001A00208B298B401AADF81C00A08BADF884
:1048D0001E00206800F024FF0390006FF0B102205A
:1048E00003F044FF039991F87C00C0F3C00001EB92
:1048F0008000006C03F0F6FE0398406B03F0F6FEB8
:104900000398006F00F00CFF03990A90B1F95A2048
:1049100006A901F04FFB0AA800F088FF03A800F0E9
:1049200085FF22E0208AADF81800A08AADF81A00B1
:10493000208BADF81C00A08BADF81E00A86803F01A
:10494000D1FE06A802F008F80FE0206800F0E8FEAB
:104950000390B0F85A1041F00C01A0F85A1003A8C7
:1049600000F064FF20680DF0DFFF18B00020BDE804
:10497000F081000044A4002070A4002038B5002479
:1049800058B100F0CDFE009090F87C0010F0080FB8
:1049900018BF0124684600F049FF204638BDF8B52D
:1049A0000E4605004FF000040CD000F0B9FE009058
:1049B000C06D3146806802682846904704466846C4
:1049C00000F034FF2046F8BD014800687047000041
:1049D000BCA20020002808BF704738B50C4600F084
:1049E0009FFE0090816CA14203D08464806E0DF024
:1049F00069FB684600F01AFF38BD002808BF704701
:104A00002DE9F04182B00E46054600F089FE019086
:104A1000C16D8C6800F0C9F807460198466301A88B
:104A200000F004FF226801212846904706462368CB
:104A3000032128469847804622680021284690474F
:104A40000446284600F0AFF9434632463946284628
:104A5000009400F029F928460DF034FB02B0BDE8BF
:104A6000F0812DE9F04F00278DB00C468146BA4603
:104A700000F056FE0190C06D0121856848462A6805
:104A8000904780462A6803214846904707902A6845
:104A900002214846904706902A68002148469047E0
:104AA000064601980EF0C6FB059001980EF0C9FB72
:104AB0008346019890F8321001F02001002918BFB8
:104AC000B0F958A04FF0000506D0B0F954501DB908
:104AD000406B02F064F8851C0198C06E10B10CF0B8
:104AE000AFFF074625806780A4F8048007990598E2
:104AF000401A06EB0A01401E294420813944E18016
:104B00000699ABEB0101491E6181A4F80C8020825B
:104B10007019E681401E608201A800F087FEB4F99A
:104B20000C70B4F910604D46484600F0F9FD06904F
:104B3000C16DD0F8008006A8D1F8089000F076FE8C
:104B4000D9F80020002128469047814628460CF0DD
:104B5000F8FD050024D000F0E3FD0790B0F9002037
:104B60000FFA88F1B0F90430521A5B1AB0F902104A
:104B7000A1EB284149450BD190F8280010F0800F97
:104B800003D09642A8BF561E02E09F42D8BF5F1CCA
:104B900007A800F04BFE28460CF07FFE0500DAD196
:104BA000A78126820DB0BDE8F08F10B50146002028
:104BB00091F8322012F0200F08BF10BDB1F9540057
:104BC000002818BF10BD486B01F0E9FF801C10BD24
:104BD00070B58AB00E46044600F0A2FD0990C06D83
:104BE000856809A800F022FE0094002E08BF182056
:104BF0000BD0012E08BF162007D0022E08BF1520AB
:104C000003D0032E08BF172000D1019069686846C1
:104C100088470AB070BD2DE9F04383B01746884637
:104C2000814600F07DFD0090C16D056868468C6886
:104C300000F0FCFD226800214846904706464846A1
:104C40000CF07FFD040004BF03B0BDE8F08300F06A
:104C500067FD0190B0F900102AB2B0F90430891A4A
:104C60009A1AB0F90230A3EB2543B34211D190F860
:104C7000280010F0800F05D038688842A4BF481E75
:104C8000386006E0D8F800009042DCBF501CC8F83D
:104C9000000001A800F0CAFD20460CF0FEFD040053
:104CA000D5D103B0BDE8F0832DE9FF4F85B09A461A
:104CB00091460F46DDF848B0059800F031FD0390AD
:104CC000C16D8C68FFF771FF064603A800F0AEFDCA
:104CD00022680121059890470290226803210598D7
:104CE0009047019022680021059890470546BE42F2
:104CF00004BF0298484506D10198504502BF5D4562
:104D000009B0BDE8F08FF41B0027B84605980CF0F9
:104D100018FD060004BF09B0BDE8F08F0198A5EBAF
:104D20000B05AAEB000A0298A0EB0909304600F037
:104D3000F7FC0090806A10F0800F03D010F4007F21
:104D400006D025E010F4007F22D010F0800F1FD194
:104D500024B12246114630460DF0F8FA009890F83A
:104D6000280010F0800F06D004FB17A12A46304619
:104D70007F1C0DF096FA0098008D10F4007F07D08C
:104D800004FB08912A46304608F101080DF089FA23
:104D9000684600F04BFD30460CF07FFD0600C5D1A3
:104DA00009B0BDE8F08F70B586B0064600F0B8FCDB
:104DB0000590D0E91A4505A800F038FD54EA050031
:104DC00004BF06B070BD69463046FFF74AFEACB17D
:104DD000BDF90620BDF9041020460DF01BFABDF9FF
:104DE0000A00BDF90610401A421CBDF90800BDF9C1
:104DF0000410401A411C20460DF026FE002D04BF71
:104E000006B070BDBDF90600BDF90210421ABDF929
:104E1000041028460DF0FEF906B070BD2DE9F043F0
:104E20000446406889B005460CF03FFD814600F01D
:104E300077FC0290D0F88080876C466E02A800F064
:104E4000F5FC2068172862D008DC0E2850D00F2807
:104E500016D0142818BF152859D052E01E2829D082
:104E60001F283ED0222802BFE76009B0BDE8F083CA
:104E7000312801BF0020E06009B0BDE8F08340E0C8
:104E80006FF07040874204D0384606F02DFB00F0EA
:104E900001FE002E04BF09B0BDE8F083D4E9021280
:104EA0002068CDE90405CDE9061204A8B04709B091
:104EB000BDE8F083E068002804BF09B0BDE8F083D6
:104EC000B8F1000F18BFA84505D040460DF050FCC2
:104ED00009B0BDE8F08328460DF0A2FC09B0BDE89A
:104EE000F083214648460BF054FB09B0BDE8F0833F
:104EF000E0684168002904DD00680928EBD00A2831
:104F00000BD0002E1CBF2046C4F80490CED1204602
:104F10000CF0A4F809B0BDE8F08328460DF0CEFCF3
:104F200009B0BDE8F083000051B18200A2F1C04297
:104F3000126842F001038200A2F1C042136009E04E
:104F40008200A2F1C0421268034B1A408300A3F111
:104F5000C0431A6070470000FEFF0F00D0E9011245
:104F60001143C268114302691143426911438269C6
:104F70001143C2691143026A1143426A1143826AB2
:104F80001143C26A1143026B114302689200A2F1FD
:104F9000C0421160816808290BD101688900A1F124
:104FA000C041096841F0400201688900A1F1C04197
:104FB0000A60416B0968426B526841EA0211426B18
:104FC000926841EA0221426B928941EA0241426BB6
:104FD000128A41EA0251426B127D41EA0261426B40
:104FE000926911430268521C9200A2F1C042116002
:104FF000C16AB1F5804F1BD1816B0968826B526821
:1050000041EA0211826B926841EA0221826B128AA4
:1050100041EA0251826B127D41EA0261826B926920
:10502000114302689200A2F1C042C2F8041107E0E5
:105030006FF0704201688900A1F1C041C1F80421FC
:105040007047000010B5002003F04AFB6FF07F406E
:1050500003F048FB012003F077FB002003F07CFB0A
:10506000002003F083FB002003F03EFB04480068AF
:1050700003F03CFBBDE81040002003F043BB000000
:10508000689F0020F0B50A4600210023002400BFDD
:105090003DE0012505FA01F3156805EA03049C4289
:1050A00034D105684F000326BE40B543056015792D
:1050B0004E00B5400668354305601579012D02D0D4
:1050C0001579022D16D185684F000326BE40B543E1
:1050D000856055794E00B5408668354385604568E2
:1050E00001268E40B5434560456896798E40B6B23C
:1050F00035434560C5684F000326BE40B543C560D3
:10510000D5794E00B540C6683543C560491C1029A5
:10511000BFD3F0BDF0B5002300244D07ED0E02FA19
:1051200005F3CE1000F1200555F826504E07F70E76
:105130000F26BE40B543CF1000F1200646F8275099
:10514000CE1000F1200555F8265045EA0304CE1094
:1051500000F1200545F82640F0BD02460020136905
:105160000B400BB1012000E0002070472DE9F04F0B
:105170004B4989B00968B1F922200692D1F81CC0C8
:10518000B1F92470DCF81C40A28982429CBFE389FB
:10519000984205D8A0EB02094FF0FF38266812E0CC
:1051A000D4E90162002A71D0138883429CBF5588DC
:1051B000A8426BD8C01A526880B202EB8000B0F9E6
:1051C0000090B0F90280B9F1FF3F5FD09CF8180061
:1051D000A27C10FB02FB94F810A00790B1F92A50B2
:1051E000284606F0D7F9C0B208902D4809FB0B629B
:1051F0000068A37C4FF00109816BCDE90293CDE9F2
:105200000421C0695246C17E807ECDE90001DDE9FE
:105210000603394605F032FCB8F1FF3F18D045F0DF
:10522000020006F0B7F91E48A37C08FB0B62006879
:10523000816BCDE90293CDE90421C0695246C17E5C
:10524000807ECDE90001DDE90603394605F016FC54
:10525000134E3068C069417E007E814213D9022D11
:1052600011D085F0040006F095F93068C069017E20
:10527000C27E11FB0271427ED319827E06981AFB10
:10528000020205F0D5FD089806F084F90448627C16
:105290000068418C1144418409B0BDE8F08F0000E2
:1052A0006C9F0020044800290068C069C0691CBFC9
:1052B000027C0A60407C70476C9F002002200880BE
:1052C0007047C06982898A429CBFC289914210D9C5
:1052D000806880B102888A429CBF438899420AD87C
:1052E000406800EB8100A0EB8200B0F900000028CC
:1052F00001DB012070470020704700002DE9F043DA
:10530000394D024687B02868B0F92A60C069C16982
:105310001046002904BF07B0BDE8F0830B88834224
:105320009CBF4B88984205D989680029F6D107B0FF
:10533000BDE8F083002904BF07B0BDE8F0834868EA
:105340000988511A00EBC1043046A77806F022F90B
:105350008046286862680123816BCDE90237CDE978
:105360000421C169CB7E8A7ECDE900230B7EB0F992
:1053700024102278B0F9220005F080FB2868C0696B
:10538000417E027E91421FD9C07E11FB00F912FBC3
:1053900000F7022E18D001F062FB064601F042FB36
:1053A00003F0A0F929682278CB69B1F92200DB7EED
:1053B00012FB0302B1F9241001EB0903394405F093
:1053C00037FD304603F08EF9404606F0E3F82868D2
:1053D0006278C369B0F922109B7E12FB03114184ED
:1053E00007B0BDE8F08300006C9F002010B40446B5
:1053F00015480068D0F81CC02046DCF81C2002B319
:10540000138883429CBF5388984203D99268002A2C
:10541000F6D116E0AAB110885368221A012000EBD9
:10542000C2009CF81AC0185C10FB0CF0002904BFE5
:1054300010BC704713F8322012FB0CF20A6010BC4B
:10544000704710BC002070476C9F0020012008802E
:105450007047C06968B102888A429CBF4288914205
:1054600003D980680028F6D103E000281CBF012082
:10547000704700207047002904BF00207047F8B52E
:1054800005460C46084600F013F806000ED000F062
:1054900047F9224600901DB12946FBF7B0F802E01B
:1054A000002104F03BFF684600F0C0F93046F8BD2B
:1054B000002808BF70470EF041BD38B50546FFF71C
:1054C000F7FF040009D000F02BF92A4600210090D4
:1054D00004F024FF684600F0A9F9204638BD00001A
:1054E000024A106021F00300506070479CAA00201F
:1054F000002808BF704770B50E4C0546606B10F869
:105500003510002918BF022928BF70BD042101EB06
:10551000C506815948680EF051FC6068401C606007
:10552000616B606A8851616B002001F8350065622B
:1055300070BD0000DCA90020002808BF7047044AA5
:10554000D16B0160002918BF4860D063704700002C
:10555000DCA900202DE9F041056806460027D5B1F9
:105560000E4C606B10F83510002918BF022912D2BA
:10557000042101EBC50850F8081048680EF01EFC25
:105580006068401C6060616B606A41F80800606B95
:1055900000F8357065623760BDE8F081DCA9002055
:1055A0002DE9F05FB1F1000881464FF00005C6BF5C
:1055B000154F4FF0000ABDE8F09F00BF09EB8506CC
:1055C0003468CCB1786B10F83410002918BF022968
:1055D00012D2042101EBC40B50F80B1048680EF0F6
:1055E000EDFB7868401C7860796B786A41F80B00B5
:1055F000786B00F834A07C626D1CC6F800A04545AD
:10560000DCDBBDE8F09F0000DCA900202DE9F041C3
:10561000044611F06DFFE01C274E20F00300051D2D
:10562000306CA84288BF0546F46BBCB154F8041C2A
:10563000A94210D19CB1206800281CBF616841605C
:10564000606800281CBF21680160F16BA14204BFA3
:105650002068F0632DE02468002CE7D10024F16875
:10566000B06B00EB010858F8040CA8EB0007386891
:1056700040B1002013F09AF958F8040CA8EB000789
:105680003868B0B97868A84213DB3844401B041D61
:10569000384613F061F9F068401BF06070692844E7
:1056A00070617868401B1CBF39460EF087FB44F8D8
:1056B000045C2046BDE8F081DCA9002010B5002480
:1056C00011F016FF0D490F2001EBC002526C8AB198
:1056D00001EBC000406C806848B14168A14288BFBE
:1056E0000C46806800281CBF80680028F5D1A4F112
:1056F0000C0010BD401EE7D5F9E70000DCA9002032
:10570000002140B10549042202EBC000496B085852
:105710004068A0F10C01084670470000DCA9002099
:105720000949CA69521CCA614A6B02EBC00213786C
:105730005B1C1370002808BF7047496B042202EB02
:10574000C000085808307047DCA9002070B5064634
:1057500082B00C460846FFF7ABFE050018BF002ECE
:105760001BD03046FFF7CCFFA042B8BF0446284606
:10577000FFF7D6FF00903046FFF7D2FF01460190B9
:1057800022460098FAF73BFF684600F04FF801A860
:1057900000F04CF83046FFF7ABFE02B0284670BD73
:1057A00010B5002411F0A4FE174B184A0F2000BFBB
:1057B00002EBC001496CD9B102EBC000406C8068BB
:1057C000C0B14168A14288BF0C46806800281CBF58
:1057D00080680028F5D1A4F10C00B0F5800F0CD939
:1057E00083FB00104111A1EBE070116A484310BD2A
:1057F000401EDDD5A4F10C00F2E7116A4843A3FB7B
:105800000010400910BD00001F85EB51DCA90020ED
:105810000549102898BF102004D94A68B0EB520FF0
:1058200028BF5008886070479CAA00200A49026877
:105830004B6B52F8082C03EBC2021378022B04D3F3
:10584000CB69002B1CBF5B1ECB611178491E117008
:105850000021016008467047DCA90020002808BF2D
:1058600070470449042202EBC000496B0858083015
:1058700070470000DCA900202DE9F0414FF0000640
:1058800082B00B465FEA000834462BD032B1114695
:105890001846FFF7F0FD060008BF01244046FFF759
:1058A0003FFF0090078845686846FFF7BFFFCCB907
:1058B000B800011D2846FFF749FF050016D0FFF785
:1058C0002FFF019040F8276001A8FFF7AFFF404687
:1058D000FFF726FF009045600188491C018068465B
:1058E000FFF7A4FF02B02046BDE8F0813046FFF785
:1058F000FFFD0124F6E70820FFF7DFBD002808BF01
:10590000704730B583B00546FFF70AFF0090406846
:10591000D8B1FFF705FF0190009800240088002807
:1059200009DD019800EB8400FFF714FE0098641C69
:105930000088A042F5DC01A8FFF778FF0098001D61
:10594000FFF708FE0099002008806846FFF76EFF09
:105950002846FFF7CDFD03B030BD38B5002430B187
:10596000FFF7DEFE009004886846FFF75FFF2046E1
:1059700038BD30B583B00C46002590B1FFF7D0FE9E
:1059800000900188A14209D9406838B1FFF7C8FEEC
:10599000019050F8245001A8FFF748FF6846FFF730
:1059A00045FF03B0284630BD30B583B00D46002416
:1059B000B8B1FFF7B5FE00900188A9420ED9406842
:1059C00060B1FFF7ADFE019050F8255001A8FFF738
:1059D0002DFF280002D0FFF7A3FE04466846FFF71C
:1059E00025FF03B0204630BD70B506460D4614466F
:1059F000104601F03BF80300154804EB84010AD07F
:105A000050F8210041688068711A2A1ABDE8704078
:105A1000184602F075BE00EB8104A268B24214BFC2
:105A200001220022E368AB4214BF012300231A4382
:105A300008BF70BD236943B150F8210081684068F8
:105A40006A1A311A184602F045FBC4E9026570BDB6
:105A500018AC0020C2B2CBB2D21A48BF524292B2A6
:105A600002FB02F3C0F30722C1F3072CB2EB0C02D6
:105A700048BF524292B2000CA0EB114002FB02322E
:105A800000B20028BCBF404200B280B200FB002040
:105A9000704700002DE9F041002182B0084601F076
:105AA00093F843F6FF763746042005F073FD8046F1
:105AB0001148C068C16C006D8D1B841B0E440744E7
:105AC000ADF80050ADF80460ADF80240ADF80670D6
:105AD00068460DF0BDFB48B13B463246214628469C
